:020000021000EC
:10C000000000012089180200B1180200B3180200D4
:10C01000B5180200B7180200B918020000000000AD
:10C02000000000000000000000000000BB1802003B
:10C03000BD18020000000000BF180200C118020075
:10C04000C3180200C3180200C5230200C31802006F
:10C05000DDFE0100C3180200A5190200C31802008A
:10C06000C3180200C3180200C3180200C31802005C
:10C07000C3180200C3180200C3180200C31802004C
:10C08000C31802004D1A0200C3180200C3180200B0
:10C09000C3180200C3180200C3180200C31802002C
:10C0A000C3180200C3180200C3180200C31802001C
:10C0B000C3180200C31802000000000000000000C6
:10C0C000C3180200C3180200C3180200C3180200FC
:10C0D000C3180200C3180200C318020000000000C9
:10C0E0000000000000000000000000000000000050
:10C0F0000000000000000000000000000000000040
:10C10000000000000000000000000000000000002F
:10C11000000000000000000000000000000000001F
:10C40000044B05481B1A062B02D9044B03B11847ED
:10C41000704700BF63210020602100200000000061
:10C4200005490648091A891001EBD171491002D05B
:10C43000034B03B1184770476021002060210020A2
:10C440000000000010B5064C237843B9FFF7D8FF71
:10C45000044B13B10448AFF300800123237010BDD7
:10C4600060210020000000003468020008B5084B7D
:10C470001BB108490848AFF300800848036813B9A6
:10C48000BDE80840CCE7064B002BF9D09847F7E70A
:10C490000000000064210020346802005C210020BC
:10C4A00000000000154B002B08BF134B9D46A3F561
:10C4B000803A00218B460F461348144A121A06F0A0
:10C4C000F5FD0F4B002B00D098470E4B002B00D0F2
:10C4D00098470020002104000D000D48002802D0DC
:10C4E0000C48AFF3008006F091FD2000290006F013
:10C4F00011F806F065FD00BF0000080000000120F3
:10C50000000000000000000060210020D82600206C
:10C51000000000000000000070B505460C468E18B3
:10C52000B44206D02178284601F0B2FC04F8010B91
:10C53000F6E770BD014A0260416070475C2500204B
:10C54000704770B5044615460E464068002105F058
:10C5500059FB04F108012068267265720222FFF778
:10C56000DBFF60680121BDE8704005F04BBB38B5CA
:10C5700004460D464068002105F044FB214665F065
:10C580007F0501F8085F02222068FFF7C5FF606899
:10C59000012105F037FB607A38BD10B50446012152
:10C5A000406805F00DFB0121606805F02BFB206859
:10C5B00001F058FC0F212046FFF7D9FF032819D1BD
:10C5C00041221A212046FFF7BCFF02221F212046EC
:10C5D000FFF7B7FFD8221C212046FFF7B2FF012248
:10C5E00027212046FFF7ADFF2046C1221B21FFF780
:10C5F000A8FF002010BD000070B54D00E91C0646E4
:10C60000FFF7B5FFA91C04463046FFF7B0FF40EA2C
:10C61000042000B206F004F90022044B06F066F98B
:10C6200006F046FC00EE100A70BD00BF0000103F8F
:10C63000014B01221A607047A8240020F0B50B6856
:10C640000C4687B00846DB689847236806461B6996
:10C650002046984721490746684605F00BFF3546B6
:10C66000AB1BDBB29F424FF010020CD915F8011B37
:10C6700003A805F022FF03A9684605F046FF03A8BA
:10C6800005F0B6FEECE700210098154E07F008FC17
:10C69000144B30601A781D4642B11349134805F017
:10C6A000EDFB0A223168114805F05EFC2B7863B17E
:10C6B00023682046DB689847236805461B692046A7
:10C6C00098470146284602F0ABF8052005F0B0F97E
:10C6D000684605F08DFE07B0F0BD00BFFF5E0200AA
:10C6E0008C20002095200020645B0200642600203E
:10C6F000052005F09DB9052005F09AB910B5034B4A
:10C700000360044601F070FC204610BDC0600200CA
:10C7100010B50446FFF7F2FF204605F00FFF204654
:10C7200010BD000010B5034B03600446FFF7E6FFA1
:10C73000204610BD3C5B020010B50446FFF7F2FF37
:10C74000204605F0FBFE204610BD000013B5294928
:10C75000294801F0DCFD2749274801F068FF2748F8
:10C7600001F0C1FB0146244801F0CEFD4FF6FF71F8
:10C77000214801F05FFF21491F4801F01EFF2049B9
:10C780001D4801F01AFF1F491B4801F016FF1E4902
:10C79000194801F012FF1D4A1748002101F0E1FD80
:10C7A0001B4A1548012101F0DCFD1A4A1A480021F4
:10C7B00001F079FC174A1948002101F074FC02A924
:10C7C000002401F8014D0122134801F022FC02A9C6
:10C7D000012201F8024D114801F01BFC064801F04E
:10C7E000E4FD0F4B1B781BB10E490F4805F056FBBB
:10C7F00002B010BD775B0200A4220020B02100200F
:10C800007C24002084220020BC210020F7C60100E7
:10C81000F1C601003DC601007824002080220020DE
:10C8200095200020805B02006426002000000000AC
:10C83000F0B52DED028B002183B04D484D4CFFF734
:10C84000DBFEB2EE048A20EE080A0121484884ED9E
:10C85000000AFFF7D1FE20EE080A0221444884EDC9
:10C86000010AFFF7C9FE20EE088A206884ED028ADB
:10C8700005F0E8FFD4ED018A68EE087A0446E8EE98
:10C88000A87A0D4617EE900A05F0DCFF41EC100B7C
:10C8900004F0DEFBB0EE401AF0EE601A45EC104BEF
:10C8A00004F0D4FB2EA3D3E9002351EC100B06F0C7
:10C8B0001DF8314D314CF1EE487AC5E9000117EE13
:10C8C000900A05F0BFFFF1EE687ACDE9000117EE9E
:10C8D000900A05F0B7FF9DED001B41EC100B04F032
:10C8E000B5FB1FA3D3E9002351EC100B05F0FEFFAD
:10C8F000002206460F46224BD5E9000105F044FE12
:10C900000022C5E900011F4B3046394606F060FAA7
:10C91000B8B115A3D3E900233046394605F034FEFB
:10C920000022194B06460F4606F070FA10B9C4E90A
:10C9300000670EE00022144B3046394605F022FE17
:10C9400005E00022114B3046394605F01DFEC4E9D2
:10C95000000103B0BDEC028BF0BD00BFAFF300805F
:10C9600046DF617EDCA54C400000000000207C40DA
:10C97000E02100208C210020A0240020A8210020FC
:10C9800000806640008056C000807640008056409F
:10C9900010B53B483B4C2DED028B03F028FD07EE14
:10C9A000900AB8EE678A18EE100A05F04BFF32A322
:10C9B000D3E9002306F00CFA10B984ED008A01E0F7
:10C9C000002323602E4803F0A7FA18B12E4B1B78E2
:10C9D000002B41D12D4803F00AFD07EE900AB8EE76
:10C9E000678A18EE100A05F02DFF23A3D3E9002370
:10C9F00006F0EEF910B984ED018A01E000236360CE
:10CA0000224803F089FA10B11F4B1B784BBB20481A
:10CA100003F0EDFC07EE900AB8EE678A18EE100AF4
:10CA200005F010FF14A3D3E9002306F0D1F910B9E3
:10CA300084ED028A01E00023A360154803F06CFA3C
:10CA4000A0B1114B1B788BB1BDEC028B1149124880
:10CA5000BDE8104005F012BA10490F4805F00EFA73
:10CA6000B8E70F490C4805F009FAD0E7BDEC028B96
:10CA700010BD00BFAFF300809A9999999999B93F79
:10CA800050220020982100209520002060220020C4
:10CA900070220020B85B0200642600209A5B02002E
:10CAA000A95B020030B52DED028B9FB00546D5493C
:10CAB000684601F049FC684601F04CFA002800F095
:10CAC00081819FEDD17AD14A9FEDD16A08AB1EA931
:10CAD000B0EE475AF2EE005AF2EC017AF4EEC77A61
:10CAE000F1EE10FA02D583ED007A08E0F4EEC67A92
:10CAF000F1EE10FAD4BFC3ED007A83ED006AD3EDF6
:10CB0000007ADFEDC16A77EEC57A67EEA57AE3ECCD
:10CB1000017A8B42E0D1BF4B93ED008AB4EEE68AF6
:10CB2000F1EE10FA09D4DFEDBA7AB4EE678AF1EECD
:10CB300010FAC8BFB0EE678A01E0B0EE668A1C202A
:10CB400004F09AFF07EE900A9FEDB37ADFEDB38A07
:10CB5000B34BF8EE676AC6EE877A67EEA87AFDEE09
:10CB6000E77A17EE904AC3ED007A002D40F09E80E0
:10CB70001422294603A806F099FADDED087AFCEEA6
:10CB8000E77A17EE903ADDED097A8DF80C30FCEE7D
:10CB9000E77A17EE903ADDED0A7A8DF80D30FCEE6B
:10CBA000E77A17EE903ADDED0B7A8DF80E30FCEE59
:10CBB000E77A17EE903ADDED0C7A8DF80F30FCEE47
:10CBC000E77A17EE903ADDED0D7A8DF81030FCEE35
:10CBD000E77A17EE903ADDED0E7A8DF81130FCEE23
:10CBE000E77A17EE903ADDED0F7A8DF81230FCEE11
:10CBF000E77A17EE903ADDED107A8DF81330FCEEFF
:10CC0000E77A17EE903ADDED117A8DF81430FCEEEC
:10CC1000E77A17EE903ADDED127A8DF81530FCEEDA
:10CC2000E77A17EE903ADDED137A8DF81630FCEEC8
:10CC3000E77A17EE903ADDED147A8DF81730FCEEB6
:10CC4000E77A17EE903ADDED157A8DF81830FCEEA4
:10CC5000E77A17EE903ADDED167A8DF81930FCEE92
:10CC6000E77A17EE903ADDED177A8DF81A30FCEE80
:10CC7000E77A17EE903A8DF81B30DDED187AFCEE6E
:10CC8000E77A17EE903ADDED197A8DF81C30FCEE5C
:10CC9000E77A17EE903ADDED1A7A8DF81D30FCEE4A
:10CCA000E77A17EE903A8DF81E3083E0012D40F0C0
:10CCB00086801422002103A806F0F8F9DDED1B7A26
:10CCC0008DF81F50FCEEE77A17EE903ADDED1C7AF6
:10CCD0008DF80C30FCEEE77A17EE903ADDED1D7A18
:10CCE0008DF80D30FCEEE77A17EE903A8DF80E30A5
:10CCF0004C4BD3ED007AFCEEE77A17EE902AD3ED99
:10CD0000017A8DF80F20FCEEE77A17EE902AD3ED2A
:10CD1000027A8DF81020FCEEE77A17EE903A8DF843
:10CD20001130414BD3E9000106F0A2F83F4B8DF8DA
:10CD30001200D3E9000106F09BF8DFED337A3C4A9C
:10CD40008DF8130038EE678AF2EE007A28EE278A13
:10CD500092ED007A8DF81940FCEEC87A17EE903A01
:10CD6000F7EE007A37EE277A8DF8143027EE287A1E
:10CD7000BCEEC77A17EE103A92ED017A8DF81630B4
:10CD800037EE277A27EE287ABCEEC77A17EE103AEC
:10CD900092ED027A8DF8173077EE277A67EEA87A4F
:10CDA000FCEEE77A17EE903A8DF81830214B1B789D
:10CDB0008DF81A30142203A91F4801F02AF9052022
:10CDC00004F036FE1D4B1B78C3B11D491D4805F00C
:10CDD00055F804F015FE1C4B07EE900AB8EE677A82
:10CDE000D3ED007A77EE677A17EE900A05F02AFD08
:10CDF00041EC100B0221134805F061F91FB0BDECA6
:10CE0000028B30BDA422002000008C422024002090
:10CE10000000CA428021002000807F440000C842F8
:10CE20009020002098210020A0240020A82100208C
:10CE30008C2100209C240020B82100209420002078
:10CE4000C75B020064260020842100202DE9F04108
:10CE50001C2004F011FE07EE900A9FEDE17AE14CF0
:10CE6000E14EE24FE249E34DDFF80884F8EE676AED
:10CE70002046C6EE877A9FEDE07A67EE877AFDEE70
:10CE8000E77AC7ED007A04F0F9FF306805F0DAFCC4
:10CE900041EC100B0221204605F00EF929462046F0
:10CEA00004F0ECFFD549204604F0E8FF706805F077
:10CEB000C9FC41EC100B0221204605F0FDF8294683
:10CEC000204604F0DBFFCE49204604F0D7FFB068CF
:10CED00005F0B8FC41EC100B0221204605F0ECF8FF
:10CEE0002946204604F0CAFFC649204604F0C6FF82
:10CEF000F06805F0A7FC41EC100B0221204605F07C
:10CF0000DBF82946204604F0B9FFBF49204604F06B
:10CF1000B5FF306905F096FC41EC100B022120466C
:10CF200005F0CAF82946204604F0A8FFB749204674
:10CF300004F0A4FF706905F085FC41EC100B0221A0
:10CF4000204605F0B9F82946204604F097FFB0497D
:10CF5000204604F093FFB06905F074FC41EC100B1F
:10CF60000221204605F0A8F82946204604F086FF55
:10CF7000A849204604F082FFF06905F063FC41EC0B
:10CF8000100B0221204605F097F82946204604F0B0
:10CF900075FFA149204604F071FF306A05F052FC8C
:10CFA00041EC100B0221204605F086F82946204668
:10CFB00004F064FF9949204604F060FF706A05F0B0
:10CFC00041FC41EC100B0221204605F075F8294682
:10CFD000204604F053FF9249204604F04FFFB06A08
:10CFE00005F030FC41EC100B0221204605F064F8FE
:10CFF0002946204604F042FF8A49204604F03EFFBD
:10D00000F06A05F01FFC41EC100B0221204605F0F0
:10D0100053F82946204604F031FF8349204604F0A6
:10D020002DFF306B05F00EFC41EC100B0221204669
:10D0300005F042F82946204604F020FF7B492046AF
:10D0400004F01CFF706B05F0FDFB41EC100B02219E
:10D05000204605F031F82946204604F00FFF7449B8
:10D06000204604F00BFFB06B05F0ECFB41EC100B1D
:10D070000221204605F020F82946204604F0FEFE55
:10D080006C49204604F0FAFEF06B05F0DBFB41EC46
:10D09000100B0221204605F00FF82946204604F027
:10D0A000EDFE6549204604F0E9FE306C05F0CAFB50
:10D0B00041EC100B0221204604F0FEFF29462046D9
:10D0C00004F0DCFE5D49204604F0D8FE706C05F0EB
:10D0D000B9FB41EC100B0221204604F0EDFF29467C
:10D0E000204604F0CBFE5649204604F0C7FEB06C43
:10D0F00005F0A8FB41EC100B0221204604F0DCFFF8
:10D100002946204604F0BAFE4E49204604F0B6FEF9
:10D11000F06C05F097FB41EC100B0221204604F067
:10D12000CBFF2946204604F0A9FE4749204604F0DB
:10D13000A5FE306D05F086FB41EC100B0221204668
:10D1400004F0BAFF2946204604F098FE3F492046E5
:10D1500004F094FE706D3E4E05F074FB41EC100B34
:10D160000221204604F0A8FF2946204604F086FE4E
:10D170003849394D204604F081FE384B186805F0D7
:10D1800061FB41EC100B0221204604F095FF414663
:10D19000204604F083FE3249204604F06FFE314BF6
:10D1A000022193ED000B204604F086FF294620461D
:10D1B00004F064FE2C49204604F060FE2B4B022153
:10D1C00093ED000B204604F077FF2946204604F03B
:10D1D00055FE2749204604F051FE30684CE000BF60
:10D1E00000807F446426002020240020902000201E
:10D1F000E35B0200646502000000C842E85B0200D5
:10D20000ED5B0200F25B0200F75B0200FC5B0200D8
:10D21000015C0200065C02000B5C0200105C020074
:10D22000165C02001C5C0200225C0200285C02000A
:10D230002E5C0200345C02003A5C0200405C02009A
:10D24000465C02004C5C0200525C0200585C02002A
:10D250008C2100205E5C0200FE5E02008021002026
:10D26000655C0200A02400206D5C0200A821002063
:10D27000745C0200FF5E020005F0E4FA41EC100B62
:10D280000221204604F018FF2946204604F0F6FD4E
:10D290003449204604F0F2FD706805F0D3FA41EC01
:10D2A000100B0221204604F007FF2946204604F017
:10D2B000E5FD2D49204604F0E1FDB0682B4E05F058
:10D2C000C1FA41EC100B0221204604F0F5FE414664
:10D2D000204604F0E3FD2649204604F0CFFD3068E7
:10D2E00005F0B0FA41EC100B0221204604F0E4FEF8
:10D2F0002946204604F0C2FD706805F0A3FA41EC0F
:10D30000100B0221204604F0D7FE2946204604F0E7
:10D31000B5FDB06805F096FA41EC100B02212046ED
:10D3200004F0CDFE1349204604F0A8FD124B0A225A
:10D330001978204604F0ECFD1049204604F09EFDCB
:10D340000F4B0A221968204604F00EFE0D492046B4
:10D3500004F094FD396820460A22BDE8F04104F04B
:10D3600003BE00BF7B5C0200825C020098210020AB
:10D37000895C0200995C02009C240020AE5C0200E3
:10D380008C200020B45C02002B4B2C481A682C4BDC
:10D3900070B51A602B4D2C4C2C4E02F0B7FD2C486A
:10D3A00002F0B4FD2B4802F0B1FD18212846FFF72A
:10D3B000C1F82846284D2949224605F0C9FD2846CE
:10D3C00003F093FB224626492846264D05F0C0FD72
:10D3D000FF231A461946284601F038F92246224909
:10D3E0002846224D05F0B4FD2149224801F0F8F904
:10D3F00002222149284601F0FBF928461F4D22460A
:10D40000314605F0A5FD08221D49284601F0F0F936
:10D4100028461C4D2246314605F09AFD12221A4933
:10D420002846142300F00AFE224628461749BDE884
:10D43000704005F08DBD00BF8420002050220020E8
:10D440007C210020E02100208020002025C7010051
:10D450006022002070220020AC24002041C5010081
:10D460000F0B0200A4220020C1E501007824002057
:10D47000755D0200B02100207A5D0200802200204C
:10D480007F5D0200B8210020845D0200E9DF010019
:10D4900038B5054671B301292ED002292ED00329B3
:10D4A0002ED004292ED005292ED006292ED00729CA
:10D4B0002ED008292ED009292ED00A292ED00B29AA
:10D4C0002ED00C292ED00D292ED00E292ED00F298A
:10D4D0002ED010292ED011292ED012292ED013296A
:10D4E0002ED014292ED015292ED0162914BF002491
:10D4F00044242AE00C4628E02A2426E02B2424E0B9
:10D500002C2422E02D2420E02E241EE03B241CE0CD
:10D5100032241AE0332418E0342416E0352414E0D1
:10D52000362412E0372410E038240EE03A240CE0D0
:10D530003C240AE03D2408E03E2406E0402404E0C8
:10D54000412402E0422400E0432421466A4802F0DC
:10D5500006FC2946684802F01FFB6420013800BF22
:10D5600000BF00BF00BF00BF00BF00BF00BF00BFC3
:10D5700000BF00BF00BF00BF00BF00BF00BF00BFB3
:10D5800000BF00BF00BF00BF00BF00BF00BF00BFA3
:10D5900000BF00BF00BF00BF00BF00BF00BF00BF93
:10D5A00000BF00BF00BF00BF00BF00BF00BF00BF83
:10D5B00000BF00BF00BF00BF00BF00BF00BF00BF73
:10D5C00000BF00BF00BF00BF00BF00BF00BF00BF63
:10D5D00000BFC3D10021484802F0CBFB0322214603
:10D5E000454802F0B9FB6420013800BF00BF00BF0E
:10D5F00000BF00BF00BF00BF00BF00BF00BF00BF33
:10D6000000BF00BF00BF00BF00BF00BF00BF00BF22
:10D6100000BF00BF00BF00BF00BF00BF00BF00BF12
:10D6200000BF00BF00BF00BF00BF00BF00BF00BF02
:10D6300000BF00BF00BF00BF00BF00BF00BF00BFF2
:10D6400000BF00BF00BF00BF00BF00BF00BF00BFE2
:10D6500000BF00BF00BF00BF00BF00BF00BFC3D1FD
:10D66000254802F0ABFA0446234802F0A7FA054623
:10D67000214802F0A3FA6420013800BF00BF00BFB8
:10D6800000BF00BF00BF00BF00BF00BF00BF00BFA2
:10D6900000BF00BF00BF00BF00BF00BF00BF00BF92
:10D6A00000BF00BF00BF00BF00BF00BF00BF00BF82
:10D6B00000BF00BF00BF00BF00BF00BF00BF00BF72
:10D6C00000BF00BF00BF00BF00BF00BF00BF00BF62
:10D6D00000BF00BF00BF00BF00BF00BF00BF00BF52
:10D6E00000BF00BF00BF00BF00BF00BF00BFC3D16D
:10D6F00044EA052080B238BD7425002000000000F7
:10D7000008B5FFF7C5FE07EE900AF8EE677A17EE48
:10D71000900A05F097F80AA3D3E9002305F0E6F88C
:10D7200005F0C6FB05F08EF807A3D3E9002304F04B
:10D7300029FF05F0BDFB00EE100A08BDAFF3008025
:10D740007B14AE47E17A943F666666666612714066
:10D7500008B501462720FFF7D3FFF2EE027A20EE4C
:10D76000270AF1EE047A80EE277ADFED057A77EE6C
:10D77000277A17EE900A05F065F841EC100B08BD0A
:10D780000000004208B501462620FFF7B9FFF2EE7F
:10D79000027A20EE270AF1EE047A80EE277ADFED96
:10D7A000057A77EE277A17EE900A05F04BF841ECF0
:10D7B000100B08BD00000042F8B5174E174F0024AB
:10D7C000354601342046FFF7DDFF51EC100B05F024
:10D7D0006FFB46F8040B2046FFF7BAFF51EC100B25
:10D7E00005F066FB162C47F8040BEAD195ED017A9B
:10D7F000D5ED007A0A4B77EE877A95ED027A77EECF
:10D80000877A95ED037A77EE877AB5EE007A67EE40
:10D81000877AC3ED007AF8BDF8210020202400208B
:10D820008021002070B5774D2B782DED028B002BD9
:10D8300042D0754B1A781C461AB17449744804F0EA
:10D840002DFB0E2004F0F0F9002835D12378287044
:10D850001BB170496E4804F02BFB41216E4802F069
:10D860008BFD502004F0E4F841216C4802F084FD67
:10D87000502004F0DDF84121694802F07DFD502080
:10D8800004F0D6F8674803F0EBF90121654803F08E
:10D890000DFA18B964495E4804F00AFB002161489A
:10D8A00003F098FA08B1614900E06149584804F072
:10D8B000FFFA322004F0BCF85E4B5F4C93ED008A17
:10D8C000D4ED007A37EE888A04F09AF807EE900AD1
:10D8D000F8EE677AB4EEE78AF1EE10FA40F1628171
:10D8E0002B78002B40F05E8104F08AF8464B07EE5F
:10D8F000900A1A78F8EE677A1E46C4ED007ADAB11B
:10D900004E49434804F0CAFA4D49414804F0B6FA7A
:10D9100094ED007ADFED4B7AC7EE276A16EE900A97
:10D9200004F090FF41EC100B0221394804F0C4FBD5
:10D930004549374804F0B2FA444D2B78BBB144490D
:10D94000334804F09BFA04F05BF807EE900AB8EE57
:10D95000677AD4ED007A77EE677A17EE900A04F0D2
:10D9600071FF41EC100B0221294804F0A8FB394853
:10D9700000F0C2FC2B78BBB13749254804F07EFA91
:10D9800004F03EF807EE900AB8EE677AD4ED007A1C
:10D9900077EE677A17EE900A04F054FF41EC100B13
:10D9A00002211B4804F08BFB0E2004F03DF90146D8
:10D9B00000B10121102004F025F92B78BBB12749D3
:10D9C000134804F05BFA04F01BF807EE900AB8EE77
:10D9D000677AD4ED007A77EE677A17EE900A04F052
:10D9E00031FF41EC100B0221094804F068FB1C4A8E
:10D9F0001368002B38DD013B13601A4B1B78BBBB4F
:10DA0000012132E08820002095200020895D02005D
:10DA100064260020945D0200502200206022002035
:10DA200070220020AC240020A35D0200CC5D020027
:10DA3000EC5D02007C21002084210020646502004E
:10DA4000155E020000007A441C5E02009420002053
:10DA50001F5E0200A4220020435E0200595E020005
:10DA600088210020DC2100200021082004F0CAF8D1
:10DA7000FEF7DEFE2B78BBB14C494D4804F0FEF9B1
:10DA800003F0BEFF07EE900AB8EE677AD4ED007A95
:10DA900077EE677A17EE900A04F0D4FE41EC100B93
:10DAA0000221434804F00BFBFEF772FF2B78BBB159
:10DAB00040493F4804F0E2F903F0A2FF07EE900A64
:10DAC000B8EE677AD4ED007A77EE677A17EE900AAF
:10DAD00004F0B8FE41EC100B0221354804F0EFFAD7
:10DAE000FFF76AFE2B78BBB13349314804F0C6F921
:10DAF00003F086FF07EE900AB8EE677AD4ED007A5D
:10DB000077EE677A17EE900A04F09CFE41EC100B5A
:10DB10000221274804F0D3FA2849294803F0A8F83D
:10DB20000020FEF7BFFF0120FEF7BCFF2B78BBB142
:10DB300024491F4804F0A2F903F062FF07EE900A9F
:10DB4000B8EE677AD4ED007A77EE677A17EE900A2E
:10DB500004F078FE41EC100B0221154804F0AFFAF6
:10DB600033780BB1FFF772F92B78DBB11649104807
:10DB700004F084F903F044FF07EE900AB8EE677AE8
:10DB8000D4ED007A77EE677A17EE900A04F05AFE29
:10DB9000BDEC028B41EC100BBDE870400221044843
:10DBA00004F08DBABDEC028B70BD00BF735E020045
:10DBB00064260020935E0200AE5E02009C240020DA
:10DBC000AC240020C75E0200EA5E0200F8B5012125
:10DBD0001D2003F0F5FF01210F2003F0F1FF0021CC
:10DBE000042003F0EDFF02210E2003F0E9FF0121E4
:10DBF000102003F0E5FF0121102004F003F80121BB
:10DC0000082003F0DDFF0021082003F0FBFF4FF4A4
:10DC1000E131594804F09FFA584B1B781BB1584921
:10DC2000554804F02BF9322003F002FF5548564EB8
:10DC3000564D574C01F0F4FF322003F0F9FEFEF789
:10DC400085FD00211D2003F0DDFF00210F2003F0E2
:10DC5000D9FF642003F0ECFE4E49474804F01EF95A
:10DC60000121304602F0CAFC4521304602F0B0F9ED
:10DC70004FF4FA7748494048778004F00FF90121C2
:10DC80001D2003F0BFFF642003F0D2FE01212846CF
:10DC900002F0B4FC4621284602F09AF93F49364882
:10DCA0006F8004F0FBF801210F2003F0ABFF64202C
:10DCB00003F0BEFE0121204602F0A0FC47212046D1
:10DCC00002F086F96420678003F0B2FE41213046FD
:10DCD00002F052FB502003F0ABFE4121284602F037
:10DCE0004BFB502003F0A4FE4121204602F044FBF0
:10DCF000042003222A4903F0E5FD2A4803F0A4F892
:10DD000008B1294900E029491B4804F0D1F8012154
:10DD1000244802F0CBFF18B92549174804F0C8F889
:10DD20000021204803F056F808B1224900E02249BA
:10DD3000114804F0BDF821490F4804F09FF820482D
:10DD4000FEF72BFC0A2201460B4804F00DF9C8200F
:10DD500003F06EFE0C4802F045F90C4802F042F95F
:10DD60000B4802F03FF90F4802F07EFF4FF4FA70C3
:10DD7000BDE8F84003F05CBE64260020952000203A
:10DD8000F65E020074250020502200206022002050
:10DD900070220020005F0200145F0200285F020072
:10DDA00031C60100AC2400203C5F02005E5F02002F
:10DDB000A35D0200CC5D0200EC5D02008A5F020000
:10DDC000E021002038B50025057329B90B4B0C4A1A
:10DDD0000C48232105F0C2F801600B4951F82220BC
:10DDE000027151F8233083719DF8103051F82330BF
:10DDF00043710223C371856038BD00BFE05F02003C
:10DE0000A35F0200EE5F020010640200037B23B9EF
:10DE10004373837303610123037370471FB50DF1CF
:10DE2000100E0EE90E009DF808100268002301296B
:10DE3000C2F80035039B08D004D3032907D143F06F
:10DE4000040304E043F0020301E043F00603C2F8D8
:10DE50005435019BC2F824350123C2F8003505B0C2
:10DE60005DF804FB10B5FFF7D1FF03688279C3F8B2
:10DE700008254279C3F80C250279C3F81025034B15
:10DE8000BDE810400ECBFFF7C9BF00BF50250020F2
:10DE90000368C3F81C15D3F80821002AFBD0D3F877
:10DEA00018050022C3F80821C0B2704707B5094B16
:10DEB00009490A484FF080421A6000229A60022203
:10DEC0001A711323009314221223FFF77BFF03B070
:10DED0005DF804FB50250020003000405C25002048
:10DEE000016082807047006870478088704729DF32
:10DEF000704728DF704703681868013018BF012099
:10DF0000704708B54FF080531A690368B3FBF2F30A
:10DF10001846FFF7EEFF1128FAD008BD38B50446C1
:10DF20000D461946FFF7EDFF8B081A462946206873
:10DF3000FFF7DDFF1128F8D038BD10B5026808469C
:10DF4000043A441AA34204D952F8044F40F8044B4F
:10DF5000F7E710BD07B50023062269460430009399
:10DF6000ADF8043005F088F8003018BF012003B088
:10DF70005DF804FB0B6843608B88038170470023C6
:10DF800043600381704708B50160FFF7F8FF08BDE3
:10DF9000807A7047C0687047007C704700207047E7
:10DFA000C368585C704770B50D4611460268044658
:10DFB000D6691A46B0470123A374A36923B1214649
:10DFC0002846BDE87040184770BD70B50446084645
:10DFD0000D4605F0D7FE2368C2B229462046DB690C
:10DFE000BDE8704018470000044B10B504460360BC
:10DFF000C06808B105F038F8204610BD2C6002005A
:10E0000010B50446FFF7F0FF204604F097FA2046CB
:10E0100010BD10B5837A9A42044628BF1A4602748E
:10E02000C06805F038F8606928B1036821461B68AC
:10E03000BDE810401847012010BD000070B504462F
:10E040001D461646043042F6030200F08FF8142DE8
:10E050004FF0000228460A4B236028BF1420A0720C
:10E06000E26022746674A274E2746261A261E26189
:10E07000226215B104F0F0FFE060204670BD00BFE1
:10E080002C600200407C7047C07C70470346002A29
:10E09000DA7414BF07220822084653F822200AB176
:10E0A0001946104770470B299CBF063140F82120C4
:10E0B0007047416170477047704770470020704754
:10E0C000704770470020704700207047002070475D
:10E0D00000207047002070470020704700207047E4
:10E0E00000207047002070470020704700207047D4
:10E0F00000207047704770477047704710B504465E
:10E1000004F01CFA204610BD054A02606422828099
:10E1100001210022C28002818172C26002617047C7
:10E120005C600200016170470120704710B5034B2D
:10E1300003600446FFF758FF204610BDC060020090
:10E1400010B50446FFF7F2FF204604F0F7F9204629
:10E1500010BD000038B504461D46FFF76FFF024BA7
:10E1600025742360204638BDC060020010B5044607
:10E17000FFF7B6FE024A137801331370204610BD34
:10E1800070250020014B1878704700BF70250020D3
:10E19000C06803681B6A1847A0F10400FFF7F8BFC6
:10E1A000C06803685B6A1847A0F10400FFF7F8BF76
:10E1B000C06803689B6A1847A0F10400FFF7F8BF26
:10E1C000C0680368DB6A1847A0F10400FFF7F8BFD6
:10E1D000C06803681B6B1847A0F10800FFF7F8BF81
:10E1E000C06803685B6B1847A0F10800FFF7F8BF31
:10E1F000C06803689B6B1847A0F10800FFF7F8BFE1
:10E20000C06810B40468E46BA4465DF8044B604732
:10E21000A0F10800FFF7F4BFC06803681B6C184743
:10E22000A0F10800FFF7F8BFC06803685B6C1847EF
:10E23000A0F10800FFF7F8BFC06803689B6C18479F
:10E24000A0F10800FFF7F8BFC0680368DB6C18474F
:10E25000A0F10800FFF7F8BFD0F8743113B100F552
:10E26000B07018477047D0F8783113B100F5B0702E
:10E270001847704730B414461A4623685D6A9DF803
:10E28000083000F5B071AC46204630BC604770479E
:10E29000704770B5054600F5B07411462046FFF78B
:10E2A00069FED5F86C311BB12046BDE870401847B7
:10E2B00070BDD0F8703110B500F5B0740BB12046C8
:10E2C00098472046BDE81040FFF759BE10B41446E9
:10E2D00000F5B0711A4620465DF8044BFFF7D6BE34
:10E2E00010B4144600F5B0711A4620469DF804306B
:10E2F0005DF8044B00F056BAC0680368DB68184745
:10E30000C06803681B691847C0F88C107047C0F8D4
:10E310009C10704738B5D0F8A83004460D463BB97C
:10E3200000F01CFA00B2800004F096FEC4F8A800C9
:10E3300094F8AC20D4F8A83043F8225094F8AC30CC
:10E34000013384F8AC3038BD38B505460C46084674
:10E35000FFF7D2FF04F5B07107C985E8070028462A
:10E3600038BD0F299CBF00EB8100C0F86C217047BD
:10E3700010B50446FFF706FF00B2800004F06CFE03
:10E3800004F1B003036004F1BC03436004F1E00353
:10E39000836004F58073C36004F58673036105230D
:10E3A00084F8A430C4F8A00010BD2DE9F043D0F8E3
:10E3B0009010ADB0002304468DF83030E1B106A8CE
:10E3C00000F054FA06A800F083FA022805468CBF34
:10E3D000152314238DF8500006A88DF8513000F055
:10E3E00075FA2A460146C5F11A050DF1520004F0EE
:10E3F00052FEEDB2012601E01C250E46D4F88C1029
:10E4000031B306A800F032FA06A800F061FA431C06
:10E41000AB4207461CDAC6EB46182CAB4344022835
:10E420008CBF0622022203F8600C03F85F2C06A8BA
:10E4300000F04CFA2CAB984401463A46A8F15E0035
:10E44000023D04F028FE0136ED1BF6B205F0FF0593
:10E45000D4F89410C9B194F89820B2B1022D14D90F
:10E46000531CAB42C6EB46102CAB0344A4BF023D89
:10E47000EAB2FF2503F8602C03F85F5C2CAB18446C
:10E480005E3804F008FE0136F6B2D4F89C50BDB1F7
:10E49000284605F077FCC0B21D288ABF1D238DF8E1
:10E4A00030008DF830309DF8302090428CBF08202D
:10E4B00009208DF8310029460DF1320004F0EBFD02
:10E4C000D4F8A03013B92046FFF752FF002742F6D8
:10E4D000030804F1040994F8A4309F4205DB0027E7
:10E4E00042F6030804F108091BE0D4F8A03053F801
:10E4F00027502846FFF7F9FC404506D10DB1281FEB
:10E5000000E028464946FFF7D4FD0137E3E7D4F899
:10E51000A83053F827502846FFF7E7FC404505D0C0
:10E52000013794F8AC309F42F1DB07E00DB1281FB2
:10E5300000E02846494600F049F9F1E74BB104F5FF
:10E5400096712046FFF7E6FE04F59C712046FFF722
:10E55000E1FEE06894F8AC1002680491D4F8A810C9
:10E56000039194F8A41002919DF83030D4F8A010D3
:10E5700001910CA90033009118BF01239568314621
:10E5800014AAA847E06803681B6D98472DB0BDE842
:10E59000F08338B5D0F8A03004460D460BB9FFF72C
:10E5A000E7FE94F8A420D4F8A03043F8225094F861
:10E5B000A430013384F8A43038BDFFF7EABF00006F
:10E5C000154B10B503F168020360044680334260C6
:10E5D0008360FFF795FED4F8A80008B104F044FD6D
:10E5E000D4F8A00008B104F03FFD04F59A7000F0E3
:10E5F000BBF804F58470FFF7F7FC04F1DC00FFF7CB
:10E60000F3FC04F1B800FFF7EFFC04F1100000F098
:10E6100041FE204610BD00BF1461020010B5044643
:10E62000FFF7CEFF204603F089FF204610BDB8302B
:10E63000FFF7CBBC07B502AB022223F8021DDC308A
:10E640001946FFF7E6FC03B05DF804FB2DE9F8433B
:10E65000354BDFF8E890DFF8E88003F10802044664
:10E66000026000F1100703F1700288330025426058
:10E670008360384601F04AFA04F1B806C4F88C50B9
:10E68000C4F89050C4F8945084F89850C4F89C5042
:10E69000C4F8A05084F8A450C4F8A85084F8AC5032
:10E6A000224904F1B00000F09BF813230222204914
:10E6B0003046FFF7C3FC02231A461E4904F1DC0072
:10E6C000FFF7BCFC494604F5807000F089F804238C
:10E6D0002022414604F58470FFF7B0FC494604F55A
:10E6E000967000F075F82022414604F59A7000F00B
:10E6F00043F8214604F5B070FFF745FC1022294687
:10E70000E76004F5B67004F0D1FC0B493046FFF722
:10E710005CFC29462046FFF78DFFE0682146FFF7A5
:10E7200001FD2046BDE8F8830C610200E8600200AC
:10E73000ED600200F260020001610200F760020079
:10E74000FC60020010B50446FFF7CAFB024A1378CA
:10E7500001331370204610BD71250020014B18783D
:10E76000704700BF71250020704710B5044603F0C4
:10E77000E5FE204610BD000038B5044615460430BD
:10E7800042F60302FFF7DEFF054B23600023A5726C
:10E79000E372A36284F822306362204638BD00BF72
:10E7A000BC61020070B50446C3720D460C301146C0
:10E7B0001A4604F070FC012384F82230A36A23B1C6
:10E7C00021462846BDE87040184770BD4162704739
:10E7D00010B54FF420520446FFF7B4FF204610BD99
:10E7E00010B54FF420520446FFF7C0FC204610BD80
:10E7F00013B501230446FFF7ADFC02A9064B2360C5
:10E80000002301F8013D01222046FFF702FC034BE3
:10E810002360204602B010BDCC6102003C5B0200C8
:10E82000F8B505460F460446631B9F4213DD237867
:10E8300013F0F00F264603D109490A4803F01EFBE6
:10E8400031780848102203F061FB0749054801347C
:10E8500003F014FBE8E70348BDE8F84003F016BBFB
:10E86000785D02006426002064650200F7B5044666
:10E8700000232160037508460E468DF804308DF89C
:10E8800005308DF8063005F07DFA451E002D1ADBA7
:10E89000277D0F2F17D8735D2D2B01D1013510E087
:10E8A0007219002112F8012C8DF8042001A8102201
:10E8B0008DF8053005F07CFB27443871237D01334A
:10E8C0002375023DE2E7204603B0F0BD04307047F7
:10E8D000007D704771DF704772DF704773DF7047EC
:10E8E00075DF704776DF704777DF704778DF7047F6
:10E8F0007ADF70477CDF70477EDF70477FDF7047CD
:10E9000086DF704790DF704792DF704796DF704771
:10E9100098DF704799DF7047A0DF7047A2DF70472C
:10E92000A3DF7047A4DF7047A6DF7047A9DF7047F9
:10E9300060DF704761DF704762DF704763DF7047F9
:10E9400053DF704710DF704711DF704790F86000A9
:10E95000003018BF0120704770B590F87160002337
:10E96000B34214DA1A01456FAC18AA588A420CD186
:10E97000E38973B1227B02F0020202F0FF0342B18D
:10E9800090F8780080F0010070BD0133E8E70020C6
:10E9900070BD184670BD70B590F871600023B34229
:10E9A0001ADA1A01456FAC18AA588A4212D1E189C5
:10E9B000A1B1227B02F0020202F0FF0382B1012327
:10E9C00080F878300022808FFFF7A0FFB0FA80F047
:10E9D000400970BD0133E2E7002070BD084670BDFC
:10E9E000184670BD70B590F871600023B3421CDA10
:10E9F0001A01456FAC18AA588A4214D1E389B3B101
:10EA0000227B130704D590F8780080F0010070BDD8
:10EA100002F0040202F0FF034AB190F860000030F7
:10EA200018BF012070BD0133E0E7002070BD18461B
:10EA300070BDF0B590F871E085B0002474452FDA10
:10EA40002501476F7E197D598D4227D1F4894CB33A
:10EA5000357B15F00C0127D090F8601021B315F02C
:10EA6000080F14BF01250225ADF80A300139012332
:10EA700080F860108DF8045080F87830002501A9E6
:10EA8000808F8DF80550ADF80640ADF80850039220
:10EA9000FFF73EFFB0FA80F0400906E00134CDE711
:10EAA000002002E0204600E0084605B0F0BD70B549
:10EAB00090F871600023B34210DA1A01456FAC1868
:10EAC000AA588A4208D1E08948B1237B13F0300F5D
:10EAD00014BF0120002070BD0133ECE7002070BDA1
:10EAE0007FB590F871600023B3422EDA1A01456FAA
:10EAF000AC18AA588A4226D1E28942B3217B11F090
:10EB0000300326D0012311F0100F14BF1946022143
:10EB10001A44ADF80210ADF80620002102228DF84B
:10EB20000510ADF80810ADF80A2080F878306A4476
:10EB300001A9808F8DF804300392FFF7E9FEB0FA47
:10EB400080F0400906E00133CEE7002002E01046E5
:10EB500000E0184604B070BD03681B6C18477FB511
:10EB600090F871600023B3422ADA1A01456FAC189D
:10EB7000AA588A4222D1E28922B3237B13F03003C0
:10EB80004FF0000120D001231A44ADF806200222E4
:10EB9000ADF802108DF80510ADF80810ADF80A2098
:10EBA00080F878306A4401A9808F8DF80430039290
:10EBB000FFF7AEFEB0FA80F0400906E00133D2E77D
:10EBC000002002E0104600E0184604B070BD11F1CC
:10EBD000270F08B514DB11F11D0F14DB11F1130F12
:10EBE00014DB11F10F0F14DB11F10B0F14DBCA1D35
:10EBF00015DBCB1C16DB0029D4BF0020042013E05A
:10EC00006FF0270010E06FF01D000DE06FF01300B3
:10EC10000AE06FF00F0007E06FF00B0004E06FF008
:10EC2000070001E06FF00300FFF75EFEB0FA80F02E
:10EC3000400908BD1321808FFFF754BE07B5014678
:10EC40006846FFF747FE086920B103680DF101022D
:10EC5000DB69984703B05DF804FB000013B5044678
:10EC600002A8002340F8043DFFF76AFE019803F074
:10EC7000D7FD084B002203F039FE04F019F923698F
:10EC800033B11A6800EE100A126A214618469047FE
:10EC900002B010BD0000D03F704710B5044686B0EA
:10ECA00018220021684604F001FAA37A33B994F8D7
:10ECB0003430002B14BF0223032300E000238DF81F
:10ECC0000030A38868460A221B0193FBF2F3ADF8DB
:10ECD0001030FFF703FE06B010BD2DE9F0430546E6
:10ECE00090F861008FB00C460023142683425DDA51
:10ECF00006FB03F2696E8F188A58A24207D120469C
:10ED0000FFF7C0F9C30751D57B6813B94EE0013353
:10ED1000ECE795F833600DF11808324605F114015F
:10ED2000404604F0B8F9236820461B699847043030
:10ED30000644F6B21F2E39D87868FFF7D4F801469A
:10ED40006846FFF793FD236895F833701B692046EA
:10ED500098470EAB1F44033007F8200C95F833702A
:10ED60003B441622684603F81F2CFFF7AFFD02371D
:10ED7000038828F80730236895F83370DB6820464D
:10ED80009847236881461B692046984704374744C3
:10ED900002464946384604F07EF900231A463146B9
:10EDA0004046FFF799FDAC63012000E000200FB062
:10EDB000BDE8F0832DE9F047D4B04FF48E730446DC
:10EDC0000DF10A010DA8ADF80A30FFF7B3FD0346B7
:10EDD000002840F04482BDF83420302A00F03C8105
:10EDE00011D8112A5CD004D8012A21D0102A27D0AA
:10EDF00035E2142A00F0C780192A00F0D080132AC7
:10EE000040F02D829BE0382A00F0DA8106D8322AC1
:10EE100000F06481362A00F0BA8120E2502A00F026
:10EE2000D180522A00F01281392A40F01882ECE198
:10EE300094F860209DF83C30134484F860300EE272
:10EE4000BDF83800A08705A9FFF776FD20699DF879
:10EE5000143084F8603028B103680DF13D021B685E
:10EE600021469847E288052A12D92389B3F5486FCD
:10EE70000ED8ADF816300023ADF8183005A94FF4C0
:10EE8000C873A08FADF81420ADF81A30FFF728FD35
:10EE900094F86830002B00F0E2810022012109E1A2
:10EEA0004FF6FF72A28784F8600005464FF0140900
:10EEB000804694F861309D4216DA676E09FB05F6CC
:10EEC000BB19B85983F8108083F81180FFF7DCF87C
:10EED00040B1206930B10368BA59D3F814A0214673
:10EEE0000023D0470135E4E7206918B103682146C3
:10EEF0005B68984700230C20194694F868209342D9
:10EF000002DB0023184605E0E26E00FB032201331A
:10EF10009160F2E794F87120934208DA616F1A0168
:10EF2000114401330873616F0A44D081F2E7002372
:10EF300084F87830236820469B6998478FE1E06821
:10EF4000002800F08681FEF7D6FF002840F081817E
:10EF5000012303228DF80F3062F306138DF80C3075
:10EF600007238DF80D30102300218DF80E30E36D4E
:10EF700005938DF8101009910A910B910691079154
:10EF800005AB03AA68E1E16DBDF84420488A9042D0
:10EF900018BF1946A08F1A46FFF7B2FC5FE19DF833
:10EFA0003C20002A40F05B81E06820B11C2304F182
:10EFB0004001FEF7B3FF2069002800F0508103688C
:10EFC0009B68E1E0BDF83A8006464FF0140994F8DA
:10EFD00061309E4280F24381616E09FB06F3CF18D7
:10EFE0003A8942450CD12069002800F03881036835
:10EFF0009DF8442000921D693A680DF1460323E113
:10F00000BA89424520D19DF847009DF8462042EA42
:10F01000002295B202F001023A74C5F340027A74FC
:10F0200015F00305C85818BF0125FFF72DF8A842B1
:10F030000AD02069002800F0128103683A685E69EE
:10F0400021462B46B0470AE10136C0E70246014699
:10F05000A08FFFF76BFC02E1BDF83A2072BBBDF850
:10F0600040500DA913460C26AB421CDA94F8687088
:10F070000020B84214DAE26E91F810C006FB0022BC
:10F0800092F806E0F44509D1B1F80EC0B2F804E0F8
:10F09000F44503D1D1F81200906001E00130E8E7B7
:10F0A00001330831E0E70DAB03EBC5050022A98968
:10F0B000013189B2A08FFFF725FCD0E094F86820D9
:10F0C0000C20934280F2CB80E16E00FB03110D898E
:10F0D00015B14D89002D4BD10133F2E7BDF83A202F
:10F0E00094F87030002A36D1E66E03EB430306EB4A
:10F0F00083030A259B6805930DAB9A8905FB0235AE
:10F10000AB4223D0002194F87120914219DA626F4A
:10F1100094F8700002EB011200EB400056F82070EA
:10F12000506887420BD11F7C907A874207D11089A3
:10F13000DF89874201BF987C1073D88AD081013162
:10F14000E1E7DA8AADF814200A33D9E705A9A08FE0
:10F15000FFF7DAFB83E001330C2294F868005A438E
:10F1600083420CDAE16E11440D892DB14D891DB138
:10F1700084F870300831EAE701330C32F0E7206997
:10F1800000286CD00368DB682146984767E0BDF82B
:10F190003A1084F8780040F20512914201D1E268F9
:10F1A000CAB9BDF8401094F871000023834256DAC2
:10F1B000626F02EB0312D5898D423BD00133F5E734
:10F1C000BDF83A1084F8780040F20512914246D119
:10F1D000E268002A43D01A0E8DF8183042F001027E
:10F1E000DBB28DF8172043F00103032262F306130C
:10F1F0008DF8143007238DF8153005A91023A08F42
:10F200008DF81630FFF778FB29E09DF84230BDF805
:10F210004050022B03D12946A08FFFF77BFB94F8C7
:10F22000711000238B421ADA626F02EB0312D0894D
:10F23000A8420CD1206990B19DF844100368009158
:10F2400012689D690DF146032146A84707E0013386
:10F25000E8E700231A468521A08FFFF74FFB54B043
:10F26000BDE8F08710B50446FFF76EFB606F08B18C
:10F2700003F0FAFEE06E08B103F0F6FE606E08B12E
:10F2800003F0F2FE002384F8613084F8683084F8DB
:10F29000713010BD10B5054B03600446FFF7E2FF67
:10F2A0002046FEF72AFF204610BD00BF0062020084
:10F2B00010B50446FFF7EEFF204603F03FF9204665
:10F2C00010BD07B51288ADF80020ADF802106A46EF
:10F2D00001464FF6FF700193FFF724FB03B05DF882
:10F2E00004FB00002DE9F04FEDB09A469DF8E8319F
:10F2F0000193A24B769E9DF8E08105461868089020
:10F300000F4608A800211446FFF71CFB9C4B0993ED
:10F31000142200210DA803F0C9FE0A2309A9ADF8A3
:10F3200034300DA801238DF840308DF83C30FFF7C4
:10F33000FFFA2822ADF82C205022ADF82E204FF0F5
:10F3400000094FF4C8720BA8ADF83220ADF8309028
:10F35000FFF7CEFA4846FFF7C7FA6B75062302227D
:10F36000AB7503232A7585F833301FB314B31444E7
:10F37000B9451FDA95F8330014F8023C2A18013316
:10F380001375023014F8013C5375C0B285F8330090
:10F39000284414F8022C2146143003F07CFE14F8A3
:10F3A000023C95F83320134485F8333009F1010904
:10F3B0001F34DDE724AFBAF1000F20D00EB34FF0B9
:10F3C000000902364B46D1451CDA16F802BC16F885
:10F3D000011C0BF10102FA549C1CFA18E4B25170A2
:10F3E00038195A46314603F056FE5C444FF001028C
:10F3F000E3B285F8342009F101091F36E3E75346EB
:10F4000000E033463A4695F8331005F11400FFF753
:10F4100063FA0020FFF76AFA002442F60306444527
:10F420000DDA779B53F82400FEF75FFDB04202BF70
:10F4300095F86130013385F861300134EFE795F8D4
:10F4400061000338C0B285F8610000EB80008000E5
:10F4500003F002FE00266866ADF814600296B1461D
:10F46000464580F2BE81779B53F826402046FEF742
:10F470003AFD014617A8FFF7F9F917A8FFF726FA92
:10F48000074617A8FFF724FA022809D17A783B78B3
:10F4900043EA0223ADF8283001238DF82A301CE01E
:10F4A0003B460DF1B00E07F1100C18685968724612
:10F4B00003C2083363459646F7D17A7B3B7B43EA28
:10F4C0000223ADF828300DF12A0100232CA88DF875
:10F4D000BD308DF8BC30FFF731FA2046FEF705FD50
:10F4E000B0F5205F204611D1FEF7FDFC254904F060
:10F4F00037FC002800F073812046FEF7F4FC224917
:10F5000004F02EFC002800F06A8131E2FEF7EDFCE9
:10F5100042F60303984240F0358104B1043C271DB4
:10F520003846FEF7E0FC194904F01AFCB8B99DF81A
:10F53000B030012262F3030362F307138DF8B03099
:10F5400023682046DB689847236807461B692046E6
:10F550009847394682B22CA8FFF7CCF93FE13846EC
:10F56000FEF7C1FC0A4904F0FBFB98B9236820466A
:10F57000DB6898470088FFF7B9F930E1F4610200D1
:10F5800080200020E8600200F7600200ED600200C9
:10F59000F26002003846FEF7A6FCC14904F0E0FB29
:10F5A000002800F01C812046FEF76CFD236882468F
:10F5B0001B69204698476A6EADF8160009EB890171
:10F5C0004FEA810B02EB0B0342F821400027029A1D
:10F5D0005A601F745F741C2239461DA803F066FD33
:10F5E0002AF001031AF0300F8DF8743010D0012387
:10F5F000194663F307118DF81810194606AA63F32C
:10F60000071163F342078DF819108DF81A702292D2
:10F6100000231AF0320FADF81C308DF81E300BD0DD
:10F620009DF81C30E968012262F3030301B1022254
:10F6300062F307138DF81C301AF00C0F10D0EB6832
:10F6400001222BB19DF81D3062F30303022203E077
:10F650009DF81D3062F3030362F307138DF81D302C
:10F660009DF81E30012262F342038DF81E3023689C
:10F6700020469B6998479DF81E3080F0010060F39A
:10F6800000038DF81E30771C47453CDA779B53F812
:10F6900027A05046FEF729FCB0F5245F33D1BAF11C
:10F6A000000F01D0AAF1040A0AF1040318460393DB
:10F6B000FEF719FC7B4904F053FB039BA0B9DAF871
:10F6C000003050469B6898471E90DAF8003050464C
:10F6D000DB689847DAF80030ADF87C00DB6850460C
:10F6E0009847ADF87E000CE01846FEF7FCFB6E492B
:10F6F00004F036FB28B9DAF8003050469B6898478A
:10F7000020900137C0E71422002112A803F0CEFC9C
:10F710000DF1160A0AAB129307AB1393BAF8003037
:10F72000ADF85030236820469B6898476B6EADF863
:10F73000540000275B44083312AA1DA938461697C7
:10F74000FFF7ECF8BAF80030BBB12CABBAF80020E8
:10F750000393974208DA2268394652692046904757
:10F76000039BD8550137F1E76B6E9B4452462CAB97
:10F770000021BBF80800FFF7A4FD09F101095FFAB9
:10F7800089F92CE02046FEF7B0FBB0F5245F26D1C6
:10F7900004B1043C271D3846FEF7A5FB414904F09F
:10F7A000DFFAE0B13846FEF79EFB404904F0D8FA94
:10F7B000A8B13846FEF797FB3D4904F0D1FA70B185
:10F7C0003846FEF790FB384904F0CAFA38B1D6E063
:10F7D0002CAB52460021BDF81400FFF772FD013634
:10F7E0003EE6019B23B3A3F102085FFA88F60024EA
:10F7F00042F60307B442B0461CDA799B53F82480E2
:10F800004046FEF772FBB0F5205F05D195F86830F1
:10F81000013385F8683009E04046FEF766FBB842E0
:10F8200002BF95F87130013385F871300134E1E79A
:10F83000DDF8048095F8680000EB4000800003F0DC
:10F840000BFCE86695F87100000103F005FCDDF89B
:10F85000E4916867002609EB88083746B246C1453F
:10F8600079D059F8044B2046FEF73DFB01462CA801
:10F87000FEF7FCFF2CA8FFF729F883462CA8FFF71A
:10F8800027F8022816D19BF801209BF8003043EAA4
:10F890000223ADF85C3001238DF85E3029E000BF13
:10F8A000FC6002005C6202006162020066620200AB
:10F8B0006B6202005B460DF1740E0BF1100C1868C0
:10F8C0005968724603C2083363459646F7D19BF8E0
:10F8D0000D209BF80C3043EA0223ADF85C300DF1AB
:10F8E0005E0100231DA88DF881308DF88030FFF770
:10F8F00025F82046FEF7F9FAB0F5205F10D1EA6E40
:10F9000007EB47018B00D01842F82140179A42605C
:10F91000EA6E1344013700229A60FFB2A2469EE7C6
:10F920002046FEF7E2FA42F60303984297D1696F48
:10F930003301CA1804B1043CCC50C2F804A0179992
:10F9400091606A6F1A44002111736A6F1344013683
:10F95000D981F6B283E7E86818B1FEF7CCFA00283F
:10F9600065D12B6828469B6998476DB0BDE8F08F3C
:10F9700005AA0AA90120FEF7CFFF02942FE723680A
:10F980002046DB68984712AF14220021ADF81C0016
:10F990001DA803F08BFB4FF0010A00233B806AF3A4
:10F9A0004203BB7023682046DB689847BDF81C10F3
:10F9B000BB78EA6880B2401A18BF012060F30003E8
:10F9C000BB703B782AB16AF30303022262F3071388
:10F9D00003E06AF303036AF307133B700AAB1E9755
:10F9E0001D932368ADF87C10DB68204698470027FC
:10F9F0000DF11C0AADF8800005AA1DA93846219713
:10FA0000FEF78EFFBAF80030002B3FF4E8AE0DF1A0
:10FA1000B00BBAF800309F42BFF6DAAE2368394621
:10FA20001B69204698470BF807000137F1E71C23B4
:10FA3000002205F14001E868FEF77FFA91E700BF78
:10FA40002DE9F04F87B004460D46002601274FF000
:10FA500014090DF1060894F861309E4252DA09FB50
:10FA600006F3626E02EB030AD358AB4248D1A36B94
:10FA70009D4204D1236829465B6A204698472B683B
:10FA800028461B6998472B68ADF80600DB68BAF872
:10FA900008B0284698474246034600215846FFF7DB
:10FAA00010FC1022002102A803F000FBBAF8083075
:10FAB000ADF808309AF81030CDF8108073B194F892
:10FAC000603053B1013B84F8603002A90123A08F5C
:10FAD0008DF80A30FEF728FF00E01F469AF8113033
:10FAE00073B194F8603053B1013B84F8603002A9DF
:10FAF0000223A08F8DF80A30FEF716FF00E01F46A4
:10FB00000136A8E7384607B0BDE8F08F10B50446C7
:10FB1000FEF7FAFA104B236000214FF6FF7304F151
:10FB2000400084F8331084F83410A163A38784F86C
:10FB3000601084F86110616684F86810E16684F8EA
:10FB4000701084F87110616784F87810E0651C22E9
:10FB500003F0ACFA204610BD006202002DE9F84324
:10FB600080460D46174601EB02090C464C45A4EBB6
:10FB7000050609D0D8F8003014F8011B1B68404670
:10FB800098470028F2D100E03E463046BDE8F883B1
:10FB90007047203002F0C6BA38B5437F0D462BB10E
:10FBA00000F16804204602F0CBFA08B1002038BD0D
:10FBB0002046294602F099FA012038BD203002F093
:10FBC000A3BA203002F0B4BA2DE9F0411E464FF43A
:10FBD0007A7300258360104B4560044640F8203B53
:10FBE0001746884602F076FA04F1680002F072FACD
:10FBF0000A4B9DF81820C4F8108053F82220627632
:10FC00009DF81C20676153F82230A376267665772D
:10FC10002046BDE8F08100BF786202001064020057
:10FC2000837E4FF0A04203F5E07330B5012140F22E
:10FC30000C64C17642F82340437E03F5E07342F83A
:10FC4000234003694FF0CC72C3F824250622C3F881
:10FC50000025827EC3F80825427EC3F80C25027E6B
:10FC600053B2D2B202F01F055C09A94060340F4DB7
:10FC7000002B45F8241006DA0D4B02F00F02134456
:10FC800040221A7606E003F1604303F56143402207
:10FC900083F80023037E01215AB203F01F0301FA07
:10FCA00003F35209014941F8223030BD00E100E080
:10FCB000FCEC00E02DE9F8430646894698461546D7
:10FCC000B2B100F12007384602F01AFA3469012275
:10FCD000C4F888952262C4F83475C4F83855226097
:10FCE000D4F84C313BB9D4F82431002BF8D002E0E1
:10FCF0001046BDE8F8830023C4F84C31D4F85C31D9
:10FD00001BB9D4F82431002BF8D00023C4F85C319F
:10FD10000122B8F1000F02D1D4F8243143B162615D
:10FD2000D4F80431002BFBD00023C4F8043107E0E1
:10FD3000E261D4F84831002BFBD00023C4F84831ED
:10FD4000D4F8243113B10023C4F82431D4F83C058D
:10FD50003066C0B2BDE8F8830123FFF7ABBF10B532
:10FD6000044680F8B010683002F0CAF901236377C6
:10FD700010BD2DE9F041002305694377012790F874
:10FD8000B030C5F8883500F1680604462F62304669
:10FD9000C5F84465884602F0C5F92369C5F84805E9
:10FDA0009F60D3F850211AB9D3F82421002AF8D043
:10FDB0000022C3F85021304602F0B4F9236930B173
:10FDC000D3F860211AB9D3F82421002AF8D00022F0
:10FDD000C3F860210122B8F1000F02D1D3F8241139
:10FDE00041B15A61D3F80421002AFBD00022C3F8A4
:10FDF000042107E0DA61D3F84821002AFBD0002271
:10FE0000C3F84821D3F8240170B10022C3F824219B
:10FE1000D3F8C404C3F8C404022805D0042814BFCE
:10FE200004200320BDE8F081BDE8F0810121FFF747
:10FE3000A0BF4369D3F8642170B5044682B10022A3
:10FE4000012500F12006C3F864210577304602F051
:10FE500057F963694022C3F83465C3F838251D6338
:10FE60006369D3F86821D2B10025C3F8685104F161
:10FE70006806012363772577304602F041F9D4F80C
:10FE8000B43003B19847657765693046C5F8446575
:10FE900002F048F96369C5F8480501225A636369AD
:10FEA000D3F804215AB10022C3F80421227F32B1D1
:10FEB000D3F83C05D4F8B830206603B1984763699D
:10FEC000D3F8242142B10022C3F82421D3F8D0244E
:10FED000C3F8D02401225A6170BD00000148FFF729
:10FEE000A8BF00BF7425002007B50C230B228DE8A6
:10FEF0000C004FF04022042311460348FFF764FE34
:10FF000003B05DF804FB00BF742500202922427075
:10FF100000224280027170470346002200791A7164
:10FF20007047C3B2000A03FA00F0013080B2704794
:10FF300060B10138002330F0FF019AB203F10103F0
:10FF400001D04008F7E740EA022080B27047000085
:10FF500010B5084B59434FF47A7201F5FA714FF41A
:10FF6000FA64B1FBF2F3B1FBF4F100FB0310B0FB58
:10FF7000F2F010BD002F3A00084B4FF47A7259434B
:10FF800001F5FA714FF4FA63B1FBF3F3B1FBF2F14F
:10FF900002FB0030B0FBF1F0704700BF002F3A00C9
:10FFA000F8B50A4C05460F46417820461646FFF73D
:10FFB000D6FE39462046FFF7EFFD31462046FFF7D3
:10FFC000EBFD2046FFF732FF2870F8BD74250020B6
:10FFD00038B505460C4601F07F028A21FFF7E0FFA5
:10FFE0006C7038BD10B5012204460021FFF7D8FF20
:10FFF00020460122FF21FFF7D3FF002211462046B1
:020000022000DC
:10000000FFF7CEFF204600229121FFF7C9FF2046CF
:1000100001220021FFF7C4FF20460022FF21BDE896
:100020001040FFF7BDBF0000F8B50C4C05460F4669
:10003000417820461646FFF792FE39462046FFF7E4
:10004000ABFD310A2046FFF7A7FDF1B22046FFF7CE
:10005000A3FD2046FFF7EAFE2870F8BD74250020B6
:1000600010B52DED028BB5EEC00AF1EE10FA82B09C
:100070000446B0EE408A19D410EE100A02F0E2FBFA
:100080000EA3D3E9002302F0C1FE78B99FED0A0A5E
:1000900028EE008A2046FCEEC87A4421CDED017A94
:1000A000BDF80420FFF7C0FF012000E0002002B0EF
:1000B000BDEC028B10BD00BF00000043A4703D0AE0
:1000C000D7FF7F40F8B5114C06460F4641782046D1
:1000D0001546FFF744FE39462046FFF75DFD290E21
:1000E0002046FFF759FDC5F307412046FFF754FDB1
:1000F000C5F307212046FFF74FFDE9B22046FFF781
:100100004BFD2046FFF792FE3070F8BD74250020AD
:10011000F8B50F46064641780B4814461D46FFF7D2
:100120001EFE39460848FFF737FD2544AC4205D08E
:1001300014F8011B0448FFF72FFDF7E70248FFF70B
:1001400075FE3070F8BD00BF7425002070B50C4CF2
:1001500005460E4641782046FFF701FE314620460F
:10016000FFF71AFD2046FFF761FE0122287069782B
:100170002046FFF7F1FD2046FFF720FDC0B270BD1D
:100180007425002008B509B9502102E0012906D1E3
:100190007021FFF7DBFF01304000C0B208BDFF2037
:1001A00008BDF8B504460F46164680210122FFF728
:1001B000F7FE0122FF212046FFF7F2FE0022114642
:1001C0002046FFF7EDFE0622FF212046FFF7E8FE5E
:1001D00083212046FFF7BAFF40F00402D2B2832108
:1001E0002046FFF7DDFE0722FF212046FFF7D8FE5D
:1001F000012281212046FFF7D3FE012280212046E3
:10020000FFF7CEFE6B2294212046FFF7C9FE0022A5
:1002100083212046FFF7C4FE01F0F2FBE08083213A
:100220002046FFF793FF054660B96388002BF6D0A0
:1002300001F0E6FBE38880B2C01A63889842EEDDE5
:100240002846F8BD012220468321FFF7A9FE92210E
:100250002046FFF77BFF00F07F03C0F3C0103B7028
:100260000022307081212046FFF79AFE06222046A8
:10027000FF21FFF795FE83212046FFF767FF8321CB
:1002800000F0FB022046FFF78BFE20460122FF21F3
:10029000FFF786FE204601220021FFF781FE20465F
:1002A0000022FF21FFF77CFE204600228021FFF77D
:1002B00077FE0120F8BD10B50C460121FFF746FF7F
:1002C000C0F300132370C0F3C003A370C0F3800316
:1002D0006370C0F38013C0F3C010E370207110BDD1
:1002E00038B541F0010200210446FFF759FE01F044
:1002F00087FBE08013212046FFF728FF10F0070559
:100300000CD16388002BF5D001F07AFBE38880B232
:10031000C01A63889842EDDD284638BD2046012288
:100320000B21FFF73DFE002220461146FFF738FE65
:10033000012038BD70B50F4C05460E464178204669
:10034000FFF70DFD31462046FFF726FC2046FFF75C
:100350006DFD6978287002222046FFF7FDFC2046DB
:10036000FFF72CFC05462046FFF728FC40EA052055
:1003700080B270BD7425002038B5012204460D46B8
:100380008021FFF70DFE0122FF212046FFF708FE26
:10039000002211462046FFF703FE227A91212046D3
:1003A000FFF7FEFD012200212046FFF7F9FD0022A4
:1003B000FF212046FFF7F4FD002280212046FFF7B1
:1003C000EFFD6DB1F8212046FFF7B4FF00B14543C2
:1003D0002A4604212046FFF775FE0422002101E091
:1003E000022229462046BDE83840FFF7D9BD38B57E
:1003F000044601F005FBE08013212046FFF7A6FE2E
:1004000043070FD16388002BF6D001F0F9FAE38897
:1004100080B2C01A63889842EEDD012323714FF643
:10042000FF7038BD1E212046FFF784FF01220546DC
:100430000B212046FFF7B4FD284638BD70B50E46A7
:10044000002114460546FFF79DFE462120802846E0
:10045000FFF77CFE013080B22178A080FFF778FDA5
:100460005121E0602846FFF765FFFFF75AFD21782C
:10047000E080FFF76DFD702120612846FFF766FEE2
:1004800001304000C0B2608071212846FFF752FF62
:10049000FFF747FDF378208113B1E388C01A20816C
:1004A000A1782089FFF754FD606170BDF0B544F676
:1004B0001F63994289B006460D4644D96946FFF745
:1004C000FAFE02AA69463046FFF7B8FF9DF80030F1
:1004D0001BB1059800F6363001E040F6E8009DF8C3
:1004E00002302BB1059B03F2B22300EB430006E080
:1004F0009DF801301BB1059B03F5257318449DF849
:1005000003701FB1069B03F5257318449DF8044042
:10051000BCB100F22620854215D39DF80A10281A96
:10052000FFF72AFD80B21FB1BDF80E30184480B22B
:10053000FFF7FEFC712102463046FFF775FDF560BE
:1005400002E0012400E00024204609B0F0BD10B50F
:1005500088B004466946FFF7AEFE02AA6946204607
:10056000FFF76CFF9DF800301BB1059800F6845032
:1005700001E040F636309DF802302BB1059B03F2C6
:10058000B22300EB430006E09DF801301BB1059B50
:1005900003F5257318449DF803301BB1069B03F542
:1005A000257318449DF804301BB1079B03F22623E2
:1005B0001844E06008B010BDF8B506460F46417813
:1005C0000D481D461446FFF7CAFB39460A48FFF797
:1005D000E3FA0948FFF72AFC2A463070717806488A
:1005E000FFF7BAFB2544AC4205D00348FFF7E6FA13
:1005F00004F8010BF7E7F8BD74250020F0B50446B8
:1006000085B049B18921FFF7A1FD40F00102D2B2C6
:1006100089212046FFF7C4FC002288212046FFF7ED
:10062000BFFC012280212046FFF7BAFC0122FF21F6
:100630002046FFF7B5FC002211462046FFF7B0FC2C
:1006400091212046FFF782FD0122207200212046E1
:10065000FFF7A6FC0022FF212046FFF7A1FC0022A5
:1006600080212046FFF79CFC60212046FFF76EFDAD
:1006700040F01202D2B260212046FFF791FCB5EEA5
:10068000000A2046FFF7ECFCFF2201212046FFF77D
:1006900087FC0DF107020DF106012046FFF781FDF1
:1006A00008B900251EE2062302AAB0212046FFF762
:1006B00083FF0122FF212046FFF772FC00224F2119
:1006C0002046FFF76DFC2C224E212046FFF768FCE8
:1006D0000022FF212046FFF763FC2046B621B4220A
:1006E000FFF75EFC9DF807309DF80660002B4FF089
:1006F000000514BF0C20002029460127EBB2DA08C0
:1007000098420DF1100E03F00703724401D88E4297
:1007100008D112F808EC07FA03F32EEA030302F8F3
:10072000083C07E012F8082C42FA03F3DB0744BF49
:100730000131C9B20135302DE0D1062302AAB02122
:100740002046FFF7E5FC0122FF212046FFF728FCA9
:10075000002211462046FFF723FC0022FF212046FD
:10076000FFF71EFC002209212046FFF719FC00229A
:1007700010212046FFF714FC002211212046FFF72C
:100780000FFC012224212046FFF70AFCFF2225212D
:100790002046FFF705FC002275212046FFF700FCEC
:1007A0000122FF212046FFF7FBFB2C224E21204691
:1007B000FFF7F6FB002248212046FFF7F1FB20223D
:1007C00029462046FFF7ECFB0022FF212046FFF7D9
:1007D000E7FB092229462046FFF7E2FB00225421CD
:1007E0002046FFF7DDFB042231212046FFF7D8FB2E
:1007F000032232212046FFF7D3FB832240212046EB
:10080000FFF7CEFB252246212046FFF7C9FB002239
:1008100060212046FFF7C4FB002227212046FFF776
:10082000BFFB062250212046FFF7BAFB00225121D0
:100830002046FFF7B5FB962252212046FFF7B0FB7A
:10084000082256212046FFF7ABFB2A4657212046B7
:10085000FFF7A6FB002261212046FFF7A1FB002243
:1008600062212046FFF79CFB002264212046FFF70F
:1008700097FB002265212046FFF792FBA02266210C
:100880002046FFF78DFB0122FF212046FFF788FB62
:10089000322222212046FFF783FB142247212046E3
:1008A000FFF77EFBFF2249212046FFF779FB00225C
:1008B0004A212046FFF774FB0022FF212046FFF764
:1008C0006FFB0A227A212046FFF76AFB00227B2178
:1008D0002046FFF765FB212278212046FFF760FBC9
:1008E0000122FF212046FFF75BFB34222321204613
:1008F000FFF756FB002242212046FFF751FBFF2263
:1009000044212046FFF74CFB262245212046FFF7D5
:1009100047FB052246212046FFF742FB40221146B5
:100920002046FFF73DFB06220E212046FFF738FB4D
:100930001A2220212046FFF733FB40224321204684
:10094000FFF72EFB0022FF212046FFF729FB0322A1
:1009500034212046FFF724FB442235212046FFF7AF
:100960001FFB0122FF212046FFF71AFB0422312141
:100970002046FFF715FB09224B212046FFF710FB0D
:1009800005224C212046FFF70BFB04224D21204677
:10099000FFF706FB0022FF212046FFF701FB0022A4
:1009A00044212046FFF7FCFA202245212046FFF78C
:1009B000F7FA082247212046FFF7F2FA28224821B9
:1009C0002046FFF7EDFA002267212046FFF7E8FAFC
:1009D000042270212046FFF7E3FA0122712120460C
:1009E000FFF7DEFAFE2272212046FFF7D9FA002235
:1009F00076212046FFF7D4FA002277212046FFF720
:100A0000CFFA0122FF212046FFF7CAFA01220D2169
:100A10002046FFF7C5FA0022FF212046FFF7C0FA63
:100A2000012280212046FFF7BBFAF822012120464F
:100A3000FFF7B6FA0122FF212046FFF7B1FA0122A3
:100A40008E212046FFF7ACFA012200212046FFF755
:100A5000A7FA0022FF212046FFF7A2FA00228021F8
:100A60002046FFF79DFA04220A212046FFF798FA54
:100A700084212046FFF76AFB842100F0EF02204624
:100A8000FFF78EFA01220B212046FFF789FA204654
:100A9000FFF75DFDE822E06001212046FFF780FAC4
:100AA000E1682046FFF702FD012211462046FFF7CC
:100AB00077FA40212046FFF713FC00283FF4F1AD00
:100AC000022201212046FFF76BFA00212046FFF7A2
:100AD00007FC054600283FF4E4ADE822012120464A
:100AE000FFF75EFA284605B0F0BD0022C0F884206A
:100AF000C0F88820C0F88C20C0F89020C0F894205E
:100B0000C0F89820C0F89C20C0F8A020704770471B
:100B100038B5084C0D4620463921FFF720F9294603
:100B20002046FFF739F82046FFF780F9B0FA80F049
:100B3000400938BD7425002070B50B4C0E46204688
:100B400039211546FFF70BF931462046FFF724F807
:100B500029462046FFF720F82046FFF767F9B0FA4C
:100B600080F0400970BD00BF742500200A46A02116
:100B7000FFF7E2BF0A46A121FFF7DEBF38B5CAB2D0
:100B80000C4684210546FFF7D7FF30B1220A2846DC
:100B90008521BDE83840FFF7CFBF38BD38B5CAB2B0
:100BA0000C4686210546FFF7C7FF30B1220A2846CA
:100BB0008721BDE83840FFF7BFBF38BD0A4689210D
:100BC000FFF7BABF0A468B21FFF7B6BF38B5154607
:100BD000FFF79EFF044668B1012239210648FFF75E
:100BE000BBF80548FEF7D5FF20B10348FEF7E6FF46
:100BF0002870F6E7204638BD7425002007B580210F
:100C00000DF10702FFF7E2FF10B19DF8070000E0C9
:100C1000FF2003B05DF804FB70B505460E46144690
:100C2000FFF7ECFFFF2819D0062E04F0010208D8C8
:100C30000123B3400AB1184301E020EA0300C0B227
:100C400005E0072E03D1002A14BF7F2000200246B2
:100C500080212846BDE87040FFF76EBF002070BDC0
:100C600001220021FFF7D8BF00221146FFF7D4BFB1
:100C700000230A460B709C21FFF7A8BF37B50D462D
:100C80000DF107028F210446FFF7A0FF60B19DF828
:100C9000072002F03F0242EA8512D2B28F2120469D
:100CA0008DF80720FFF748FF03B030BD37B50C467D
:100CB0000DF107028F210546FFF788FF68B19DF807
:100CC0000720A40022F00C0204F00C0422438F2120
:100CD00028468DF80720FFF72FFF03B030BD37B54A
:100CE0000C460DF107028F210546FFF76FFF60B13B
:100CF0009DF8072004F0030422F0030222438F2111
:100D000028468DF80720FFF717FF03B030BD37B531
:100D10000C460DF10702A3210546FFF757FF68B106
:100D20009DF80720640122F0600204F06004224371
:100D3000A32128468DF80720FFF7FEFE03B030BD43
:100D400037B50C460DF10702A3210546FFF73EFF1C
:100D500068B19DF80720E40022F0180204F018049E
:100D60002243A32128468DF80720FFF7E5FE03B0B4
:100D700030BD37B50C460DF10702A3210546FFF73C
:100D800025FF60B19DF8072004F0070422F0070258
:100D90002243A32128468DF80720FFF7CDFE03B09C
:100DA00030BD37B50C460DF1070280210546FFF72F
:100DB0000DFF68B19DF80720640122F0200204F0C5
:100DC00020042243802128468DF80720FFF7B4FE37
:100DD00003B030BD38B50D4602210446FFF766FF6B
:100DE000B8B100212046FFF749FF90B17DB1012144
:100DF0002046FFF7D6FF60B12046FFF731FF40B134
:100E0000204601220221BDE83840FFF705BF2946F0
:100E1000EEE7002038BD37B50C460DF10702AB21D7
:100E20000546FFF7D3FE68B19DF80720640022F065
:100E3000020204F002042243AB2128468DF8072069
:100E4000FFF77AFE03B030BD13B504467A497B48FC
:100E500001F024F80DF1070292212046FFF7B6FEBB
:100E600008B90024E5E09DF80730AB2B01D09C2B9E
:100E7000F7D17349714801F011F80022072120468B
:100E8000FFF7CAFE0028ECD0DB2281212046FFF7C5
:100E900053FE0028E5D0F62283212046FFF74CFEC2
:100EA0000028DED087228E212046FFF745FE00284D
:100EB000D7D000229D212046FFF73EFE0028D0D04B
:100EC00000229E212046FFF737FE0028C9D060226D
:100ED0008D212046FFF730FE0028C2D00021204699
:100EE000FFF7CCFE0028BCD002212046FFF7DEFE33
:100EF0000028B6D001212046FFF7F1FE0028B0D02F
:100F000000212046FFF75AFE0028AAD032212046B1
:100F1000FFF758FE0028A4D04FF6FF712046FFF7D8
:100F20002DFE00289DD000212046FFF737FE002827
:100F300097D011228C212046FFF7FEFD002890D08B
:100F4000012290212046FFF7F7FD002889D00022DA
:100F50009F212046FFF7F0FD002882D0394937480D
:100F600000F09CFF28212046FFF700FE00283FF4F8
:100F700078AF1E212046FFF7FDFD00283FF471AF3A
:100F80004022A2212046FFF7D7FD00283FF469AF99
:100F900001212046FFF7BBFE00283FF462AF00218D
:100FA0002046FFF7CDFE00283FF45BAF012120462D
:100FB000FFF7DFFE00283FF454AF0022A4212046B3
:100FC000FFF7BAFD00283FF44CAF0022A5212046D0
:100FD000FFF7B2FD00283FF444AF0022A7212046CE
:100FE000FFF7AAFD00283FF43CAF0022A9212046CC
:100FF000FFF7A2FD00283FF434AFC922A621204606
:10100000FFF79AFD00283FF42CAF0022AA212046CA
:10101000FFF792FD00283FF424AF20460021FFF7A0
:10102000FAFE044600283FF41CAF0749034800F0CD
:1010300035FF204602B010BD3D630200642600204B
:101040004D630200666302009F63020000F060B817
:10105000D0B52DED048BB0EE409AF0EE609A294C9D
:101060008AB000F04BF994F90030B0EE408AF0EE0F
:10107000608A01330FD0B0EE490AF0EE690A00F041
:10108000D3FB40B10026002751EC190B32463B46FA
:1010900001F09EFE38B9B0EE480AF0EE680A0AB0D8
:1010A000BDEC048BD0BD184B2478019301220023A2
:1010B0008DED049B8DED029B009208936CB9CDE9F8
:1010C0000667684600F0DEFB88B1089BA3B99DED7A
:1010D000060B0AB0BDEC048BD0BD32463B46304611
:1010E000394601F02DFD022CCDE90601E9D101F0D0
:1010F00061FF21230360E8E701F05CFF089B0360C8
:10110000E5E700BF96200020906402000000000088
:1011100051EC110B43422DE9F047034321F0004805
:10112000754F48EAD373BB4255EC104B49D8634224
:10113000234325F0004A4AEAD373BB42A94640D86C
:1011400001F1404303F5801303438E4650D08E17C0
:1011500006F0020654EA0A0346EAD57639D050EA88
:1011600008033ED0B84555D0BA453AD0C8EB0A0876
:101170004FEA2858B8F13C0F40DC002970DB0246EA
:101180000B462046294601F0DBFC41EC100B00F039
:1011900043FB00F085F951EC100B012E5AD0022EC2
:1011A00048D0002E42D03EA3D3E9002301F0EAF953
:1011B0003DA3D3E9002301F0E5F941EC100BBDE8B4
:1011C000F08722462B4601F0DFF941EC100BBDE819
:1011D000F087022E16D0032E0ED19FED350BBDE801
:1011E000F087B9F1000F11DB9FED330BBDE8F087FD
:1011F000BDE8F04700F054B9BDE8F0872EA1D1E971
:101200000001CAE79FED280BBDE8F0879FED2C0B8E
:10121000BDE8F087C24529D0022EF3D0032EDCD0E2
:10122000012E2DD09FED280BBDE8F08741EC100B6F
:10123000BDE8F0871AA3D3E9002301F0A3F9024621
:101240000B4619A1D1E9000101F09CF941EC100B0A
:10125000BDE8F08701F1004141EC100BBDE8F087DB
:1012600018F13C0F8BDA0020002196E7022E13D0F4
:10127000032E0DD0012E07D09FED150BBDE8F08792
:101280009FED150BBDE8F0879FED150BBDE8F087CE
:101290009FED150BBDE8F0879FED150BBDE8F087BE
:1012A000075C143326A6A13C182D4454FB210940A9
:1012B000182D4454FB2109C0182D4454FB21F93F3B
:1012C000182D4454FB21F9BF00000000000000006D
:1012D000182D4454FB21E93F00000000000000806D
:1012E000182D4454FB21E9BFD221337F7CD902C0A1
:1012F000D221337F7CD902400000F07F2DE9F041FC
:10130000654955EC104B0E462940B14200F09780DC
:10131000002D2B4610EE102A74DD2F157FD0A7F27A
:10132000FF37C3F31303F90743F4801365D403EBCA
:10133000D27100260B447F105200B64616204FF49F
:1013400000110EEB01049C424FEAD2754FEA4202B3
:1013500003DC1B1B04EB010E0E44013805EB4303B9
:101360004FEA5101EDD1844620244FF0004109E0BD
:1013700020D003EBD275013C4FEA51012B444FEAD8
:10138000420220D09E4501EB0C05F1DA002D05EB61
:10139000010C09DBF0469542CEEB030300D9013B7B
:1013A000521B0844C646E4E7BCF1000FF2DB0EF125
:1013B0000108F0E795421ED8002D05EB010C50DB2B
:1013C00098460023ECE7134304D0421C4DD000F0B4
:1013D0000103184440087110F30701F17F5101F532
:1013E000001148BF40F0004001EB0753024643ECB8
:1013F000102BBDE8F0817346BBE75B0003EBD273B3
:10140000520094E725F00041214328D0ADBB2F4680
:10141000D30A153F5205002BFAD0DD0228D4002153
:1014200000E001465B00DC0201F10100F9D5C0F1EA
:10143000200422FA04F423437F1A82406FE710EE5F
:10144000102A2B4610EE100A294601F04FFA2246C8
:101450002B4601F099F841EC100BBDE8F081BDE896
:10146000F081BCF1000FABDBA1E701362046B2E70B
:1014700020244FF0FF310020DBE710EE102A2B462E
:101480002046294601F07EF802460B4601F058FB43
:1014900041EC100BBDE8F0810000F07F000000007F
:1014A0002DE9F84F55EC104BD14B25F000469E42EC
:1014B000AB4610DDCF4B9E4200F3B28000F0AD8012
:1014C000BBF1000F40F3FD80ADA5D5E9004545EC2B
:1014D000104BBDE8F88FC84B9E4200F3C080A3F1CB
:1014E000DE739E4240F3A8804FF0FF3A22462B461F
:1014F0002046294601F0FAF902460B468046894605
:1015000001F0F4F9A0A3D3E9002306460F4601F049
:10151000EDF99FA3D3E9002301F036F832463B46AC
:1015200001F0E4F99CA3D3E9002301F02DF8324641
:101530003B4601F0DBF99AA3D3E9002301F024F83C
:1015400032463B4601F0D2F997A3D3E9002301F0DC
:101550001BF832463B4601F0C9F995A3D3E90023B5
:1015600001F012F842464B4601F0C0F992A3D3E9CC
:101570000023804689463046394601F0B7F990A3EA
:10158000D3E9002300F0FEFF32463B4601F0AEF9FE
:101590008DA3D3E9002300F0F5FF32463B4601F06E
:1015A000A5F98BA3D3E9002300F0ECFF32463B46BC
:1015B00001F09CF988A3D3E9002300F0E3FF324651
:1015C0003B4601F093F9BAF1FF3F02460B467CD04F
:1015D0004046494600F0D8FF22462B4601F086F9E6
:1015E000864E874B4FEACA0A56449A44DAE90023EA
:1015F00000F0C8FF22462B4600F0C4FF02460B460F
:10160000D6E9000100F0BEFFBBF1000F52DB04463B
:101610000D4645EC104BBDE8F88F002C3FF450AF61
:1016200022462B462046294600F0AEFF04460D46D2
:1016300045EC104BBDE8F88F69A3D3E9002310EE09
:10164000100A294600F0A0FF00226E4B01F0DEFBDD
:1016500000283FF449AF45EC104BBDE8F88F00F08F
:10166000DBF8694B9E4255EC104B3FDCA3F5502351
:101670009E4268DC10EE102A10EE100A2B46294616
:1016800000F082FF00225F4B00F07CFF0022064644
:101690000F464FF080432046294600F075FF024672
:1016A0000B463046394601F04BFA4FF0000A04462B
:1016B0000D461BE7044601F1004545EC104BBDE823
:1016C000F88F49A5D5E90045B2E74046494600F004
:1016D0005BFF22462B4601F009F902460B462046E5
:1016E000294600F04FFF04460D46A1E7474B9E42B6
:1016F0001DDC10EE100A0022454B294600F042FF87
:10170000002206460F46424B2046294601F0EEF8DD
:1017100000223C4B00F038FF02460B46304639466B
:1017200001F00EFA4FF0020A04460D46DEE62B46A3
:1017300010EE102A0020374901F002FA4FF0030A98
:1017400004460D46D2E610EE100A00222D4B294623
:1017500000F018FF002206460F462A4B2046294675
:1017600000F012FF02460B463046394601F0E8F918
:101770004FF0010A04460D46B8E600BFAFF3008003
:10178000182D4454FB21F93F11DA22E33AAD903F82
:10179000EB0D76244B7BA93F513DD0A0660DB13FA8
:1017A0006E204CC5CD45B73FFF8300922449C23F10
:1017B0000D5555555555D53F2F6C6A2C44B4A2BFD5
:1017C0009AFDDE522DDEAD3F6D9A74AFF2B0B33F9D
:1017D000711623FEC671BC3FC4EB98999999C93F15
:1017E0009C7500883CE4377E182D4454FB21F9BFDA
:1017F000FFFF0F440000F07FFFFFDB3FB8640200F3
:10180000986402000000F03FFFFFF23FFF7F0340BB
:101810000000F83F0000F0BF53EC102B23F0004312
:1018200043EC102B704700BF53EC102B33F00041FA
:1018300010B408D01148A3F58014844208D80420BD
:101840005DF8044B70471AB902205DF8044B7047ED
:1018500003F1FF43094803F5E0038342EFD9B1F5F3
:10186000801F01D20320EBE7054B994201D00020F5
:10187000E6E7B2FA82F04009E2E700BFFFFFDF7F50
:101880000000F07F002070470649074A074B9B1A6B
:1018900003DD043BC858D050FBDC00F011FAFAF726
:1018A00001FE00004068020080200020602100202E
:1018B000FEE7FEE7FEE7FEE7FEE7FEE7FEE7FEE700
:1018C000FEE7FEE72DE9F041304F0E463968054648
:1018D0001446A9B94FF0200842462D4801F0E6FB16
:1018E0002C4B4FF0FF321A605A602B4B4022C3F84A
:1018F0008020C3F8802183F806831A6001233B60AF
:101900001F2D41D8032C05D0042C05D0022C3BD12F
:10191000032402E0022400E00124204B1D4953F877
:10192000252000200B565D1C29D11A4B1A54184B48
:1019300043F82060830003F1804303F5C0431202A3
:10194000D3F8101521F4473121F44071C3F8101574
:10195000D3F8105502F4F85141EA04422A43C3F87F
:101960001025D3F8102542F00102C3F810250123F9
:1019700003FA00F00A4BC3F80403BDE8F0819A4271
:10198000D3D001300828CDD1BDE8F0813826002021
:101990003C2600203026002000E100E01064020018
:1019A000006000402DE9F743114D124E124FDFF851
:1019B0004C800024A94655F8043B012B12D1D6F8DF
:1019C0000423A34013420DD0E357013303D058F84A
:1019D000243003B19847002345F8043CD9F800307F
:1019E0000193019B0134082CE4D103B0BDE8F083DE
:1019F0000061004000600040302600203C260020AE
:101A0000094B1968094B30B5D3F804050A060B0ACF
:101A100002434FF47A71A2FB014501FB0355E00B31
:101A200040EA454030BD00BF5C2600200010014068
:101A300038B5044648B1FFF7E3FF054600F01AF851
:101A4000FFF7DEFF401B8442F8D838BD074B002269
:101A5000C3F8042182B0D3F80431054A0193019BF5
:101A600013680133DBB2136002B07047001001400D
:101A70005C260020704700001F2837B500F29380D5
:101A80004A4B53F82030052B19D007D8032B12D01E
:101A900013D8022B40F08780012215E01D2B10D0B7
:101AA00003D81C2B7FD105220EE01E2B0BD01F2B41
:101AB00079D1082208E0022206E0032204E0042291
:101AC00002E0062200E00722394B1968082908DDE8
:101AD0000A2909DD0D29B5BF0C240E240223032396
:101AE00004E00824002301E00A2401233148C0F85F
:101AF000F0350123C0F8003500200546030103F14D
:101B0000804303F5E04301300828C3F81455C3F8B7
:101B10001055F3D1284B1868284B1B6800021B0393
:101B200003F4805300F4E0601843224BC3F8180517
:101B3000C3F81425C3F810250DF10602C3F82C26AE
:101B40000122C3F830261A60D3F80001194A002890
:101B5000FAD00023C2F8003101235360D2F8040107
:101B6000144B0028FAD00022C3F8042101229A6005
:101B7000D3F81421002AFBD00E4A0023C2F81431F6
:101B8000BDF906209A420B4AB8BFADF806308C4228
:101B9000C2F80035BDF9060006D08BBF611A091BDB
:101BA000C840884000E0002003B030BD106402004F
:101BB0009C2000200070004098200020602600201B
:101BC0001F281BD80E4B53F82030032916D8DFE806
:101BD00001F0020E060A03F5E07300210AE003F5A6
:101BE000E0730C2106E003F5E073042102E003F545
:101BF000E07303214FF0A04242F82310704700BF6A
:101C0000106402001F280CD8064B53F82000012353
:101C10004FF0A042834011B9C2F80C357047C2F8AA
:101C200008357047106402001F289FBF4FF0A04383
:101C3000054AD3F8103552F820009ABF23FA00F075
:101C400000F0010000207047106402000C4B1B786C
:101C5000062B10D10B4B1B681A070CD10A4B1868C6
:101C600000F0F003302B08D000F0E000A0F14003BA
:101C7000584258417047002070470120704700BF0C
:101C8000E00F00F0E40F00F0E80F00F0094B1B78C4
:101C9000062B0CD1084B1B681A0708D1074B186894
:101CA00000F0F000A0F13003584258417047002086
:101CB000704700BFE00F00F0E40F00F0E80F00F005
:101CC00008B5FFF7E3FF10B14B4B4C4A1A60FFF722
:101CD000BDFF28B14A4B4B4A1B68C3F34233136024
:101CE000FFF7D4FF20B1484AD36823F08073D36054
:101CF000FFF7ACFF40B14FF080430022C3F80C2146
:101D0000C3F81021C3F83825FFF7C0FF10B13F4BCF
:101D100003221A60FFF7BAFF40B13D4B05221A605B
:101D200001229A6700229A603F225A60394B1B7841
:101D3000062B09D1384B1B681B0705D1374B1B6895
:101D400003F0F003502B0ED0354AD2F8883043F41C
:101D50007003C2F88830BFF34F8FBFF36F8F314BE2
:101D6000314A1A6008BD4FF08052304BD2F804144B
:101D7000C3F82015D2F80814C3F82415D2F80C14AF
:101D8000C3F82815D2F81014C3F82C15D2F814147F
:101D9000C3F83015D2F81814C3F83415D2F81C144F
:101DA000C3F84015D2F82014C3F84415D2F824140F
