:020000021000EC
:10C000000000012051180200791802007B1802007C
:10C010007D1802007F180200811802000000000055
:10C020000000000000000000000000008318020073
:10C03000851802000000000087180200891802001D
:10C040008B1802008B180200792302008B18020063
:10C050001DFE01008B1802006D1902008B180200F2
:10C060008B1802008B1802008B1802008B1802003C
:10C070008B1802008B1802008B1802008B1802002C
:10C080008B180200151A02008B1802008B18020090
:10C090008B1802008B1802008B1802008B1802000C
:10C0A0008B1802008B1802008B1802008B180200FC
:10C0B0008B1802008B180200000000000000000036
:10C0C0008B1802008B1802008B1802008B180200DC
:10C0D0008B1802008B1802008B1802000000000071
:10C0E0000000000000000000000000000000000050
:10C0F0000000000000000000000000000000000040
:10C10000000000000000000000000000000000002F
:10C11000000000000000000000000000000000001F
:10C40000044B05481B1A062B02D9044B03B11847ED
:10C41000704700BF63210020602100200000000061
:10C4200005490648091A891001EBD171491002D05B
:10C43000034B03B1184770476021002060210020A2
:10C440000000000010B5064C237843B9FFF7D8FF71
:10C45000044B13B10448AFF300800123237010BDD7
:10C460006021002000000000AC67020008B5084B06
:10C470001BB108490848AFF300800848036813B9A6
:10C48000BDE80840CCE7064B002BF9D09847F7E70A
:10C490000000000064210020AC6702005C21002045
:10C4A00000000000154B002B08BF134B9D46A3F561
:10C4B000803A00218B460F461348144A121A06F0A0
:10C4C000CFFD0F4B002B00D098470E4B002B00D018
:10C4D00098470020002104000D000D48002802D0DC
:10C4E0000C48AFF3008006F06BFD2000290005F03A
:10C4F000EBFF06F03FFD00BF000008000000012038
:10C50000000000000000000060210020D82600206C
:10C51000000000000000000070B505460C468E18B3
:10C52000B44206D02178284601F052FC04F8010BF1
:10C53000F6E770BD014A0260416070475C2500204B
:10C54000704770B5044615460E464068002105F058
:10C550003DFB04F108012068267265720222FFF794
:10C56000DBFF60680121BDE8704005F02FBB38B5E6
:10C5700004460D464068002105F028FB214665F081
:10C580007F0501F8085F02222068FFF7C5FF606899
:10C59000012105F01BFB607A38BD10B5044601216E
:10C5A000406805F0F1FA0121606805F00FFB206892
:10C5B00001F0F8FB0F212046FFF7D9FF032819D11E
:10C5C00041221A212046FFF7BCFF02221F212046EC
:10C5D000FFF7B7FFD8221C212046FFF7B2FF012248
:10C5E00027212046FFF7ADFF2046C1221B21FFF780
:10C5F000A8FF002010BD000070B54D00E91C0646E4
:10C60000FFF7B5FFA91C04463046FFF7B0FF40EA2C
:10C61000042000B206F0DEF80022044B06F040F9D8
:10C6200006F020FC00EE100A70BD00BF0000103FB5
:10C63000014B01221A607047A8240020F0B50B6856
:10C640000C4687B00846DB689847236806461B6996
:10C650002046984721490746684605F0E5FE3546DD
:10C66000AB1BDBB29F424FF010020CD915F8011B37
:10C6700003A805F0FCFE03A9684605F020FF03A807
:10C6800005F090FEECE700210098154E07F0E2FB64
:10C69000144B30601A781D4642B11349134805F017
:10C6A000D1FB0A223168114805F038FC2B7863B1C0
:10C6B00023682046DB689847236805461B692046A7
:10C6C00098470146284602F04BF8052005F094F9FA
:10C6D000684605F067FE07B0F0BD00BF775E020058
:10C6E0008C20002095200020145B0200642600208E
:10C6F000052005F081B9052005F07EB910B5034B82
:10C700000360044601F010FC204610BD38600200B2
:10C7100010B50446FFF7F2FF204605F0E9FE20467B
:10C7200010BD000010B5034B03600446FFF7E6FFA1
:10C73000204610BDEC5A020010B50446FFF7F2FF88
:10C74000204605F0D5FE204610BD000013B529494E
:10C75000294801F07CFD2749274801F008FF2748B8
:10C7600001F061FB0146244801F06EFD4FF6FF71B8
:10C77000214801F0FFFE21491F4801F0BEFE20497B
:10C780001D4801F0BAFE1F491B4801F0B6FE1E49C4
:10C79000194801F0B2FE1D4A1748002101F081FD41
:10C7A0001B4A1548012101F07CFD1A4A1A48002154
:10C7B00001F019FC174A1948002101F014FC02A9E4
:10C7C000002401F8014D0122134801F0C2FB02A927
:10C7D000012201F8024D114801F0BBFB064801F0AF
:10C7E00084FD0F4B1B781BB10E490F4805F03AFB37
:10C7F00002B010BD275B0200A4220020B02100205F
:10C800007C24002084220020BC210020F7C60100E7
:10C81000F1C601003DC601007824002080220020DE
:10C8200095200020305B02006426002000000000FC
:10C83000F0B52DED028B002183B04D484D4CFFF734
:10C84000DBFEB2EE048A20EE080A0121484884ED9E
:10C85000000AFFF7D1FE20EE080A0221444884EDC9
:10C86000010AFFF7C9FE20EE088A206884ED028ADB
:10C8700005F0C2FFD4ED018A68EE087A0446E8EEBE
:10C88000A87A0D4617EE900A05F0B6FF41EC100BA2
:10C8900004F0C2FBB0EE401AF0EE601A45EC104B0B
:10C8A00004F0B8FB2EA3D3E9002351EC100B05F0E4
:10C8B000F7FF314D314CF1EE487AC5E9000117EE32
:10C8C000900A05F099FFF1EE687ACDE9000117EEC4
:10C8D000900A05F091FF9DED001B41EC100B04F058
:10C8E00099FB1FA3D3E9002351EC100B05F0D8FFEF
:10C8F000002206460F46224BD5E9000105F01EFE38
:10C900000022C5E900011F4B3046394606F03AFACD
:10C91000B8B115A3D3E900233046394605F00EFE21
:10C920000022194B06460F4606F04AFA10B9C4E930
:10C9300000670EE00022144B3046394605F0FCFD3E
:10C9400005E00022114B3046394605F0F7FDC4E9F9
:10C95000000103B0BDEC028BF0BD00BFAFF300805F
:10C9600046DF617EDCA54C400000000000207C40DA
:10C97000E02100208C210020A0240020A8210020FC
:10C9800000806640008056C000807640008056409F
:10C9900010B53B483B4C2DED028B03F0C8FC07EE75
:10C9A000900AB8EE678A18EE100A05F025FF32A348
:10C9B000D3E9002306F0E6F910B984ED008A01E01E
:10C9C000002323602E4803F047FA18B12E4B1B7842
:10C9D000002B41D12D4803F0AAFC07EE900AB8EED7
:10C9E000678A18EE100A05F007FF23A3D3E9002396
:10C9F00006F0C8F910B984ED018A01E000236360F4
:10CA0000224803F029FA10B11F4B1B784BBB20487A
:10CA100003F08DFC07EE900AB8EE678A18EE100A54
:10CA200005F0EAFE14A3D3E9002306F0ABF910B930
:10CA300084ED028A01E00023A360154803F00CFA9C
:10CA4000A0B1114B1B788BB1BDEC028B1149124880
:10CA5000BDE8104005F0F6B910490F4805F0F2F9AD
:10CA6000B8E70F490C4805F0EDF9D0E7BDEC028BB3
:10CA700010BD00BFAFF300809A9999999999B93F79
:10CA800050220020982100209520002060220020C4
:10CA900070220020685B0200642600204A5B0200CE
:10CAA000595B020010B52DED028B9EB00446BD49C6
:10CAB000684601F0E9FB684601F0ECF9002800F057
:10CAC00051819FEDB97AB94A9FEDB96A08AB1EA9A9
:10CAD000B0EE475AF2EE005AF2EC017AF4EEC77A61
:10CAE000F1EE10FA02D583ED007A08E0F4EEC67A92
:10CAF000F1EE10FAD4BFC3ED007A83ED006AD3EDF6
:10CB0000007ADFEDA96A77EEC57A67EEA57AE3ECE5
:10CB1000017A8B42E0D1A74B93ED008AB4EEE68A0E
:10CB2000F1EE10FA09D4DFEDA27AB4EE678AF1EEE5
:10CB300010FAC8BFB0EE678A01E0B0EE668A1C202A
:10CB400004F07EFF07EE900A9FED9B7A9B4BF8EE78
:10CB5000676AC6EE877A9FED9A7A67EE877AFDEE6E
:10CB6000E77AC3ED007A002C40F09E801422214623
:10CB700003A806F075FADDED087AFCEEE77A17EE09
:10CB8000903ADDED097A8DF80C30FCEEE77A17EE7D
:10CB9000903ADDED0A7A8DF80D30FCEEE77A17EE6B
:10CBA000903ADDED0B7A8DF80E30FCEEE77A17EE59
:10CBB000903ADDED0C7A8DF80F30FCEEE77A17EE47
:10CBC000903ADDED0D7A8DF81030FCEEE77A17EE35
:10CBD000903ADDED0E7A8DF81130FCEEE77A17EE23
:10CBE000903ADDED0F7A8DF81230FCEEE77A17EE11
:10CBF000903ADDED107A8DF81330FCEEE77A17EEFF
:10CC0000903ADDED117A8DF81430FCEEE77A17EEEC
:10CC1000903ADDED127A8DF81530FCEEE77A17EEDA
:10CC2000903ADDED137A8DF81630FCEEE77A17EEC8
:10CC3000903ADDED147A8DF81730FCEEE77A17EEB6
:10CC4000903ADDED157A8DF81830FCEEE77A17EEA4
:10CC5000903ADDED167A8DF81930FCEEE77A17EE92
:10CC6000903ADDED177A8DF81A30FCEEE77A17EE80
:10CC7000903A8DF81B30DDED187AFCEEE77A17EE6E
:10CC8000903ADDED197A8DF81C30FCEEE77A17EE5C
:10CC9000903ADDED1A7A8DF81D30FCEEE77A17EE4A
:10CCA000903A8DF81E3055E0012C58D11422002105
:10CCB00003A806F0D5F9DDED1B7A8DF81F40FCEED8
:10CCC000E77A17EE903ADDED1C7A8DF80C30FCEE29
:10CCD000E77A17EE903ADDED1D7A8DF80D30FCEE17
:10CCE000E77A17EE903A8DF80E30364BD3ED007A96
:10CCF000FCEEE77A17EE902AD3ED017A8DF80F203B
:10CD0000FCEEE77A17EE902AD3ED027A8DF8102028
:10CD1000FCEEE77A17EE903A8DF811302A4BD3E902
:10CD2000000106F07FF8294B8DF81200D3E90001CD
:10CD300006F078F8DFED1C7A8DF8130038EE678A7C
:10CD4000F2EE007A28EE278AFCEEC87A17EE903AC7
:10CD50008DF81430142203A91D4801F0FAF80520BB
:10CD600004F04AFE1B4B1B78C3B11B491B4805F05E
:10CD700069F804F029FE1A4B07EE900AB8EE677ABC
:10CD8000D3ED007A77EE677A17EE900A05F034FD5E
:10CD900041EC100B0221114805F06BF91EB0BDECFF
:10CDA000028B10BDA422002000008C422024002011
:10CDB0000000CA428021002000807F449020002093
:10CDC0000000C84298210020A0240020A8210020B3
:10CDD000B821002094200020775B02006426002008
:10CDE000842100202DE9F0411C2004F029FE07EEEB
:10CDF000900A9FEDE17AE14CE14EE24FE249E34DCA
:10CE0000DFF80884F8EE676A2046C6EE877A9FED61
:10CE1000E07A67EE877AFDEEE77AC7ED007A05F0F3
:10CE200011F8306805F0E8FC41EC100B02212046B7
:10CE300005F01CF92946204605F004F8D54920469E
:10CE400005F000F8706805F0D7FC41EC100B0221EA
:10CE5000204605F00BF92946204604F0F3FFCE49A1
:10CE6000204604F0EFFFB06805F0C6FC41EC100B63
:10CE70000221204605F0FAF82946204604F0E2FF98
:10CE8000C649204604F0DEFFF06805F0B5FC41EC31
:10CE9000100B0221204605F0E9F82946204604F04F
:10CEA000D1FFBF49204604F0CDFF306905F0A4FC56
:10CEB00041EC100B0221204605F0D8F82946204607
:10CEC00004F0C0FFB749204604F0BCFF706905F0CC
:10CED00093FC41EC100B0221204605F0C7F82946CF
:10CEE000204604F0AFFFB049204604F0ABFFB06924
:10CEF00005F082FC41EC100B0221204605F0B6F84B
:10CF00002946204604F09EFFA849204604F09AFFD7
:10CF1000F06905F071FC41EC100B0221204605F090
:10CF2000A5F82946204604F08DFFA149204604F0CB
:10CF300089FF306A05F060FC41EC100B02212046AD
:10CF400005F094F82946204604F07CFF99492046D4
:10CF500004F078FF706A05F04FFC41EC100B0221E1
:10CF6000204605F083F82946204604F06BFF9249DD
:10CF7000204604F067FFB06A05F03EFC41EC100B60
:10CF80000221204605F072F82946204604F05AFF97
:10CF90008A49204604F056FFF06A05F02DFC41EC6A
:10CFA000100B0221204605F061F82946204604F0C6
:10CFB00049FF8349204604F045FF306B05F01CFC17
:10CFC00041EC100B0221204605F050F8294620467E
:10CFD00004F038FF7B49204604F034FF706B05F005
:10CFE0000BFC41EC100B0221204605F03FF82946CE
:10CFF000204604F027FF7449204604F023FFB06B5D
:10D0000005F0FAFB41EC100B0221204605F02EF84A
:10D010002946204604F016FF6C49204604F012FF12
:10D02000F06B05F0E9FB41EC100B0221204605F006
:10D030001DF82946204604F005FF6549204604F006
:10D0400001FF306C05F0D8FB41EC100B02212046AB
:10D0500005F00CF82946204604F0F4FE5D49204610
:10D0600004F0F0FE706C05F0C7FB41EC100B0221E0
:10D07000204604F0FBFF2946204604F0E3FE564913
:10D08000204604F0DFFEB06C05F0B6FB41EC100B5F
:10D090000221204604F0EAFF2946204604F0D2FE91
:10D0A0004E49204604F0CEFEF06C05F0A5FB41ECA5
:10D0B000100B0221204604F0D9FF2946204604F037
:10D0C000C1FE4749204604F0BDFE306D05F094FBDB
:10D0D00041EC100B0221204604F0C8FF29462046EF
:10D0E00004F0B0FE3F49204604F0ACFE706D3E4EA9
:10D0F00005F082FB41EC100B0221204604F0B6FF44
:10D100002946204604F09EFE3849394D204604F059
:10D1100099FE384B186805F06FFB41EC100B0221AB
:10D12000204604F0A3FF4146204604F09BFE32490E
:10D13000204604F087FE314B022193ED000B204680
:10D1400004F094FF2946204604F07CFE2C4920463A
:10D1500004F078FE2B4B022193ED000B204604F0E7
:10D1600085FF2946204604F06DFE2749204604F03D
:10D1700069FE30684CE000BF00807F4464260020D8
:10D180002024002090200020935B0200DC64020039
:10D190000000C842985B02009D5B0200A25B020097
:10D1A000A75B0200AC5B0200B15B0200B65B020051
:10D1B000BB5B0200C05B0200C65B0200CC5B0200EE
:10D1C000D25B0200D85B0200DE5B0200E45B02007F
:10D1D000EA5B0200F05B0200F65B0200FC5B02000F
:10D1E000025C0200085C02008C2100200E5C020040
:10D1F000765E020080210020155C0200A024002041
:10D200001D5C0200A8210020245C0200775E020061
:10D2100005F0F2FA41EC100B0221204604F026FF43
:10D220002946204604F00EFE2F49204604F00AFE4F
:10D23000706805F0E1FA41EC100B0221204604F081
:10D2400015FF2946204604F0FDFD2849204604F03C
:10D25000F9FDB068264E05F0CFFA41EC100B022123
:10D26000204604F003FF4146204604F0FBFD21491F
:10D27000204604F0E7FD306805F0BEFA41EC100BE3
:10D280000221204604F0F2FE2946204604F0DAFD91
:10D29000706805F0B1FA41EC100B0221204604F051
:10D2A000E5FE2946204604F0CDFDB06805F0A4FA5D
:10D2B00041EC100B0221204604F0DBFE0E49204613
:10D2C00004F0C0FD0D4B0A221968204604F026FE2A
:10D2D0000B49204604F0B6FD396820460A22BDE815
:10D2E000F04104F01BBE00BF2B5C0200325C020068
:10D2F00098210020395C0200495C02008C2000204B
:10D300004F5C02002B4B2C481A682C4B70B51A60EE
:10D310002B4D2C4C2C4E02F099FD2C4802F096FD22
:10D320002B4802F093FD18212846FFF703F9284601
:10D33000284D2949224605F0E5FD284603F075FBF6
:10D34000224626492846264D05F0DCFDFF231A46D5
:10D350001946284601F01AF9224622492846224D4C
:10D3600005F0D0FD2149224801F0DAF902222149D5
:10D37000284601F0DDF928461F4D2246314605F0CA
:10D38000C1FD08221D49284601F0D2F928461C4D4E
:10D390002246314605F0B6FD12221A4928461423CA
:10D3A00000F0ECFD224628461749BDE8704005F024
:10D3B000A9BD00BF84200020502200207C21002035
:10D3C000E02100208020002025C7010060220020ED
:10D3D00070220020AC24002041C501004F0A020049
:10D3E000A422002001E5010078240020105D020045
:10D3F000B0210020155D0200802200201A5D02008D
:10D40000B82100201F5D020029DF010038B5054664
:10D4100071B301292ED002292ED003292ED0042940
:10D420002ED005292ED006292ED007292ED0082946
:10D430002ED009292ED00A292ED00B292ED00C2926
:10D440002ED00D292ED00E292ED00F292ED0102906
:10D450002ED011292ED012292ED013292ED01429E6
:10D460002ED015292ED0162914BF002444242AE0DA
:10D470000C4628E02A2426E02B2424E02C2422E059
:10D480002D2420E02E241EE03B241CE032241AE050
:10D49000332418E0342416E0352414E0362412E056
:10D4A000372410E038240EE03A240CE03C240AE053
:10D4B0003D2408E03E2406E0402404E0412402E04C
:10D4C000422400E0432421466A4802F0E8FB294652
:10D4D000684802F001FB6420013800BF00BF00BFB4
:10D4E00000BF00BF00BF00BF00BF00BF00BF00BF44
:10D4F00000BF00BF00BF00BF00BF00BF00BF00BF34
:10D5000000BF00BF00BF00BF00BF00BF00BF00BF23
:10D5100000BF00BF00BF00BF00BF00BF00BF00BF13
:10D5200000BF00BF00BF00BF00BF00BF00BF00BF03
:10D5300000BF00BF00BF00BF00BF00BF00BF00BFF3
:10D5400000BF00BF00BF00BF00BF00BF00BFC3D10E
:10D550000021484802F0ADFB03222146454802F075
:10D560009BFB6420013800BF00BF00BF00BF00BFAD
:10D5700000BF00BF00BF00BF00BF00BF00BF00BFB3
:10D5800000BF00BF00BF00BF00BF00BF00BF00BFA3
:10D5900000BF00BF00BF00BF00BF00BF00BF00BF93
:10D5A00000BF00BF00BF00BF00BF00BF00BF00BF83
:10D5B00000BF00BF00BF00BF00BF00BF00BF00BF73
:10D5C00000BF00BF00BF00BF00BF00BF00BF00BF63
:10D5D00000BF00BF00BF00BF00BFC3D1254802F09D
:10D5E0008DFA0446234802F089FA0546214802F0E4
:10D5F00085FA6420013800BF00BF00BF00BF00BF34
:10D6000000BF00BF00BF00BF00BF00BF00BF00BF22
:10D6100000BF00BF00BF00BF00BF00BF00BF00BF12
:10D6200000BF00BF00BF00BF00BF00BF00BF00BF02
:10D6300000BF00BF00BF00BF00BF00BF00BF00BFF2
:10D6400000BF00BF00BF00BF00BF00BF00BF00BFE2
:10D6500000BF00BF00BF00BF00BF00BF00BF00BFD2
:10D6600000BF00BF00BF00BF00BFC3D144EA052018
:10D6700080B238BD7425002008B5FFF7C7FE07EE5D
:10D68000900AF8EE677A17EE900A05F0B5F80AA34B
:10D69000D3E9002305F004F905F0E4FB05F0ACF84C
:10D6A00007A3D3E9002304F047FF05F0DBFB00EEFE
:10D6B000100A08BDAFF300807B14AE47E17A943FB7
:10D6C000666666666612714008B501462720FFF758
:10D6D000D3FFF2EE027A20EE270AF1EE047A80EE12
:10D6E000277ADFED057A77EE277A17EE900A05F0B4
:10D6F00083F841EC100B08BD0000004208B501465C
:10D700002620FFF7B9FFF2EE027A20EE270AF1EEAB
:10D71000047A80EE277ADFED057A77EE277A17EE26
:10D72000900A05F069F841EC100B08BD00000042BA
:10D73000F8B5174E174F0024354601342046FFF741
:10D74000DDFF51EC100B05F08DFB46F8040B204675
:10D75000FFF7BAFF51EC100B05F084FB162C47F8CD
:10D76000040BEAD195ED017AD5ED007A0A4B77EEFC
:10D77000877A95ED027A77EE877A95ED037A77EEE0
:10D78000877AB5EE007A67EE877AC3ED007AF8BD46
:10D79000F8210020202400208021002070B5734D46
:10D7A0002B782DED028B002B3AD0714C23781BB1D6
:10D7B0007049714804F056FB0E2004F019FA78BB4A
:10D7C000237828701BB16D496B4804F055FB41214B
:10D7D0006B4802F071FD502004F00EF941216948B8
:10D7E00002F06AFD502004F007F94121664802F07A
:10D7F00063FD502004F000F9644803F0E7F90121CB
:10D80000624803F0CBFB237810B133B1604901E0EB
:10D810001BB16049584804F02FFB322004F0ECF8AB
:10D820005D4B5E4C93ED008AD4ED007A37EE888A2A
:10D8300004F0CAF807EE900AF8EE677AB4EEE78AC9
:10D84000F1EE10FA40F15C812B78002B40F058810A
:10D8500004F0BAF8464B07EE900A1A78F8EE677AA9
:10D860001E46C4ED007ADAB14D49434804F0FAFA95
:10D870004C49414804F0E6FA94ED007ADFED4A7A2B
:10D88000C7EE276A16EE900A04F0B6FF41EC100BC3
:10D890000221394804F0EAFB4449374804F0E2FA2F
:10D8A000434D2B78BBB14349334804F0CBFA04F025
:10D8B0008BF807EE900AB8EE677AD4ED007A77EE2F
:10D8C000677A17EE900A04F097FF41EC100B0221E3
:10D8D000294804F0CEFB384800F0AEFC2B78BBB1F1
:10D8E0003649254804F0AEFA04F06EF807EE900AC7
:10D8F000B8EE677AD4ED007A77EE677A17EE900A81
:10D9000004F07AFF41EC100B02211B4804F0B1FB3C
:10D910000E2004F06DF9014600B10121102004F041
:10D9200055F92B78BBB12649134804F08BFA04F063
:10D930004BF807EE900AB8EE677AD4ED007A77EEEE
:10D94000677A17EE900A04F057FF41EC100B0221A2
:10D95000094804F08EFB1B4A1368002B36DD013B9F
:10D960001360194B1B78ABBB012130E088200020ED
:10D9700095200020245D0200642600202F5D020017
:10D98000502200206022002070220020AC240020C1
:10D990003E5D02005C5D02007C21002084210020AD
:10D9A000DC6402008D5D020000007A44945D020098
:10D9B00094200020975D0200A4220020BB5D02009D
:10D9C000D15D020088210020DC21002000210820F8
:10D9D00004F0FCF8FEF72CFF2B78BBB14A494B480A
:10D9E00004F030FA03F0F0FF07EE900AB8EE677A21
:10D9F000D4ED007A77EE677A17EE900A04F0FCFE19
:10DA000041EC100B0221414804F033FBFEF7C0FF4C
:10DA10002B78BBB13E493D4804F014FA03F0D4FF23
:10DA200007EE900AB8EE677AD4ED007A77EE677A5F
:10DA300017EE900A04F0E0FE41EC100B022133488F
:10DA400004F017FBFFF774FE2B78BBB131492F4868
:10DA500004F0F8F903F0B8FF07EE900AB8EE677A21
:10DA6000D4ED007A77EE677A17EE900A04F0C4FEE0
:10DA700041EC100B0221254804F0FBFA0020FFF7CF
:10DA800011F80120FFF70EF82B78BBB122491F488F
:10DA900004F0D8F903F098FF07EE900AB8EE677A21
:10DAA000D4ED007A77EE677A17EE900A04F0A4FEC0
:10DAB00041EC100B0221154804F0DBFA33780BB16E
:10DAC000FFF790F92B78DBB11449104804F0BAF94C
:10DAD00003F07AFF07EE900AB8EE677AD4ED007A89
:10DAE00077EE677A17EE900A04F086FEBDEC028BA3
:10DAF00041EC100BBDE870400221044804F0B9BAB3
:10DB0000BDEC028B70BD00BFEB5D020064260020FF
:10DB10000B5E0200265E02003F5E0200625E0200B3
:10DB2000F8B501211D2004F02FF801210F2004F089
:10DB30002BF80021042004F027F802210E2004F025
:10DB400023F80121102004F01FF80121102004F017
:10DB50003DF80121082004F017F80021082004F006
:10DB600035F84FF4E131554804F0CFFA544B1B78A7
:10DB70001BB15449514804F065F9322003F03CFFD1
:10DB80005148524E524D534C01F0EAFF322003F0FF
:10DB900033FFFEF7DBFD00211D2004F017F8002104
:10DBA0000F2004F013F8642003F026FF4A4943488D
:10DBB00004F058F90121304602F0C0FC45213046FE
:10DBC00002F0A6F94FF4FA7744493C48778004F014
:10DBD00049F901211D2003F0F9FF642003F00CFF37
:10DBE0000121284602F0AAFC4621284602F090F9BD
:10DBF0003B4932486F8004F035F901210F2003F0D2
:10DC0000E5FF642003F0F8FE0121204602F096FCB7
:10DC10004721204602F07CF96420678003F0ECFE87
:10DC20004121304602F048FB502003F0E5FE41213F
:10DC3000284602F041FB502003F0DEFE4121204641
:10DC400002F03AFB04200322264903F01FFE264877
:10DC500003F08AF808B1254900E02549174804F087
:10DC60000BF90121204803F099F908B1214900E09E
:10DC70002149124804F000F92049104804F0E2F864
:10DC80001F48FEF78AFC0A2201460C4804F046F9B8
:10DC9000C82003F0B1FE0D4802F044F90C4802F030
:10DCA00041F90C4802F03EF90F4802F093FF4FF49F
:10DCB000FA70BDE8F84003F09FBE00BF6426002064
:10DCC000952000206E5E0200742500205022002066
:10DCD0006022002070220020785E02008C5E02002C
:10DCE000A05E020031C60100AC240020B45E020038
:10DCF000D65E02003E5D02005C5D0200025F020033
:10DD0000E021002038B50025057329B90B4B0C4ADA
:10DD10000C48232105F0FCF801600B4951F8222042
:10DD2000027151F8233083719DF8103051F823307F
:10DD300043710223C371856038BD00BF585F020084
:10DD40001B5F0200665F020088630200037B23B949
:10DD50004373837303610123037370471FB50DF190
:10DD6000100E0EE90E009DF808100268002301292C
:10DD7000C2F80035039B08D004D3032907D143F030
:10DD8000040304E043F0020301E043F00603C2F899
:10DD90005435019BC2F824350123C2F8003505B083
:10DDA0005DF804FB10B5FFF7D1FF03688279C3F873
:10DDB00008254279C3F80C250279C3F81025034BD6
:10DDC000BDE810400ECBFFF7C9BF00BF50250020B3
:10DDD0000368C3F81C15D3F80821002AFBD0D3F838
:10DDE00018050022C3F80821C0B2704707B5094BD7
:10DDF00009490A484FF080421A6000229A600222C4
:10DE00001A710B2300930D220C23FFF77BFF03B045
:10DE10005DF804FB50250020003000405C25002008
:10DE2000016082807047006870478088704729DFF2
:10DE3000704728DF704703681868013018BF012059
:10DE4000704708B54FF080531A690368B3FBF2F3CB
:10DE50001846FFF7EEFF1128FAD008BD38B5044682
:10DE60000D461946FFF7EDFF8B081A462946206834
:10DE7000FFF7DDFF1128F8D038BD10B5026808465D
:10DE8000043A441AA34204D952F8044F40F8044B10
:10DE9000F7E710BD07B5002306226946043000935A
:10DEA000ADF8043005F0C2F8003018BF012003B00F
:10DEB0005DF804FB0B6843608B8803817047002387
:10DEC00043600381704708B50160FFF7F8FF08BDA4
:10DED000807A7047C0687047007C704700207047A8
:10DEE000C368585C704770B50D4611460268044619
:10DEF000D6691A46B0470123A374A36923B121460A
:10DF00002846BDE87040184770BD70B50446084605
:10DF10000D4605F011FF2368C2B229462046DB6991
:10DF2000BDE8704018470000044B10B5044603607C
:10DF3000C06808B105F072F8204610BDA45F020069
:10DF400010B50446FFF7F0FF204604F0D1FA204652
:10DF500010BD10B5837A9A42044628BF1A4602744F
:10DF6000C06805F072F8606928B1036821461B6833
:10DF7000BDE810401847012010BD000070B50446F0
:10DF80001D461646043042F6030200F08FF8142DA9
:10DF90004FF0000228460A4B236028BF1420A072CD
:10DFA000E26022746674A274E2746261A261E2614A
:10DFB000226215B105F02AF8E060204670BD00BF6E
:10DFC000A45F0200407C7047C07C70470346002A73
:10DFD000DA7414BF07220822084653F822200AB137
:10DFE0001946104770470B299CBF063140F8212085
:10DFF0007047416170477047704770470020704715
:10E00000704770470020704700207047002070471D
:10E0100000207047002070470020704700207047A4
:10E020000020704700207047002070470020704794
:10E0300000207047704770477047704710B504461E
:10E0400004F056FA204610BD054A02606422828020
:10E0500001210022C28002818172C2600261704788
:10E06000D45F0200016170470120704710B5034B77
:10E0700003600446FFF758FF204610BD38600200D9
:10E0800010B50446FFF7F2FF204604F031FA2046AF
:10E0900010BD000038B504461D46FFF76FFF024B68
:10E0A00025742360204638BD3860020010B5044650
:10E0B000FFF7B6FE024A137801331370204610BDF5
:10E0C00070250020014B1878704700BF7025002094
:10E0D000C06803681B6A1847A0F10400FFF7F8BF87
:10E0E000C06803685B6A1847A0F10400FFF7F8BF37
:10E0F000C06803689B6A1847A0F10400FFF7F8BFE7
:10E10000C0680368DB6A1847A0F10400FFF7F8BF96
:10E11000C06803681B6B1847A0F10800FFF7F8BF41
:10E12000C06803685B6B1847A0F10800FFF7F8BFF1
:10E13000C06803689B6B1847A0F10800FFF7F8BFA1
:10E14000C06810B40468E46BA4465DF8044B6047F3
:10E15000A0F10800FFF7F4BFC06803681B6C184704
:10E16000A0F10800FFF7F8BFC06803685B6C1847B0
:10E17000A0F10800FFF7F8BFC06803689B6C184760
:10E18000A0F10800FFF7F8BFC0680368DB6C184710
:10E19000A0F10800FFF7F8BFD0F8743113B100F513
:10E1A000B07018477047D0F8783113B100F5B070EF
:10E1B0001847704730B414461A4623685D6A9DF8C4
:10E1C000083000F5B071AC46204630BC604770475F
:10E1D000704770B5054600F5B07411462046FFF74C
:10E1E00069FED5F86C311BB12046BDE87040184778
:10E1F00070BDD0F8703110B500F5B0740BB1204689
:10E2000098472046BDE81040FFF759BE10B41446A9
:10E2100000F5B0711A4620465DF8044BFFF7D6BEF4
:10E2200010B4144600F5B0711A4620469DF804302B
:10E230005DF8044B00F056BAC0680368DB68184705
:10E24000C06803681B691847C0F88C107047C0F895
:10E250009C10704738B5D0F8A83004460D463BB93D
:10E2600000F01CFA00B2800004F0D0FEC4F8A80050
:10E2700094F8AC20D4F8A83043F8225094F8AC308D
:10E28000013384F8AC3038BD38B505460C46084635
:10E29000FFF7D2FF04F5B07107C985E807002846EB
:10E2A00038BD0F299CBF00EB8100C0F86C2170477E
:10E2B00010B50446FFF706FF00B2800004F0A6FE8A
:10E2C00004F1B003036004F1BC03436004F1E00314
:10E2D000836004F58073C36004F5867303610523CE
:10E2E00084F8A430C4F8A00010BD2DE9F043D0F8A4
:10E2F0009010ADB0002304468DF83030E1B106A88F
:10E3000000F054FA06A800F083FA022805468CBFF4
:10E31000152314238DF8500006A88DF8513000F015
:10E3200075FA2A460146C5F11A050DF1520004F0AE
:10E330008CFEEDB2012601E01C250E46D4F88C10AF
:10E3400031B306A800F032FA06A800F061FA431CC7
:10E35000AB4207461CDAC6EB46182CAB43440228F6
:10E360008CBF0622022203F8600C03F85F2C06A87B
:10E3700000F04CFA2CAB984401463A46A8F15E00F6
:10E38000023D04F062FE0136ED1BF6B205F0FF051A
:10E39000D4F89410C9B194F89820B2B1022D14D9D0
:10E3A000531CAB42C6EB46102CAB0344A4BF023D4A
:10E3B000EAB2FF2503F8602C03F85F5C2CAB18442D
:10E3C0005E3804F042FE0136F6B2D4F89C50BDB17E
:10E3D000284605F0B1FCC0B21D288ABF1D238DF868
:10E3E00030008DF830309DF8302090428CBF0820EE
:10E3F00009208DF8310029460DF1320004F025FE88
:10E40000D4F8A03013B92046FFF752FF002742F698
:10E41000030804F1040994F8A4309F4205DB0027A7
:10E4200042F6030804F108091BE0D4F8A03053F8C1
:10E4300027502846FFF7F9FC404506D10DB1281FAB
:10E4400000E028464946FFF7D4FD0137E3E7D4F85A
:10E45000A83053F827502846FFF7E7FC404505D081
:10E46000013794F8AC309F42F1DB07E00DB1281F73
:10E4700000E02846494600F049F9F1E74BB104F5C0
:10E4800096712046FFF7E6FE04F59C712046FFF7E3
:10E49000E1FEE06894F8AC1002680491D4F8A8108A
:10E4A000039194F8A41002919DF83030D4F8A01094
:10E4B00001910CA90033009118BF012395683146E2
:10E4C00014AAA847E06803681B6D98472DB0BDE803
:10E4D000F08338B5D0F8A03004460D460BB9FFF7ED
:10E4E000E7FE94F8A420D4F8A03043F8225094F822
:10E4F000A430013384F8A43038BDFFF7EABF000030
:10E50000154B10B503F16802036004468033426086
:10E510008360FFF795FED4F8A80008B104F07EFDF3
:10E52000D4F8A00008B104F079FD04F59A7000F069
:10E53000BBF804F58470FFF7F7FC04F1DC00FFF78B
:10E54000F3FC04F1B800FFF7EFFC04F1100000F059
:10E5500041FE204610BD00BF8C60020010B504468D
:10E56000FFF7CEFF204603F0C3FF204610BDB830B2
:10E57000FFF7CBBC07B502AB022223F8021DDC304B
:10E580001946FFF7E6FC03B05DF804FB2DE9F843FC
:10E59000354BDFF8E890DFF8E88003F10802044625
:10E5A000026000F1100703F1700288330025426019
:10E5B0008360384601F04AFA04F1B806C4F88C507A
:10E5C000C4F89050C4F8945084F89850C4F89C5003
:10E5D000C4F8A05084F8A450C4F8A85084F8AC50F3
:10E5E000224904F1B00000F09BF8132302222049D5
:10E5F0003046FFF7C3FC02231A461E4904F1DC0033
:10E60000FFF7BCFC494604F5807000F089F804234C
:10E610002022414604F58470FFF7B0FC494604F51A
:10E62000967000F075F82022414604F59A7000F0CB
:10E6300043F8214604F5B070FFF745FC1022294647
:10E64000E76004F5B67004F00BFD0B493046FFF7A8
:10E650005CFC29462046FFF78DFFE0682146FFF766
:10E6600001FD2046BDE8F88384600200606002007E
:10E67000656002006A600200796002006F6002005B
:10E680007460020010B50446FFF7CAFB024A137813
:10E6900001331370204610BD71250020014B1878FE
:10E6A000704700BF71250020704710B5044603F085
:10E6B0001FFF204610BD000038B504461546043043
:10E6C00042F60302FFF7DEFF054B23600023A5722D
:10E6D000E372A36284F822306362204638BD00BF33
:10E6E0003461020070B50446C3720D460C30114609
:10E6F0001A4604F0AAFC012384F82230A36A23B14D
:10E7000021462846BDE87040184770BD41627047F9
:10E7100010B54FF420520446FFF7B4FF204610BD59
:10E7200010B54FF420520446FFF7C0FC204610BD40
:10E7300013B501230446FFF7ADFC02A9064B236085
:10E74000002301F8013D01222046FFF702FC034BA4
:10E750002360204602B010BD44610200EC5A020062
:10E76000F8B505460F460446631B9F4213DD237828
:10E7700013F0F00F264603D109490A4803F062FB63
:10E7800031780848102203F0A5FB074905480134F9
:10E7900003F058FBE8E70348BDE8F84003F05ABB34
:10E7A000135D020064260020DC640200F7B5044615
:10E7B00000232160037508460E468DF804308DF85D
:10E7C00005308DF8063005F0B7FA451E002D1ADB2E
:10E7D000277D0F2F17D8735D2D2B01D1013510E048
:10E7E0007219002112F8012C8DF8042001A81022C2
:10E7F0008DF8053005F0B6FB27443871237D0133D1
:10E800002375023DE2E7204603B0F0BD04307047B7
:10E81000007D704771DF704772DF704773DF7047AC
:10E8200075DF704776DF704777DF704778DF7047B6
:10E830007ADF70477CDF70477EDF70477FDF70478D
:10E8400086DF704790DF704792DF704796DF704732
:10E8500098DF704799DF7047A0DF7047A2DF7047ED
:10E86000A3DF7047A4DF7047A6DF7047A9DF7047BA
:10E8700060DF704761DF704762DF704763DF7047BA
:10E8800053DF704710DF704711DF704790F860006A
:10E89000003018BF0120704770B590F871600023F8
:10E8A000B34214DA1A01456FAC18AA588A420CD147
:10E8B000E38973B1227B02F0020202F0FF0342B14E
:10E8C00090F8780080F0010070BD0133E8E7002087
:10E8D00070BD184670BD70B590F871600023B342EA
:10E8E0001ADA1A01456FAC18AA588A4212D1E18986
:10E8F000A1B1227B02F0020202F0FF0382B10123E8
:10E9000080F878300022808FFFF7A0FFB0FA80F007
:10E91000400970BD0133E2E7002070BD084670BDBC
:10E92000184670BD70B590F871600023B3421CDAD0
:10E930001A01456FAC18AA588A4214D1E389B3B1C1
:10E94000227B130704D590F8780080F0010070BD99
:10E9500002F0040202F0FF034AB190F860000030B8
:10E9600018BF012070BD0133E0E7002070BD1846DC
:10E9700070BDF0B590F871E085B0002474452FDAD1
:10E980002501476F7E197D598D4227D1F4894CB3FB
:10E99000357B15F00C0127D090F8601021B315F0ED
:10E9A000080F14BF01250225ADF80A3001390123F3
:10E9B00080F860108DF8045080F87830002501A9A7
:10E9C000808F8DF80550ADF80640ADF808500392E1
:10E9D000FFF73EFFB0FA80F0400906E00134CDE7D2
:10E9E000002002E0204600E0084605B0F0BD70B50A
:10E9F00090F871600023B34210DA1A01456FAC1829
:10EA0000AA588A4208D1E08948B1237B13F0300F1D
:10EA100014BF0120002070BD0133ECE7002070BD61
:10EA20007FB590F871600023B3422EDA1A01456F6A
:10EA3000AC18AA588A4226D1E28942B3217B11F050
:10EA4000300326D0012311F0100F14BF1946022104
:10EA50001A44ADF80210ADF80620002102228DF80C
:10EA60000510ADF80810ADF80A2080F878306A4437
:10EA700001A9808F8DF804300392FFF7E9FEB0FA08
:10EA800080F0400906E00133CEE7002002E01046A6
:10EA900000E0184604B070BD03681B6C18477FB5D2
:10EAA00090F871600023B3422ADA1A01456FAC185E
:10EAB000AA588A4222D1E28922B3237B13F0300381
:10EAC0004FF0000120D001231A44ADF806200222A5
:10EAD000ADF802108DF80510ADF80810ADF80A2059
:10EAE00080F878306A4401A9808F8DF80430039251
:10EAF000FFF7AEFEB0FA80F0400906E00133D2E73E
:10EB0000002002E0104600E0184604B070BD11F18C
:10EB1000270F08B514DB11F11D0F14DB11F1130FD2
:10EB200014DB11F10F0F14DB11F10B0F14DBCA1DF5
:10EB300015DBCB1C16DB0029D4BF0020042013E01A
:10EB40006FF0270010E06FF01D000DE06FF0130074
:10EB50000AE06FF00F0007E06FF00B0004E06FF0C9
:10EB6000070001E06FF00300FFF75EFEB0FA80F0EF
:10EB7000400908BD1321808FFFF754BE07B5014639
:10EB80006846FFF747FE086920B103680DF10102EE
:10EB9000DB69984703B05DF804FB000013B5044639
:10EBA00002A8002340F8043DFFF76AFE019803F035
:10EBB00011FE084B002203F073FE04F053F92369A1
:10EBC00033B11A6800EE100A126A214618469047BF
:10EBD00002B010BD0000D03F704710B5044686B0AB
:10EBE00018220021684604F03BFAA37A33B994F85E
:10EBF0003430002B14BF0223032300E000238DF8E0
:10EC00000030A38868460A221B0193FBF2F3ADF89B
:10EC10001030FFF703FE06B010BD2DE9F0430546A6
:10EC200090F861008FB00C460023142683425DDA11
:10EC300006FB03F2696E8F188A58A24207D120465C
:10EC4000FFF7C0F9C30751D57B6813B94EE0013314
:10EC5000ECE795F833600DF11808324605F1140120
:10EC6000404604F0F2F9236820461B6998470430B7
:10EC70000644F6B21F2E39D87868FFF7D4F801465B
:10EC80006846FFF793FD236895F833701B692046AB
:10EC900098470EAB1F44033007F8200C95F83370EB
:10ECA0003B441622684603F81F2CFFF7AFFD0237DE
:10ECB000038828F80730236895F83370DB6820460E
:10ECC0009847236881461B69204698470437474484
:10ECD00002464946384604F0B8F900231A46314640
:10ECE0004046FFF799FDAC63012000E000200FB023
:10ECF000BDE8F0832DE9F047D4B04FF48E7304469D
:10ED00000DF10A010DA8ADF80A30FFF7B3FD034677
:10ED1000002840F04482BDF83420302A00F03C81C5
:10ED200011D8112A5CD004D8012A21D0102A27D06A
:10ED300035E2142A00F0C780192A00F0D080132A87
:10ED400040F02D829BE0382A00F0DA8106D8322A82
:10ED500000F06481362A00F0BA8120E2502A00F0E7
:10ED6000D180522A00F01281392A40F01882ECE159
:10ED700094F860209DF83C30134484F860300EE233
:10ED8000BDF83800A08705A9FFF776FD20699DF83A
:10ED9000143084F8603028B103680DF13D021B681F
:10EDA00021469847E288052A12D92389B3F5486F8E
:10EDB0000ED8ADF816300023ADF8183005A94FF481
:10EDC000C873A08FADF81420ADF81A30FFF728FDF6
:10EDD00094F86830002B00F0E2810022012109E163
:10EDE0004FF6FF72A28784F8600005464FF01409C1
:10EDF000804694F861309D4216DA676E09FB05F68D
:10EE0000BB19B85983F8108083F81180FFF7DCF83C
:10EE100040B1206930B10368BA59D3F814A0214633
:10EE20000023D0470135E4E7206918B10368214683
:10EE30005B68984700230C20194694F86820934299
:10EE400002DB0023184605E0E26E00FB03220133DB
:10EE50009160F2E794F87120934208DA616F1A0129
:10EE6000114401330873616F0A44D081F2E7002333
:10EE700084F87830236820469B6998478FE1E068E2
:10EE8000002800F08681FEF7D6FF002840F081813F
:10EE9000012303228DF80F3062F306138DF80C3036
:10EEA00007238DF80D30102300218DF80E30E36D0F
:10EEB00005938DF8101009910A910B910691079115
:10EEC00005AB03AA68E1E16DBDF84420488A904291
:10EED00018BF1946A08F1A46FFF7B2FC5FE19DF8F4
:10EEE0003C20002A40F05B81E06820B11C2304F143
:10EEF0004001FEF7B3FF2069002800F0508103684D
:10EF00009B68E1E0BDF83A8006464FF0140994F89A
:10EF100061309E4280F24381616E09FB06F3CF1897
:10EF20003A8942450CD12069002800F038810368F5
:10EF30009DF8442000921D693A680DF1460323E1D3
:10EF4000BA89424520D19DF847009DF8462042EA03
:10EF5000002295B202F001023A74C5F340027A74BD
:10EF600015F00305C85818BF0125FFF72DF8A84272
:10EF70000AD02069002800F0128103683A685E69AF
:10EF800021462B46B0470AE10136C0E7024601465A
:10EF9000A08FFFF76BFC02E1BDF83A2072BBBDF811
:10EFA00040500DA913460C26AB421CDA94F8687049
:10EFB0000020B84214DAE26E91F810C006FB00227D
:10EFC00092F806E0F44509D1B1F80EC0B2F804E0B9
:10EFD000F44503D1D1F81200906001E00130E8E778
:10EFE00001330831E0E70DAB03EBC5050022A98929
:10EFF000013189B2A08FFFF725FCD0E094F868209A
:10F000000C20934280F2CB80E16E00FB03110D894E
:10F0100015B14D89002D4BD10133F2E7BDF83A20EF
:10F0200094F87030002A36D1E66E03EB430306EB0A
:10F0300083030A259B6805930DAB9A8905FB02356E
:10F04000AB4223D0002194F87120914219DA626F0B
:10F0500094F8700002EB011200EB400056F82070AB
:10F06000506887420BD11F7C907A874207D1108964
:10F07000DF89874201BF987C1073D88AD081013123
:10F08000E1E7DA8AADF814200A33D9E705A9A08FA1
:10F09000FFF7DAFB83E001330C2294F868005A434F
:10F0A00083420CDAE16E11440D892DB14D891DB1F9
:10F0B00084F870300831EAE701330C32F0E7206958
:10F0C00000286CD00368DB682146984767E0BDF8EC
:10F0D0003A1084F8780040F20512914201D1E268BA
:10F0E000CAB9BDF8401094F871000023834256DA83
:10F0F000626F02EB0312D5898D423BD00133F5E7F5
:10F10000BDF83A1084F8780040F20512914246D1D9
:10F11000E268002A43D01A0E8DF8183042F001023E
:10F12000DBB28DF8172043F00103032262F30613CC
:10F130008DF8143007238DF8153005A91023A08F02
:10F140008DF81630FFF778FB29E09DF84230BDF8C6
:10F150004050022B03D12946A08FFFF77BFB94F888
:10F16000711000238B421ADA626F02EB0312D0890E
:10F17000A8420CD1206990B19DF844100368009119
:10F1800012689D690DF146032146A84707E0013347
:10F19000E8E700231A468521A08FFFF74FFB54B004
:10F1A000BDE8F08710B50446FFF76EFB606F08B14D
:10F1B00003F034FFE06E08B103F030FF606E08B179
:10F1C00003F02CFF002384F8613084F8683084F861
:10F1D000713010BD10B5054B03600446FFF7E2FF28
:10F1E0002046FEF72AFF204610BD00BF78610200CE
:10F1F00010B50446FFF7EEFF204603F079F92046EC
:10F2000010BD07B51288ADF80020ADF802106A46AF
:10F2100001464FF6FF700193FFF724FB03B05DF842
:10F2200004FB00002DE9F04FEDB09A469DF8E8315F
:10F230000193A24B769E9DF8E081054618680890E0
:10F240000F4608A800211446FFF71CFB9C4B0993AE
:10F25000142200210DA803F003FF0A2309A9ADF829
:10F2600034300DA801238DF840308DF83C30FFF785
:10F27000FFFA2822ADF82C205022ADF82E204FF0B6
:10F2800000094FF4C8720BA8ADF83220ADF83090E9
:10F29000FFF7CEFA4846FFF7C7FA6B75062302223E
:10F2A000AB7503232A7585F833301FB314B31444A8
:10F2B000B9451FDA95F8330014F8023C2A180133D7
:10F2C0001375023014F8013C5375C0B285F8330051
:10F2D000284414F8022C2146143003F0B6FE14F82A
:10F2E000023C95F83320134485F8333009F10109C5
:10F2F0001F34DDE724AFBAF1000F20D00EB34FF07A
:10F30000000902364B46D1451CDA16F802BC16F845
:10F31000011C0BF10102FA549C1CFA18E4B2517062
:10F3200038195A46314603F090FE5C444FF0010212
:10F33000E3B285F8342009F101091F36E3E75346AB
:10F3400000E033463A4695F8331005F11400FFF714
:10F3500063FA0020FFF76AFA002442F603064445E8
:10F360000DDA779B53F82400FEF75FFDB04202BF31
:10F3700095F86130013385F861300134EFE795F895
:10F3800061000338C0B285F8610000EB80008000A6
:10F3900003F03CFE00266866ADF814600296B146A4
:10F3A000464580F2BE81779B53F826402046FEF703
:10F3B0003AFD014617A8FFF7F9F917A8FFF726FA53
:10F3C000074617A8FFF724FA022809D17A783B7874
:10F3D00043EA0223ADF8283001238DF82A301CE0DF
:10F3E0003B460DF1B00E07F1100C186859687246D3
:10F3F00003C2083363459646F7D17A7B3B7B43EAE9
:10F400000223ADF828300DF12A0100232CA88DF835
:10F41000BD308DF8BC30FFF731FA2046FEF705FD10
:10F42000B0F5205F204611D1FEF7FDFC254904F020
:10F4300071FC002800F073812046FEF7F4FC22499D
:10F4400004F068FC002800F06A8131E2FEF7EDFC70
:10F4500042F60303984240F0358104B1043C271D75
:10F460003846FEF7E0FC194904F054FCB8B99DF8A1
:10F47000B030012262F3030362F307138DF8B0305A
:10F4800023682046DB689847236807461B692046A7
:10F490009847394682B22CA8FFF7CCF93FE13846AD
:10F4A000FEF7C1FC0A4904F035FC98B923682046F0
:10F4B000DB6898470088FFF7B9F930E16C6102001A
:10F4C00080200020606002006F6002006560020022
:10F4D0006A6002003846FEF7A6FCC14904F01AFC37
:10F4E000002800F01C812046FEF76CFD2368824650
:10F4F0001B69204698476A6EADF8160009EB890132
:10F500004FEA810B02EB0B0342F821400027029ADD
:10F510005A601F745F741C2239461DA803F0A0FDB9
:10F520002AF001031AF0300F8DF8743010D0012347
:10F53000194663F307118DF81810194606AA63F3EC
:10F54000071163F342078DF819108DF81A70229293
:10F5500000231AF0320FADF81C308DF81E300BD09E
:10F560009DF81C30E968012262F3030301B1022215
:10F5700062F307138DF81C301AF00C0F10D0EB68F3
:10F5800001222BB19DF81D3062F30303022203E038
:10F590009DF81D3062F3030362F307138DF81D30ED
:10F5A0009DF81E30012262F342038DF81E3023685D
:10F5B00020469B6998479DF81E3080F0010060F35B
:10F5C00000038DF81E30771C47453CDA779B53F8D3
:10F5D00027A05046FEF729FCB0F5245F33D1BAF1DD
:10F5E000000F01D0AAF1040A0AF10403184603939C
:10F5F000FEF719FC7B4904F08DFB039BA0B9DAF8F8
:10F60000003050469B6898471E90DAF8003050460C
:10F61000DB689847DAF80030ADF87C00DB685046CC
:10F620009847ADF87E000CE01846FEF7FCFB6E49EB
:10F6300004F070FB28B9DAF8003050469B68984710
:10F6400020900137C0E71422002112A803F008FD22
:10F650000DF1160A0AAB129307AB1393BAF80030F8
:10F66000ADF85030236820469B6898476B6EADF824
:10F67000540000275B44083312AA1DA93846169788
:10F68000FFF7ECF8BAF80030BBB12CABBAF80020A9
:10F690000393974208DA2268394652692046904718
:10F6A000039BD8550137F1E76B6E9B4452462CAB58
:10F6B0000021BBF80800FFF7A4FD09F101095FFA7A
:10F6C00089F92CE02046FEF7B0FBB0F5245F26D187
:10F6D00004B1043C271D3846FEF7A5FB414904F060
:10F6E00019FBE0B13846FEF79EFB404904F012FBDF
:10F6F000A8B13846FEF797FB3D4904F00BFB70B10B
:10F700003846FEF790FB384904F004FB38B1D6E0E8
:10F710002CAB52460021BDF81400FFF772FD0136F4
:10F720003EE6019B23B3A3F102085FFA88F60024AA
:10F7300042F60307B442B0461CDA799B53F82480A2
:10F740004046FEF772FBB0F5205F05D195F86830B2
:10F75000013385F8683009E04046FEF766FBB842A1
:10F7600002BF95F87130013385F871300134E1E75B
:10F77000DDF8048095F8680000EB4000800003F09D
:10F7800045FCE86695F87100000103F03FFCDDF8E8
:10F79000E4916867002609EB88083746B246C14500
:10F7A00079D059F8044B2046FEF73DFB01462CA8C2
:10F7B000FEF7FCFF2CA8FFF729F883462CA8FFF7DB
:10F7C00027F8022816D19BF801209BF8003043EA65
:10F7D0000223ADF85C3001238DF85E3029E000BFD4
:10F7E00074600200D4610200D9610200DE6102008F
:10F7F000E36102005B460DF1740E0BF1100C18680A
:10F800005968724603C2083363459646F7D19BF8A0
:10F810000D209BF80C3043EA0223ADF85C300DF16B
:10F820005E0100231DA88DF881308DF88030FFF730
:10F8300025F82046FEF7F9FAB0F5205F10D1EA6E00
:10F8400007EB47018B00D01842F82140179A42601D
:10F85000EA6E1344013700229A60FFB2A2469EE787
:10F860002046FEF7E2FA42F60303984297D1696F09
:10F870003301CA1804B1043CCC50C2F804A0179953
:10F8800091606A6F1A44002111736A6F1344013644
:10F89000D981F6B283E7E86818B1FEF7CCFA002800
:10F8A00065D12B6828469B6998476DB0BDE8F08FFD
:10F8B00005AA0AA90120FEF7CFFF02942FE72368CB
:10F8C0002046DB68984712AF14220021ADF81C00D7
:10F8D0001DA803F0C5FB4FF0010A00233B806AF32B
:10F8E0004203BB7023682046DB689847BDF81C10B4
:10F8F000BB78EA6880B2401A18BF012060F30003A9
:10F90000BB703B782AB16AF30303022262F3071348
:10F9100003E06AF303036AF307133B700AAB1E9715
:10F920001D932368ADF87C10DB68204698470027BC
:10F930000DF11C0AADF8800005AA1DA938462197D3
:10F94000FEF78EFFBAF80030002B3FF4E8AE0DF161
:10F95000B00BBAF800309F42BFF6DAAE23683946E2
:10F960001B69204698470BF807000137F1E71C2375
:10F97000002205F14001E868FEF77FFA91E700BF39
:10F980002DE9F04F87B004460D46002601274FF0C1
:10F9900014090DF1060894F861309E4252DA09FB11
:10F9A00006F3626E02EB030AD358AB4248D1A36B55
:10F9B0009D4204D1236829465B6A204698472B68FC
:10F9C00028461B6998472B68ADF80600DB68BAF833
:10F9D00008B0284698474246034600215846FFF79C
:10F9E00010FC1022002102A803F03AFBBAF80830FC
:10F9F000ADF808309AF81030CDF8108073B194F853
:10FA0000603053B1013B84F8603002A90123A08F1C
:10FA10008DF80A30FEF728FF00E01F469AF81130F3
:10FA200073B194F8603053B1013B84F8603002A99F
:10FA30000223A08F8DF80A30FEF716FF00E01F4664
:10FA40000136A8E7384607B0BDE8F08F10B5044688
:10FA5000FEF7FAFA104B236000214FF6FF7304F112
:10FA6000400084F8331084F83410A163A38784F82D
:10FA7000601084F86110616684F86810E16684F8AB
:10FA8000701084F87110616784F87810E0651C22AA
:10FA900003F0E6FA204610BD786102002DE9F84334
:10FAA00080460D46174601EB02090C464C45A4EB77
:10FAB000050609D0D8F8003014F8011B1B68404631
:10FAC00098470028F2D100E03E463046BDE8F88372
:10FAD0007047203002F000BB38B5437F0D462BB194
:10FAE00000F16804204602F005FB08B1002038BD93
:10FAF0002046294602F0D3FA012038BD203002F01A
:10FB0000DDBA203002F0EEBA2DE9F0411E464FF486
:10FB10007A7300258360104B4560044640F8203B13
:10FB20001746884602F0B0FA04F1680002F0ACFA19
:10FB30000A4B9DF81820C4F8108053F822206276F2
:10FB40009DF81C20676153F82230A37626766577EE
:10FB50002046BDE8F08100BFF0610200886302002A
:10FB6000837E4FF0A04203F5E07330B5012140F2EF
:10FB70000C64C17642F82340437E03F5E07342F8FB
:10FB8000234003694FF0CC72C3F824250622C3F842
:10FB90000025827EC3F80825427EC3F80C25027E2C
:10FBA00053B2D2B202F01F055C09A94060340F4D78
:10FBB000002B45F8241006DA0D4B02F00F02134417
:10FBC00040221A7606E003F1604303F561434022C8
:10FBD00083F80023037E01215AB203F01F0301FAC8
:10FBE00003F35209014941F8223030BD00E100E041
:10FBF000FCEC00E02DE9F843064689469846154698
:10FC0000B2B100F12007384602F054FA34690122FB
:10FC1000C4F888952262C4F83475C4F83855226057
:10FC2000D4F84C313BB9D4F82431002BF8D002E0A1
:10FC30001046BDE8F8830023C4F84C31D4F85C3199
:10FC40001BB9D4F82431002BF8D00023C4F85C3160
:10FC50000122B8F1000F02D1D4F8243143B162611E
:10FC6000D4F80431002BFBD00023C4F8043107E0A2
:10FC7000E261D4F84831002BFBD00023C4F84831AE
:10FC8000D4F8243113B10023C4F82431D4F83C054E
:10FC90003066C0B2BDE8F8830123FFF7ABBF10B5F3
:10FCA000044680F8B010683002F004FA012363774C
:10FCB00010BD2DE9F041002305694377012790F835
:10FCC000B030C5F8883500F1680604462F6230462A
:10FCD000C5F84465884602F0FFF92369C5F8480570
:10FCE0009F60D3F850211AB9D3F82421002AF8D004
:10FCF0000022C3F85021304602F0EEF9236930B1FA
:10FD0000D3F860211AB9D3F82421002AF8D00022B0
:10FD1000C3F860210122B8F1000F02D1D3F82411F9
:10FD200041B15A61D3F80421002AFBD00022C3F864
:10FD3000042107E0DA61D3F84821002AFBD0002231
:10FD4000C3F84821D3F8240170B10022C3F824215C
:10FD5000D3F8C404C3F8C404022805D0042814BF8F
:10FD600004200320BDE8F081BDE8F0810121FFF708
:10FD7000A0BF4369D3F8642170B5044682B1002264
:10FD8000012500F12006C3F864210577304602F012
:10FD900091F963694022C3F83465C3F838251D63BF
:10FDA0006369D3F86821D2B10025C3F8685104F122
:10FDB0006806012363772577304602F07BF9D4F893
:10FDC000B43003B19847657765693046C5F8446536
:10FDD00002F082F96369C5F8480501225A63636934
:10FDE000D3F804215AB10022C3F80421227F32B192
:10FDF000D3F83C05D4F8B830206603B1984763695E
:10FE0000D3F8242142B10022C3F82421D3F8D0240E
:10FE1000C3F8D02401225A6170BD00000148FFF7E9
:10FE2000A8BF00BF7425002007B50C230B228DE866
:10FE30000C004FF04022042311460348FFF764FEF4
:10FE400003B05DF804FB00BF742500202922427036
:10FE500000224280027170470346002200791A7125
:10FE60007047C3B2000A03FA00F0013080B2704755
:10FE700060B10138002330F0FF019AB203F10103B1
:10FE800001D04008F7E740EA022080B27047000046
:10FE900010B5084B59434FF47A7201F5FA714FF4DB
:10FEA000FA64B1FBF2F3B1FBF4F100FB0310B0FB19
:10FEB000F2F010BD002F3A00084B4FF47A7259430C
:10FEC00001F5FA714FF4FA63B1FBF3F3B1FBF2F110
:10FED00002FB0030B0FBF1F0704700BF002F3A008A
:10FEE000F8B50A4C05460F46417820461646FFF7FE
:10FEF000D6FE39462046FFF7EFFD31462046FFF794
:10FF0000EBFD2046FFF732FF2870F8BD7425002076
:10FF100038B505460C4601F07F028A21FFF7E0FF65
:10FF20006C7038BD10B5012204460021FFF7D8FFE0
:10FF300020460122FF21FFF7D3FF00221146204671
:10FF4000FFF7CEFF204600229121FFF7C9FF204690
:10FF500001220021FFF7C4FF20460022FF21BDE857
:10FF60001040FFF7BDBF0000F8B50C4C05460F462A
:10FF7000417820461646FFF792FE39462046FFF7A5
:10FF8000ABFD310A2046FFF7A7FDF1B22046FFF78F
:10FF9000A3FD2046FFF7EAFE2870F8BD7425002077
:10FFA00010B52DED028BB5EEC00AF1EE10FA82B05D
:10FFB0000446B0EE408A19D410EE100A02F01CFC80
:10FFC0000EA3D3E9002302F0FBFE78B99FED0A0AE5
:10FFD00028EE008A2046FCEEC87A4421CDED017A55
:10FFE000BDF80420FFF7C0FF012000E0002002B0B0
:10FFF000BDEC028B10BD00BF00000043A4703D0AA1
:020000022000DC
:10000000D7FF7F40F8B5114C06460F464178204691
:100010001546FFF744FE39462046FFF75DFD290EE1
:100020002046FFF759FDC5F307412046FFF754FD71
:10003000C5F307212046FFF74FFDE9B22046FFF741
:100040004BFD2046FFF792FE3070F8BD742500206E
:10005000F8B50F46064641780B4814461D46FFF793
:100060001EFE39460848FFF737FD2544AC4205D04F
:1000700014F8011B0448FFF72FFDF7E70248FFF7CC
:1000800075FE3070F8BD00BF7425002070B50C4CB3
:1000900005460E4641782046FFF701FE31462046D0
:1000A000FFF71AFD2046FFF761FE012228706978EC
:1000B0002046FFF7F1FD2046FFF720FDC0B270BDDE
:1000C0007425002008B509B9502102E0012906D1A4
:1000D0007021FFF7DBFF01304000C0B208BDFF20F8
:1000E00008BDF8B504460F46164680210122FFF7E9
:1000F000F7FE0122FF212046FFF7F2FE0022114603
:100100002046FFF7EDFE0622FF212046FFF7E8FE1E
:1001100083212046FFF7BAFF40F00402D2B28321C8
:100120002046FFF7DDFE0722FF212046FFF7D8FE1D
:10013000012281212046FFF7D3FE012280212046A3
:10014000FFF7CEFE6B2294212046FFF7C9FE002266
:1001500083212046FFF7C4FE01F036FCE0808321B6
:100160002046FFF793FF054660B96388002BF6D061
:1001700001F02AFCE38880B2C01A63889842EEDD61
:100180002846F8BD012220468321FFF7A9FE9221CF
:100190002046FFF77BFF00F07F03C0F3C0103B70E9
:1001A0000022307081212046FFF79AFE0622204669
:1001B000FF21FFF795FE83212046FFF767FF83218C
:1001C00000F0FB022046FFF78BFE20460122FF21B4
:1001D000FFF786FE204601220021FFF781FE204620
:1001E0000022FF21FFF77CFE204600228021FFF73E
:1001F00077FE0120F8BD10B50C460121FFF746FF40
:10020000C0F300132370C0F3C003A370C0F38003D6
:100210006370C0F38013C0F3C010E370207110BD91
:1002200038B541F0010200210446FFF759FE01F004
:10023000CBFBE08013212046FFF728FF10F00705D5
:100240000CD16388002BF5D001F0BEFBE38880B2AF
:10025000C01A63889842EDDD284638BD2046012249
:100260000B21FFF73DFE002220461146FFF738FE26
:10027000012038BD70B50F4C05460E46417820462A
:10028000FFF70DFD31462046FFF726FC2046FFF71D
:100290006DFD6978287002222046FFF7FDFC20469C
:1002A000FFF72CFC05462046FFF728FC40EA052016
:1002B00080B270BD7425002038B5012204460D4679
:1002C0008021FFF70DFE0122FF212046FFF708FEE7
:1002D000002211462046FFF703FE227A9121204694
:1002E000FFF7FEFD012200212046FFF7F9FD002265
:1002F000FF212046FFF7F4FD002280212046FFF772
:10030000EFFD6DB1F8212046FFF7B4FF00B1454382
:100310002A4604212046FFF775FE0422002101E051
:10032000022229462046BDE83840FFF7D9BD38B53E
:10033000044601F049FBE08013212046FFF7A6FEAA
:1003400043070FD16388002BF6D001F03DFBE38813
:1003500080B2C01A63889842EEDD012323714FF604
:10036000FF7038BD1E212046FFF784FF012205469D
:100370000B212046FFF7B4FD284638BD70B50E4668
:10038000002114460546FFF79DFE462120802846A1
:10039000FFF77CFE013080B22178A080FFF778FD66
:1003A0005121E0602846FFF765FFFFF75AFD2178ED
:1003B000E080FFF76DFD702120612846FFF766FEA3
:1003C00001304000C0B2608071212846FFF752FF23
:1003D000FFF747FDF378208113B1E388C01A20812D
:1003E000A1782089FFF754FD606170BDF0B544F637
:1003F0001F63994289B006460D4644D96946FFF706
:10040000FAFE02AA69463046FFF7B8FF9DF80030B1
:100410001BB1059800F6363001E040F6E8009DF883
:1004200002302BB1059B03F2B22300EB430006E040
:100430009DF801301BB1059B03F5257318449DF809
:1004400003701FB1069B03F5257318449DF8044003
:10045000BCB100F22620854215D39DF80A10281A57
:10046000FFF72AFD80B21FB1BDF80E30184480B2EC
:10047000FFF7FEFC712102463046FFF775FDF5607F
:1004800002E0012400E00024204609B0F0BD10B5D0
:1004900088B004466946FFF7AEFE02AA69462046C8
:1004A000FFF76CFF9DF800301BB1059800F68450F3
:1004B00001E040F636309DF802302BB1059B03F287
:1004C000B22300EB430006E09DF801301BB1059B11
:1004D00003F5257318449DF803301BB1069B03F503
:1004E000257318449DF804301BB1079B03F22623A3
:1004F0001844E06008B010BDF8B506460F464178D4
:100500000D481D461446FFF7CAFB39460A48FFF757
:10051000E3FA0948FFF72AFC2A463070717806484A
:10052000FFF7BAFB2544AC4205D00348FFF7E6FAD3
:1005300004F8010BF7E7F8BD74250020F0B5044678
:1005400085B049B18921FFF7A1FD40F00102D2B287
:1005500089212046FFF7C4FC002288212046FFF7AE
:10056000BFFC012280212046FFF7BAFC0122FF21B7
:100570002046FFF7B5FC002211462046FFF7B0FCED
:1005800091212046FFF782FD0122207200212046A2
:10059000FFF7A6FC0022FF212046FFF7A1FC002266
:1005A00080212046FFF79CFC60212046FFF76EFD6E
:1005B00040F01202D2B260212046FFF791FCB5EE66
:1005C000000A2046FFF7ECFCFF2201212046FFF73E
:1005D00087FC0DF107020DF106012046FFF781FDB2
:1005E00008B900251EE2062302AAB0212046FFF723
:1005F00083FF0122FF212046FFF772FC00224F21DA
:100600002046FFF76DFC2C224E212046FFF768FCA8
:100610000022FF212046FFF763FC2046B621B422CA
:10062000FFF75EFC9DF807309DF80660002B4FF049
:10063000000514BF0C20002029460127EBB2DA0880
:1006400098420DF1100E03F00703724401D88E4258
:1006500008D112F808EC07FA03F32EEA030302F8B4
:10066000083C07E012F8082C42FA03F3DB0744BF0A
:100670000131C9B20135302DE0D1062302AAB021E3
:100680002046FFF7E5FC0122FF212046FFF728FC6A
:10069000002211462046FFF723FC0022FF212046BE
:1006A000FFF71EFC002209212046FFF719FC00225B
:1006B00010212046FFF714FC002211212046FFF7ED
:1006C0000FFC012224212046FFF70AFCFF222521EE
:1006D0002046FFF705FC002275212046FFF700FCAD
:1006E0000122FF212046FFF7FBFB2C224E21204652
:1006F000FFF7F6FB002248212046FFF7F1FB2022FE
:1007000029462046FFF7ECFB0022FF212046FFF799
:10071000E7FB092229462046FFF7E2FB002254218D
:100720002046FFF7DDFB042231212046FFF7D8FBEE
:10073000032232212046FFF7D3FB832240212046AB
:10074000FFF7CEFB252246212046FFF7C9FB0022FA
:1007500060212046FFF7C4FB002227212046FFF737
:10076000BFFB062250212046FFF7BAFB0022512191
:100770002046FFF7B5FB962252212046FFF7B0FB3B
:10078000082256212046FFF7ABFB2A465721204678
:10079000FFF7A6FB002261212046FFF7A1FB002204
:1007A00062212046FFF79CFB002264212046FFF7D0
:1007B00097FB002265212046FFF792FBA0226621CD
:1007C0002046FFF78DFB0122FF212046FFF788FB23
:1007D000322222212046FFF783FB142247212046A4
:1007E000FFF77EFBFF2249212046FFF779FB00221D
:1007F0004A212046FFF774FB0022FF212046FFF725
:100800006FFB0A227A212046FFF76AFB00227B2138
:100810002046FFF765FB212278212046FFF760FB89
:100820000122FF212046FFF75BFB342223212046D3
:10083000FFF756FB002242212046FFF751FBFF2223
:1008400044212046FFF74CFB262245212046FFF796
:1008500047FB052246212046FFF742FB4022114676
:100860002046FFF73DFB06220E212046FFF738FB0E
:100870001A2220212046FFF733FB40224321204645
:10088000FFF72EFB0022FF212046FFF729FB032262
:1008900034212046FFF724FB442235212046FFF770
:1008A0001FFB0122FF212046FFF71AFB0422312102
:1008B0002046FFF715FB09224B212046FFF710FBCE
:1008C00005224C212046FFF70BFB04224D21204638
:1008D000FFF706FB0022FF212046FFF701FB002265
:1008E00044212046FFF7FCFA202245212046FFF74D
:1008F000F7FA082247212046FFF7F2FA282248217A
:100900002046FFF7EDFA002267212046FFF7E8FABC
:10091000042270212046FFF7E3FA012271212046CC
:10092000FFF7DEFAFE2272212046FFF7D9FA0022F5
:1009300076212046FFF7D4FA002277212046FFF7E0
:10094000CFFA0122FF212046FFF7CAFA01220D212A
:100950002046FFF7C5FA0022FF212046FFF7C0FA24
:10096000012280212046FFF7BBFAF8220121204610
:10097000FFF7B6FA0122FF212046FFF7B1FA012264
:100980008E212046FFF7ACFA012200212046FFF716
:10099000A7FA0022FF212046FFF7A2FA00228021B9
:1009A0002046FFF79DFA04220A212046FFF798FA15
:1009B00084212046FFF76AFB842100F0EF022046E5
:1009C000FFF78EFA01220B212046FFF789FA204615
:1009D000FFF75DFDE822E06001212046FFF780FA85
:1009E000E1682046FFF702FD012211462046FFF78D
:1009F00077FA40212046FFF713FC00283FF4F1ADC1
:100A0000022201212046FFF76BFA00212046FFF762
:100A100007FC054600283FF4E4ADE822012120460A
:100A2000FFF75EFA284605B0F0BD0022C0F884202A
:100A3000C0F88820C0F88C20C0F89020C0F894201E
:100A4000C0F89820C0F89C20C0F8A02070477047DC
:100A5000002380F8803080F88130C0F88430C0F8FE
:100A60008830C0F88C30C0F89030C0F89430C0F8AE
:100A70009830C0F89C30C0F8A030704738B5084CAA
:100A80000D4620463921FFF70AF929462046FFF78F
:100A900023F82046FFF76AF9B0FA80F0400938BD24
:100AA0007425002070B50B4C0E46204639211546A2
:100AB000FFF7F5F831462046FFF70EF829462046A5
:100AC000FFF70AF82046FFF751F9B0FA80F0400925
:100AD00070BD00BF742500200A46A021FFF7E2BFC9
:100AE0000A46A121FFF7DEBF38B5CAB20C46842101
:100AF0000546FFF7D7FF30B1220A28468521BDE819
:100B00003840FFF7CFBF38BD38B5CAB20C46862192
:100B10000546FFF7C7FF30B1220A28468721BDE806
:100B20003840FFF7BFBF38BD0A468921FFF7BABF7B
:100B30000A468B21FFF7B6BF38B51546FFF79EFF73
:100B4000044668B1012239210648FFF7A5F8054897
:100B5000FEF7BFFF20B10348FEF7D0FF2870F6E78D
:100B6000204638BD7425002007B580210DF107020D
:100B7000FFF7E2FF10B19DF8070000E0FF2003B08F
:100B80005DF804FB70B505460E461446FFF7ECFF12
:100B9000FF2819D0062E04F0010208D80123B34023
:100BA0000AB1184301E020EA0300C0B205E0072EB5
:100BB00003D1002A14BF7F2000200246802128464E
:100BC000BDE87040FFF76EBF002070BD012200211C
:100BD000FFF7D8BF00221146FFF7D4BF37B50D4647
:100BE0000DF107028F210446FFF7A6FF60B19DF8C3
:100BF000072002F03F0242EA8512D2B28F2120463E
:100C00008DF80720FFF74EFF03B030BD37B50C4617
:100C10000DF107028F210546FFF78EFF68B19DF8A1
:100C20000720A40022F00C0204F00C0422438F21C0
:100C300028468DF80720FFF735FF03B030BD37B5E4
:100C40000C460DF107028F210546FFF775FF60B1D5
:100C50009DF8072004F0030422F0030222438F21B1
:100C600028468DF80720FFF71DFF03B030BD37B5CC
:100C70000C460DF1070290210546FFF75DFF68B1B4
:100C80009DF80720240122F0300204F030042243B2
:100C9000902128468DF80720FFF704FF03B030BDF0
:100CA00037B50C460DF10702A3210546FFF744FFB7
:100CB00068B19DF80720640122F0600204F060042E
:100CC0002243A32128468DF80720FFF7EBFE03B04F
:100CD00030BD37B50C460DF10702A3210546FFF7DD
:100CE0002BFF68B19DF80720E40022F0180204F001
:100CF00018042243A32128468DF80720FFF7D2FECF
:100D000003B030BD37B50C460DF10702A3210546EF
:100D1000FFF712FF60B19DF8072004F0070422F0EE
:100D200007022243A32128468DF80720FFF7BAFEC9
:100D300003B030BD37B50C460DF10702AB210546B7
:100D4000FFF7FAFE68B19DF80720640022F0020266
:100D500004F002042243AB2128468DF80720FFF758
:100D6000A1FE03B030BD000013B504467A497B48AC
:100D700001F078F80DF1070292212046FFF7DCFE22
:100D800008B90024E5E09DF80730AB2B01D09C2B7F
:100D9000F7D17349714801F065F800220721204618
:100DA000FFF7F0FE0028ECD0DB2281212046FFF780
:100DB00079FE0028E5D0F62283212046FFF772FE57
:100DC0000028DED087228E212046FFF76BFE002808
:100DD000D7D000229D212046FFF764FE0028D0D006
:100DE00000229E212046FFF75DFE0028C9D0602228
:100DF0008D212046FFF756FE0028C2D00021204654
:100E0000FFF7ECFE0028BCD002212046FFF7FEFED3
:100E10000028B6D001212046FFF711FF0028B0D0EE
:100E200000212046FFF780FE0028AAD0322120466C
:100E3000FFF77EFE0028A4D04FF6FF712046FFF793
:100E400053FE00289DD000212046FFF75DFE0028BC
:100E500097D011228C212046FFF724FE002890D045
:100E6000012290212046FFF71DFE002889D0002294
:100E70009F212046FFF716FE002882D039493748C7
:100E800000F0F0FF28212046FFF726FE00283FF45F
:100E900078AF1E212046FFF723FE00283FF471AFF4
:100EA0004022A2212046FFF7FDFD00283FF469AF54
:100EB00001212046FFF7F4FE00283FF462AF002135
:100EC0002046FFF706FF00283FF45BAF01212046D4
:100ED000FFF718FF00283FF454AF0022A42120465A
:100EE000FFF7E0FD00283FF44CAF0022A52120468B
:100EF000FFF7D8FD00283FF444AF0022A721204689
:100F0000FFF7D0FD00283FF43CAF0022A921204686
:100F1000FFF7C8FD00283FF434AFC922A6212046C0
:100F2000FFF7C0FD00283FF42CAF0022AA21204685
:100F3000FFF7B8FD00283FF424AF20460021FFF75B
:100F4000F9FE044600283FF41CAF0749034800F0AF
:100F500089FF204602B010BDB56202006426002061
:100F6000C5620200DE6202001763020037B50C465C
:100F70000DF10702AB210546FFF7DEFD60B19DF8DC
:100F8000072004F0010422F001022243AB2128468D
:100F90008DF80720FFF786FD03B030BD38B50D464C
:100FA0000446FFF755FDFF228321FFF77BFD78B351
:100FB00089228E212046FFF775FD48B30021204687
:100FC000FFF755FE20B355B101212046FFF7B2FED1
:100FD000F0B101212046FFF7C9FFC8B101E0294661
:100FE000F3E72046FFF7F2FD90B1012203212046EE
:100FF000FFF7C8FD60B1012202212046FFF7C2FDC4
:1010000030B1204601220621BDE83840FFF7BABDC5
:10101000002038BD00F060B8D0B52DED048BB0EEE7
:10102000409AF0EE609A294C8AB000F04BF994F99E
:101030000030B0EE408AF0EE608A01330FD0B0EE9F
:10104000490AF0EE690A00F0D3FB40B10026002700
:1010500051EC190B32463B4601F094FE38B9B0EE24
:10106000480AF0EE680A0AB0BDEC048BD0BD184BFC
:1010700024780193012200238DED049B8DED029BCA
:10108000009208936CB9CDE90667684600F0DEFB74
:1010900088B1089BA3B99DED060B0AB0BDEC048B8B
:1010A000D0BD32463B463046394601F023FD022C86
:1010B000CDE90601E9D101F057FF21230360E8E7FC
:1010C00001F052FF089B0360E5E700BF9620002077
:1010D000086402000000000051EC110B43422DE9AE
:1010E000F047034321F00048754F48EAD373BB42F1
:1010F00055EC104B49D86342234325F0004A4AEA95
:10110000D373BB42A94640D801F1404303F5801395
:1011100003438E4650D08E1706F0020654EA0A03A7
:1011200046EAD57639D050EA08033ED0B84555D0C6
:10113000BA453AD0C8EB0A084FEA2858B8F13C0F34
:1011400040DC002970DB02460B462046294601F0B0
:10115000D1FC41EC100B00F043FB00F085F951ECA1
:10116000100B012E5AD0022E48D0002E42D03EA3A2
:10117000D3E9002301F0E0F93DA3D3E9002301F016
:10118000DBF941EC100BBDE8F08722462B4601F05D
:10119000D5F941EC100BBDE8F087022E16D0032ED6
:1011A0000ED19FED350BBDE8F087B9F1000F11DBD3
:1011B0009FED330BBDE8F087BDE8F04700F054B970
:1011C000BDE8F0872EA1D1E90001CAE79FED280B09
:1011D000BDE8F0879FED2C0BBDE8F087C24529D014
:1011E000022EF3D0032EDCD0012E2DD09FED280B44
:1011F000BDE8F08741EC100BBDE8F0871AA3D3E9F6
:10120000002301F099F902460B4619A1D1E900012A
:1012100001F092F941EC100BBDE8F08701F10041BB
:1012200041EC100BBDE8F08718F13C0F8BDA002081
:10123000002196E7022E13D0032E0DD0012E07D0E9
:101240009FED150BBDE8F0879FED150BBDE8F0870E
:101250009FED150BBDE8F0879FED150BBDE8F087FE
:101260009FED150BBDE8F087075C143326A6A13C63
:10127000182D4454FB210940182D4454FB2109C06A
:10128000182D4454FB21F93F182D4454FB21F9BF7C
:101290000000000000000000182D4454FB21E93F2D
:1012A0000000000000000080182D4454FB21E9BF1D
:1012B000D221337F7CD902C0D221337F7CD9024036
:1012C0000000F07F2DE9F041654955EC104B0E46CA
:1012D0002940B14200F09780002D2B4610EE102AD5
:1012E00074DD2F157FD0A7F2FF37C3F31303F9077F
:1012F00043F4801365D403EBD27100260B447F10B6
:101300005200B64616204FF400110EEB01049C4229
:101310004FEAD2754FEA420203DC1B1B04EB010EBD
:101320000E44013805EB43034FEA5101EDD18446E9
:1013300020244FF0004109E020D003EBD275013C9E
:101340004FEA51012B444FEA420220D09E4501EB67
:101350000C05F1DA002D05EB010C09DBF046954296
:10136000CEEB030300D9013B521B0844C646E4E719
:10137000BCF1000FF2DB0EF10108F0E795421ED838
:10138000002D05EB010C50DB98460023ECE71343DE
:1013900004D0421C4DD000F00103184440087110E5
:1013A000F30701F17F5101F5001148BF40F0004003
:1013B00001EB0753024643EC102BBDE8F081734666
:1013C000BBE75B0003EBD273520094E725F00041CA
:1013D000214328D0ADBB2F46D30A153F5205002B21
:1013E000FAD0DD0228D4002100E001465B00DC02D7
:1013F00001F10100F9D5C0F1200422FA04F42343DD
:101400007F1A82406FE710EE102A2B4610EE100A6A
:10141000294601F045FA22462B4601F08FF841ECAF
:10142000100BBDE8F081BDE8F081BCF1000FABDB33
:10143000A1E701362046B2E720244FF0FF3100201B
:10144000DBE710EE102A2B462046294601F074F8FF
:1014500002460B4601F04EFB41EC100BBDE8F0815B
:101460000000F07F000000002DE9F84F55EC104B14
:10147000D14B25F000469E42AB4610DDCF4B9E423D
:1014800000F3B28000F0AD80BBF1000F40F3FD80AF
:10149000ADA5D5E9004545EC104BBDE8F88FC84B2C
:1014A0009E4200F3C080A3F1DE739E4240F3A88009
:1014B0004FF0FF3A22462B462046294601F0F0F92C
:1014C00002460B468046894601F0EAF9A0A3D3E91B
:1014D000002306460F4601F0E3F99FA3D3E900235A
:1014E00001F02CF832463B4601F0DAF99CA3D3E92F
:1014F000002301F023F832463B4601F0D1F99AA3CC
:10150000D3E9002301F01AF832463B4601F0C8F94E
:1015100097A3D3E9002301F011F832463B4601F0CE
:10152000BFF995A3D3E9002301F008F842464B46E2
:1015300001F0B6F992A3D3E90023804689463046EC
:10154000394601F0ADF990A3D3E9002300F0F4FF90
:1015500032463B4601F0A4F98DA3D3E9002300F005
:10156000EBFF32463B4601F09BF98BA3D3E9002306
:1015700000F0E2FF32463B4601F092F988A3D3E93E
:10158000002300F0D9FF32463B4601F089F9BAF159
:10159000FF3F02460B467CD04046494600F0CEFF56
:1015A00022462B4601F07CF9864E874B4FEACA0A49
:1015B00056449A44DAE9002300F0BEFF22462B4647
:1015C00000F0BAFF02460B46D6E9000100F0B4FF76
:1015D000BBF1000F52DB04460D4645EC104BBDE855
:1015E000F88F002C3FF450AF22462B462046294668
:1015F00000F0A4FF04460D4645EC104BBDE8F88F03
:1016000069A3D3E9002310EE100A294600F096FFE3
:1016100000226E4B01F0D4FB00283FF449AF45ECAB
:10162000104BBDE8F88F00F0DBF8694B9E4255EC9B
:10163000104B3FDCA3F550239E4268DC10EE102ACD
:1016400010EE100A2B46294600F078FF00225F4B6F
:1016500000F072FF002206460F464FF080432046FE
:10166000294600F06BFF02460B463046394601F032
:1016700041FA4FF0000A04460D461BE7044601F10B
:10168000004545EC104BBDE8F88F49A5D5E900456C
:10169000B2E74046494600F051FF22462B4601F092
:1016A000FFF802460B462046294600F045FF044657
:1016B0000D46A1E7474B9E421DDC10EE100A0022AA
:1016C000454B294600F038FF002206460F46424BA4
:1016D0002046294601F0E4F800223C4B00F02EFFA2
:1016E00002460B463046394601F004FA4FF0020A32
:1016F00004460D46DEE62B4610EE102A0020374940
:1017000001F0F8F94FF0030A04460D46D2E610EE58
:10171000100A00222D4B294600F00EFF002206463B
:101720000F462A4B2046294600F008FF02460B468A
:101730003046394601F0DEF94FF0010A04460D4605
:10174000B8E600BFAFF30080182D4454FB21F93FE9
:1017500011DA22E33AAD903FEB0D76244B7BA93FA3
:10176000513DD0A0660DB13F6E204CC5CD45B73F71
:10177000FF8300922449C23F0D5555555555D53F1D
:101780002F6C6A2C44B4A2BF9AFDDE522DDEAD3F11
:101790006D9A74AFF2B0B33F711623FEC671BC3FB1
:1017A000C4EB98999999C93F9C7500883CE4377EB1
:1017B000182D4454FB21F9BFFFFF0F440000F07FB8
:1017C000FFFFDB3F30640200106402000000F03FC6
:1017D000FFFFF23FFF7F03400000F83F0000F0BF33
:1017E00053EC102B23F0004343EC102B704700BF49
:1017F00053EC102B33F0004110B408D01148A3F57E
:101800008014844208D804205DF8044B70471AB94C
:1018100002205DF8044B704703F1FF43094803F5CC
:10182000E0038342EFD9B1F5801F01D20320EBE73B
:10183000054B994201D00020E6E7B2FA82F0400958
:10184000E2E700BFFFFFDF7F0000F07F002070476E
:101850000649074A074B9B1A03DD043BC858D05082
:10186000FBDC00F011FAFAF71DFE0000B867020079
:101870008020002060210020FEE7FEE7FEE7FEE773
:10188000FEE7FEE7FEE7FEE7FEE7FEE72DE9F041B3
:10189000304F0E46396805461446A9B94FF0200866
:1018A00042462D4801F0DCFB2C4B4FF0FF321A6012
:1018B0005A602B4B4022C3F88020C3F8802183F864
:1018C00006831A6001233B601F2D41D8032C05D0ED
:1018D000042C05D0022C3BD1032402E0022400E0BA
:1018E0000124204B1D4953F8252000200B565D1C78
:1018F00029D11A4B1A54184B43F82060830003F186
:10190000804303F5C0431202D3F8101521F4473188
:1019100021F44071C3F81015D3F8105502F4F851B2
:1019200041EA04422A43C3F81025D3F8102542F0B7
:101930000102C3F81025012303FA00F00A4BC3F893
:101940000403BDE8F0819A42D3D001300828CDD1FC
:10195000BDE8F081382600203C26002030260020FB
:1019600000E100E088630200006000402DE9F743D9
:10197000114D124E124FDFF84C800024A94655F845
:10198000043B012B12D1D6F80423A34013420DD0FF
:10199000E357013303D058F8243003B198470023AC
:1019A00045F8043CD9F800300193019B0134082C20
:1019B000E4D103B0BDE8F083006100400060004066
:1019C000302600203C260020094B1968094B30B511
:1019D000D3F804050A060B0A02434FF47A71A2FBFE
:1019E000014501FB0355E00B40EA454030BD00BF17
:1019F0005C2600200010014038B5044648B1FFF7CE
:101A0000E3FF054600F01AF8FFF7DEFF401B8442B3
:101A1000F8D838BD074B0022C3F8042182B0D3F8B0
:101A20000431054A0193019B13680133DBB2136053
:101A300002B07047001001405C2600207047000093
:101A40001F2837B500F293804A4B53F82030052BFE
:101A500019D007D8032B12D013D8022B40F087805F
:101A6000012215E01D2B10D003D81C2B7FD105229D
:101A70000EE01E2B0BD01F2B79D1082208E002228A
:101A800006E0032204E0042202E0062200E007222E
:101A9000394B1968082908DD0A2909DD0D29B5BF68
:101AA0000C240E240223032304E00824002301E075
:101AB0000A2401233148C0F8F0350123C0F800356D
:101AC00000200546030103F1804303F5E0430130A4
:101AD0000828C3F81455C3F81055F3D1284B1868DB
:101AE000284B1B6800021B0303F4805300F4E060E2
:101AF0001843224BC3F81805C3F81425C3F8102562
:101B00000DF10602C3F82C260122C3F830261A6014
:101B1000D3F80001194A0028FAD00023C2F8003196
:101B200001235360D2F80401144B0028FAD000229C
:101B3000C3F8042101229A60D3F81421002AFBD0B3
:101B40000E4A0023C2F81431BDF906209A420B4A0E
:101B5000B8BFADF806308C42C2F80035BDF90600BA
:101B600006D08BBF611A091BC840884000E00020E6
:101B700003B030BD886302009C200020007000404C
:101B800098200020602600201F281BD80E4B53F8F9
:101B90002030032916D8DFE801F0020E060A03F50B
:101BA000E07300210AE003F5E0730C2106E003F581
:101BB000E073042102E003F5E07303214FF0A0423B
:101BC00042F82310704700BF886302001F280CD81A
:101BD000064B53F8200001234FF0A042834011B977
:101BE000C2F80C357047C2F80835704788630200A8
:101BF0001F289FBF4FF0A043054AD3F8103552F875
:101C000020009ABF23FA00F000F001000020704786
:101C1000886302000C4B1B78062B10D10B4B1B6802
:101C20001A070CD10A4B186800F0F003302B08D0CB
:101C300000F0E000A0F140035842584170470020F6
:101C400070470120704700BFE00F00F0E40F00F084
:101C5000E80F00F0094B1B78062B0CD1084B1B68D2
:101C60001A0708D1074B186800F0F000A0F1300304
:101C70005842584170470020704700BFE00F00F005
:101C8000E40F00F0E80F00F008B5FFF7E3FF10B134
:101C90004B4B4C4A1A60FFF7BDFF28B14A4B4B4AE9
:101CA0001B68C3F342331360FFF7D4FF20B1484AE7
:101CB000D36823F08073D360FFF7ACFF40B14FF0DF
:101CC00080430022C3F80C21C3F81021C3F8382543
:101CD000FFF7C0FF10B13F4B03221A60FFF7BAFFB6
:101CE00040B13D4B05221A6001229A6700229A609A
:101CF0003F225A60394B1B78062B09D1384B1B68A1
:101D00001B0705D1374B1B6803F0F003502B0ED097
:101D1000354AD2F8883043F47003C2F88830BFF3F4
:101D20004F8FBFF36F8F314B314A1A6008BD4FF0B0
:101D30008052304BD2F80414C3F82015D2F808149E
:101D4000C3F82415D2F80C14C3F82815D2F81014CF
:101D5000C3F82C15D2F81414C3F83015D2F818149F
:101D6000C3F83415D2F81C14C3F84015D2F8201467
:101D7000C3F84415D2F82414C3F84815D2F828142F
:101D8000C3F84C15D2F82C14C3F85015D2F83014FF
:101D9000C3F85415D2F83414C3F86015D2F83814C7
:101DA000C3F86415D2F83C14C3F86815D2F840148F
