:020000021000EC
:10C0000000000120292002005120020053200200DC
:10C0100055200200572002005920020000000000B5
:10C020000000000000000000000000005B20020093
:10C030005D200200000000005F200200612002007D
:10C040006320020063200200012C02006320020032
:10C0500079FE010063200200A52102006320020096
:10C0600063200200632002006320020063200200BC
:10C0700063200200632002006320020063200200AC
:10C08000632002007D220200632002006320020080
:10C09000632002006320020063200200632002008C
:10C0A000632002006320020063200200632002007C
:10C0B0006320020063200200000000000000000076
:10C0C000632002006320020063200200632002005C
:10C0D00063200200632002006320020000000000D1
:10C0E0000000000000000000000000000000000050
:10C0F0000000000000000000000000000000000040
:10C10000000000000000000000000000000000002F
:10C11000000000000000000000000000000000001F
:10C40000044B05481B1A062B02D9044B03B11847ED
:10C41000704700BF6F2100206C2100200000000049
:10C4200005490648091A891001EBD171491002D05B
:10C43000034B03B1184770476C2100206C2100208A
:10C440000000000010B5064C237843B9FFF7D8FF71
:10C45000044B13B10448AFF300800123237010BDD7
:10C4600070210020000000007471020008B5084B24
:10C470001BB108490848AFF300800848036813B9A6
:10C48000BDE80840CCE7064B002BF9D09847F7E70A
:10C490000000000074210020747102006821002057
:10C4A00000000000154B002B08BF134B9D46A3F561
:10C4B000803A00218B460F461348144A121A07F09F
:10C4C0005FFA0F4B002B00D098470E4B002B00D08B
:10C4D00098470020002104000D000D48002802D0DC
:10C4E0000C48AFF3008007F0FBF92000290006F0AC
:10C4F0007BFC07F0CFF900BF00000800000001201E
:10C50000000000000000000070210020EC26002048
:10C510000000000000000000014B01221A6070477B
:10C52000A42400200B4B002210B51A600A4B1B7884
:10C53000044653B109490A4806F0B8F8204601F00C
:10C540009BFC0146064806F0C5F80520BDE81040F2
:10C5500005F086BE6C240020A02000206464020048
:10C56000782600200B4B002210B51A600A4B1B786E
:10C57000044653B109490A4806F098F8204601F0EC
:10C580007BFC0146064806F0A5F80520BDE81040F2
:10C5900005F066BE6C240020A02000207F6402000D
:10C5A00078260020F0B5284B1B7887B00C461BB1CD
:10C5B0002649274806F07AF823682046DB68984722
:10C5C000236806461B692046984722490746684665
:10C5D00006F06EFB3546AB1BDBB29F424FF01002FC
:10C5E0000CD915F8011B03A806F0AAFB03A968469D
:10C5F00006F0CEFB03A806F019FBECE7002100983B
:10C60000154D08F0CBF8154B2860186014491048F8
:10C6100006F050F80A2229680D4806F0C3F823688E
:10C620002046DB689847236805461B6920469847E3
:10C630000146284602F0C2F8052005F011FE6846C2
:10C6400006F0F4FA07B0F0BDA02000209D640200BF
:10C6500078260020EB6702008C200020D0210020EB
:10C66000CA64020010B5034B0360044601F048FCA5
:10C67000204610BDFC69020010B50446FFF7F2FF2A
:10C68000204606F0C5FB204610BD000010B5034B48
:10C6900003600446FFF7E6FF204610BD3C6402003D
:10C6A00010B50446FFF7F2FF204606F0B1FB204626
:10C6B00010BD000013B52D492D4801F0B4FD2B49E4
:10C6C0002B4801F040FF2B4801F085FB014628482C
:10C6D00001F0A6FD4FF6FF71254801F037FF25490F
:10C6E000234801F0F6FE2449214801F0F2FE2349D7
:10C6F0001F4801F0EEFE22491D4801F0EAFE214AE2
:10C700001B48002101F0B9FD1F4A1948012101F021
:10C71000B4FD1E4A1E48002101F051FC1B4A1D4871
:10C72000002101F04CFC02A9002401F8014D012276
:10C73000174801F0FAFB02A9012201F8024D154841
:10C7400001F0F3FB144B49F640421A6005F070FD0E
:10C75000124B1860064801F0B4FD114B1B781BB159
:10C760001049114805F0B6FF02B010BD2D6502005A
:10C77000B0220020D4210020782400209022002024
:10C78000E021002025C5010065C50100A5C5010007
:10C79000742400208C220020B0210020702400206E
:10C7A000A02000203765020078260020000000004D
:10C7B000F0B52DED028B002183B04D484D4C03F0B8
:10C7C000E3FBB2EE048A20EE080A0121484884ED1A
:10C7D000000A03F0D9FB20EE080A0221444884ED48
:10C7E000010A03F0D1FB20EE088A206884ED028A5A
:10C7F00006F092FCD4ED018A68EE087A0446E8EE71
:10C80000A87A0D4617EE900A06F086FC41EC100B54
:10C8100004F0EEFFB0EE401AF0EE601A45EC104B5B
:10C8200004F0E4FF2EA3D3E9002351EC100B06F033
:10C83000C7FC314D314CF1EE487AC5E9000117EEE5
:10C84000900A06F069FCF1EE687ACDE9000117EE76
:10C85000900A06F061FC9DED001B41EC100B04F00A
:10C86000C5FF1FA3D3E9002351EC100B06F0A8FC71
:10C87000002206460F46224BD5E9000106F0EEFAEB
:10C880000022C5E900011F4B3046394606F00AFF79
:10C89000B8B115A3D3E900233046394606F0DEFAD5
:10C8A0000022194B06460F4606F01AFF10B9C4E9DC
:10C8B00000670EE00022144B3046394606F0CCFAF1
:10C8C00005E00022114B3046394606F0C7FAC4E9AC
:10C8D000000103B0BDEC028BF0BD00BFAFF30080E0
:10C8E00046DF617EDCA54C400000000000207C405B
:10C8F00008220020A421002098240020C821002024
:10C9000000806640008056C000807640008056401F
:10C9100010B53B483B4C2DED028B03F0A0FD07EE1C
:10C92000900AB8EE678A18EE100A06F0F5FB32A3FB
:10C93000D3E9002306F0B6FE10B984ED008A01E0C9
:10C94000002323602E4803F041FB18B12E4B1B78C7
:10C95000002B41D12D4803F082FD07EE900AB8EE7E
:10C96000678A18EE100A06F0D7FB23A3D3E9002349
:10C9700006F098FE10B984ED018A01E0002363609F
:10C98000224803F023FB10B11F4B1B784BBB204800
:10C9900003F065FD07EE900AB8EE678A18EE100AFC
:10C9A00006F0BAFB14A3D3E9002306F07BFE10B90E
:10C9B00084ED028A01E00023A360154803F006FB22
:10C9C000A0B1114B1B788BB1BDEC028B1149124801
:10C9D000BDE8104005F06EBE10490F4805F06AFE34
:10C9E000B8E70F490C4805F065FED0E7BDEC028BB7
:10C9F00010BD00BFAFF300809A9999999999B93FFA
:10CA00005C220020B4210020A02000206C22002005
:10CA10007C2200206F65020078260020516502000C
:10CA20006065020010B52DED028B98B001A87F491A
:10CA300001F016FC01A801F00EFA002800F0D680E3
:10CA40009FED7B7A7B4A9FED7C6A09AB18A9B0EE1B
:10CA5000475AF2EE005AF2EC017AF4EEC77AF1EEA0
:10CA600010FA02D583ED007A08E0F4EEC67AF1EE12
:10CA700010FAD4BFC3ED007A83ED006AD3ED007ADB
:10CA8000DFED6B6A77EEC57A67EEA57AE3EC017AA3
:10CA90008B42E0D1694BD3ED007AF4EEE67AF1EE09
:10CAA00010FA09D49FED647AF4EE477AF1EE10FAA9
:10CAB000C8BFF0EE477A01E0F0EE667A9FED5C8A3F
:10CAC0001C2037EEC88A05F0EFFB07EE900A9FEDB9
:10CAD0005C7A5C4BF8EE676A1422C6EE877A002116
:10CAE00004A89FED597A67EE877AFDEEE77A17EE94
:10CAF000904AC3ED007A06F043FF544BD3E900019E
:10CB000006F020FE524B8DF81000D3E9000106F02C
:10CB100019FE504B8DF81840D3ED007A4E4C8DF82D
:10CB20001100FCEEE77A206817EE903ADDED097A05
:10CB30008DF81230FCEEE77A17EE903ADDED0A7AC6
:10CB40008DF81330FCEEE77A17EE903ADDED0B7AB4
:10CB50008DF81430FCEEE77A17EE903ADDED0C7AA2
:10CB60008DF81530FCEEE77A17EE903AF2EE007A87
:10CB700068EE277A8DF81630FCEEE77A17EE903AD9
:10CB80008DF8173006F0C8FA0022344B06F066F92B
:10CB90000022334B06F014FB06F0D4FD8DF81A008A
:10CBA000606806F0B9FA00222C4B06F057F9002213
:10CBB0002B4B06F005FB06F0C5FD8DF81B00A068A9
:10CBC00006F0AAFA0022254B06F048F90022244B71
:10CBD00006F0F6FA06F0B6FD14228DF81C0004A942
:10CBE000204801F0A2F9052005F03AFB1E4B1B7806
:10CBF000C3B11E491E4805F05DFD05F001FB1D4B4C
:10CC000007EE900AB8EE677AD3ED007A77EE677A8E
:10CC100017EE900A06F080FA41EC100B022114483E
:10CC200005F06BFE18B0BDEC028B10BDB0220020E9
:10CC300000008C422C2400200000CA4290210020D9
:10CC400000807F44902000200000C842C8210020BE
:10CC500098240020B4210020A42100200000F03FEF
:10CC600000005940DC210020982000207E65020051
:10CC700078260020982100202DE9F0411C2005F0A5
:10CC800013FB07EE900A9FEDDA7ADA4CDA4EDB4FAF
:10CC9000DB49DC4DDFF8EC83F8EE676A2046C6EE30
:10CCA000877A9FEDD97A67EE877AFDEEE77AC7ED4E
:10CCB000007A05F0FFFC306806F02EFA41EC100B0C
:10CCC0000221204605F016FE2946204605F0F2FC1A
:10CCD000CE49204605F0EEFC706806F01DFA41ECE6
:10CCE000100B0221204605F005FE2946204605F0DE
:10CCF000E1FCC749204605F0DDFCB06806F00CFAFF
:10CD000041EC100B0221204605F0F4FD2946204697
:10CD100005F0D0FCBF49204605F0CCFCF06806F0D9
:10CD2000FBF941EC100B0221204605F0E3FD2946FA
:10CD3000204605F0BFFCB849204605F0BBFC306931
:10CD400006F0EAF941EC100B0221204605F0D2FD75
:10CD50002946204605F0AEFCB049204605F0AAFC65
:10CD6000706906F0D9F941EC100B0221204605F05C
:10CD7000C1FD2946204605F09DFCA949204605F045
:10CD800099FCB06906F0C8F941EC100B022120466D
:10CD900005F0B0FD2946204605F08CFCA14920464F
:10CDA00005F088FCF06906F0B7F941EC100B0221A0
:10CDB000204605F09FFD2946204605F07BFC9A4958
:10CDC000204605F077FC306A06F0A6F941EC100B1E
:10CDD0000221204605F08EFD2946204605F06AFC1A
:10CDE0009249204605F066FC706A06F095F941EC20
:10CDF000100B0221204605F07DFD2946204605F056
:10CE000059FC8B49204605F055FCB06A06F084F9C0
:10CE100041EC100B0221204605F06CFD294620460E
:10CE200005F048FC8349204605F044FCF06A06F012
:10CE300073F941EC100B0221204605F05BFD2946F9
:10CE4000204605F037FC7C49204605F033FC306B6A
:10CE500006F062F941EC100B0221204605F04AFD74
:10CE60002946204605F026FC7449204605F022FCA0
:10CE7000706B06F051F941EC100B0221204605F0D1
:10CE800039FD2946204605F015FC6D49204605F080
:10CE900011FCB06B6B4E06F03FF941EC100B022118
:10CEA000204605F027FD2946204605F003FC66498B
:10CEB000664D204605F0FEFB654B186806F02CF920
:10CEC00041EC100B0221204605F014FD414620469E
:10CED00005F000FC5F49204605F0ECFB5E4B0221AB
:10CEE00093ED000B204605F005FD2946204605F090
:10CEF000E1FB5A49204605F0DDFB594B022193ED39
:10CF0000000B204605F0F6FC2946204605F0D2FB32
:10CF10005449204605F0CEFB306806F0FDF841ECA0
:10CF2000100B0221204605F0E5FC2946204605F0BD
:10CF3000C1FB4D49204605F0BDFB706806F0ECF8DA
:10CF400041EC100B0221204605F0D4FC2946204676
:10CF500005F0B0FB4549204605F0ACFBB068444EF7
:10CF600006F0DAF841EC100B0221204605F0C2FC75
:10CF70004146204605F0AEFB3E49204605F09AFBAF
:10CF8000306806F0C9F841EC100B0221204605F08C
:10CF9000B1FC2946204605F08DFB706806F0BCF810
:10CFA00041EC100B0221204605F0A4FC2946204646
:10CFB00005F080FBB06806F0AFF841EC100B0221E1
:10CFC000204605F09AFC2C49204605F073FB2B4BBC
:10CFD0000A221968204605F0E5FB2949204605F09C
:10CFE00069FB396820460A22BDE8F04105F0DABB4A
:10CFF00000807F44782600202C24002090200020F0
:10D000009A650200A46E02000000C8429F650200FB
:10D01000A4650200A9650200AE650200B3650200C6
:10D02000B8650200BD650200C2650200C765020066
:10D03000CD650200D3650200D9650200DF650200FC
:10D04000E5650200A4210020EB650200EA6702000A
:10D0500090210020F265020098240020FA65020069
:10D06000C821002001660200086602000F66020067
:10D07000B421002016660200266602008C200020E3
:10D080002C660200EB67020038B505202DED028BFF
:10D0900005F0E2F94D4B4E4C186001281D4629D190
:10D0A000D4ED007AF5EE407AF1EE10FA07D005F0F3
:10D0B000A7F807EE900AF8EE677AC4ED007A94EDCF
:10D0C000008A05F09DF807EE900AF8EE677A9FED6A
:10D0D000417A78EE677A01210F2087EE878A05F082
:10D0E000A9F94FF4FA7005F0BBF800210F2005F004
:10D0F000A1F931E094ED008ADFED378AB4EE688A59
:10D10000F1EE10FA26D005F07BF807EE900AF8EE63
:10D11000677A9FED307AC4ED008A78EE677A87EE01
:10D12000878AF0EE087AB4EEE78AF1EE10FA13DDA2
:10D130002A4B1A780AB901221A701B7813B1274BAF
:10D1400000221A70264B2749274803221A6005F04F
:10D15000C1FA01E0B0EE688A244B1A781C46D2B1BD
:10D160002349214805F0A6FA0A2229681E4805F03D
:10D1700017FB20491C4805F09DFA18EE100A05F02F
:10D18000CBFF41EC100B0221174805F0B3FB1A4905
:10D19000154805F09FFAF2EE007AB4EEE78AF1EE58
:10D1A00010FA10DD154B01221A7023781BB11449B7
:10D1B0000D4805F08FFABDEC028B4FF4FA60BDE824
:10D1C000384005F04DB8BDEC028B38BDA0240020DE
:10D1D000A021002000007A4400000000C0210020AF
:10D1E000882000203866020078260020A020002039
:10D1F0004C660200556602000967020050250020B7
:10D200006466020038B50F4B1C68002C18DD0E4D0B
:10D210002A78013C52B91C6094B9022201210F20E6
:10D220001A6005F007F901232B7038BD0CB11C60A2
:10D2300038BD1E2221460F201A6005F0FBF82C7025
:10D2400038BD00BF88200020A824002008B533483E
:10D2500003F0B0FF002860D04FF47A70013800BFAF
:10D2600000BF00BF00BF00BF00BF00BF00BF00BFC6
:10D2700000BF00BF00BF00BF00BF00BF00BF00BFB6
:10D2800000BF00BF00BF00BF00BF00BF00BF00BFA6
:10D2900000BF00BF00BF00BF00BF00BF00BF00BF96
:10D2A00000BF00BF00BF00BF00BF00BF00BF00BF86
:10D2B00000BF00BF00BF00BF00BF00BF00BF00BF76
:10D2C00000BF00BF00BF00BF00BF00BF00BF00BF66
:10D2D00000BFC3D11249134805F0FCF90F4804F010
:10D2E000B7F90138052810D8DFE800F00709030571
:10D2F0000B0D0D490AE00D4908E00D4906E00D4906
:10D3000004E00D4902E00D4900E00D49054805F033
:10D31000E1F90349034805F0DDF908BDAC2400201C
:10D320006F66020078260020CC660200CF660200FD
:10D33000D4660200D9660200DF660200E4660200DD
:10D34000E86602002D4B2E481A682E4B70B51A6005
:10D350002D4D2E4C2E4E02F033FE2E4802F030FEA4
:10D360002D4802F02DFE1821284602F0ABFD28467C
:10D370002A4D2B49224606F055FA284603F0EDFBCC
:10D38000224628492846284D06F04CFAFF231A4623
:10D390001946284601F0E6F8224624492846244D3D
:10D3A00006F040FA2349244801F0A6F90222234955
:10D3B000284601F0A9F92846214D2246314606F0BB
:10D3C00031FA08221F49284601F09EF928461E4DD1
:10D3D0002246314606F026FA142312221B4928461B
:10D3E00000F0B8FD22461A49284606F01BFA002133
:10D3F0001848BDE8704000F0F6BC00BF8420002053
:10D400005C2200208C2100200822002080200020A7
:10D410008DC601006C2200207C220020AC2400205C
:10D42000D1FE01007F0B0200B0220020D9E40100F0
:10D4300074240020ED660200D4210020F266020070
:10D440008C220020F7660200DC210020FC6602002E
:10D4500001DF01009421002038B5054601B3012900
:10D4600020D0022920D0032920D0042920D005294A
:10D4700020D0062920D0072920D0082920D009292A
:10D4800020D00A2920D00B2920D00C2920D00D290A
:10D4900020D00E2920D00F290CBF3B2400241CE0F3
:10D4A0000C461AE02A2418E02B2416E02C2414E061
:10D4B0002D2412E02E2410E03B240EE032240CE058
:10D4C00033240AE0342408E0352406E0362404E05E
:10D4D000372402E0382400E03A2421466A4802F06A
:10D4E0000CFC2946684802F025FB6420013800BF87
:10D4F00000BF00BF00BF00BF00BF00BF00BF00BF34
:10D5000000BF00BF00BF00BF00BF00BF00BF00BF23
:10D5100000BF00BF00BF00BF00BF00BF00BF00BF13
:10D5200000BF00BF00BF00BF00BF00BF00BF00BF03
:10D5300000BF00BF00BF00BF00BF00BF00BF00BFF3
:10D5400000BF00BF00BF00BF00BF00BF00BF00BFE3
:10D5500000BF00BF00BF00BF00BF00BF00BF00BFD3
:10D5600000BFC3D10021484802F0D1FB032221466D
:10D57000454802F0BFFB6420013800BF00BF00BF78
:10D5800000BF00BF00BF00BF00BF00BF00BF00BFA3
:10D5900000BF00BF00BF00BF00BF00BF00BF00BF93
:10D5A00000BF00BF00BF00BF00BF00BF00BF00BF83
:10D5B00000BF00BF00BF00BF00BF00BF00BF00BF73
:10D5C00000BF00BF00BF00BF00BF00BF00BF00BF63
:10D5D00000BF00BF00BF00BF00BF00BF00BF00BF53
:10D5E00000BF00BF00BF00BF00BF00BF00BFC3D16E
:10D5F000254802F0B1FA0446234802F0ADFA054688
:10D60000214802F0A9FA6420013800BF00BF00BF22
:10D6100000BF00BF00BF00BF00BF00BF00BF00BF12
:10D6200000BF00BF00BF00BF00BF00BF00BF00BF02
:10D6300000BF00BF00BF00BF00BF00BF00BF00BFF2
:10D6400000BF00BF00BF00BF00BF00BF00BF00BFE2
:10D6500000BF00BF00BF00BF00BF00BF00BF00BFD2
:10D6600000BF00BF00BF00BF00BF00BF00BF00BFC2
:10D6700000BF00BF00BF00BF00BF00BF00BFC3D1DD
:10D6800044EA052080B238BD882500200000000053
:10D6900008B5FFF7E1FE07EE900AF8EE677A17EE9D
:10D6A000900A05F039FD0AA3D3E9002305F088FDAF
:10D6B00006F068F805F030FD07A3D3E9002305F074
:10D6C000CBFB06F05FF800EE100A08BDAFF3008058
:10D6D0007B14AE47E17A943F6666666666127140D7
:10D6E00008B501462720FFF7D3FFF2EE027A20EEBD
:10D6F000270AF1EE047A80EE277ADFED057A77EEDD
:10D70000277A17EE900A05F007FD41EC100B08BDD3
:10D710000000004208B501462620FFF7B9FFF2EEEF
:10D72000027A20EE270AF1EE047A80EE277ADFED06
:10D73000057A77EE277A17EE900A05F0EDFC41ECBA
:10D74000100B08BD00000042F8B5174E174F00241B
:10D75000354601342046FFF7DDFF51EC100B06F093
:10D7600011F846F8040B2046FFF7BAFF51EC100BF6
:10D7700006F008F80F2C47F8040BEAD195ED017A72
:10D78000D5ED007A0A4B77EE877A95ED027A77EE3F
:10D79000877A95ED037A77EE877AB5EE007A67EEB1
:10D7A000877AC3ED007AF8BD202200202C240020C7
:10D7B00090210020F8B5A44BA44C2DED028BD4EDA4
:10D7C000007A93ED008A37EE888A04F019FD07EE9F
:10D7D000900AF8EE677AB4EEE78AF1EE10FA40F1BB
:10D7E0002F8104F00DFD9A4B07EE900A1A78F8EE9F
:10D7F000677A1F46C4ED007ADAB19649964804F07C
:10D8000069FF9649944804F055FF94ED007ADFEDE6
:10D81000947AC7EE276A16EE900A05F07DFC41EC7B
:10D82000100B02218C4805F065F88E498A4804F0F7
:10D8300051FF8D4D2B78BBB18C49874804F03AFFDE
:10D8400004F0DEFC07EE900AB8EE677AD4ED007AB9
:10D8500077EE677A17EE900A05F05EFC41EC100B4C
:10D8600002217D4805F049F8814800F0D1FC2B7871
:10D87000BBB18049784804F01DFF04F0C1FC07EEFD
:10D88000900AB8EE677AD4ED007A77EE677A17EEF1
:10D89000900A05F041FC41EC100B02216E4805F0A6
:10D8A0002CF8FFF7F1FBFFF7ADFC2B78BBB1724909
:10D8B000694804F0FFFE04F0A3FC07EE900AB8EEFE
:10D8C000677AD4ED007A77EE677A17EE900A05F062
:10D8D00023FC41EC100B02215F4805F00EF8674A6B
:10D8E0001368002B06DD013B1360654B1B782BB9D9
:10D8F000012100E00021082004F09CFDFEF758FF04
:10D900002B78BBB15F49544804F0D4FE04F078FC96
:10D9100007EE900AB8EE677AD4ED007A77EE677A70
:10D9200017EE900A05F0F8FB41EC100B02214A4873
:10D9300004F0E3FFFEF7ECFF2B78BBB152494648F9
:10D9400004F0B8FE04F05CFC07EE900AB8EE677ACB
:10D95000D4ED007A77EE677A17EE900A05F0DCFBDB
:10D9600041EC100B02213C4804F0C7FFFFF7ECFE2E
:10D970002B78BBB14549384804F09CFE04F040FCCC
:10D9800007EE900AB8EE677AD4ED007A77EE677A00
:10D9900017EE900A05F0C0FB41EC100B02212E4857
:10D9A00004F0ABFF3A4E3368012B0BD11E2004F07C
:10D9B000C9FBFFF74BFC00230322364933601E20CE
:10D9C00004F050FBFFF72EF82B78BBB13249224808
:10D9D00004F070FE04F014FC07EE900AB8EE677ACB
:10D9E000D4ED007A77EE677A17EE900A05F094FB93
:10D9F00041EC100B0221184804F07FFF3B780BB17B
:10DA0000FFF73AF92B78DBB12449134804F052FEB2
:10DA100004F0F6FB07EE900AB8EE677AD4ED007AD0
:10DA200077EE677A17EE900A05F076FBBDEC028B75
:10DA300041EC100BBDE8F8400221074804F05DBF3F
:10DA4000BDEC028BF8BD00BF8C2100209821002086
:10DA5000A0200020A46E02007826002001670200AA
:10DA600000007A4408670200982000200B6702003B
:10DA7000B02200202F670200456702009C21002091
:10DA8000042200205F6702007F6702009A6702009D
:10DA9000A424002019C50100B3670200D667020064
:10DAA000F8B501211D2004F0A3FC0121102004F091
:10DAB0009FFC00211E2004F09BFC4FF4E1316548DF
:10DAC00004F067FF644B1B781BB16449614804F0A4
:10DAD000F1FD322004F0C4FB6148624E624D634C9C
:10DAE00002F06CF8322004F0BBFB00211D2004F092
:10DAF000A1FC0021102004F09DFC642004F0B0FB88
:10DB00005B49544804F0E6FD0121304602F0AEFDC9
:10DB10004521304602F0B6FA4FF4FA7755494D48A0
:10DB2000778004F0D7FD01211D2004F083FC6420E0
:10DB300004F096FB0121284602F098FD4621284674
:10DB400002F0A0FA4C4943486F8004F0C3FD012164
:10DB5000102004F06FFC642004F082FB01212046B9
:10DB600002F084FD4721204602F08CFA6420678091
:10DB700004F076FB4121304602F036FC502004F0E0
:10DB80006FFB4121284602F02FFC502004F068FB77
:10DB90004121204602F028FC1E200322374904F0D0
:10DBA00061FA374803F0DCFB08B1364900E036493A
:10DBB000284804F099FD0121314803F0EBFC08B13D
:10DBC000324900E03249234804F08EFD31492148B2
:10DBD00004F070FD304802F0A8F90A2201461D4801
:10DBE00004F0E0FDC82004F03BFB01210F2004F00D
:10DBF000FFFB00210F2004F01DFC0021052004F094
:10DC0000F7FB0121082004F0F3FB0021082004F0B9
:10DC100011FC224800F0F0F8214B224A50B1224C6E
:10DC20001B68126821681D4800F008F91F4B226824
:10DC30001A6006E01E491B6812680968174800F060
:10DC4000EEF8FEF737FD4FF4FA70BDE8F84004F047
:10DC500007BB00BF78260020A0200020E26702005A
:10DC6000882500205C2200206C2200207C220020DD
:10DC7000EC670200006802001468020019C5010088
:10DC8000AC240020286802004A680200766802007E
:10DC900094680200C5680200082200209421002038
:10DCA0009C2000209420002068240020D021002007
:10DCB0000022002038B50025057329B90B4B0C4A0A
:10DCC0000C48232105F0B4FD01600B4951F82220D6
:10DCD000027151F8233083719DF8103051F82330D0
:10DCE00043710223C371856038BD00BF1B69020008
:10DCF000DE680200296902004C6D0200037B23B933
:10DD00004373837303610123037370471FB50DF1E0
:10DD1000100E0EE90E009DF808100268002301297C
:10DD2000C2F80035039B08D004D3032907D143F080
:10DD3000040304E043F0020301E043F00603C2F8E9
:10DD40005435019BC2F824350123C2F8003505B0D3
:10DD50005DF804FB10B5FFF7D1FF03688279C3F8C3
:10DD600008254279C3F80C250279C3F81025034B26
:10DD7000BDE810400ECBFFF7C9BF00BF54250020FF
:10DD80000368C3F81C15D3F80821002AFBD0D3F888
:10DD900018050022C3F80821C0B2704707B5094B27
:10DDA00009490A484FF080421A6000229A60022214
:10DDB0001A711323009314221223FFF77BFF03B081
:10DDC0005DF804FB54250020003000406025002051
:10DDD000016082807047006870478088704729DF43
:10DDE000704728DF70474FF080531A695B69013B29
:10DDF000591A51430160704703681868013018BF11
:10DE00000120704708B54FF080531A690368B3FBCF
:10DE1000F2F31846FFF7E5FF1128FAD008BD38B530
:10DE200004460D461946FFF7EDFF8B081A462946B2
:10DE30002068FFF7D4FF1128F8D038BD10B502686C
:10DE40000846043A441AA34204D952F8044F40F851
:10DE5000044BF7E710BD07B50023062269460430DE
:10DE60000093ADF8043005F071FD003018BF0120BB
:10DE700003B05DF804FB000010B5034C04302146EC
:10DE800000F05AFC204610BD742500200B6843604A
:10DE90008B8803817047002343600381704708B576
:10DEA0000160FFF7F8FF08BD807A7047C0687047CF
:10DEB000007C704700207047C368585C704770B59D
:10DEC0000D46114602680446D6691A46B04701233A
:10DED000A374A36923B121462846BDE870401847C2
:10DEE00070BD70B5044608460D4606F0B5FB2368C4
:10DEF000C2B229462046DB69BDE8704018470000E1
:10DF0000044B10B504460360C06808B105F016FD67
:10DF1000204610BD6869020010B50446FFF7F0FF07
:10DF2000204604F075FF204610BD10B5837A9A4252
:10DF3000044628BF1A460274C06805F016FD6069E1
:10DF400028B1036821461B68BDE81040184701202E
:10DF500010BD000070B504461D461646043042F65A
:10DF6000030200F08FF8142D4FF0000228460A4BF0
:10DF7000236028BF1420A072E26022746674A27429
:10DF8000E2746261A261E261226215B105F0CEFC29
:10DF9000E060204670BD00BF68690200407C7047A9
:10DFA000C07C70470346002ADA7414BF0722082297
:10DFB000084653F822200AB11946104770470B292A
:10DFC0009CBF063140F8212070474161704770477F
:10DFD00070477047002070477047704700207047B7
:10DFE00000207047002070470020704700207047D5
:10DFF00000207047002070470020704700207047C5
:10E00000002070470020704700207047704770471D
:10E010007047704710B5044604F0FAFE204610BD64
:10E02000054A02606422828001210022C2800281AE
:10E030008172C26002617047986902000161704795
:10E040000120704710B5034B03600446FFF758FFEB
:10E05000204610BDFC69020010B50446FFF7F2FF30
:10E06000204604F0D5FE204610BD000038B5044619
:10E070001D46FFF76FFF024B25742360204638BD15
:10E08000FC69020010B50446FFF7A2FE024A1378AD
:10E0900001331370204610BD86250020014B1878EF
:10E0A000704700BF86250020C06803681B6A1847B8
:10E0B000A0F10400FFF7F8BFC06803685B6A184767
:10E0C000A0F10400FFF7F8BFC06803689B6A184717
:10E0D000A0F10400FFF7F8BFC0680368DB6A1847C7
:10E0E000A0F10400FFF7F8BFC06803681B6B184776
:10E0F000A0F10800FFF7F8BFC06803685B6B184722
:10E10000A0F10800FFF7F8BFC06803689B6B1847D1
:10E11000A0F10800FFF7F8BFC06810B40468E46B12
:10E12000A4465DF8044B6047A0F10800FFF7F4BF78
:10E13000C06803681B6C1847A0F10800FFF7F8BF20
:10E14000C06803685B6C1847A0F10800FFF7F8BFD0
:10E15000C06803689B6C1847A0F10800FFF7F8BF80
:10E16000C0680368DB6C1847A0F10800FFF7F8BF30
:10E17000D0F8743113B100F5B07018477047D0F87B
:10E18000783113B100F5B0701847704730B41446B9
:10E190001A4623685D6A9DF8083000F5B071AC46F8
:10E1A000204630BC60477047704770B5054600F5A3
:10E1B000B07411462046FFF769FED5F86C311BB1EB
:10E1C0002046BDE87040184770BDD0F8703110B5DA
:10E1D00000F5B0740BB1204698472046BDE81040CA
:10E1E000FFF759BE10B4144600F5B0711A46204628
:10E1F0005DF8044BFFF7D6BE10B4144600F5B071BD
:10E200001A4620469DF804305DF8044B00F056BADB
:10E21000C0680368DB681847C06803681B69184753
:10E22000C0F88C107047C0F89C10704738B5D0F813
:10E23000A83004460D463BB900F01CFA00B280003D
:10E2400005F074FBC4F8A80094F8AC20D4F8A8300A
:10E2500043F8225094F8AC30013384F8AC3038BD28
:10E2600038B505460C460846FFF7D2FF04F5B071F5
:10E2700007C985E80700284638BD0F299CBF00EB79
:10E280008100C0F86C21704710B50446FFF706FF07
:10E2900000B2800005F04AFB04F1B003036004F112
:10E2A000BC03436004F1E003836004F58073C36042
:10E2B00004F586730361052384F8A430C4F8A00034
:10E2C00010BD2DE9F043D0F89010ADB00023044606
:10E2D0008DF83030E1B106A800F096FA06A800F0FB
:10E2E000C5FA022805468CBF152314238DF850006B
:10E2F00006A88DF8513000F0B7FA2A460146C5F15C
:10E300001A050DF1520005F030FBEDB2012601E0D7
:10E310001C250E46D4F88C1031B306A800F074FA10
:10E3200006A800F0A3FA431CAB4207461CDAC6EB72
:10E3300046182CAB434402288CBF0622022203F865
:10E34000600C03F85F2C06A800F08EFA2CAB984402
:10E3500001463A46A8F15E00023D05F006FB013693
:10E36000ED1BF6B205F0FF05D4F89410C9B194F88E
:10E370009820B2B1022D14D9531CAB42C6EB461003
:10E380002CAB0344A4BF023DEAB2FF2503F8602C86
:10E3900003F85F5C2CAB18445E3805F0E6FA0136F2
:10E3A000F6B2D4F89C50BDB1284606F055F9C0B27B
:10E3B0001D288ABF1D238DF830008DF830309DF860
:10E3C000302090428CBF082009208DF8310029466A
:10E3D0000DF1320005F0C9FAD4F8A03013B9204687
:10E3E000FFF752FF002742F6030804F1040994F8EE
:10E3F000A4309F4205DB002742F6030804F1080918
:10E400001BE0D4F8A03053F827502846FFF7E5FC6E
:10E41000404506D10DB1281F00E028464946FFF7C8
:10E42000D4FD0137E3E7D4F8A83053F82750284645
:10E43000FFF7D3FC404505D0013794F8AC309F423C
:10E44000F1DB07E00DB1281F00E02846494600F047
:10E4500049F9F1E74BB104F596712046FFF7E6FE66
:10E4600004F59C712046FFF7E1FEE06894F8AC10DB
:10E4700002680491D4F8A810039194F8A4100291B2
:10E480009DF83030D4F8A01001910CA90033009110
:10E4900018BF01239568314614AAA847E0680368AD
:10E4A0001B6D98472DB0BDE8F08338B5D0F8A0308B
:10E4B00004460D460BB9FFF7E7FE94F8A420D4F804
:10E4C000A03043F8225094F8A430013384F8A430EB
:10E4D00038BDFFF7EABF0000154B10B503F1680225
:10E4E00003600446803342608360FFF795FED4F8F2
:10E4F000A80008B105F022FAD4F8A00008B105F090
:10E500001DFA04F59A7000F0BBF804F58470FFF76B
:10E51000F7FC04F1DC00FFF7F3FC04F1B800FFF7AF
:10E52000EFFC04F1100000F083FE204610BD00BF98
:10E53000506A020010B50446FFF7CEFF204604F0F3
:10E5400067FC204610BDB830FFF7CBBC07B502AB67
:10E55000022223F8021DDC301946FFF7E6FC03B067
:10E560005DF804FB2DE9F843354BDFF8E890DFF860
:10E57000E88003F108020446026000F1100703F18D
:10E5800070028833002542608360384601F08CFABF
:10E5900004F1B806C4F88C50C4F89050C4F89450F4
:10E5A00084F89850C4F89C50C4F8A05084F8A45043
:10E5B000C4F8A85084F8AC50224904F1B00000F02F
:10E5C0009BF81323022220493046FFF7C3FC0223A5
:10E5D0001A461E4904F1DC00FFF7BCFC494604F56D
:10E5E000807000F089F804232022414604F58470ED
:10E5F000FFF7B0FC494604F5967000F075F820224C
:10E60000414604F59A7000F043F8214604F5B070D5
:10E61000FFF745FC10222946E76004F5B67005F0C7
:10E62000AFF90B493046FFF75CFC29462046FFF75F
:10E630008DFFE0682146FFF701FD2046BDE8F88325
:10E64000486A0200246A0200296A02002E6A020057
:10E650003D6A0200336A0200386A020010B50446BF
:10E66000FFF7B6FB024A137801331370204610BD42
:10E6700087250020014B1878704700BF87250020B0
:10E68000704710B5044604F0C3FB204610BD0000DF
:10E6900038B504461546043042F60302FFF7DEFFA4
:10E6A000054B23600023A572E372A36284F8223035
:10E6B0006362204638BD00BFF86A020070B50446A8
:10E6C000C3720D460C3011461A4605F04EF901236F
:10E6D00084F82230A36A23B121462846BDE8704061
:10E6E000184770BD4162704710B54FF42052044680
:10E6F000FFF7B4FF204610BD10B54FF4205204467A
:10E70000FFF7C0FC204610BD13B501230446FFF7F8
:10E71000ADFC02A9064B2360002301F8013D012254
:10E720002046FFF702FC034B2360204602B010BDD9
:10E73000086B02003C64020070B58AB004460E46C5
:10E7400001A81B4904F0B4FA194904A804F0B0FA6E
:10E750000634052514F8013D0F2B03D8154901A8EF
:10E7600004F01AFB1022217807A804F0E9FA07A99F
:10E7700004A804F0CCFA07A804F058FA04A901A8E8
:10E7800004F006FB1DB10C4901A804F005FB15F1CE
:10E79000FF35DFD200231222314601A804F00BFB23
:10E7A00004A804F043FA01A804F040FA0AB070BDCE
:10E7B000EB670200F0660200E06B0200F8B5054668
:10E7C0000F460446631B9F4213DD237813F0F00FBE
:10E7D000264603D109490A4803F06CFF31780848FE
:10E7E000102203F0AFFF07490548013403F062FF30
:10E7F000E8E70348BDE8F84003F064BFF0660200B4
:10E8000078260020A46E0200F7B50446002321609C
:10E81000037508460E468DF804308DF805308DF8E6
:10E82000063005F019FF451E002D1ADB277D0F2F3E
:10E8300017D8735D2D2B01D1013510E0721900211D
:10E8400012F8012C8DF8042001A810228DF8053053
:10E8500006F02CF827443871237D01332375023DDF
:10E86000E2E7204603B0F0BD04307047007D7047FA
:10E8700071DF704772DF704773DF704775DF704775
:10E8800076DF704777DF704778DF70477ADF704751
:10E890007CDF70477EDF70477FDF704786DF704721
:10E8A00090DF704792DF704796DF704798DF7047C0
:10E8B00099DF7047A0DF7047A2DF7047A3DF704782
:10E8C000A4DF7047A6DF7047A9DF704760DF70479D
:10E8D00061DF704762DF704763DF704753DF704767
:10E8E00010DF704711DF704790F86000003018BFEC
:10E8F0000120704770B590F871600023B34214DABC
:10E900001A01456FAC18AA588A420CD1E38973B139
:10E91000227B02F0020202F0FF0342B190F878007D
:10E9200080F0010070BD0133E8E7002070BD18469B
:10E9300070BD70B590F871600023B3421ADA1A0105
:10E94000456FAC18AA588A4212D1E189A1B1227B45
:10E9500002F0020202F0FF0382B1012380F8783056
:10E960000022808FFFF7A0FFB0FA80F0400970BD51
:10E970000133E2E7002070BD084670BD184670BD47
:10E9800070B590F871600023B3421CDA1A01456F2C
:10E99000AC18AA588A4214D1E389B3B1227B130779
:10E9A00004D590F8780080F0010070BD02F00402F8
:10E9B00002F0FF034AB190F86000003018BF012058
:10E9C00070BD0133E0E7002070BD184670BDF0B5A2
:10E9D00090F871E085B0002474452FDA2501476F67
:10E9E0007E197D598D4227D1F4894CB3357B15F0C2
:10E9F0000C0127D090F8601021B315F0080F14BF58
:10EA000001250225ADF80A300139012380F8601094
:10EA10008DF8045080F87830002501A9808F8DF89A
:10EA20000550ADF80640ADF808500392FFF73EFFE1
:10EA3000B0FA80F0400906E00134CDE7002002E0A2
:10EA4000204600E0084605B0F0BD70B590F8716052
:10EA50000023B34210DA1A01456FAC18AA588A4253
:10EA600008D1E08948B1237B13F0300F14BF012097
:10EA7000002070BD0133ECE7002070BD7FB590F839
:10EA800071600023B3422EDA1A01456FAC18AA5800
:10EA90008A4226D1E28942B3217B11F0300326D08D
:10EAA000012311F0100F14BF194602211A44ADF8CA
:10EAB0000210ADF80620002102228DF80510ADF8F5
:10EAC0000810ADF80A2080F878306A4401A9808FD8
:10EAD0008DF804300392FFF7E9FEB0FA80F04009A8
:10EAE00006E00133CEE7002002E0104600E01846C1
:10EAF00004B070BD03681B6C18477FB590F8716057
:10EB00000023B3422ADA1A01456FAC18AA588A4288
:10EB100022D1E28922B3237B13F030034FF00001AE
:10EB200020D001231A44ADF806200222ADF80210CD
:10EB30008DF80510ADF80810ADF80A2080F878308F
:10EB40006A4401A9808F8DF804300392FFF7AEFE6E
:10EB5000B0FA80F0400906E00133D2E7002002E07D
:10EB6000104600E0184604B070BD11F1270F08B53B
:10EB700014DB11F11D0F14DB11F1130F14DB11F174
:10EB80000F0F14DB11F10B0F14DBCA1D15DBCB1CAF
:10EB900016DB0029D4BF0020042013E06FF027000B
:10EBA00010E06FF01D000DE06FF013000AE06FF051
:10EBB0000F0007E06FF00B0004E06FF0070001E0CA
:10EBC0006FF00300FFF75EFEB0FA80F0400908BD69
:10EBD0001321808FFFF754BE07B501466846FFF743
:10EBE00047FE086920B103680DF10102DB6998470F
:10EBF00003B05DF804FB000013B5044602A800232F
:10EC000040F8043DFFF76AFE019804F073FA084BE0
:10EC1000002204F0D5FA04F0B5FD236933B11A6877
:10EC200000EE100A126A21461846904702B010BD45
:10EC30000000D03F704710B5044686B0182200216E
:10EC4000684604F09DFEA37A33B994F83430002B63
:10EC500014BF0223032300E000238DF80030A388B3
:10EC600068460A221B0193FBF2F3ADF81030FFF760
:10EC700003FE06B010BD2DE9F043054690F8610093
:10EC80008FB00C460023142683425DDA06FB03F2A4
:10EC9000696E8F188A58A24207D12046FFF77EF985
:10ECA000C30751D57B6813B94EE00133ECE795F803
:10ECB00033600DF11808324605F11401404604F0A6
:10ECC00054FE236820461B69984704300644F6B278
:10ECD0001F2E39D87868FFF77EF801466846FFF79F
:10ECE00093FD236895F833701B69204698470EAB57
:10ECF0001F44033007F8200C95F833703B4416226C
:10ED0000684603F81F2CFFF7AFFD0237038828F889
:10ED10000730236895F83370DB68204698472368EE
:10ED200081461B69204698470437474402464946B6
:10ED3000384604F01AFE00231A4631464046FFF7D3
:10ED400099FDAC63012000E000200FB0BDE8F08326
:10ED50002DE9F047D4B04FF48E7304460DF10A014B
:10ED60000DA8ADF80A30FFF7B3FD0346002840F0C8
:10ED70004482BDF83420302A00F03C8111D8112A99
:10ED80005CD004D8012A21D0102A27D035E2142AD9
:10ED900000F0C780192A00F0D080132A40F02D829D
:10EDA0009BE0382A00F0DA8106D8322A00F064812C
:10EDB000362A00F0BA8120E2502A00F0D180522A8F
:10EDC00000F01281392A40F01882ECE194F86020BA
:10EDD0009DF83C30134484F860300EE2BDF83800F2
:10EDE000A08705A9FFF776FD20699DF8143084F807
:10EDF000603028B103680DF13D021B682146984739
:10EE0000E288052A12D92389B3F5486F0ED8ADF8E8
:10EE100016300023ADF8183005A94FF4C873A08F41
:10EE2000ADF81420ADF81A30FFF728FD94F86830DB
:10EE3000002B00F0E2810022012109E14FF6FF7270
:10EE4000A28784F8600005464FF01409804694F8C4
:10EE500061309D4216DA676E09FB05F6BB19B85999
:10EE600083F8108083F81180FFF79AF840B1206989
:10EE700030B10368BA59D3F814A021460023D04713
:10EE80000135E4E7206918B1036821465B689847BB
:10EE900000230C20194694F86820934202DB0023DB
:10EEA000184605E0E26E00FB032201339160F2E7B1
:10EEB00094F87120934208DA616F1A01114401330A
:10EEC0000873616F0A44D081F2E7002384F8783038
:10EED000236820469B6998478FE1E068002800F08E
:10EEE0008681FEF789FF002840F0818101230322FB
:10EEF0008DF80F3062F306138DF80C3007238DF870
:10EF00000D30102300218DF80E30E36D05938DF840
:10EF1000101009910A910B910691079105AB03AA74
:10EF200068E1E16DBDF84420488A904218BF194657
:10EF3000A08F1A46FFF7B2FC5FE19DF83C20002A43
:10EF400040F05B81E06820B11C2304F14001FEF732
:10EF500066FF2069002800F0508103689B68E1E0AB
:10EF6000BDF83A8006464FF0140994F861309E428D
:10EF700080F24381616E09FB06F3CF183A8942455E
:10EF80000CD12069002800F0388103689DF84420E6
:10EF900000921D693A680DF1460323E1BA894245A2
:10EFA00020D19DF847009DF8462042EA002295B204
:10EFB00002F001023A74C5F340027A7415F00305B9
:10EFC000C85818BF0125FEF7EBFFA8420AD02069F8
:10EFD000002800F0128103683A685E6921462B46DA
:10EFE000B0470AE10136C0E702460146A08FFFF7AD
:10EFF0006BFC02E1BDF83A2072BBBDF840500DA990
:10F0000013460C26AB421CDA94F868700020B84214
:10F0100014DAE26E91F810C006FB002292F806E0C6
:10F02000F44509D1B1F80EC0B2F804E0F44503D1BB
:10F03000D1F81200906001E00130E8E701330831B7
:10F04000E0E70DAB03EBC5050022A989013189B2C8
:10F05000A08FFFF725FCD0E094F868200C209342A5
:10F0600080F2CB80E16E00FB03110D8915B14D8953
:10F07000002D4BD10133F2E7BDF83A2094F87030FF
:10F08000002A36D1E66E03EB430306EB83030A2521
:10F090009B6805930DAB9A8905FB0235AB4223D0E3
:10F0A000002194F87120914219DA626F94F870008F
:10F0B00002EB011200EB400056F8207050688742C6
:10F0C0000BD11F7C907A874207D11089DF89874254
:10F0D00001BF987C1073D88AD0810131E1E7DA8AC8
:10F0E000ADF814200A33D9E705A9A08FFFF7DAFBA2
:10F0F00083E001330C2294F868005A4383420CDA0F
:10F10000E16E11440D892DB14D891DB184F8703027
:10F110000831EAE701330C32F0E7206900286CD0AF
:10F120000368DB682146984767E0BDF83A1084F829
:10F13000780040F20512914201D1E268CAB9BDF8E7
:10F14000401094F871000023834256DA626F02EB9C
:10F150000312D5898D423BD00133F5E7BDF83A1053
:10F1600084F8780040F20512914246D1E268002A04
:10F1700043D01A0E8DF8183042F00102DBB28DF840
:10F18000172043F00103032262F306138DF81430B5
:10F1900007238DF8153005A91023A08F8DF81630A0
:10F1A000FFF778FB29E09DF84230BDF84050022B74
:10F1B00003D12946A08FFFF77BFB94F87110002341
:10F1C0008B421ADA626F02EB0312D089A8420CD18B
:10F1D000206990B19DF844100368009112689D6900
:10F1E0000DF146032146A84707E00133E8E7002375
:10F1F0001A468521A08FFFF74FFB54B0BDE8F0877A
:10F2000010B50446FFF76EFB606F08B104F096FB83
:10F21000E06E08B104F092FB606E08B104F08EFB62
:10F22000002384F8613084F8683084F8713010BDB0
:10F2300010B5054B03600446FFF7E2FF2046FEF7DA
:10F24000E8FE204610BD00BF3C6B020010B504462E
:10F25000FFF7EEFF204603F0DBFD204610BD07B5AB
:10F260001288ADF80020ADF802106A4601464FF64C
:10F27000FF700193FFF724FB03B05DF804FB00006F
:10F280002DE9F04FEDB09A469DF8E8310193A24B7D
:10F29000769E9DF8E0810546186808900F4608A8FC
:10F2A00000211446FFF71CFB9C4B099314220021FC
:10F2B0000DA804F065FB0A2309A9ADF834300DA8A8
:10F2C00001238DF840308DF83C30FFF7FFFA2822FB
:10F2D000ADF82C205022ADF82E204FF000094FF44D
:10F2E000C8720BA8ADF83220ADF83090FFF7CEFA17
:10F2F0004846FFF7C7FA6B7506230222AB75032356
:10F300002A7585F833301FB314B31444B9451FDA96
:10F3100095F8330014F8023C2A18013313750230B3
:10F3200014F8013C5375C0B285F83300284414F832
:10F33000022C2146143004F018FB14F8023C95F816
:10F340003320134485F8333009F101091F34DDE718
:10F3500024AFBAF1000F20D00EB34FF000090236EF
:10F360004B46D1451CDA16F802BC16F8011C0BF10D
:10F370000102FA549C1CFA18E4B2517038195A462A
:10F38000314604F0F2FA5C444FF00102E3B285F832
:10F39000342009F101091F36E3E7534600E0334604
:10F3A0003A4695F8331005F11400FFF763FA002090
:10F3B000FFF76AFA002442F6030644450DDA779B0C
:10F3C00053F82400FEF709FDB04202BF95F8613002
:10F3D000013385F861300134EFE795F861000338B7
:10F3E000C0B285F8610000EB8000800004F09EFA56
:10F3F00000266866ADF814600296B146464580F274
:10F40000BE81779B53F826402046FEF7E4FC014678
:10F4100017A8FFF7F9F917A8FFF726FA074617A864
:10F42000FFF724FA022809D17A783B7843EA0223CD
:10F43000ADF8283001238DF82A301CE03B460DF151
:10F44000B00E07F1100C18685968724603C20833F1
:10F4500063459646F7D17A7B3B7B43EA0223ADF8BE
:10F4600028300DF12A0100232CA88DF8BD308DF82D
:10F47000BC30FFF731FA2046FEF7AFFCB0F5205F55
:10F48000204611D1FEF7A7FC254905F0D3F8002846
:10F4900000F073812046FEF79EFC224905F0CAF871
:10F4A000002800F06A8131E2FEF797FC42F6030380
:10F4B000984240F0358104B1043C271D3846FEF7E0
:10F4C0008AFC194905F0B6F8B8B99DF8B0300122A8
:10F4D00062F3030362F307138DF8B030236820460C
:10F4E000DB689847236807461B69204698473946DA
:10F4F00082B22CA8FFF7CCF93FE13846FEF76BFC4F
:10F500000A4905F097F898B923682046DB689847C0
:10F510000088FFF7B9F930E1306B0200802000204D
:10F52000246A0200336A0200296A02002E6A02007D
:10F530003846FEF750FCC14905F07CF8002800F081
:10F540001C812046FEF72AFD236882461B6920465F
:10F5500098476A6EADF8160009EB89014FEA810BF6
:10F5600002EB0B0342F821400027029A5A601F74F5
:10F570005F741C2239461DA804F002FA2AF0010328
:10F580001AF0300F8DF8743010D00123194663F350
:10F5900007118DF81810194606AA63F3071163F3D3
:10F5A00042078DF819108DF81A70229200231AF074
:10F5B000320FADF81C308DF81E300BD09DF81C308A
:10F5C000E968012262F3030301B1022262F3071327
:10F5D0008DF81C301AF00C0F10D0EB6801222BB103
:10F5E0009DF81D3062F30303022203E09DF81D30F5
:10F5F00062F3030362F307138DF81D309DF81E308C
:10F60000012262F342038DF81E30236820469B6975
:10F6100098479DF81E3080F0010060F300038DF8DC
:10F620001E30771C47453CDA779B53F827A050469D
:10F63000FEF7D3FBB0F5245F33D1BAF1000F01D050
:10F64000AAF1040A0AF1040318460393FEF7C3FB68
:10F650007B4904F0EFFF039BA0B9DAF80030504675
:10F660009B6898471E90DAF800305046DB68984750
:10F67000DAF80030ADF87C00DB6850469847ADF80A
:10F680007E000CE01846FEF7A6FB6E4904F0D2FFA0
:10F6900028B9DAF8003050469B6898472090013727
:10F6A000C0E71422002112A804F06AF90DF1160A2D
:10F6B0000AAB129307AB1393BAF80030ADF8503091
:10F6C000236820469B6898476B6EADF8540000276E
:10F6D0005B44083312AA1DA938461697FFF7ECF8C9
:10F6E000BAF80030BBB12CABBAF8002003939742B4
:10F6F00008DA22683946526920469047039BD8555C
:10F700000137F1E76B6E9B4452462CAB0021BBF8EE
:10F710000800FFF7A4FD09F101095FFA89F92CE05F
:10F720002046FEF75AFBB0F5245F26D104B1043C15
:10F73000271D3846FEF74FFB414904F07BFFE0B13F
:10F740003846FEF748FB404904F074FFA8B138463C
:10F75000FEF741FB3D4904F06DFF70B13846FEF7FE
:10F760003AFB384904F066FF38B1D6E02CAB52467C
:10F770000021BDF81400FFF772FD01363EE6019B43
:10F7800023B3A3F102085FFA88F6002442F60307C8
:10F79000B442B0461CDA799B53F824804046FEF709
:10F7A0001CFBB0F5205F05D195F86830013385F872
:10F7B000683009E04046FEF710FBB84202BF95F8FA
:10F7C0007130013385F871300134E1E7DDF80480F0
:10F7D00095F8680000EB4000800004F0A7F8E866A8
:10F7E00095F87100000104F0A1F8DDF8E491686774
:10F7F000002609EB88083746B246C14579D059F84A
:10F80000044B2046FEF7E7FA01462CA8FEF7FCFF62
:10F810002CA8FFF729F883462CA8FFF727F8022821
:10F8200016D19BF801209BF8003043EA0223ADF883
:10F830005C3001238DF85E3029E000BF386A020099
:10F84000986B02009D6B0200A26B0200A76B020086
:10F850005B460DF1740E0BF1100C18685968724676
:10F8600003C2083363459646F7D19BF80D209BF8F9
:10F870000C3043EA0223ADF85C300DF15E01002349
:10F880001DA88DF881308DF88030FFF725F82046CF
:10F89000FEF7A3FAB0F5205F10D1EA6E07EB47013F
:10F8A0008B00D01842F82140179A4260EA6E134448
:10F8B000013700229A60FFB2A2469EE72046FEF77B
:10F8C0008CFA42F60303984297D1696F3301CA1844
:10F8D00004B1043CCC50C2F804A0179991606A6F3F
:10F8E0001A44002111736A6F13440136D981F6B2AC
:10F8F00083E7E86818B1FEF77FFA002865D12B6826
:10F9000028469B6998476DB0BDE8F08F05AA0AA903
:10F910000120FEF7CFFF02942FE723682046DB6823
:10F92000984712AF14220021ADF81C001DA804F066
:10F9300027F84FF0010A00233B806AF34203BB70B3
:10F9400023682046DB689847BDF81C10BB78EA683E
:10F9500080B2401A18BF012060F30003BB703B78EF
:10F960002AB16AF30303022262F3071303E06AF386
:10F9700003036AF307133B700AAB1E971D932368BA
:10F98000ADF87C10DB682046984700270DF11C0A73
:10F99000ADF8800005AA1DA938462197FEF78EFF15
:10F9A000BAF80030002B3FF4E8AE0DF1B00BBAF816
:10F9B00000309F42BFF6DAAE236839461B69204605
:10F9C00098470BF807000137F1E71C23002205F1E7
:10F9D0004001E868FEF732FA91E700BF2DE9F04FE9
:10F9E00087B004460D46002601274FF014090DF19B
:10F9F000060894F861309E4252DA09FB06F3626E03
:10FA000002EB030AD358AB4248D1A36B9D4204D109
:10FA1000236829465B6A204698472B6828461B695D
:10FA200098472B68ADF80600DB68BAF808B028469E
:10FA300098474246034600215846FFF710FC102223
:10FA4000002102A803F09CFFBAF80830ADF8083096
:10FA50009AF81030CDF8108073B194F8603053B13B
:10FA6000013B84F8603002A90123A08F8DF80A3091
:10FA7000FEF728FF00E01F469AF8113073B194F8A2
:10FA8000603053B1013B84F8603002A90223A08F9B
:10FA90008DF80A30FEF716FF00E01F460136A8E792
:10FAA000384607B0BDE8F08F10B50446FEF7B8FA47
:10FAB000104B236000214FF6FF7304F1400084F8DF
:10FAC000331084F83410A163A38784F8601084F89D
:10FAD0006110616684F86810E16684F8701084F83B
:10FAE0007110616784F87810E0651C2203F048FF0C
:10FAF000204610BD3C6B02002DE9F84380460D46C0
:10FB0000174601EB02090C464C45A4EB050609D04B
:10FB1000D8F8003014F8011B1B68404698470028AD
:10FB2000F2D100E03E463046BDE8F8837047203011
:10FB300002F016BF38B5437F0D462BB100F16804C3
:10FB4000204602F01BFF08B1002038BD20462946A0
:10FB500002F0E9FE012038BD203002F0F3BE203073
:10FB600002F004BF2DE9F0411E464FF47A730025E0
:10FB70008360104B4560044640F8203B174688469A
:10FB800002F0C6FE04F1680002F0C2FE0A4B9DF8C6
:10FB90001820C4F8108053F8222062769DF81C20AB
:10FBA000676153F82230A376267665772046BDE854
:10FBB000F08100BFB46B02004C6D0200837E4FF0F9
:10FBC000A04203F5E07330B5012140F20C64C17628
:10FBD00042F82340437E03F5E07342F82340036973
:10FBE0004FF0CC72C3F824250622C3F80025827E8C
:10FBF000C3F80825427EC3F80C25027E53B2D2B268
:10FC000002F01F055C09A94060340F4D002B45F838
:10FC1000241006DA0D4B02F00F02134440221A762C
:10FC200006E003F1604303F56143402283F80023BB
:10FC3000037E01215AB203F01F0301FA03F35209B4
:10FC4000014941F8223030BD00E100E0FCEC00E069
:10FC50002DE9F8430646894698461546B2B100F1AB
:10FC60002007384602F06AFE34690122C4F88895FC
:10FC70002262C4F83475C4F838552260D4F84C3187
:10FC80003BB9D4F82431002BF8D002E01046BDE88F
:10FC9000F8830023C4F84C31D4F85C311BB9D4F894
:10FCA0002431002BF8D00023C4F85C310122B8F1D4
:10FCB000000F02D1D4F8243143B16261D4F8043189
:10FCC000002BFBD00023C4F8043107E0E261D4F834
:10FCD0004831002BFBD00023C4F84831D4F824313C
:10FCE00013B10023C4F82431D4F83C053066C0B207
:10FCF000BDE8F8830123FFF7ABBF10B5044680F8D9
:10FD0000B010683002F01AFE0123637710BD2DE9B0
:10FD1000F041002305694377012790F8B030C5F81A
:10FD2000883500F1680604462F623046C5F8446500
:10FD3000884602F015FE2369C5F848059F60D3F890
:10FD400050211AB9D3F82421002AF8D00022C3F890
:10FD50005021304602F004FE236930B1D3F860210F
:10FD60001AB9D3F82421002AF8D00022C3F8602160
:10FD70000122B8F1000F02D1D3F8241141B15A6128
:10FD8000D3F80421002AFBD00022C3F8042107E0A5
:10FD9000DA61D3F84821002AFBD00022C3F84821B9
:10FDA000D3F8240170B10022C3F82421D3F8C4048D
:10FDB000C3F8C404022805D0042814BF042003207B
:10FDC000BDE8F081BDE8F0810121FFF7A0BF4369E4
:10FDD000D3F8642170B5044682B10022012500F1F8
:10FDE0002006C3F864210577304602F0A7FD636959
:10FDF0004022C3F83465C3F838251D636369D3F81E
:10FE00006821D2B10025C3F8685104F168060123C6
:10FE100063772577304602F091FDD4F8B43003B112
:10FE20009847657765693046C5F8446502F098FDE6
:10FE30006369C5F8480501225A636369D3F8042150
:10FE40005AB10022C3F80421227F32B1D3F83C0515
:10FE5000D4F8B830206603B198476369D3F82421F9
:10FE600042B10022C3F82421D3F8D024C3F8D0240F
:10FE700001225A6170BD00000148FFF7A8BF00BF12
:10FE80008825002007B50C230B228DE80C004FF0CD
:10FE90004022042311460348FFF764FE03B05DF8D7
:10FEA00004FB00BF8825002070B505460C468E185F
:10FEB000B44206D021782846FDF762FF04F8010B12
:10FEC000F6E770BD014A026041607047602500207E
:10FED000704770B5044615460E464068002102F092
:10FEE000A9FA04F108012068267265720222FFF760
:10FEF000DBFF60680121BDE8704002F09BBA38B5B5
:10FF000004460D464068002102F094FA214665F04F
:10FF10007F0501F8085F02222068FFF7C5FF6068CF
:10FF2000012102F087FA607A38BD10B5044601213C
:10FF3000406802F05DFA0121606802F07BFA2068F7
:10FF4000FDF708FF0F212046FFF7D9FF032819D13D
:10FF500041221A212046FFF7BCFF02221F21204622
:10FF6000FFF7B7FFD8221C212046FFF7B2FF01227E
:10FF700027212046FFF7ADFF2046C1221B21FFF7B6
:10FF8000A8FF002010BD000070B54D00E91C06461A
:10FF9000FFF7B5FFA91C04463046FFF7B0FF40EA63
:10FFA000042000B203F0A6F80022044B03F008F985
:10FFB00003F0E8FB00EE100A70BD00BF0000103F28
:10FFC00029224270002242800271704703460022BB
:10FFD00000791A717047C3B2000A03FA00F00130C9
:10FFE00080B2704760B10138002330F0FF019AB24F
:10FFF00003F1010301D04008F7E740EA022080B294
:020000022000DC
:100000007047000010B5084B59434FF47A7201F560
:10001000FA714FF4FA64B1FBF2F3B1FBF4F100FBB7
:100020000310B0FBF2F010BD002F3A00084B4FF464
:100030007A72594301F5FA714FF4FA63B1FBF3F3A5
:10004000B1FBF2F102FB0030B0FBF1F0704700BFF2
:10005000002F3A00F8B50A4C05460F464178204675
:100060001646FFF74AFE39462046FFF763FD314644
:100070002046FFF75FFD2046FFF7A6FE2870F8BD7B
:100080008825002038B505460C4601F07F028A21FC
:10009000FFF7E0FF6C7038BDF8B50C4C05460F4615
:1000A000417820461646FFF728FE39462046FFF7DE
:1000B00041FD310A2046FFF73DFDF1B22046FFF732
:1000C00039FD2046FFF780FE2870F8BD8825002006
:1000D00010B52DED028BB5EEC00AF1EE10FA82B02C
:1000E0000446B0EE408A19D410EE100A03F014F85A
:1000F0000EA3D3E9002303F0F3FA78B99FED0A0ABF
:1001000028EE008A2046FCEEC87A4421CDED017A23
:10011000BDF80420FFF7C0FF012000E0002002B07E
:10012000BDEC028B10BD00BF00000043A4703D0A6F
:10013000D7FF7F40F8B5114C06460F464178204660
:100140001546FFF7DAFD39462046FFF7F3FC290E86
:100150002046FFF7EFFCC5F307412046FFF7EAFC16
:10016000C5F307212046FFF7E5FCE9B22046FFF77B
:10017000E1FC2046FFF728FE3070F8BD88250020FE
:10018000F8B50F46064641780B4814461D46FFF762
:10019000B4FD39460848FFF7CDFC2544AC4205D0F4
:1001A00014F8011B0448FFF7C5FCF7E70248FFF706
:1001B0000BFE3070F8BD00BF8825002070B50C4CD8
:1001C00005460E4641782046FFF797FD314620460A
:1001D000FFF7B0FC2046FFF7F7FD01222870697891
:1001E0002046FFF787FD2046FFF7B6FCC0B270BD82
:1001F0008825002008B509B9502102E0012906D15F
:100200007021FFF7DBFF01304000C0B208BDFF20C6
:1002100008BDF8B504460F46164680210122FFF7B7
:1002200019FF0122FF212046FFF714FF002211468B
:100230002046FFF70FFF0622FF212046FFF70AFFA7
:1002400083212046FFF7BAFF40F00402D2B2832197
:100250002046FFF7FFFE0722FF212046FFF7FAFEA8
:10026000012281212046FFF7F5FE01228021204650
:10027000FFF7F0FE6B2294212046FFF7EBFE0022F1
:1002800083212046FFF7E6FE01F0BAFFE0808321DC
:100290002046FFF793FF054660B96388002BF6D030
:1002A00001F0AEFFE38880B2C01A63889842EEDDA9
:1002B0002846F8BD012220468321FFF7CBFE92217C
:1002C0002046FFF77BFF00F07F03C0F3C0103B70B8
:1002D0000022307081212046FFF7BCFE0622204616
:1002E000FF21FFF7B7FE83212046FFF767FF832139
:1002F00000F0FB022046FFF7ADFE20460122FF2161
:10030000FFF7A8FE204601220021FFF7A3FE2046AA
:100310000022FF21FFF79EFE204600228021FFF7EA
:1003200099FE0120F8BD10B50C460121FFF746FFEC
:10033000C0F300132370C0F3C003A370C0F38003A5
:100340006370C0F38013C0F3C010E370207110BD60
:1003500038B541F0010200210446FFF77BFE01F0B1
:100360004FFFE08013212046FFF728FF10F007051C
:100370000CD16388002BF5D001F042FFE38880B2F6
:10038000C01A63889842EDDD284638BD2046012218
:100390000B21FFF75FFE002220461146FFF75AFEB1
:1003A000012038BD70B50F4C05460E4641782046F9
:1003B000FFF7A3FC31462046FFF7BCFB2046FFF7C2
:1003C00003FD6978287002222046FFF793FC20463F
:1003D000FFF7C2FB05462046FFF7BEFB40EA0520BB
:1003E00080B270BD8825002038B5012204460D4634
:1003F0008021FFF72FFE0122FF212046FFF72AFE72
:10040000002211462046FFF725FE227A9121204640
:10041000FFF720FE012200212046FFF71BFE0022ED
:10042000FF212046FFF716FE002280212046FFF71D
:1004300011FE6DB1F8212046FFF7B4FF00B145432E
:100440002A4604212046FFF775FE0422002101E020
:10045000022229462046BDE83840FFF7FBBD38B5EB
:10046000044601F0CDFEE08013212046FFF7A6FEF2
:1004700043070FD16388002BF6D001F0C1FEE3885B
:1004800080B2C01A63889842EEDD012323714FF6D3
:10049000FF7038BD1E212046FFF784FF012205466C
:1004A0000B212046FFF7D6FD284638BD70B50E4615
:1004B000002114460546FFF79DFE46212080284670
:1004C000FFF77CFE013080B22178A080FFF79AFD13
:1004D0005121E0602846FFF765FFFFF77CFD21789A
:1004E000E080FFF78FFD702120612846FFF766FE50
:1004F00001304000C0B2608071212846FFF752FFF2
:10050000FFF769FDF378208113B1E388C01A2081D9
:10051000A1782089FFF776FD606170BDF0B544F6E3
:100520001F63994289B006460D4644D96946FFF7D4
:10053000FAFE02AA69463046FFF7B8FF9DF8003080
:100540001BB1059800F6363001E040F6E8009DF852
:1005500002302BB1059B03F2B22300EB430006E00F
:100560009DF801301BB1059B03F5257318449DF8D8
:1005700003701FB1069B03F5257318449DF80440D2
:10058000BCB100F22620854215D39DF80A10281A26
:10059000FFF74CFD80B21FB1BDF80E30184480B299
:1005A000FFF720FD712102463046FFF775FDF5602B
:1005B00002E0012400E00024204609B0F0BD10B59F
:1005C00088B004466946FFF7AEFE02AA6946204697
:1005D000FFF76CFF9DF800301BB1059800F68450C2
:1005E00001E040F636309DF802302BB1059B03F256
:1005F000B22300EB430006E09DF801301BB1059BE0
:1006000003F5257318449DF803301BB1069B03F5D1
:10061000257318449DF804301BB1079B03F2262371
:100620001844E06008B010BDF8B506460F464178A2
:100630000D481D461446FFF760FB39460A48FFF790
:1006400079FA0948FFF7C0FB2A46307071780648EE
:10065000FFF750FB2544AC4205D00348FFF77CFA76
:1006600004F8010BF7E7F8BD88250020F0B5044633
:1006700085B049B18921FFF7A1FD40F00102D2B256
:1006800089212046FFF7E6FC002288212046FFF75B
:10069000E1FC012280212046FFF7DCFC0122FF2142
:1006A0002046FFF7D7FC002211462046FFF7D2FC78
:1006B00091212046FFF782FD012220720021204671
:1006C000FFF7C8FC0022FF212046FFF7C3FC0022F1
:1006D00080212046FFF7BEFC60212046FFF76EFD1B
:1006E00040F01202D2B260212046FFF7B3FCB5EE13
:1006F000000A2046FFF7ECFCFF2201212046FFF70D
:10070000A9FC0DF107020DF106012046FFF781FD5E
:1007100008B900251EE2062302AAB0212046FFF7F1
:1007200083FF0122FF212046FFF794FC00224F2186
:100730002046FFF78FFC2C224E212046FFF78AFC33
:100740000022FF212046FFF785FC2046B621B42277
:10075000FFF780FC9DF807309DF80660002B4FF0F6
:10076000000514BF0C20002029460127EBB2DA084F
:1007700098420DF1100E03F00703724401D88E4227
:1007800008D112F808EC07FA03F32EEA030302F883
:10079000083C07E012F8082C42FA03F3DB0744BFD9
:1007A0000131C9B20135302DE0D1062302AAB021B2
:1007B0002046FFF7E5FC0122FF212046FFF74AFC17
:1007C000002211462046FFF745FC0022FF2120466B
:1007D000FFF740FC002209212046FFF73BFC0022E6
:1007E00010212046FFF736FC002211212046FFF79A
:1007F00031FC012224212046FFF72CFCFF22252179
:100800002046FFF727FC002275212046FFF722FC37
:100810000122FF212046FFF71DFC2C224E212046FD
:10082000FFF718FC002248212046FFF713FC202286
:1008300029462046FFF70EFC0022FF212046FFF745
:1008400009FC092229462046FFF704FC0022542116
:100850002046FFF7FFFB042231212046FFF7FAFB79
:10086000032232212046FFF7F5FB83224021204658
:10087000FFF7F0FB252246212046FFF7EBFB002285
:1008800060212046FFF7E6FB002227212046FFF7E4
:10089000E1FB062250212046FFF7DCFB002251211C
:1008A0002046FFF7D7FB962252212046FFF7D2FBC6
:1008B000082256212046FFF7CDFB2A465721204625
:1008C000FFF7C8FB002261212046FFF7C3FB00228F
:1008D00062212046FFF7BEFB002264212046FFF77D
:1008E000B9FB002265212046FFF7B4FBA022662158
:1008F0002046FFF7AFFB0122FF212046FFF7AAFBAE
:10090000322222212046FFF7A5FB14224721204650
:10091000FFF7A0FBFF2249212046FFF79BFB0022A7
:100920004A212046FFF796FB0022FF212046FFF7D1
:1009300091FB0A227A212046FFF78CFB00227B21C3
:100940002046FFF787FB212278212046FFF782FB14
:100950000122FF212046FFF77DFB34222321204680
:10096000FFF778FB002242212046FFF773FBFF22AE
:1009700044212046FFF76EFB262245212046FFF743
:1009800069FB052246212046FFF764FB4022114601
:100990002046FFF75FFB06220E212046FFF75AFB99
:1009A0001A2220212046FFF755FB402243212046F2
:1009B000FFF750FB0022FF212046FFF74BFB0322ED
:1009C00034212046FFF746FB442235212046FFF71D
:1009D00041FB0122FF212046FFF73CFB042231218D
:1009E0002046FFF737FB09224B212046FFF732FB59
:1009F00005224C212046FFF72DFB04224D212046E5
:100A0000FFF728FB0022FF212046FFF723FB0022EF
:100A100044212046FFF71EFB202245212046FFF7F8
:100A200019FB082247212046FFF714FB2822482102
:100A30002046FFF70FFB002267212046FFF70AFB45
:100A4000042270212046FFF705FB01227121204678
:100A5000FFF700FBFE2272212046FFF7FBFA00227F
:100A600076212046FFF7F6FA002277212046FFF78D
:100A7000F1FA0122FF212046FFF7ECFA01220D21B5
:100A80002046FFF7E7FA0022FF212046FFF7E2FAAF
:100A9000012280212046FFF7DDFAF82201212046BD
:100AA000FFF7D8FA0122FF212046FFF7D3FA0122EF
:100AB0008E212046FFF7CEFA012200212046FFF7C3
:100AC000C9FA0022FF212046FFF7C4FA0022802144
:100AD0002046FFF7BFFA04220A212046FFF7BAFAA0
:100AE00084212046FFF76AFB842100F0EF022046B4
:100AF000FFF7B0FA01220B212046FFF7ABFA2046A0
:100B0000FFF75DFDE822E06001212046FFF7A2FA31
:100B1000E1682046FFF702FD012211462046FFF75B
:100B200099FA40212046FFF713FC00283FF4F1AD6D
:100B3000022201212046FFF78DFA00212046FFF70F
:100B400007FC054600283FF4E4ADE82201212046D9
:100B5000FFF780FA284605B0F0BD0022C0F88420D7
:100B6000C0F88820C0F88C20C0F89020C0F89420ED
:100B7000C0F89820C0F89C20C0F8A02070477047AB
:100B8000002380F8803080F88130C0F88430C0F8CD
:100B90008830C0F88C30C0F89030C0F89430C0F87D
:100BA0009830C0F89C30C0F8A03070472DE9F04F65
:100BB00090F88160042E85B0044640F2CD81711E0C
:100BC000CBB21F2B63D80246131BB34280F2C48101
:100BD00012F8013B01930A2BF6D9D77F0A2FF3D9DC
:100BE00092F83F300A2BEFD992F85F80B8F10A0FE4
:100BF000EAD902912644A549A548039301F056FD80
:100C0000A449A34801F052FD0A2216F8011CA0488D
:100C100001F098FDA0499E4801F048FD0A22F17FAD
:100C20009B4801F08FFD9D49994801F03FFD0A2244
:100C300096F83F10964801F085FD9949944801F0D7
:100C400035FD0A2296F85F10914801F07DFD16F8F7
:100C500001BC039BBBF10A0F0DD996F81FA0BAF196
:100C60000A0F08D996F83F90B9F10A0F03D996F800
:100C70005F500A2D13D8029A013A0292013206F10E
:100C8000FF36B8D10025A946AA46AB4607E00025A5
:100C9000A946AA46AB46A8462B462F460195019A7F
:100CA0000198D11B64225143074491FBF7F7C8EB2D
:100CB000030151439844CAEB0B0691FBF8F37448C7
:100CC00078490193C5EB090802FB06F302FB08F221
:100CD0000BEB0A0609EB050893FBF6F692FBF8F816
:100CE00001F0E4FC6B496A4801F0E0FC0A22594635
:100CF000674801F027FD6849654801F0D7FC0A22E2
:100D00005146634801F01EFD6449614801F0CEFC84
:100D10000A2249465E4801F015FD61495C4801F030
:100D2000C5FC0A2229465A4801F00EFD5E49584882
:100D300001F0BCFC5D49564801F0B8FC0A22394676
:100D4000534801F02DFD5A49514801F0AFFC0A22E9
:100D500031464F4801F024FD56494D4801F0A6FCAC
:100D60000A2201994A4801F01BFD5349484801F005
:100D70009DFC0A224146464801F014FD019B4F4963
:100D80004348C3EB0805F71B01F094FC4C4940486D
:100D900001F090FC0A2239463D4801F001FD494925
:100DA0003B4801F087FC0A222946394801F0FAFC49
:100DB000D4F88430444936483B44C4F88430D4F8ED
:100DC00088302B44C4F8883001F074FC3C4930482A
:100DD00001F070FC0A22D4F884102D4801F0E0FCE8
:100DE00038492B4801F066FC0A22D4F888102848BC
:100DF00001F0D8FCD4F88430312B01DD012304E06C
:100E00003133B4BF4FF0FF330023C4F88C30D4F833
:100E10008830312B01DD012304E03133B4BF4FF0C2
:100E2000FF330023D4F88C20C4F8903007F113036B
:100E3000002A4BD1D4F89020002A47D1262B5FD826
:100E400005F11303262B5BD837B92DB9D4F89430AC
:100E50000133C4F8943004E0D4F898300133C4F876
:100E60009830D4F89430092B4ADDD4F89830012B0F
:100E700046DD012027B9002D6FD1C4F89C006CE03D
:100E8000002D6AD00223C4F89C3066E0CC6B0200CF
:100E900078260020DB6B0200DE6B0200E26B0200B2
:100EA000E66B0200EA6B0200F86B0200016C0200C4
:100EB000096C0200126C02001B6C0200246C020020
:100EC0002D6C0200326C0200386C0200262B17D801
:100ED00005F11303262B13D82FB925B9D4F8943074
:100EE0000133C4F89430D4F89430092B08DD002382
:100EF000C4F88C30C4F89030C4F88430C4F888301A
:100F00001749184801F0D6FB0A22D4F88C1015486E
:100F100001F046FC1449134801F0CCFB0A22D4F836
:100F20009010104801F03CFC10490E4801F0C2FB43
:100F30000A22D4F894100B4801F032FC0C490948FD
:100F400001F0B8FBD4F8981006480A2201F02AFCF8
:100F50000849044801F0BEFB002005B0BDE8F08F51
:100F6000486C020078260020506C0200596C020088
:100F7000646C02006E6C0200D0F89C30012B03D12F
:100F80000522C0F8A02064E0022B01D1062316E060
:100F9000D0F88C30591C04D1D0F89030CBB9032351
:100FA0000DE0012B04D1D0F8903013BB042306E0F0
:100FB000002B50D1D0F89020012A04D10223C0F890
:100FC000A03001207047013243D10123C0F8A03086
:100FD0003FE0012B1DD1D0F8843083EAE372A2EB0D
:100FE000E372D0F88830002BB8BF5B429A42D6DC5F
:100FF000E4E75A1C1DD1D0F8843083EAE372A2EBF7
:10100000E372D0F88830002BB8BF5B429A42CDDC47
:10101000DBE701331FD1D0F8843083EAE372A2EB1F
:10102000E372D0F88830002BB8BF5B429A42B6DC3E
:10103000CBE7012B0FD1D0F8843083EAE372A2EB27
:10104000E372D0F88830002BB8BF5B429A42B5DD1E
:10105000ACE71846704700207047000038B5084CD0
:101060000D4620463921FEF748FE29462046FEF768
:1010700061FD2046FEF7A8FEB0FA80F0400938BDB9
:101080008825002070B50B4C0E46204639211546A8
:10109000FEF733FE31462046FEF74CFD294620463A
:1010A000FEF748FD2046FEF78FFEB0FA80F04009BB
:1010B00070BD00BF882500200A46A021FFF7E2BFCF
:1010C0000A46A121FFF7DEBF38B5CAB20C4684211B
:1010D0000546FFF7D7FF30B1220A28468521BDE833
:1010E0003840FFF7CFBF38BD38B5CAB20C468621AD
:1010F0000546FFF7C7FF30B1220A28468721BDE821
:101100003840FFF7BFBF38BD0A468921FFF7BABF95
:101110000A468B21FFF7B6BF38B51546FFF79EFF8D
:10112000044668B1012239210648FEF7E3FD05486F
:10113000FEF7FDFC20B10348FEF70EFD2870F6E730
:10114000204638BD8825002007B580210DF1070213
:10115000FFF7E2FF10B19DF8070000E0FF2003B0A9
:101160005DF804FB70B505460E461446FFF7ECFF2C
:10117000FF2819D0062E04F0010208D80123B3403D
:101180000AB1184301E020EA0300C0B205E0072ECF
:1011900003D1002A14BF7F20002002468021284668
:1011A000BDE87040FFF76EBF002070BD0122002136
:1011B000FFF7D8BF07B5AF210DF10702FFF7ACFF6E
:1011C00020B19DF8070000F0010000E0012003B00D
:1011D0005DF804FB37B50D460DF107028F2104467B
:1011E000FFF79AFF60B19DF8072002F03F0242EA44
:1011F0008512D2B28F2120468DF80720FFF742FFDB
:1012000003B030BD37B50C460DF107028F210546FE
:10121000FFF782FF68B19DF80720A40022F00C02BE
:1012200004F00C0422438F2128468DF80720FFF795
:1012300029FF03B030BD37B50C460DF107028F21F1
:101240000546FFF769FF60B19DF8072004F003042D
:1012500022F0030222438F2128468DF80720FFF752
:1012600011FF03B030BD37B50C460DF107029021D8
:101270000546FFF751FF68B19DF80720240122F0D1
:10128000300204F030042243902128468DF80720D4
:10129000FFF7F8FE03B030BD37B50C460DF107027D
:1012A000A3210546FFF738FF68B19DF807206401C8
:1012B00022F0600204F060042243A32128468DF846
:1012C0000720FFF7DFFE03B030BD37B50C460DF148
:1012D0000702A3210546FFF71FFF68B19DF807200D
:1012E000E40022F0180204F018042243A321284647
:1012F0008DF80720FFF7C6FE03B030BD37B50C46AA
:101300000DF10702A3210546FFF706FF60B19DF826
:10131000072004F0070422F007022243A3212846F5
:101320008DF80720FFF7AEFE03B030BD37B50C4691
:101330000DF10702AB210546FFF7EEFE68B19DF8FF
:101340000720640022F0020204F002042243AB21D1
:1013500028468DF80720FFF795FE03B030BD00004A
:1013600013B504467A497B4801F0B4F90DF1070240
:1013700092212046FFF7D0FE08B90024E5E09DF851
:101380000730AB2B01D09C2BF7D17349714801F08A
:10139000A1F9002207212046FFF7E4FE0028ECD047
:1013A000DB2281212046FFF76DFE0028E5D0F622E2
:1013B00083212046FFF766FE0028DED087228E219B
:1013C0002046FFF75FFE0028D7D000229D2120464F
:1013D000FFF758FE0028D0D000229E212046FFF7BC
:1013E00051FE0028C9D060228D212046FFF74AFE19
:1013F0000028C2D000212046FFF7ECFE0028BCD018
:1014000002212046FFF7FEFE0028B6D0012120462B
:10141000FFF711FF0028B0D000212046FFF774FE2F
:101420000028AAD032212046FFF772FE0028A4D05F
:101430004FF6FF712046FFF747FE00289DD00021A0
:101440002046FFF751FE002897D011228C2120461C
:10145000FFF718FE002890D0012290212046FFF7C8
:1014600011FE002889D000229F212046FFF70AFEA6
:10147000002882D03949374801F02CF9282120462C
:10148000FFF71AFE00283FF478AF1E212046FFF731
:1014900017FE00283FF471AF4022A2212046FFF73B
:1014A000F1FD00283FF469AF00212046FFF7F4FE6C
:1014B00000283FF462AF00212046FFF706FF002816
:1014C0003FF45BAF01212046FFF718FF00283FF4EF
:1014D00054AF0022A4212046FFF7D4FD00283FF49A
:1014E0004CAF0022A5212046FFF7CCFD00283FF499
:1014F00044AF0022A7212046FFF7C4FD00283FF497
:101500003CAF0022A9212046FFF7BCFD00283FF494
:1015100034AFC922A6212046FFF7B4FD00283FF4CE
:101520002CAF0022AA212046FFF7ACFD00283FF493
:1015300024AF20460021FFF7F9FE044600283FF4BF
:101540001CAF0749034801F0C5F8204602B010BDA2
:10155000796C020078260020896C0200A26C0200DF
:10156000DB6C020037B50C460DF10702AB210546D6
:10157000FFF7D2FD60B19DF8072004F0010422F0CE
:1015800001022243AB2128468DF80720FFF77AFDA0
:1015900003B030BD38B50D460446FFF7F1FAFF221F
:1015A0008321FFF76FFD78B389228E212046FFF754
:1015B00069FD48B300212046FFF755FE20B355B121
:1015C00001212046FFF7B2FEF0B101212046FFF7CE
:1015D000C9FFC8B101E02946F3E72046FFF7E6FD61
:1015E00090B1012203212046FFF7BCFD60B101222A
:1015F00002212046FFF7B6FD30B120460122062128
:10160000BDE83840FFF7AEBD002038BDF8B517463D
:101610001E46FFF723FD10B94FF0FF30F8BD3246EC
:1016200039210A48FEF766FB00250848FEF77FFAD5
:10163000ECB240B1A64205F10105EDD90348FEF731
:101640008BFA3855F1E72046F8BD00BF8825002009
:10165000F0B5A3B0002304468DF80630FFF7AAFDCD
:10166000002800F0B1802046FFF76EFD10F0410F1A
:1016700000F0AA805649574801F02CF81E2000F0CF
:10168000EFFD0DF10702AF212046FFF745FD08B938
:10169000FF209AE09DF80730DB077ED50DF10602AA
:1016A000AE212046FFF738FD0028F1D04A494948CD
:1016B00001F000F80A229DF80610464801F044F8AF
:1016C0009DF80630002BD9D002AF9B003A46FC2192
:1016D0002046FFF79BFF4149C5B23E4800F0EAFFB4
:1016E0000026AE420ADAB95D3A480A2201F02AF829
:1016F0003B49384800F0DEFF0136F2E7354800F09C
:10170000E1FF032DBAD9EA1C22F0030205320DF1E4
:1017100009033A44043393421AD094F8801013F822
:10172000050C6054601813F8045C80F8205013F81E
:10173000035C80F8405013F8025C80F8605001317F
:1017400084F8801094F88110013184F88110E1E769
:101750002449204800F0AEFF254694F881202B1B39
:1017600093420ADA15F8011B1A480A2200F0EAFF30
:101770001B49184800F09EFFEFE7164800F0A2FF53
:101780002046FFF713FA10B12046FFF7F5FB0023C0
:1017900084F8803084F8813070E71E2000F060FD0E
:1017A0002046FFF7E9FB10490A48D4F8A05000F0A2
:1017B00081FF0A22D4F8A010064800F0F3FF20466B
:1017C000FFF7DEF9284600E0002023B0F0BD00BF9F
:1017D0002F6D020078260020066D0200136D0200B6
:1017E000A46E02001F6D0200296D020000F060B8B7
:1017F000D0B52DED048BB0EE409AF0EE609A294CF6
:101800008AB000F04BF994F90030B0EE408AF0EE67
:10181000608A01330FD0B0EE490AF0EE690A00F099
:10182000D3FB40B10026002751EC190B32463B4652
:1018300001F038FF38B9B0EE480AF0EE680A0AB095
:10184000BDEC048BD0BD184B2478019301220023FA
:101850008DED049B8DED029B009208936CB9CDE950
:101860000667684600F0DEFB88B1089BA3B99DEDD2
:10187000060B0AB0BDEC048BD0BD32463B46304669
:10188000394601F0C7FD022CCDE90601E9D101F08E
:10189000FBFF21230360E8E701F0F6FF089B0360EC
:1018A000E5E700BFA1200020CC6D02000000000091
:1018B00051EC110B43422DE9F047034321F000485E
:1018C000754F48EAD373BB4255EC104B49D863427D
:1018D000234325F0004A4AEAD373BB42A94640D8C5
:1018E00001F1404303F5801303438E4650D08E1719
:1018F00006F0020654EA0A0346EAD57639D050EAE1
:1019000008033ED0B84555D0BA453AD0C8EB0A08CE
:101910004FEA2858B8F13C0F40DC002970DB024642
:101920000B462046294601F075FD41EC100B00F0F6
:1019300043FB00F085F951EC100B012E5AD0022E1A
:1019400048D0002E42D03EA3D3E9002301F084FA10
:101950003DA3D3E9002301F07FFA41EC100BBDE871
:10196000F08722462B4601F079FA41EC100BBDE8D6
:10197000F087022E16D0032E0ED19FED350BBDE859
:10198000F087B9F1000F11DB9FED330BBDE8F08755
:10199000BDE8F04700F054B9BDE8F0872EA1D1E9C9
:1019A0000001CAE79FED280BBDE8F0879FED2C0BE7
:1019B000BDE8F087C24529D0022EF3D0032EDCD03B
:1019C000012E2DD09FED280BBDE8F08741EC100BC8
:1019D000BDE8F0871AA3D3E9002301F03DFA0246DF
:1019E0000B4619A1D1E9000101F036FA41EC100BC8
:1019F000BDE8F08701F1004141EC100BBDE8F08734
:101A000018F13C0F8BDA0020002196E7022E13D04C
:101A1000032E0DD0012E07D09FED150BBDE8F087EA
:101A20009FED150BBDE8F0879FED150BBDE8F08726
:101A30009FED150BBDE8F0879FED150BBDE8F08716
:101A4000075C143326A6A13C182D4454FB21094001
:101A5000182D4454FB2109C0182D4454FB21F93F93
:101A6000182D4454FB21F9BF0000000000000000C5
:101A7000182D4454FB21E93F0000000000000080C5
:101A8000182D4454FB21E9BFD221337F7CD902C0F9
:101A9000D221337F7CD902400000F07F2DE9F04154
:101AA000654955EC104B0E462940B14200F0978035
:101AB000002D2B4610EE102A74DD2F157FD0A7F2D3
:101AC000FF37C3F31303F90743F4801365D403EB23
:101AD000D27100260B447F105200B64616204FF4F8
:101AE00000110EEB01049C424FEAD2754FEA42020C
:101AF00003DC1B1B04EB010E0E44013805EB430312
:101B00004FEA5101EDD1844620244FF0004109E015
:101B100020D003EBD275013C4FEA51012B444FEA30
:101B2000420220D09E4501EB0C05F1DA002D05EBB9
:101B3000010C09DBF0469542CEEB030300D9013BD3
:101B4000521B0844C646E4E7BCF1000FF2DB0EF17D
:101B50000108F0E795421ED8002D05EB010C50DB83
:101B600098460023ECE7134304D0421C4DD000F00C
:101B70000103184440087110F30701F17F5101F58A
:101B8000001148BF40F0004001EB0753024643EC10
:101B9000102BBDE8F0817346BBE75B0003EBD2730B
:101BA000520094E725F00041214328D0ADBB2F46D9
:101BB000D30A153F5205002BFAD0DD0228D40021AC
:101BC00000E001465B00DC0201F10100F9D5C0F143
:101BD000200422FA04F423437F1A82406FE710EEB8
:101BE000102A2B4610EE100A294601F0E9FA224687
:101BF0002B4601F033F941EC100BBDE8F081BDE854
:101C0000F081BCF1000FABDBA1E701362046B2E763
:101C100020244FF0FF310020DBE710EE102A2B4686
:101C20002046294601F018F902460B4601F0F2FB66
:101C300041EC100BBDE8F0810000F07F00000000D7
:101C40002DE9F84F55EC104BD14B25F000469E4244
:101C5000AB4610DDCF4B9E4200F3B28000F0AD806A
:101C6000BBF1000F40F3FD80ADA5D5E9004545EC83
:101C7000104BBDE8F88FC84B9E4200F3C080A3F123
:101C8000DE739E4240F3A8804FF0FF3A22462B4677
:101C90002046294601F094FA02460B4680468946C2
:101CA00001F08EFAA0A3D3E9002306460F4601F007
:101CB00087FA9FA3D3E9002301F0D0F832463B46D0
:101CC00001F07EFA9CA3D3E9002301F0C7F8324665
:101CD0003B4601F075FA9AA3D3E9002301F0BEF860
:101CE00032463B4601F06CFA97A3D3E9002301F09A
:101CF000B5F832463B4601F063FA95A3D3E90023D9
:101D000001F0ACF842464B4601F05AFA92A3D3E9EF
:101D10000023804689463046394601F051FA90A3A7
:101D2000D3E9002301F098F832463B4601F048FA27
:101D30008DA3D3E9002301F08FF832463B4601F032
:101D40003FFA8BA3D3E9002301F086F832463B46E5
:101D500001F036FA88A3D3E9002301F07DF832467A
:101D60003B4601F02DFABAF1FF3F02460B467CD00C
:101D70004046494601F072F822462B4601F020FA0F
:101D8000864E874B4FEACA0A56449A44DAE9002342
:101D900001F062F822462B4601F05EF802460B463F
:101DA000D6E9000101F058F8BBF1000F52DB044600
