:020000021000EC
:10C000000000012011120200391202003B1202004E
:10C010003D1202003F120200411202000000000027
:10C0200000000000000000000000000043120200B9
:10C0300045120200000000004712020049120200EF
:10C040004B1202004B120200351C02004B12020080
:10C05000F1FC01004B1202004B1202004B120200D5
:10C060004B1202004B1202004B1202004B12020054
:10C070004B1202004B1202004B1202004B12020044
:10C080004B120200C91202004B1202004B120200B6
:10C090004B1202004B1202004B1202004B12020024
:10C0A0004B1202004B1202004B1202004B12020014
:10C0B0004B1202004B1202000000000000000000C2
:10C0C0004B1202004B1202004B1202004B120200F4
:10C0D0004B1202004B1202004B1202000000000043
:10C0E0000000000000000000000000000000000050
:10C0F0000000000000000000000000000000000040
:10C10000000000000000000000000000000000002F
:10C11000000000000000000000000000000000001F
:10C40000044B05481B1A062B02D9044B03B11847ED
:10C41000704700BF6F2100206C2100200000000049
:10C4200005490648091A891001EBD171491002D05B
:10C43000034B03B1184770476C2100206C2100208A
:10C440000000000010B5064C237843B9FFF7D8FF71
:10C45000044B13B10448AFF300800123237010BDD7
:10C4600070210020000000000C5F020008B5084B9E
:10C470001BB108490848AFF300800848036813B9A6
:10C48000BDE80840CCE7064B002BF9D09847F7E70A
:10C4900000000000742100200C5F020068210020D1
:10C4A00000000000154B002B08BF134B9D46A3F561
:10C4B000803A00218B460F461348144A121A06F0A0
:10C4C00079FA0F4B002B00D098470E4B002B00D071
:10C4D00098470020002104000D000D48002802D0DC
:10C4E0000C48AFF3008006F015FA2000290005F093
:10C4F00095FC06F0E9F900BF0000080000000120EB
:10C500000000000000000000702100201426002020
:10C5100000000000000000000B4B002210B51A6064
:10C520000A4B1B78044653B109490A4805F0E4F860
:10C53000204601F0DDFB0146064805F0F1F8052034
:10C54000BDE8104004F0B2BE68240020A020002006
:10C5500094540200A02500200B4B002210B51A6055
:10C560000A4B1B78044653B109490A4805F0C4F840
:10C57000204601F0BDFB0146064805F0D1F8052034
:10C58000BDE8104004F092BE68240020A0200020E6
:10C59000AF540200A0250020F0B5284B1B7887B0CF
:10C5A0000C461BB12649274805F0A6F8236820460B
:10C5B000DB689847236806461B692046984722494E
:10C5C0000746684605F08EFB3546AB1BDBB29F4243
:10C5D0004FF010020CD915F8011B03A805F0CAFB97
:10C5E00003A9684605F0EEFB03A805F039FBECE76C
:10C5F00000210098154D07F0EBF8154B28601860E6
:10C600001449104805F07CF80A2229680D4805F005
:10C61000E3F823682046DB689847236805461B69D2
:10C62000204698470146284602F004F8052004F009
:10C630003DFE684605F014FB07B0F0BDA0200020C9
:10C64000CD540200A02500209D5702008C20002020
:10C6500094240020FA54020010B5034B03600446F2
:10C6600001F08AFB204610BD1059020010B50446A7
:10C67000FFF7F2FF204605F0E5FB204610BD000065
:10C6800010B5034B03600446FFF7E6FF204610BDDC
:10C690006C54020010B50446FFF7F2FF204605F087
:10C6A000D1FB204610BD000013B52D492D4801F0E7
:10C6B000F6FC2B492B4801F082FE2B4801F0C7FA0B
:10C6C0000146284801F0E8FC4FF6FF71254801F0CB
:10C6D00079FE2549234801F038FE2449214801F01C
:10C6E00034FE23491F4801F030FE22491D4801F065
:10C6F0002CFE214A1B48002101F0FBFC1F4A19486F
:10C70000012101F0F6FC1E4A1E48002101F093FBB6
:10C710001B4A1D48002101F08EFB02A9002401F8EC
:10C72000014D0122174801F03CFB02A9012201F84A
:10C73000024D154801F035FB144B49F640421A6092
:10C7400004F09CFD124B1860064801F0F6FC114BFA
:10C750001B781BB11049114804F0E2FF02B010BD74
:10C760005D550200AC220020D0210020742400205E
:10C770008C220020DC21002019C5010059C50100D0
:10C7800099C501007024002088220020B0210020DB
:10C790006C240020A020002067550200A025002066
:10C7A000F0B52DED028B002183B04D484D4C03F0C8
:10C7B00027FBB2EE048A20EE080A0121484884EDE6
:10C7C000000A03F01DFB20EE080A0221444884ED14
:10C7D000010A03F015FB20EE088A206884ED028A26
:10C7E00005F0B4FCD4ED018A68EE087A0446E8EE60
:10C7F000A87A0D4617EE900A05F0A8FC41EC100B44
:10C8000004F0EAF8B0EE401AF0EE601A45EC104B76
:10C8100004F0E0F82EA3D3E9002351EC100B05F04F
:10C82000E9FC314D314CF1EE487AC5E9000117EED3
:10C83000900A05F08BFCF1EE687ACDE9000117EE65
:10C84000900A05F083FC9DED001B41EC100B04F0F9
:10C85000C1F81FA3D3E9002351EC100B05F0CAFC6B
:10C86000002206460F46224BD5E9000105F010FBD9
:10C870000022C5E900011F4B3046394605F02CFF68
:10C88000B8B115A3D3E900233046394605F000FBC3
:10C890000022194B06460F4605F03CFF10B9C4E9CB
:10C8A00000670EE00022144B3046394605F0EEFAE0
:10C8B00005E00022114B3046394605F0E9FAC4E99B
:10C8C000000103B0BDEC028BF0BD00BFAFF30080F0
:10C8D00046DF617EDCA54C400000000000207C406B
:10C8E00004220020A421002098240020C821002038
:10C8F00000806640008056C0008076400080564030
:10C9000010B53B483B4C2DED028B03F0E4FC07EEE9
:10C91000900AB8EE678A18EE100A05F017FC32A3E9
:10C92000D3E9002305F0D8FE10B984ED008A01E0B8
:10C93000002323602E4803F085FA18B12E4B1B7894
:10C94000002B41D12D4803F0C6FC07EE900AB8EE4B
:10C95000678A18EE100A05F0F9FB23A3D3E9002338
:10C9600005F0BAFE10B984ED018A01E0002363608E
:10C97000224803F067FA10B11F4B1B784BBB2048CD
:10C9800003F0A9FC07EE900AB8EE678A18EE100AC9
:10C9900005F0DCFB14A3D3E9002305F09DFE10B9DC
:10C9A00084ED028A01E00023A360154803F04AFAEF
:10C9B000A0B1114B1B788BB1BDEC028B1149124811
:10C9C000BDE8104004F09CBE10490F4804F098FEEA
:10C9D000B8E70F490C4804F093FED0E7BDEC028B9A
:10C9E00010BD00BFAFF300809A9999999999B93F0A
:10C9F00058220020B4210020A0200020682200201E
:10CA0000782200209F550200A025002081550200B9
:10CA10009055020010B52DED028B98B001A87F490A
:10CA200001F05AFB01A801F052F9002800F0D6806D
:10CA30009FED7B7A7B4A9FED7C6A09AB18A9B0EE2B
:10CA4000475AF2EE005AF2EC017AF4EEC77AF1EEB0
:10CA500010FA02D583ED007A08E0F4EEC67AF1EE22
:10CA600010FAD4BFC3ED007A83ED006AD3ED007AEB
:10CA7000DFED6B6A77EEC57A67EEA57AE3EC017AB3
:10CA80008B42E0D1694BD3ED007AF4EEE67AF1EE19
:10CA900010FA09D49FED647AF4EE477AF1EE10FAB9
:10CAA000C8BFF0EE477A01E0F0EE667A9FED5C8A4F
:10CAB0001C2037EEC88A04F01DFC07EE900A9FED9B
:10CAC0005C7A5C4BF8EE676A1422C6EE877A002126
:10CAD00004A89FED597A67EE877AFDEEE77A17EEA4
:10CAE000904AC3ED007A05F065FF544BD3E900018D
:10CAF00005F042FE524B8DF81000D3E9000105F01D
:10CB00003BFE504B8DF81840D3ED007A4E4C8DF81B
:10CB10001100FCEEE77A206817EE903ADDED097A15
:10CB20008DF81230FCEEE77A17EE903ADDED0A7AD6
:10CB30008DF81330FCEEE77A17EE903ADDED0B7AC4
:10CB40008DF81430FCEEE77A17EE903ADDED0C7AB2
:10CB50008DF81530FCEEE77A17EE903AF2EE007A97
:10CB600068EE277A8DF81630FCEEE77A17EE903AE9
:10CB70008DF8173005F0EAFA0022344B05F088F9F9
:10CB80000022334B05F036FB05F0F6FD8DF81A0058
:10CB9000606805F0DBFA00222C4B05F079F90022E1
:10CBA0002B4B05F027FB05F0E7FD8DF81B00A06877
:10CBB00005F0CCFA0022254B05F06AF90022244B3F
:10CBC00005F018FB05F0D8FD14228DF81C0004A90F
:10CBD000204801F0E6F8052004F068FB1E4B1B78A6
:10CBE000C3B11E491E4804F08BFD04F02FFB1D4B02
:10CBF00007EE900AB8EE677AD3ED007A77EE677A9F
:10CC000017EE900A05F0A2FA41EC100B022114482D
:10CC100004F08DFE18B0BDEC028B10BDAC220020DC
:10CC200000008C42282400200000CA4290210020ED
:10CC300000807F44902000200000C842C8210020CE
:10CC400098240020B4210020A42100200000F03FFF
:10CC500000005940D821002098200020AE55020045
:10CC6000A0250020942100202DE9F0411C2004F093
:10CC700041FB07EE900A9FEDDA7ADA4CDA4EDB4F91
:10CC8000DB49DC4DDFF8EC83F8EE676A2046C6EE40
:10CC9000877A9FEDD97A67EE877AFDEEE77AC7ED5E
:10CCA000007A04F02DFD306805F050FA41EC100BCD
:10CCB0000221204604F038FE2946204604F020FDDB
:10CCC000CE49204604F01CFD706805F03FFA41ECA7
:10CCD000100B0221204604F027FE2946204604F0CE
:10CCE0000FFDC749204604F00BFDB06805F02EFA91
:10CCF00041EC100B0221204604F016FE2946204686
:10CD000004F0FEFCBF49204604F0FAFCF06805F090
:10CD10001DFA41EC100B0221204604F005FE2946C5
:10CD2000204604F0EDFCB849204604F0E9FC3069E7
:10CD300005F00CFA41EC100B0221204604F0F4FD42
:10CD40002946204604F0DCFCB049204604F0D8FC1B
:10CD5000706905F0FBF941EC100B0221204604F04C
:10CD6000E3FD2946204604F0CBFCA949204604F007
:10CD7000C7FCB06905F0EAF941EC100B022120462E
:10CD800004F0D2FD2946204604F0BAFCA149204611
:10CD900004F0B6FCF06905F0D9F941EC100B022162
:10CDA000204604F0C1FD2946204604F0A9FC9A491A
:10CDB000204604F0A5FC306A05F0C8F941EC100BE0
:10CDC0000221204604F0B0FD2946204604F098FCDC
:10CDD0009249204604F094FC706A05F0B7F941ECE2
:10CDE000100B0221204604F09FFD2946204604F046
:10CDF00087FC8B49204604F083FCB06A05F0A6F955
:10CE000041EC100B0221204604F08EFD29462046FD
:10CE100004F076FC8349204604F072FCF06A05F0C9
:10CE200095F941EC100B0221204604F07DFD2946C6
:10CE3000204604F065FC7C49204604F061FC306B20
:10CE400005F084F941EC100B0221204604F06CFD42
:10CE50002946204604F054FC7449204604F050FC56
:10CE6000706B05F073F941EC100B0221204604F0C1
:10CE70005BFD2946204604F043FC6D49204604F042
:10CE80003FFCB06B6B4E05F061F941EC100B0221D9
:10CE9000204604F049FD2946204604F031FC66494D
:10CEA000664D204604F02CFC654B186805F04EF9E1
:10CEB00041EC100B0221204604F036FD414620468D
:10CEC00004F02EFC5F49204604F01AFC5E4B022160
:10CED00093ED000B204604F027FD2946204604F080
:10CEE0000FFC5A49204604F00BFC594B022193EDEC
:10CEF000000B204604F018FD2946204604F000FCF3
:10CF00005449204604F0FCFB306805F01FF941EC61
:10CF1000100B0221204604F007FD2946204604F0AC
:10CF2000EFFB4D49204604F0EBFB706805F00EF96D
:10CF300041EC100B0221204604F0F6FC2946204665
:10CF400004F0DEFB4549204604F0DAFBB068444EAD
:10CF500005F0FCF841EC100B0221204604F0E4FC43
:10CF60004146204604F0DCFB3E49204604F0C8FB65
:10CF7000306805F0EBF841EC100B0221204604F07C
:10CF8000D3FC2946204604F0BBFB706805F0DEF8B0
:10CF900041EC100B0221204604F0C6FC2946204635
:10CFA00004F0AEFBB06805F0D1F841EC100B0221A3
:10CFB000204604F0BCFC2C49204604F0A1FB2B4B7E
:10CFC0000A221968204604F007FC2949204604F08B
:10CFD00097FB396820460A22BDE8F04104F0FCBB0B
:10CFE00000807F44A02500202824002090200020DD
:10CFF000CA5502003C5C02000000C842CF55020046
:10D00000D4550200D9550200DE550200E355020056
:10D01000E8550200ED550200F2550200F7550200F6
:10D02000FD55020003560200095602000F56020089
:10D0300015560200A42100201B5602009C57020036
:10D040009021002022560200982400202A56020037
:10D05000C821002031560200385602003F56020017
:10D06000B421002046560200565602008C200020B3
:10D070005C5602009D57020038B505202DED028B4D
:10D0800004F010FA4D4B4E4C186001281D4629D172
:10D09000D4ED007AF5EE407AF1EE10FA07D004F004
:10D0A000D5F807EE900AF8EE677AC4ED007A94EDB1
:10D0B000008A04F0CBF807EE900AF8EE677A9FED4D
:10D0C000417A78EE677A01210F2087EE878A04F093
:10D0D000D7F94FF4FA7004F0E9F800210F2004F0BA
:10D0E000CFF931E094ED008ADFED378AB4EE688A3B
:10D0F000F1EE10FA26D004F0A9F807EE900AF8EE47
:10D10000677A9FED307AC4ED008A78EE677A87EE11
:10D11000878AF0EE087AB4EEE78AF1EE10FA13DDB2
:10D120002A4B1A780AB901221A701B7813B1274BBF
:10D1300000221A70264B2749274803221A6004F060
:10D14000EFFA01E0B0EE688A244B1A781C46D2B19F
:10D150002349214804F0D4FA0A2229681E4804F021
:10D1600039FB20491C4804F0CBFA18EE100A04F0F1
:10D17000EDFF41EC100B0221174804F0D5FB1A49D2
:10D18000154804F0CDFAF2EE007AB4EEE78AF1EE3B
:10D1900010FA10DD154B01221A7023781BB11449C7
:10D1A0000D4804F0BDFABDEC028B4FF4FA60BDE807
:10D1B000384004F07BB8BDEC028B38BDA0240020C1
:10D1C000A021002000007A4400000000C0210020BF
:10D1D0008820002068560200A0250020A020002002
:10D1E0007C56020085560200BB560200A524002092
:10D1F0009456020038B50F4B1C68002C18DD0E4DFC
:10D200002A78013C52B91C6094B9022201210F20F6
:10D210001A6004F035F901232B7038BD0CB11C6085
:10D2200038BD1E2221460F201A6004F029F92C7007
:10D2300038BD00BF88200020A4240020284B2948A6
:10D240001A68294B70B51A60284D294C294E02F0F6
:10D25000F3FD294802F0F0FD284802F0EDFD182109
:10D26000284602F06BFD224625492846254D05F04B
:10D27000F3FAFF231A461946284601F0AFF8224672
:10D2800021492846214D05F0E7FA2149214801F0BE
:10D290006FF902222049284601F072F928461F4DF5
:10D2A0002246314605F0D8FA08221D49284601F0E9
:10D2B00067F928461B4D2246314605F0CDFA142366
:10D2C00012221949284600F081FD224617492846B6
:10D2D00005F0C2FA00211648BDE8704000F0BFBC5E
:10D2E00084200020582200208C21002004220020CD
:10D2F0008020002081C601006822002078220020C2
:10D3000049FD0100AC22002051E3010070240020FF
:10D310009F560200D0210020A4560200882200203F
:10D32000A9560200D8210020AE56020079DD010086
:10D330009C21002038B5054601B3012920D00229DF
:10D3400020D0032920D0042920D0052920D0062967
:10D3500020D0072920D0082920D0092920D00A2947
:10D3600020D00B2920D00C2920D00D2920D00E2927
:10D3700020D00F2914BF00243A241CE00C461AE0E8
:10D380002A2418E02B2416E02C2414E02D2412E08B
:10D390002E2410E03B240EE032240CE033240AE07B
:10D3A000342408E0352406E0362404E0372402E083
:10D3B000382400E0392421466A4802F0DAFB294685
:10D3C000684802F0F3FA6420013800BF00BF00BFD4
:10D3D00000BF00BF00BF00BF00BF00BF00BF00BF55
:10D3E00000BF00BF00BF00BF00BF00BF00BF00BF45
:10D3F00000BF00BF00BF00BF00BF00BF00BF00BF35
:10D4000000BF00BF00BF00BF00BF00BF00BF00BF24
:10D4100000BF00BF00BF00BF00BF00BF00BF00BF14
:10D4200000BF00BF00BF00BF00BF00BF00BF00BF04
:10D4300000BF00BF00BF00BF00BF00BF00BFC3D11F
:10D440000021484802F09FFB03222146454802F094
:10D450008DFB6420013800BF00BF00BF00BF00BFCC
:10D4600000BF00BF00BF00BF00BF00BF00BF00BFC4
:10D4700000BF00BF00BF00BF00BF00BF00BF00BFB4
:10D4800000BF00BF00BF00BF00BF00BF00BF00BFA4
:10D4900000BF00BF00BF00BF00BF00BF00BF00BF94
:10D4A00000BF00BF00BF00BF00BF00BF00BF00BF84
:10D4B00000BF00BF00BF00BF00BF00BF00BF00BF74
:10D4C00000BF00BF00BF00BF00BFC3D1254802F0AE
:10D4D0007FFA0446234802F07BFA0546214802F011
:10D4E00077FA6420013800BF00BF00BF00BF00BF53
:10D4F00000BF00BF00BF00BF00BF00BF00BF00BF34
:10D5000000BF00BF00BF00BF00BF00BF00BF00BF23
:10D5100000BF00BF00BF00BF00BF00BF00BF00BF13
:10D5200000BF00BF00BF00BF00BF00BF00BF00BF03
:10D5300000BF00BF00BF00BF00BF00BF00BF00BFF3
:10D5400000BF00BF00BF00BF00BF00BF00BF00BFE3
:10D5500000BF00BF00BF00BF00BFC3D144EA052029
:10D5600080B238BDDC24002008B5FFF7E3FE07EEEB
:10D57000900AF8EE677A17EE900A04F0E7FD0AA326
:10D58000D3E9002304F036FE05F016F904F0DEFDC1
:10D5900007A3D3E9002304F079FC05F00DF900EEB0
:10D5A000100A08BDAFF300807B14AE47E17A943FC8
:10D5B000666666666612714008B501462720FFF769
:10D5C000D3FFF2EE027A20EE270AF1EE047A80EE23
:10D5D000277ADFED057A77EE277A17EE900A04F0C6
:10D5E000B5FD41EC100B08BD0000004208B5014636
:10D5F0002620FFF7B9FFF2EE027A20EE270AF1EEBD
:10D60000047A80EE277ADFED057A77EE277A17EE37
:10D61000900A04F09BFD41EC100B08BD0000004295
:10D62000F8B5174E174F0024354601342046FFF752
:10D63000DDFF51EC100B05F0BFF846F8040B204657
:10D64000FFF7BAFF51EC100B05F0B6F80F2C47F8B6
:10D65000040BEAD195ED017AD5ED007A0A4B77EE0D
:10D66000877A95ED027A77EE877A95ED037A77EEF1
:10D67000877AB5EE007A67EE877AC3ED007AF8BD57
:10D680001C220020282400209021002070B59C4BF3
:10D690009C4C2DED028BD4ED007A93ED008A37EE91
:10D6A000888A03F0D3FD07EE900AF8EE677AB4EEAD
:10D6B000E78AF1EE10FA40F11F8103F0C7FD924BAB
:10D6C00007EE900A1A78F8EE677A1E46C4ED007AE3
:10D6D000DAB18E498E4804F023F88E498C4804F064
:10D6E0000FF894ED007ADFED8C7AC7EE276A16EE1C
:10D6F000900A04F02BFD41EC100B0221844804F049
:10D7000013F98649824804F00BF8854D2B78BBB19C
:10D7100084497F4803F0F4FF03F098FD07EE900A78
:10D72000B8EE677AD4ED007A77EE677A17EE900A52
:10D7300004F00CFD41EC100B0221754804F0F7F8E1
:10D74000794800F0A1FC2B78BBB17849704803F010
:10D75000D7FF03F07BFD07EE900AB8EE677AD4EDB1
:10D76000007A77EE677A17EE900A04F0EFFC41EC4E
:10D77000100B0221664804F0DAF8FFF77DFCFFF792
:10D7800039FD2B78BBB16A49614803F0B9FF03F05A
:10D790005DFD07EE900AB8EE677AD4ED007A77EE79
:10D7A000677A17EE900A04F0D1FC41EC100B0221CD
:10D7B000574804F0BCF85F4A1368002B06DD013BB4
:10D7C00013605D4B1B782BB9012100E0002108207C
:10D7D00003F056FEFEF7E4FF2B78BBB157494C48E7
:10D7E00003F08EFF03F032FD07EE900AB8EE677A81
:10D7F000D4ED007A77EE677A17EE900A04F0A6FC73
:10D8000041EC100B0221424804F091F8FFF778F840
:10D810002B78BBB14A493E4803F072FF03F016FD76
:10D8200007EE900AB8EE677AD4ED007A77EE677A61
:10D8300017EE900A04F08AFC41EC100B02213448E8
:10D8400004F075F8FFF7ECFE2B78BBB13D4930488A
:10D8500003F056FF03F0FAFC07EE900AB8EE677A81
:10D86000D4ED007A77EE677A17EE900A04F06EFC3A
:10D8700041EC100B0221264804F059F8FFF7CAF8D2
:10D880002B78BBB13049224803F03AFF03F0DEFCAD
:10D8900007EE900AB8EE677AD4ED007A77EE677AF1
:10D8A00017EE900A04F052FC41EC100B02211848CC
:10D8B00004F03DF833780BB1FFF7D6F92B78DBB1E4
:10D8C0002249134803F01CFF03F0C0FC07EE900A46
:10D8D000B8EE677AD4ED007A77EE677A17EE900AA1
:10D8E00004F034FCBDEC028B41EC100BBDE8704041
:10D8F0000221074804F01BB8BDEC028B70BD00BFCD
:10D900008C21002094210020A02000203C5C0200FB
:10D91000A0250020B356020000007A44BA56020047
:10D9200098200020BD560200AC220020E1560200E3
:10D93000F756020098210020002200201157020013
:10D94000315702004C570200655702008857020009
:10D95000F8B501211E2003F071FD01211D2003F007
:10D960006DFD0121102003F069FD4FF4E1315D48A8
:10D9700004F029F85C4B1B781BB15C49594803F053
:10D98000BFFE322003F092FC59485A4E5A4D5B4C70
:10D9900002F050F8322003F089FC00211E2003F031
:10D9A0006FFD00211D2003F06BFD0021102003F00E
:10D9B00067FD642003F07AFC51494A4803F0B0FE49
:10D9C00001211E2003F05CFD642003F06FFC0121A7
:10D9D000304602F087FD4521304602F08FFA4FF4C1
:10D9E000FA7748493F48778003F09AFE01211D20CD
:10D9F00003F046FD642003F059FC0121284602F0A3
:10DA000071FD4621284602F079FA3F4935486F807A
:10DA100003F086FE0121102003F032FD642003F0A4
:10DA200045FC0121204602F05DFD4721204602F021
:10DA300065FA6420678003F039FC3C21304602F02F
:10DA40000FFC502003F032FC3C21284602F008FC79
:10DA5000502003F02BFC3C21204602F001FC2B4916
:10DA6000204803F04DFE2A4802F09BF90A220146A5
:10DA70001C4803F0B1FEC82003F018FC01210F2060
:10DA800003F0DCFC00210F2003F0FAFC002105204C
:10DA900003F0D4FC0121082003F0D0FC0021082071
:10DAA00003F0EEFC1B4800F0E3F81B4B1B4A50B19F
:10DAB0001B4C1B6812682168164800F0FBF8194BD4
:10DAC00022681A6006E018491B6812680968114844
:10DAD00000F0E1F8FEF7E8FD4FF4FA70BDE8F84019
:10DAE00003F0E4BBA0250020A020002094570200F2
:10DAF000DC24002058220020682200207822002008
:10DB00009E570200B2570200C6570200DA570200C1
:10DB1000042200209C2100209C2000209420002032
:10DB20006424002094240020FC21002038B5002526
:10DB3000057329B90B4B0C4A0C48232104F092FEC3
:10DB400001600B4951F82220027151F82330837192
:10DB50009DF8103051F8233043710223C371856062
:10DB600038BD00BF30580200F35702003E58020093
:10DB7000E45A0200037B23B94373837303610123D7
:10DB8000037370471FB50DF1100E0EE90E009DF8DE
:10DB90000810026800230129C2F80035039B08D051
:10DBA00004D3032907D143F0040304E043F0020344
:10DBB00001E043F00603C2F85435019BC2F8243556
:10DBC0000123C2F8003505B05DF804FB10B5FFF77E
:10DBD000D1FF03688279C3F808254279C3F80C2580
:10DBE0000279C3F81025034BBDE810400ECBFFF7B8
:10DBF000C9BF00BFA82400200368C3F81C15D3F8D0
:10DC00000821002AFBD0D3F818050022C3F8082108
:10DC1000C0B2704707B5094B09490A484FF0804226
:10DC20001A6000229A6002221A71132300931422B0
:10DC30001223FFF77BFF03B05DF804FBA82400204C
:10DC400000300040B42400200160828070470068EA
:10DC500070478088704729DF704728DF70474FF092
:10DC600080531A695B69013B591A5143016070473F
:10DC700003681868013018BF0120704708B54FF0DD
:10DC800080531A690368B3FBF2F31846FFF7E5FF08
:10DC90001128FAD008BD38B504460D461946FFF7DD
:10DCA000EDFF8B081A4629462068FFF7D4FF11289C
:10DCB000F8D038BD10B502680846043A441AA342A9
:10DCC00004D952F8044F40F8044BF7E710BD07B5EC
:10DCD00000230622694604300093ADF8043004F0B6
:10DCE0004FFE003018BF012003B05DF804FB0000B8
:10DCF00010B5034C0430214600F05AFC204610BDFC
:10DD0000C82400200B6843608B8803817047002380
:10DD100043600381704708B50160FFF7F8FF08BD55
:10DD2000807A7047C0687047007C70470020704759
:10DD3000C368585C704770B50D46114602680446CA
:10DD4000D6691A46B0470123A374A36923B12146BB
:10DD50002846BDE87040184770BD70B504460846B7
:10DD60000D4605F093FC2368C2B229462046DB69C4
:10DD7000BDE8704018470000044B10B5044603602E
:10DD8000C06808B104F0F4FD204610BD7C580200C4
:10DD900010B50446FFF7F0FF204604F053F8204684
:10DDA00010BD10B5837A9A42044628BF1A46027401
:10DDB000C06804F0F4FD606928B1036821461B685F
:10DDC000BDE810401847012010BD000070B50446A2
:10DDD0001D461646043042F6030200F08FF8142D5B
:10DDE0004FF0000228460A4B236028BF1420A0727F
:10DDF000E26022746674A274E2746261A261E261FC
:10DE0000226215B104F0ACFDE060204670BD00BF99
:10DE10007C580200407C7047C07C70470346002A53
:10DE2000DA7414BF07220822084653F822200AB1E8
:10DE30001946104770470B299CBF063140F8212036
:10DE400070474161704770477047704700207047C6
:10DE500070477047002070470020704700207047CF
:10DE60000020704700207047002070470020704756
:10DE70000020704700207047002070470020704746
:10DE800000207047704770477047704710B50446D0
:10DE900003F0D8FF204610BD054A0260642282804C
:10DEA00001210022C28002818172C260026170473A
:10DEB000AC580200016170470120704710B5034B58
:10DEC00003600446FFF758FF204610BD10590200BA
:10DED00010B50446FFF7F2FF204603F0B3FF2046DB
:10DEE00010BD000038B504461D46FFF76FFF024B1A
:10DEF00025742360204638BD1059020010B5044631
:10DF0000FFF7A2FE024A137801331370204610BDBA
:10DF1000DA240020014B1878704700BFDA24002073
:10DF2000C06803681B6A1847A0F10400FFF7F8BF38
:10DF3000C06803685B6A1847A0F10400FFF7F8BFE8
:10DF4000C06803689B6A1847A0F10400FFF7F8BF98
:10DF5000C0680368DB6A1847A0F10400FFF7F8BF48
:10DF6000C06803681B6B1847A0F10800FFF7F8BFF3
:10DF7000C06803685B6B1847A0F10800FFF7F8BFA3
:10DF8000C06803689B6B1847A0F10800FFF7F8BF53
:10DF9000C06810B40468E46BA4465DF8044B6047A5
:10DFA000A0F10800FFF7F4BFC06803681B6C1847B6
:10DFB000A0F10800FFF7F8BFC06803685B6C184762
:10DFC000A0F10800FFF7F8BFC06803689B6C184712
:10DFD000A0F10800FFF7F8BFC0680368DB6C1847C2
:10DFE000A0F10800FFF7F8BFD0F8743113B100F5C5
:10DFF000B07018477047D0F8783113B100F5B070A1
:10E000001847704730B414461A4623685D6A9DF875
:10E01000083000F5B071AC46204630BC6047704710
:10E02000704770B5054600F5B07411462046FFF7FD
:10E0300069FED5F86C311BB12046BDE87040184729
:10E0400070BDD0F8703110B500F5B0740BB120463A
:10E0500098472046BDE81040FFF759BE10B414465B
:10E0600000F5B0711A4620465DF8044BFFF7D6BEA6
:10E0700010B4144600F5B0711A4620469DF80430DD
:10E080005DF8044B00F056BAC0680368DB681847B7
:10E09000C06803681B691847C0F88C107047C0F847
:10E0A0009C10704738B5D0F8A83004460D463BB9EF
:10E0B00000F01CFA00B2800004F052FCC4F8A80082
:10E0C00094F8AC20D4F8A83043F8225094F8AC303F
:10E0D000013384F8AC3038BD38B505460C460846E7
:10E0E000FFF7D2FF04F5B07107C985E8070028469D
:10E0F00038BD0F299CBF00EB8100C0F86C21704730
:10E1000010B50446FFF706FF00B2800004F028FCBB
:10E1100004F1B003036004F1BC03436004F1E003C5
:10E12000836004F58073C36004F58673036105237F
:10E1300084F8A430C4F8A00010BD2DE9F043D0F855
:10E140009010ADB0002304468DF83030E1B106A840
:10E1500000F096FA06A800F0C5FA022805468CBF22
:10E16000152314238DF8500006A88DF8513000F0C7
:10E17000B7FA2A460146C5F11A050DF1520004F01E
:10E180000EFCEDB2012601E01C250E46D4F88C10E1
:10E1900031B306A800F074FA06A800F0A3FA431CF5
:10E1A000AB4207461CDAC6EB46182CAB43440228A8
:10E1B0008CBF0622022203F8600C03F85F2C06A82D
:10E1C00000F08EFA2CAB984401463A46A8F15E0066
:10E1D000023D04F0E4FB0136ED1BF6B205F0FF054D
:10E1E000D4F89410C9B194F89820B2B1022D14D982
:10E1F000531CAB42C6EB46102CAB0344A4BF023DFC
:10E20000EAB2FF2503F8602C03F85F5C2CAB1844DE
:10E210005E3804F0C4FB0136F6B2D4F89C50BDB1B0
:10E22000284605F033FAC0B21D288ABF1D238DF899
:10E2300030008DF830309DF8302090428CBF08209F
:10E2400009208DF8310029460DF1320004F0A7FBBA
:10E25000D4F8A03013B92046FFF752FF002742F64A
:10E26000030804F1040994F8A4309F4205DB002759
:10E2700042F6030804F108091BE0D4F8A03053F873
:10E2800027502846FFF7E5FC404506D10DB1281F71
:10E2900000E028464946FFF7D4FD0137E3E7D4F80C
:10E2A000A83053F827502846FFF7D3FC404505D047
:10E2B000013794F8AC309F42F1DB07E00DB1281F25
:10E2C00000E02846494600F049F9F1E74BB104F572
:10E2D00096712046FFF7E6FE04F59C712046FFF795
:10E2E000E1FEE06894F8AC1002680491D4F8A8103C
:10E2F000039194F8A41002919DF83030D4F8A01046
:10E3000001910CA90033009118BF01239568314693
:10E3100014AAA847E06803681B6D98472DB0BDE8B4
:10E32000F08338B5D0F8A03004460D460BB9FFF79E
:10E33000E7FE94F8A420D4F8A03043F8225094F8D3
:10E34000A430013384F8A43038BDFFF7EABF0000E1
:10E35000154B10B503F16802036004468033426038
:10E360008360FFF795FED4F8A80008B104F000FB25
:10E37000D4F8A00008B104F0FBFA04F59A7000F09C
:10E38000BBF804F58470FFF7F7FC04F1DC00FFF73D
:10E39000F3FC04F1B800FFF7EFFC04F1100000F00B
:10E3A00083FE204610BD00BF6459020010B504462C
:10E3B000FFF7CEFF204603F045FD204610BDB830E4
:10E3C000FFF7CBBC07B502AB022223F8021DDC30FD
:10E3D0001946FFF7E6FC03B05DF804FB2DE9F843AE
:10E3E000354BDFF8E890DFF8E88003F108020446D7
:10E3F000026000F1100703F17002883300254260CB
:10E400008360384601F08CFA04F1B806C4F88C50E9
:10E41000C4F89050C4F8945084F89850C4F89C50B4
:10E42000C4F8A05084F8A450C4F8A85084F8AC50A4
:10E43000224904F1B00000F09BF813230222204986
:10E440003046FFF7C3FC02231A461E4904F1DC00E4
:10E45000FFF7BCFC494604F5807000F089F80423FE
:10E460002022414604F58470FFF7B0FC494604F5CC
:10E47000967000F075F82022414604F59A7000F07D
:10E4800043F8214604F5B070FFF745FC10222946F9
:10E49000E76004F5B67004F08DFA0B493046FFF7DB
:10E4A0005CFC29462046FFF78DFFE0682146FFF718
:10E4B00001FD2046BDE8F8835C590200385902008E
:10E4C0003D590200425902005159020047590200C9
:10E4D0004C59020010B50446FFF7B6FB024A137808
:10E4E00001331370204610BDDB240020014B187847
:10E4F000704700BFDB240020704710B5044603F0CE
:10E50000A1FC204610BD000038B504461546043075
:10E5100042F60302FFF7DEFF054B23600023A572DE
:10E52000E372A36284F822306362204638BD00BFE4
:10E530000C5A020070B50446C3720D460C301146E9
:10E540001A4604F02CFA012384F82230A36A23B17E
:10E5500021462846BDE87040184770BD41627047AB
:10E5600010B54FF420520446FFF7B4FF204610BD0B
:10E5700010B54FF420520446FFF7C0FC204610BDF2
:10E5800013B501230446FFF7ADFC02A9064B236037
:10E59000002301F8013D01222046FFF702FC034B56
:10E5A0002360204602B010BD1C5A02006C540200C9
:10E5B00070B58AB004460E4601A81B4903F092FBD1
:10E5C000194904A803F08EFB0634052514F8013D13
:10E5D0000F2B03D8154901A803F0F8FB102221786E
:10E5E00007A803F0C7FB07A904A803F0AAFB07A824
:10E5F00003F036FB04A901A803F0E4FB1DB10C49AC
:10E6000001A803F0E3FB15F1FF35DFD2002312224E
:10E61000314601A803F0E9FB04A803F021FB01A89F
:10E6200003F01EFB0AB070BD9D570200A256020007
:10E63000445A0200F8B505460F460446631B9F4244
:10E6400013DD237813F0F00F264603D109490A4859
:10E6500003F056F831780848102203F097F807497C
:10E660000548013403F04CF8E8E70348BDE8F840FA
:10E6700003F04EB8A2560200A02500203C5C020028
:10E68000F7B5044600232160037508460E468DF851
:10E6900004308DF805308DF8063004F0F7FF451E84
:10E6A000002D1ADB277D0F2F17D8735D2D2B01D17D
:10E6B000013510E07219002112F8012C8DF80420A8
:10E6C00001A810228DF8053005F00AF927443871A9
:10E6D000237D01332375023DE2E7204603B0F0BD00
:10E6E00004307047007D704771DF704772DF7047FC
:10E6F00073DF704775DF704776DF704777DF7047ED
:10E7000078DF70477ADF70477CDF70477EDF7047C5
:10E710007FDF704786DF704790DF704792DF70477A
:10E7200096DF704798DF704799DF7047A0DF70472A
:10E73000A2DF7047A3DF7047A4DF7047A6DF7047F2
:10E74000A9DF704760DF704761DF704762DF7047A5
:10E7500063DF704753DF704710DF704711DF70478A
:10E7600090F86000003018BF0120704770B590F835
:10E7700071600023B34214DA1A01456FAC18AA582D
:10E780008A420CD1E38973B1227B02F0020202F0CB
:10E79000FF0342B190F8780080F0010070BD0133B2
:10E7A000E8E7002070BD184670BD70B590F8716044
:10E7B0000023B3421ADA1A01456FAC18AA588A42EC
:10E7C00012D1E189A1B1227B02F0020202F0FF0323
:10E7D00082B1012380F878300022808FFFF7A0FFFC
:10E7E000B0FA80F0400970BD0133E2E7002070BD4F
:10E7F000084670BD184670BD70B590F87160002372
:10E80000B3421CDA1A01456FAC18AA588A4214D1D7
:10E81000E389B3B1227B130704D590F8780080F028
:10E82000010070BD02F0040202F0FF034AB190F84B
:10E830006000003018BF012070BD0133E0E7002008
:10E8400070BD184670BDF0B590F871E085B0002439
:10E8500074452FDA2501476F7E197D598D4227D1E6
:10E86000F4894CB3357B15F00C0127D090F860107B
:10E8700021B315F0080F14BF01250225ADF80A30A9
:10E880000139012380F860108DF8045080F8783049
:10E89000002501A9808F8DF80550ADF80640ADF830
:10E8A00008500392FFF73EFFB0FA80F0400906E0FF
:10E8B0000134CDE7002002E0204600E0084605B024
:10E8C000F0BD70B590F871600023B34210DA1A0100
:10E8D000456FAC18AA588A4208D1E08948B1237B19
:10E8E00013F0300F14BF0120002070BD0133ECE79E
:10E8F000002070BD7FB590F871600023B3422EDA1E
:10E900001A01456FAC18AA588A4226D1E28942B34F
:10E91000217B11F0300326D0012311F0100F14BF1A
:10E92000194602211A44ADF80210ADF80620002164
:10E9300002228DF80510ADF80810ADF80A2080F815
:10E9400078306A4401A9808F8DF804300392FFF774
:10E95000E9FEB0FA80F0400906E00133CEE700207E
:10E9600002E0104600E0184604B070BD03681B6C5E
:10E9700018477FB590F871600023B3422ADA1A0174
:10E98000456FAC18AA588A4222D1E28922B3237B70
:10E9900013F030034FF0000120D001231A44ADF8EA
:10E9A00006200222ADF802108DF80510ADF808100F
:10E9B000ADF80A2080F878306A4401A9808F8DF87C
:10E9C00004300392FFF7AEFEB0FA80F0400906E093
:10E9D0000133D2E7002002E0104600E0184604B000
:10E9E00070BD11F1270F08B514DB11F11D0F14DBF9
:10E9F00011F1130F14DB11F10F0F14DB11F10B0FD9
:10EA000014DBCA1D15DBCB1C16DB0029D4BF00208C
:10EA1000042013E06FF0270010E06FF01D000DE000
:10EA20006FF013000AE06FF00F0007E06FF00B00CB
:10EA300004E06FF0070001E06FF00300FFF75EFEF7
:10EA4000B0FA80F0400908BD1321808FFFF754BE53
:10EA500007B501466846FFF747FE086920B103681D
:10EA60000DF10102DB69984703B05DF804FB00007B
:10EA700013B5044602A8002340F8043DFFF76AFEE0
:10EA8000019803F051FB084B002203F0B3FB03F0A5
:10EA900093FE236933B11A6800EE100A126A214608
:10EAA0001846904702B010BD0000D03F704710B527
:10EAB000044686B018220021684603F07BFFA37A43
:10EAC00033B994F83430002B14BF0223032300E041
:10EAD00000238DF80030A38868460A221B0193FBAF
:10EAE000F2F3ADF81030FFF703FE06B010BD2DE9CC
:10EAF000F043054690F861008FB00C4600231426C1
:10EB000083425DDA06FB03F2696E8F188A58A242CF
:10EB100007D12046FFF77EF9C30751D57B6813B9AB
:10EB20004EE00133ECE795F833600DF118083246FA
:10EB300005F11401404603F032FF236820461B69AB
:10EB4000984704300644F6B21F2E39D87868FFF78C
:10EB50007EF801466846FFF793FD236895F8337009
:10EB60001B69204698470EAB1F44033007F8200C62
:10EB700095F833703B441622684603F81F2CFFF7C4
:10EB8000AFFD0237038828F80730236895F8337003
:10EB9000DB6820469847236881461B6920469847D2
:10EBA0000437474402464946384603F0F8FE00233E
:10EBB0001A4631464046FFF799FDAC63012000E05C
:10EBC00000200FB0BDE8F0832DE9F047D4B04FF43A
:10EBD0008E7304460DF10A010DA8ADF80A30FFF757
:10EBE000B3FD0346002840F04482BDF83420302AAB
:10EBF00000F03C8111D8112A5CD004D8012A21D020
:10EC0000102A27D035E2142A00F0C780192A00F014
:10EC1000D080132A40F02D829BE0382A00F0DA8160
:10EC200006D8322A00F06481362A00F0BA8120E248
:10EC3000502A00F0D180522A00F01281392A40F087
:10EC40001882ECE194F860209DF83C30134484F87D
:10EC500060300EE2BDF83800A08705A9FFF776FD09
:10EC600020699DF8143084F8603028B103680DF1F4
:10EC70003D021B6821469847E288052A12D923895C
:10EC8000B3F5486F0ED8ADF816300023ADF8183044
:10EC900005A94FF4C873A08FADF81420ADF81A3051
:10ECA000FFF728FD94F86830002B00F0E281002285
:10ECB000012109E14FF6FF72A28784F86000054642
:10ECC0004FF01409804694F861309D4216DA676E61
:10ECD00009FB05F6BB19B85983F8108083F8118039
:10ECE000FFF79AF840B1206930B10368BA59D3F8F8
:10ECF00014A021460023D0470135E4E7206918B16C
:10ED0000036821465B68984700230C20194694F855
:10ED10006820934202DB0023184605E0E26E00FB08
:10ED2000032201339160F2E794F87120934208DAEC
:10ED3000616F1A01114401330873616F0A44D08175
:10ED4000F2E7002384F87830236820469B699847CF
:10ED50008FE1E068002800F08681FEF789FF002837
:10ED600040F08181012303228DF80F3062F30613F6
:10ED70008DF80C3007238DF80D30102300218DF80D
:10ED80000E30E36D05938DF8101009910A910B91E7
:10ED90000691079105AB03AA68E1E16DBDF8442037
:10EDA000488A904218BF1946A08F1A46FFF7B2FC56
:10EDB0005FE19DF83C20002A40F05B81E06820B1D3
:10EDC0001C2304F14001FEF766FF2069002800F0D3
:10EDD000508103689B68E1E0BDF83A8006464FF039
:10EDE000140994F861309E4280F24381616E09FB00
:10EDF00006F3CF183A8942450CD12069002800F06B
:10EE0000388103689DF8442000921D693A680DF12D
:10EE1000460323E1BA89424520D19DF847009DF879
:10EE2000462042EA002295B202F001023A74C5F38C
:10EE300040027A7415F00305C85818BF0125FEF783
:10EE4000EBFFA8420AD02069002800F01281036875
:10EE50003A685E6921462B46B0470AE10136C0E7B1
:10EE600002460146A08FFFF76BFC02E1BDF83A2095
:10EE700072BBBDF840500DA913460C26AB421CDAFC
:10EE800094F868700020B84214DAE26E91F810C06D
:10EE900006FB002292F806E0F44509D1B1F80EC055
:10EEA000B2F804E0F44503D1D1F81200906001E01B
:10EEB0000130E8E701330831E0E70DAB03EBC505AE
:10EEC0000022A989013189B2A08FFFF725FCD0E08B
:10EED00094F868200C20934280F2CB80E16E00FB16
:10EEE00003110D8915B14D89002D4BD10133F2E786
:10EEF000BDF83A2094F87030002A36D1E66E03EB64
:10EF0000430306EB83030A259B6805930DAB9A899F
:10EF100005FB0235AB4223D0002194F871209142C9
:10EF200019DA626F94F8700002EB011200EB4000F6
:10EF300056F82070506887420BD11F7C907A874228
:10EF400007D11089DF89874201BF987C1073D88A66
:10EF5000D0810131E1E7DA8AADF814200A33D9E72C
:10EF600005A9A08FFFF7DAFB83E001330C2294F8A8
:10EF700068005A4383420CDAE16E11440D892DB1C9
:10EF80004D891DB184F870300831EAE701330C3245
:10EF9000F0E7206900286CD00368DB6821469847B9
:10EFA00067E0BDF83A1084F8780040F2051291420B
:10EFB00001D1E268CAB9BDF8401094F8710000238D
:10EFC000834256DA626F02EB0312D5898D423BD041
:10EFD0000133F5E7BDF83A1084F8780040F20512E5
:10EFE000914246D1E268002A43D01A0E8DF81830BB
:10EFF00042F00102DBB28DF8172043F00103032237
:10F0000062F306138DF8143007238DF8153005A927
:10F010001023A08F8DF81630FFF778FB29E09DF8BC
:10F020004230BDF84050022B03D12946A08FFFF794
:10F030007BFB94F8711000238B421ADA626F02EBAB
:10F040000312D089A8420CD1206990B19DF84410D8
:10F050000368009112689D690DF146032146A84797
:10F0600007E00133E8E700231A468521A08FFFF768
:10F070004FFB54B0BDE8F08710B50446FFF76EFBB8
:10F08000606F08B103F074FCE06E08B103F070FC2F
:10F09000606E08B103F06CFC002384F8613084F8E2
:10F0A000683084F8713010BD10B5054B036004461C
:10F0B000FFF7E2FF2046FEF7E8FE204610BD00BF46
:10F0C000545A020010B50446FFF7EEFF204602F046
:10F0D000B9FE204610BD07B51288ADF80020ADF886
:10F0E00002106A4601464FF6FF700193FFF724FBBA
:10F0F00003B05DF804FB00002DE9F04FEDB09A4637
:10F100009DF8E8310193A24B769E9DF8E08105467B
:10F11000186808900F4608A800211446FFF71CFB4A
:10F120009C4B0993142200210DA803F043FC0A23F1
:10F1300009A9ADF834300DA801238DF840308DF8C1
:10F140003C30FFF7FFFA2822ADF82C205022ADF812
:10F150002E204FF000094FF4C8720BA8ADF83220F2
:10F16000ADF83090FFF7CEFA4846FFF7C7FA6B7557
:10F1700006230222AB7503232A7585F833301FB3AB
:10F1800014B31444B9451FDA95F8330014F8023C5F
:10F190002A1801331375023014F8013C5375C0B2BC
:10F1A00085F83300284414F8022C2146143003F06B
:10F1B000F6FB14F8023C95F83320134485F83330FD
:10F1C00009F101091F34DDE724AFBAF1000F20D0A7
:10F1D0000EB34FF0000902364B46D1451CDA16F843
:10F1E00002BC16F8011C0BF10102FA549C1CFA181F
:10F1F000E4B2517038195A46314603F0D0FB5C44F2
:10F200004FF00102E3B285F8342009F101091F36FD
:10F21000E3E7534600E033463A4695F8331005F1EC
:10F220001400FFF763FA0020FFF76AFA002442F6A1
:10F23000030644450DDA779B53F82400FEF709FDD9
:10F24000B04202BF95F86130013385F86130013476
:10F25000EFE795F861000338C0B285F8610000EB74
:10F260008000800003F07CFB00266866ADF8146027
:10F270000296B146464580F2BE81779B53F8264000
:10F280002046FEF7E4FC014617A8FFF7F9F917A896
:10F29000FFF726FA074617A8FFF724FA022809D134
:10F2A0007A783B7843EA0223ADF8283001238DF8C1
:10F2B0002A301CE03B460DF1B00E07F1100C186827
:10F2C0005968724603C2083363459646F7D17A7B84
:10F2D0003B7B43EA0223ADF828300DF12A010023DD
:10F2E0002CA88DF8BD308DF8BC30FFF731FA2046E0
:10F2F000FEF7AFFCB0F5205F204611D1FEF7A7FC6A
:10F30000254904F0B1F9002800F073812046FEF78A
:10F310009EFC224904F0A8F9002800F06A8131E23D
:10F32000FEF797FC42F60303984240F0358104B1A2
:10F33000043C271D3846FEF78AFC194904F094F96D
:10F34000B8B99DF8B030012262F3030362F30713EA
:10F350008DF8B03023682046DB689847236807465D
:10F360001B6920469847394682B22CA8FFF7CCF992
:10F370003FE13846FEF76BFC0A4904F075F998B98D
:10F3800023682046DB6898470088FFF7B9F930E129
:10F39000465A0200802000203859020047590200D6
:10F3A0003D590200425902003846FEF750FCC1495F
:10F3B00004F05AF9002800F01C812046FEF72AFDCF
:10F3C000236882461B69204698476A6EADF816008E
:10F3D00009EB89014FEA810B02EB0B0342F8214054
:10F3E0000027029A5A601F745F741C2239461DA8B8
:10F3F00003F0E0FA2AF001031AF0300F8DF87430B0
:10F4000010D00123194663F307118DF8181019461F
:10F4100006AA63F3071163F342078DF819108DF8FC
:10F420001A70229200231AF0320FADF81C308DF8BA
:10F430001E300BD09DF81C30E968012262F30303F3
:10F4400001B1022262F307138DF81C301AF00C0F81
:10F4500010D0EB6801222BB19DF81D3062F303033D
:10F46000022203E09DF81D3062F3030362F30713E9
:10F470008DF81D309DF81E30012262F342038DF895
:10F480001E30236820469B6998479DF81E3080F007
:10F49000010060F300038DF81E30771C47453CDA0D
:10F4A000779B53F827A05046FEF7D3FBB0F5245FB7
:10F4B00033D1BAF1000F01D0AAF1040A0AF1040312
:10F4C00018460393FEF7C3FB7B4904F0CDF8039B7A
:10F4D000A0B9DAF8003050469B6898471E90DAF8D9
:10F4E00000305046DB689847DAF80030ADF87C0011
:10F4F000DB6850469847ADF87E000CE01846FEF7F2
:10F50000A6FB6E4904F0B0F828B9DAF8003050468E
:10F510009B68984720900137C0E71422002112A869
:10F5200003F048FA0DF1160A0AAB129307AB1393D6
:10F53000BAF80030ADF85030236820469B689847F1
:10F540006B6EADF8540000275B44083312AA1DA966
:10F5500038461697FFF7ECF8BAF80030BBB12CAB81
:10F56000BAF800200393974208DA226839465269B4
:10F5700020469047039BD8550137F1E76B6E9B44BB
:10F5800052462CAB0021BBF80800FFF7A4FD09F19F
:10F5900001095FFA89F92CE02046FEF75AFBB0F525
:10F5A000245F26D104B1043C271D3846FEF74FFBEB
:10F5B000414904F059F8E0B13846FEF748FB4049AC
:10F5C00004F052F8A8B13846FEF741FB3D4904F07B
:10F5D0004BF870B13846FEF73AFB384904F044F86E
:10F5E00038B1D6E02CAB52460021BDF81400FFF72D
:10F5F00072FD01363EE6019B23B3A3F102085FFAD8
:10F6000088F6002442F60307B442B0461CDA799B20
:10F6100053F824804046FEF71CFBB0F5205F05D16F
:10F6200095F86830013385F8683009E04046FEF708
:10F6300010FBB84202BF95F87130013385F8713084
:10F640000134E1E7DDF8048095F8680000EB400044
:10F65000800003F085F9E86695F87100000103F079
:10F660007FF9DDF8E4916867002609EB88083746E2
:10F67000B246C14579D059F8044B2046FEF7E7FA67
:10F6800001462CA8FEF7FCFF2CA8FFF729F88346BB
:10F690002CA8FFF727F8022816D19BF801209BF829
:10F6A000003043EA0223ADF85C3001238DF85E3070
:10F6B00029E000BF4C590200B05A0200B55A0200BE
:10F6C000BA5A0200BF5A02005B460DF1740E0BF1EC
:10F6D000100C18685968724603C208336345964691
:10F6E000F7D19BF80D209BF80C3043EA0223ADF8CC
:10F6F0005C300DF15E0100231DA88DF881308DF87E
:10F700008030FFF725F82046FEF7A3FAB0F5205F1A
:10F7100010D1EA6E07EB47018B00D01842F8214068
:10F72000179A4260EA6E1344013700229A60FFB2D2
:10F73000A2469EE72046FEF78CFA42F60303984263
:10F7400097D1696F3301CA1804B1043CCC50C2F898
:10F7500004A0179991606A6F1A44002111736A6FAF
:10F7600013440136D981F6B283E7E86818B1FEF791
:10F770007FFA002865D12B6828469B6998476DB0B1
:10F78000BDE8F08F05AA0AA90120FEF7CFFF029479
:10F790002FE723682046DB68984712AF1422002128
:10F7A000ADF81C001DA803F005F94FF0010A002375
:10F7B0003B806AF34203BB7023682046DB689847AE
:10F7C000BDF81C10BB78EA6880B2401A18BF01204F
:10F7D00060F30003BB703B782AB16AF30303022293
:10F7E00062F3071303E06AF303036AF307133B7042
:10F7F0000AAB1E971D932368ADF87C10DB6820468A
:10F80000984700270DF11C0AADF8800005AA1DA934
:10F8100038462197FEF78EFFBAF80030002B3FF4F0
:10F82000E8AE0DF1B00BBAF800309F42BFF6DAAE89
:10F83000236839461B69204698470BF807000137B3
:10F84000F1E71C23002205F14001E868FEF732FAD7
:10F8500091E700BF2DE9F04F87B004460D46002622
:10F8600001274FF014090DF1060894F861309E420B
:10F8700052DA09FB06F3626E02EB030AD358AB427D
:10F8800048D1A36B9D4204D1236829465B6A204678
:10F8900098472B6828461B6998472B68ADF80600E7
:10F8A000DB68BAF808B0284698474246034600216C
:10F8B0005846FFF710FC1022002102A803F07AF846
:10F8C000BAF80830ADF808309AF81030CDF810804A
:10F8D00073B194F8603053B1013B84F8603002A9F1
:10F8E0000123A08F8DF80A30FEF728FF00E01F46A5
:10F8F0009AF8113073B194F8603053B1013B84F839
:10F90000603002A90223A08F8DF80A30FEF716FF9F
:10F9100000E01F460136A8E7384607B0BDE8F08F83
:10F9200010B50446FEF7B8FA104B236000214FF6DD
:10F93000FF7304F1400084F8331084F83410A1639D
:10F94000A38784F8601084F86110616684F86810F9
:10F95000E16684F8701084F87110616784F878109B
:10F96000E0651C2203F026F8204610BD545A020020
:10F970002DE9F84380460D46174601EB02090C4677
:10F980004C45A4EB050609D0D8F8003014F8011B4B
:10F990001B68404698470028F2D100E03E463046BA
:10F9A000BDE8F8837047203001F0F4BF38B5437FDD
:10F9B0000D462BB100F16804204601F0F9FF08B1B3
:10F9C000002038BD2046294601F0C7FF012038BD80
:10F9D000203001F0D1BF203001F0E2BF2DE9F0412D
:10F9E0001E464FF47A7300258360104B4560044631
:10F9F00040F8203B1746884601F0A4FF04F1680058
:10FA000001F0A0FF0A4B9DF81820C4F8108053F8AD
:10FA1000222062769DF81C20676153F82230A3767D
:10FA2000267665772046BDE8F08100BFCC5A0200FB
:10FA3000E45A0200837E4FF0A04203F5E07330B534
:10FA4000012140F20C64C17642F82340437E03F565
:10FA5000E07342F8234003694FF0CC72C3F82425C9
:10FA60000622C3F80025827EC3F80825427EC3F82B
:10FA70000C25027E53B2D2B202F01F055C09A940E8
:10FA800060340F4D002B45F8241006DA0D4B02F0C0
:10FA90000F02134440221A7606E003F1604303F597
:10FAA0006143402283F80023037E01215AB203F010
:10FAB0001F0301FA03F35209014941F8223030BD16
:10FAC00000E100E0FCEC00E02DE9F8430646894641
:10FAD00098461546B2B100F12007384601F048FFBC
:10FAE00034690122C4F888952262C4F83475C4F8D8
:10FAF00038552260D4F84C313BB9D4F82431002B6E
:10FB0000F8D002E01046BDE8F8830023C4F84C3179
:10FB1000D4F85C311BB9D4F82431002BF8D0002381
:10FB2000C4F85C310122B8F1000F02D1D4F82431BD
:10FB300043B16261D4F80431002BFBD00023C4F838
:10FB4000043107E0E261D4F84831002BFBD00023F8
:10FB5000C4F84831D4F8243113B10023C4F8243157
:10FB6000D4F83C053066C0B2BDE8F8830123FFF746
:10FB7000ABBF10B5044680F8B010683001F0F8FE55
:10FB80000123637710BD2DE9F04100230569437718
:10FB9000012790F8B030C5F8883500F168060446B2
:10FBA0002F623046C5F84465884601F0F3FE2369AC
:10FBB000C5F848059F60D3F850211AB9D3F824211D
:10FBC000002AF8D00022C3F85021304601F0E2FEAE
:10FBD000236930B1D3F860211AB9D3F82421002A5F
:10FBE000F8D00022C3F860210122B8F1000F02D141
:10FBF000D3F8241141B15A61D3F80421002AFBD073
:10FC00000022C3F8042107E0DA61D3F84821002A72
:10FC1000FBD00022C3F84821D3F8240170B10022A0
:10FC2000C3F82421D3F8C404C3F8C404022805D0BF
:10FC3000042814BF04200320BDE8F081BDE8F08152
:10FC40000121FFF7A0BF4369D3F8642170B50446D2
:10FC500082B10022012500F12006C3F86421057756
:10FC6000304601F085FE63694022C3F83465C3F86D
:10FC700038251D636369D3F86821D2B10025C3F824
:10FC8000685104F16806012363772577304601F057
:10FC90006FFED4F8B43003B1984765776569304694
:10FCA000C5F8446501F076FE6369C5F84805012290
:10FCB0005A636369D3F804215AB10022C3F80421BE
:10FCC000227F32B1D3F83C05D4F8B830206603B1B6
:10FCD00098476369D3F8242142B10022C3F8242154
:10FCE000D3F8D024C3F8D02401225A6170BD00009B
:10FCF0000148FFF7A8BF00BFDC24002007B50C2394
:10FD00000B228DE80C004FF04022042311460348DB
:10FD1000FFF764FE03B05DF804FB00BFDC240020A5
:10FD200070B505460C468E18B44206D02178284698
:10FD3000FDF762FF04F8010BF6E770BD014A0260AF
:10FD400041607047B4240020704770B504461546E2
:10FD50000E464068002101F093FB04F10801206881
:10FD6000267265720222FFF7DBFF60680121BDE8A1
:10FD7000704001F085BB38B504460D46406800214F
:10FD800001F07EFB214665F07F0501F8085F022245
:10FD90002068FFF7C5FF6068012101F071FB607A00
:10FDA00038BD10B504460121406801F047FB012130
:10FDB000606801F065FB2068FDF708FF0F21204611
:10FDC000FFF7D9FF032819D141221A212046FFF756
:10FDD000BCFF02221F212046FFF7B7FFD8221C21BB
:10FDE0002046FFF7B2FF012227212046FFF7ADFF93
:10FDF0002046C1221B21FFF7A8FF002010BD0000F4
:10FE000070B54D00E91C0646FFF7B5FFA91C044676
:10FE10003046FFF7B0FF40EA042000B202F084F958
:10FE20000022044B02F0E6F902F0C6FC00EE100AD4
:10FE300070BD00BF0000103F2922427000224280A6
:10FE4000027170470346002200791A717047C3B2ED
:10FE5000000A03FA00F0013080B2704760B1013847
:10FE6000002330F0FF019AB203F1010301D04008F2
:10FE7000F7E740EA022080B27047000010B5084B57
:10FE800059434FF47A7201F5FA714FF4FA64B1FBF9
:10FE9000F2F3B1FBF4F100FB0310B0FBF2F010BD84
:10FEA000002F3A00084B4FF47A72594301F5FA716A
:10FEB0004FF4FA63B1FBF3F3B1FBF2F102FB003054
:10FEC000B0FBF1F0704700BF002F3A00F8B50A4CC4
:10FED00005460F46417820461646FFF74AFE39464A
:10FEE0002046FFF763FD31462046FFF75FFD2046C1
:10FEF000FFF7A6FE2870F8BDDC24002038B50546C3
:10FF00000C4601F07F028A21FFF7E0FF6C7038BDDC
:10FF1000F8B50C4C05460F46417820461646FFF7CB
:10FF200028FE39462046FFF741FD310A2046FFF7FB
:10FF30003DFDF1B22046FFF739FD2046FFF780FE78
:10FF40002870F8BDDC24002010B52DED028BB5EE35
:10FF5000C00AF1EE10FA82B00446B0EE408A19D41D
:10FF600010EE100A02F0F2F80EA3D3E9002302F01B
:10FF7000D1FB78B99FED0A0A28EE008A2046FCEEF4
:10FF8000C87A4421CDED017ABDF80420FFF7C0FF07
:10FF9000012000E0002002B0BDEC028B10BD00BFCC
:10FFA00000000043A4703D0AD7FF7F40F8B5114C14
:10FFB00006460F46417820461546FFF7DAFD3946DA
:10FFC0002046FFF7F3FC290E2046FFF7EFFCC5F3B0
:10FFD00007412046FFF7EAFCC5F307212046FFF75B
:10FFE000E5FCE9B22046FFF7E1FC2046FFF728FEDA
:10FFF0003070F8BDDC240020F8B50F460646417885
:020000022000DC
:100000000B4814461D46FFF7B4FD39460848FFF774
:10001000CDFC2544AC4205D014F8011B0448FFF781
:10002000C5FCF7E70248FFF70BFE3070F8BD00BFD4
:10003000DC24002070B50C4C05460E464178204665
:10004000FFF797FD31462046FFF7B0FC2046FFF74B
:10005000F7FD0122287069782046FFF787FD2046CA
:10006000FFF7B6FCC0B270BDDC24002008B509B9AA
:10007000502102E0012906D17021FFF7DBFF01309A
:100080004000C0B208BDFF2008BDF8B504460F46C9
:10009000164680210122FFF719FF0122FF21204689
:1000A000FFF714FF002211462046FFF70FFF06223C
:1000B000FF212046FFF70AFF83212046FFF7BAFF02
:1000C00040F00402D2B283212046FFF7FFFE072250
:1000D000FF212046FFF7FAFE012281212046FFF78B
:1000E000F5FE012280212046FFF7F0FE6B229421CD
:1000F0002046FFF7EBFE002283212046FFF7E6FEB5
:1001000001F0A4F8E08083212046FFF793FF054625
:1001100060B96388002BF6D001F098F8E38880B2CC
:10012000C01A63889842EEDD2846F8BD01222046B9
:100130008321FFF7CBFE92212046FFF77BFF00F0E3
:100140007F03C0F3C0103B70002230708121204635
:10015000FFF7BCFE06222046FF21FFF7B7FE8321F2
:100160002046FFF767FF832100F0FB022046FFF7E0
:10017000ADFE20460122FF21FFF7A8FE2046012206
:100180000021FFF7A3FE20460022FF21FFF79EFE7D
:10019000204600228021FFF799FE0120F8BD10B50E
:1001A0000C460121FFF746FFC0F300132370C0F394
:1001B000C003A370C0F380036370C0F38013C0F367
:1001C000C010E370207110BD38B541F0010200216C
:1001D0000446FFF77BFE01F039F8E080132120464A
:1001E000FFF728FF10F007050CD16388002BF5D02E
:1001F00001F02CF8E38880B2C01A63889842EDDDE4
:10020000284638BD204601220B21FFF75FFE002261
:1002100020461146FFF75AFE012038BD70B50F4C3D
:1002200005460E4641782046FFF7A3FC314620469E
:10023000FFF7BCFB2046FFF703FD69782870022218
:100240002046FFF793FC2046FFF7C2FB05462046F9
:10025000FFF7BEFB40EA052080B270BDDC24002021
:1002600038B5012204460D468021FFF72FFE0122FA
:10027000FF212046FFF72AFE002211462046FFF705
:1002800025FE227A91212046FFF720FE012200213F
:100290002046FFF71BFE0022FF212046FFF716FE37
:1002A000002280212046FFF711FE6DB1F821204683
:1002B000FFF7B4FF00B145432A4604212046FFF76B
:1002C00075FE0422002101E0022229462046BDE8F5
:1002D0003840FFF7FBBD38B5044600F0B7FFE080BB
:1002E00013212046FFF7A6FE43070FD16388002B9A
:1002F000F6D000F0ABFFE38880B2C01A6388984262
:10030000EEDD012323714FF6FF7038BD1E2120461C
:10031000FFF784FF012205460B212046FFF7D6FD9B
:10032000284638BD70B50E46002114460546FFF735
:100330009DFE462120802846FFF77CFE013080B2DA
:100340002178A080FFF79AFD5121E0602846FFF751
:1003500065FFFFF77CFD2178E080FFF78FFD7021BE
:1003600020612846FFF766FE01304000C0B2608081
:1003700071212846FFF752FFFFF769FDF3782081CE
:1003800013B1E388C01A2081A1782089FFF776FD98
:10039000606170BDF0B544F61F63994289B00646AE
:1003A0000D4644D96946FFF7FAFE02AA694630466F
:1003B000FFF7B8FF9DF800301BB1059800F6363006
:1003C00001E040F6E8009DF802302BB1059B03F2F6
:1003D000B22300EB430006E09DF801301BB1059B02
:1003E00003F5257318449DF803701FB1069B03F5B0
:1003F000257318449DF80440BCB100F226208542C4
:1004000015D39DF80A10281AFFF74CFD80B21FB1D2
:10041000BDF80E30184480B2FFF720FD712102466E
:100420003046FFF775FDF56002E0012400E000248E
:10043000204609B0F0BD10B588B004466946FFF704
:10044000AEFE02AA69462046FFF76CFF9DF8003019
:100450001BB1059800F6845001E040F636309DF857
:1004600002302BB1059B03F2B22300EB430006E000
:100470009DF801301BB1059B03F5257318449DF8C9
:1004800003301BB1069B03F5257318449DF8043017
:100490001BB1079B03F226231844E06008B010BD8F
:1004A000F8B506460F4641780D481D461446FFF73D
:1004B00060FB39460A48FFF779FA0948FFF7C0FBA5
:1004C0002A46307071780648FFF750FB2544AC424D
:1004D00005D00348FFF77CFA04F8010BF7E7F8BDF5
:1004E000DC240020F0B5044685B049B18921FFF72E
:1004F000A1FD40F00102D2B289212046FFF7E6FCBF
:10050000002288212046FFF7E1FC012280212046BD
:10051000FFF7DCFC0122FF212046FFF7D7FC002279
:1005200011462046FFF7D2FC91212046FFF782FDBD
:100530000122207200212046FFF7C8FC0022FF2183
:100540002046FFF7C3FC002280212046FFF7BEFCB7
:1005500060212046FFF76EFD40F01202D2B260210A
:100560002046FFF7B3FCB5EE000A2046FFF7ECFC8F
:10057000FF2201212046FFF7A9FC0DF107020DF132
:1005800006012046FFF781FD08B900251EE206237B
:1005900002AAB0212046FFF783FF0122FF21204657
:1005A000FFF794FC00224F212046FFF78FFC2C22FE
:1005B0004E212046FFF78AFC0022FF212046FFF74C
:1005C00085FC2046B621B422FFF780FC9DF8073059
:1005D0009DF80660002B4FF0000514BF0C20002092
:1005E00029460127EBB2DA0898420DF1100E03F00C
:1005F0000703724401D88E4208D112F808EC07FABA
:1006000003F32EEA030302F8083C07E012F8082C73
:1006100042FA03F3DB0744BF0131C9B20135302D83
:10062000E0D1062302AAB0212046FFF7E5FC012213
:10063000FF212046FFF74AFC002211462046FFF723
:1006400045FC0022FF212046FFF740FC0022092143
:100650002046FFF73BFC002210212046FFF736FC26
:10066000002211212046FFF731FC012224212046DF
:10067000FFF72CFCFF2225212046FFF727FC002254
:1006800075212046FFF722FC0122FF212046FFF7BB
:100690001DFC2C224E212046FFF718FC0022482189
:1006A0002046FFF713FC202229462046FFF70EFCC8
:1006B0000022FF212046FFF709FC09222946204697
:1006C000FFF704FC002254212046FFF7FFFB042221
:1006D00031212046FFF7FAFB032232212046FFF7A3
:1006E000F5FB832240212046FFF7F0FB252246211F
:1006F0002046FFF7EBFB002260212046FFF7E6FBD8
:10070000002227212046FFF7E1FB06225021204648
:10071000FFF7DCFB002251212046FFF7D7FB962292
:1007200052212046FFF7D2FB082256212046FFF730
:10073000CDFB2A4657212046FFF7C8FB0022612146
:100740002046FFF7C3FB002262212046FFF7BEFBD5
:10075000002264212046FFF7B9FB002265212046D4
:10076000FFF7B4FBA02266212046FFF7AFFB012272
:10077000FF212046FFF7AAFB322222212046FFF765
:10078000A5FB142247212046FFF7A0FBFF224921A9
:100790002046FFF79BFB00224A212046FFF796FBED
:1007A0000022FF212046FFF791FB0A227A212046F2
:1007B000FFF78CFB00227B212046FFF787FB2122DD
:1007C00078212046FFF782FB0122FF212046FFF718
:1007D0007DFB342223212046FFF778FB00224221B3
:1007E0002046FFF773FBFF2244212046FFF76EFBF4
:1007F000262245212046FFF769FB05224621204697
:10080000FFF764FB402211462046FFF75FFB0622FC
:100810000E212046FFF75AFB1A2220212046FFF71F
:1008200055FB402243212046FFF750FB0022FF21C9
:100830002046FFF74BFB032234212046FFF746FBFF
:10084000442235212046FFF741FB0122FF212046AB
:10085000FFF73CFB042231212046FFF737FB09223A
:100860004B212046FFF732FB05224C212046FFF7A3
:100870002DFB04224D212046FFF728FB0022FF21FB
:100880002046FFF723FB002244212046FFF71EFBF2
:10089000202245212046FFF719FB08224721204648
:1008A000FFF714FB282248212046FFF70FFB002208
:1008B00067212046FFF70AFB042270212046FFF73C
:1008C00005FB012271212046FFF700FBFE22722169
:1008D0002046FFF7FBFA002276212046FFF7F6FAC2
:1008E000002277212046FFF7F1FA0122FF2120465E
:1008F000FFF7ECFA01220D212046FFF7E7FA00226C
:10090000FF212046FFF7E2FA012280212046FFF76F
:10091000DDFAF82201212046FFF7D8FA0122FF2153
:100920002046FFF7D3FA01228E212046FFF7CEFAA8
:10093000012200212046FFF7C9FA0022FF212046AC
:10094000FFF7C4FA002280212046FFF7BFFA0422F5
:100950000A212046FFF7BAFA84212046FFF76AFBF6
:10096000842100F0EF022046FFF7B0FA01220B21AC
:100970002046FFF7ABFA2046FFF75DFDE822E06076
:1009800001212046FFF7A2FAE1682046FFF702FDA9
:10099000012211462046FFF799FA40212046FFF731
:1009A00013FC00283FF4F1AD022201212046FFF79D
:1009B0008DFA00212046FFF707FC054600283FF48A
:1009C000E4ADE82201212046FFF780FA284605B071
:1009D000F0BD000000F060B8D0B52DED048BB0EE96
:1009E000409AF0EE609A294C8AB000F04BF994F9E5
:1009F0000030B0EE408AF0EE608A01330FD0B0EEE6
:100A0000490AF0EE690A00F0D3FB40B10026002746
:100A100051EC190B32463B4601F05EFE38B9B0EEA0
:100A2000480AF0EE680A0AB0BDEC048BD0BD184B42
:100A300024780193012200238DED049B8DED029B10
:100A4000009208936CB9CDE90667684600F0DEFBBA
:100A500088B1089BA3B99DED060B0AB0BDEC048BD1
:100A6000D0BD32463B463046394601F0EDFC022C03
:100A7000CDE90601E9D101F021FF21230360E8E778
:100A800001F01CFF089B0360E5E700BFA1200020E8
:100A9000645B02000000000051EC110B43422DE9A1
:100AA000F047034321F00048754F48EAD373BB4237
:100AB00055EC104B49D86342234325F0004A4AEADB
:100AC000D373BB42A94640D801F1404303F58013DC
:100AD00003438E4650D08E1706F0020654EA0A03EE
:100AE00046EAD57639D050EA08033ED0B84555D00D
:100AF000BA453AD0C8EB0A084FEA2858B8F13C0F7B
:100B000040DC002970DB02460B462046294601F0F6
:100B10009BFC41EC100B00F043FB00F085F951EC1D
:100B2000100B012E5AD0022E48D0002E42D03EA3E8
:100B3000D3E9002301F0AAF93DA3D3E9002301F092
:100B4000A5F941EC100BBDE8F08722462B4601F0D9
:100B50009FF941EC100BBDE8F087022E16D0032E52
:100B60000ED19FED350BBDE8F087B9F1000F11DB19
:100B70009FED330BBDE8F087BDE8F04700F054B9B6
:100B8000BDE8F0872EA1D1E90001CAE79FED280B4F
:100B9000BDE8F0879FED2C0BBDE8F087C24529D05A
:100BA000022EF3D0032EDCD0012E2DD09FED280B8A
:100BB000BDE8F08741EC100BBDE8F0871AA3D3E93C
:100BC000002301F063F902460B4619A1D1E90001A7
:100BD00001F05CF941EC100BBDE8F08701F1004138
:100BE00041EC100BBDE8F08718F13C0F8BDA0020C8
:100BF000002196E7022E13D0032E0DD0012E07D030
:100C00009FED150BBDE8F0879FED150BBDE8F08754
:100C10009FED150BBDE8F0879FED150BBDE8F08744
:100C20009FED150BBDE8F087075C143326A6A13CA9
:100C3000182D4454FB210940182D4454FB2109C0B0
:100C4000182D4454FB21F93F182D4454FB21F9BFC2
:100C50000000000000000000182D4454FB21E93F73
:100C60000000000000000080182D4454FB21E9BF63
:100C7000D221337F7CD902C0D221337F7CD902407C
:100C80000000F07F2DE9F041654955EC104B0E4610
:100C90002940B14200F09780002D2B4610EE102A1B
:100CA00074DD2F157FD0A7F2FF37C3F31303F907C5
:100CB00043F4801365D403EBD27100260B447F10FC
:100CC0005200B64616204FF400110EEB01049C4270
:100CD0004FEAD2754FEA420203DC1B1B04EB010E04
:100CE0000E44013805EB43034FEA5101EDD1844630
:100CF00020244FF0004109E020D003EBD275013CE5
:100D00004FEA51012B444FEA420220D09E4501EBAD
:100D10000C05F1DA002D05EB010C09DBF0469542DC
:100D2000CEEB030300D9013B521B0844C646E4E75F
:100D3000BCF1000FF2DB0EF10108F0E795421ED87E
:100D4000002D05EB010C50DB98460023ECE7134324
:100D500004D0421C4DD000F001031844400871102B
:100D6000F30701F17F5101F5001148BF40F0004049
:100D700001EB0753024643EC102BBDE8F0817346AC
:100D8000BBE75B0003EBD273520094E725F0004110
:100D9000214328D0ADBB2F46D30A153F5205002B67
:100DA000FAD0DD0228D4002100E001465B00DC021D
:100DB00001F10100F9D5C0F1200422FA04F4234323
:100DC0007F1A82406FE710EE102A2B4610EE100AB1
:100DD000294601F00FFA22462B4601F059F841EC62
:100DE000100BBDE8F081BDE8F081BCF1000FABDB7A
:100DF000A1E701362046B2E720244FF0FF31002062
:100E0000DBE710EE102A2B462046294601F03EF87B
:100E100002460B4601F018FB41EC100BBDE8F081D7
:100E20000000F07F000000002DE9F84F55EC104B5A
:100E3000D14B25F000469E42AB4610DDCF4B9E4283
:100E400000F3B28000F0AD80BBF1000F40F3FD80F5
:100E5000ADA5D5E9004545EC104BBDE8F88FC84B72
:100E60009E4200F3C080A3F1DE739E4240F3A8804F
:100E70004FF0FF3A22462B462046294601F0BAF9A8
:100E800002460B468046894601F0B4F9A0A3D3E997
:100E9000002306460F4601F0ADF99FA3D3E90023D6
:100EA00000F0F6FF32463B4601F0A4F99CA3D3E9DB
:100EB000002300F0EDFF32463B4601F09BF99AA378
:100EC000D3E9002300F0E4FF32463B4601F092F9FB
:100ED00097A3D3E9002300F0DBFF32463B4601F045
:100EE00089F995A3D3E9002300F0D2FF42464B468F
:100EF00001F080F992A3D3E9002380468946304669
:100F0000394601F077F990A3D3E9002300F0BEFF42
:100F100032463B4601F06EF98DA3D3E9002300F081
:100F2000B5FF32463B4601F065F98BA3D3E90023B8
:100F300000F0ACFF32463B4601F05CF988A3D3E9F0
:100F4000002300F0A3FF32463B4601F053F9BAF10B
:100F5000FF3F02460B467CD04046494600F098FFD2
:100F600022462B4601F046F9864E874B4FEACA0AC5
:100F700056449A44DAE9002300F088FF22462B46C3
:100F800000F084FF02460B46D6E9000100F07EFF28
:100F9000BBF1000F52DB04460D4645EC104BBDE89B
:100FA000F88F002C3FF450AF22462B4620462946AE
:100FB00000F06EFF04460D4645EC104BBDE8F88F7F
:100FC00069A3D3E9002310EE100A294600F060FF60
:100FD00000226E4B01F09EFB00283FF449AF45EC28
:100FE000104BBDE8F88F00F0DBF8694B9E4255ECE2
:100FF000104B3FDCA3F550239E4268DC10EE102A14
:1010000010EE100A2B46294600F042FF00225F4BEB
:1010100000F03CFF002206460F464FF0804320467A
:10102000294600F035FF02460B463046394601F0AE
:101030000BFA4FF0000A04460D461BE7044601F187
:10104000004545EC104BBDE8F88F49A5D5E90045B2
:10105000B2E74046494600F01BFF22462B4601F00E
:10106000C9F802460B462046294600F00FFF044609
:101070000D46A1E7474B9E421DDC10EE100A0022F0
:10108000454B294600F002FF002206460F46424B20
:101090002046294601F0AEF800223C4B00F0F8FE55
:1010A00002460B463046394601F0CEF94FF0020AAF
:1010B00004460D46DEE62B4610EE102A0020374986
:1010C00001F0C2F94FF0030A04460D46D2E610EED5
:1010D000100A00222D4B294600F0D8FE00220646B9
:1010E0000F462A4B2046294600F0D2FE02460B4608
:1010F0003046394601F0A8F94FF0010A04460D4682
:10110000B8E600BFAFF30080182D4454FB21F93F2F
:1011100011DA22E33AAD903FEB0D76244B7BA93FE9
:10112000513DD0A0660DB13F6E204CC5CD45B73FB7
:10113000FF8300922449C23F0D5555555555D53F63
:101140002F6C6A2C44B4A2BF9AFDDE522DDEAD3F57
:101150006D9A74AFF2B0B33F711623FEC671BC3FF7
:10116000C4EB98999999C93F9C7500883CE4377EF7
:10117000182D4454FB21F9BFFFFF0F440000F07FFE
:10118000FFFFDB3F905B0200705B02000000F03F5E
:10119000FFFFF23FFF7F03400000F83F0000F0BF79
:1011A00053EC102B23F0004343EC102B704700BF8F
:1011B00053EC102B33F0004110B408D01148A3F5C4
:1011C0008014844208D804205DF8044B70471AB993
:1011D00002205DF8044B704703F1FF43094803F513
:1011E000E0038342EFD9B1F5801F01D20320EBE782
:1011F000054B994201D00020E6E7B2FA82F040099F
:10120000E2E700BFFFFFDF7F0000F07F00207047B4
:101210000649074A074B9B1A03DD043BC858D050C8
:10122000FBDC00F08BF9FBF73DF90000185F0200D2
:101230008020002070210020FEE7FEE7FEE7FEE7A9
:10124000FEE7FEE7FEE7FEE7FEE7FEE7094B19686B
:10125000094B30B5D3F804050A060B0A02434FF4D4
:101260007A71A2FB014501FB0355E00B40EA4540C2
:1012700030BD00BF9825002000100140084B1968C0
:10128000084B30B5D3F804050A060B0A0649024399
:10129000A2FB014501FB0355E00B40EA454030BD90
:1012A000982500200010014040420F0038B5044648
:1012B00048B1FFF7CBFF054600F01AF8FFF7C6FF6D
:1012C000401B8442F8D838BD074B0022C3F80421E4
:1012D00082B0D3F80431054A0193019B13680133AE
:1012E000DBB2136002B07047001001409825002067
:1012F000704700001F2837B500F293804A4B53F81F
:101300002030052B19D007D8032B12D013D8022B6D
:1013100040F08780012215E01D2B10D003D81C2B34
:101320007FD105220EE01E2B0BD01F2B79D1082276
:1013300008E0022206E0032204E0042202E0062282
:1013400000E00722394B1968082908DD0A2909DD60
:101350000D29B5BF0C240E240223032304E0082426
:10136000002301E00A2401233148C0F8F0350123AD
:10137000C0F8003500200546030103F1804303F562
:10138000E04301300828C3F81455C3F81055F3D1D1
:10139000284B1868284B1B6800021B0303F480537A
:1013A00000F4E0601843224BC3F81805C3F8142575
:1013B000C3F810250DF10602C3F82C260122C3F84C
:1013C00030261A60D3F80001194A0028FAD0002309
:1013D000C2F8003101235360D2F80401144B0028F5
:1013E000FAD00022C3F8042101229A60D3F8142114
:1013F000002AFBD00E4A0023C2F81431BDF90620A2
:101400009A420B4AB8BFADF806308C42C2F800359C
:10141000BDF9060006D08BBF611A091BC840884081
:1014200000E0002003B030BDE45A0200A8200020F4
:1014300000700040A42000209C2500201F281BD8FD
:101440000E4B53F82030032916D8DFE801F0020EC6
:10145000060A03F5E07300210AE003F5E0730C21AE
:1014600006E003F5E073042102E003F5E0730321D5
:101470004FF0A04242F82310704700BFE45A020028
:101480001F280CD8064B53F8200001234FF0A04230
:10149000834011B9C2F80C357047C2F8083570475F
:1014A000E45A02001F289FBF4FF0A043054AD3F81B
:1014B000103552F820009ABF23FA00F000F0010026
:1014C00000207047E45A02000C4B1B78062B10D109
:1014D0000B4B1B681A070CD10A4B186800F0F0037D
:1014E000302B08D000F0E000A0F1400358425841F2
:1014F0007047002070470120704700BFE00F00F0E8
:10150000E40F00F0E80F00F0094B1B78062B0CD11C
:10151000084B1B681A0708D1074B186800F0F00049
:10152000A0F130035842584170470020704700BF77
:10153000E00F00F0E40F00F0E80F00F008B5FFF74F
:10154000E3FF10B14B4B4C4A1A60FFF7BDFF28B1C7
:101550004A4B4B4A1B68C3F342331360FFF7D4FF77
:1015600020B1484AD36823F08073D360FFF7ACFF03
:1015700040B14FF080430022C3F80C21C3F8102182
:10158000C3F83825FFF7C0FF10B13F4B03221A60A4
:10159000FFF7BAFF40B13D4B05221A6001229A675E
:1015A00000229A603F225A60394B1B78062B09D1E2
:1015B000384B1B681B0705D1374B1B6803F0F00342
:1015C000502B0ED0354AD2F8883043F47003C2F85D
:1015D0008830BFF34F8FBFF36F8F314B314A1A60A2
:1015E00008BD4FF08052304BD2F80414C3F82015D8
:1015F000D2F80814C3F82415D2F80C14C3F828152F
:10160000D2F81014C3F82C15D2F81414C3F83015FE
:10161000D2F81814C3F83415D2F81C14C3F84015C6
:10162000D2F82014C3F84415D2F82414C3F848158E
:10163000D2F82814C3F84C15D2F82C14C3F850155E
:10164000D2F83014C3F85415D2F83414C3F8601526
:10165000D2F83814C3F86415D2F83C14C3F86815EE
:10166000D2F84014C3F86C15D2F84424C3F870259E
:10167000A8E700BF74C007400DF0ADBA44020010E7
:101680003C050040F0ED00E0A00500401056004091
:10169000E00F00F0E40F00F0E80F00F000ED00E0D4
:1016A000AC2000200090D00300C000402DE9F041A4
:1016B00006460D4601EB02080C464445A4EB05071F
:1016C00007D0336814F8011B1B6830469847002880
:1016D000F3D13846BDE8F08170B505460C460846A2
:1016E00049B101F0D3FF2B680246214628465B68CA
:1016F000BDE87040184770BD08B5FFF7EDFF08BDA5
:1017000008B5FFF7E9FF08BD03681B68184700002C
:1017100008B50249FFF7E0FF08BD00BFB05B02005B
:1017200038B50546FFF7D8FF04462846FFF7F0FF17
:10173000204438BDF0B58BB000238DF82430012A49
:1017400098BF0A220DF12305B1FBF2F402FB141637
:10175000F3B2092E94BF30333733DBB22F46214624
:1017600005F80139002CEFD13946FFF7B5FF0BB072
:10177000F0BD10B42AB903685DF8044B1B68C9B208
:101780001847D2B25DF8044BFFF7D4BFFFF7F1BFA3
:101790002DE9F04107460E4615462AB90368C9B23D
:1017A0001B68BDE8F04118470A2A02D1002901DA76
:1017B00004E0D2B2BDE8F041FFF7BCBF2D21FFF736
:1017C000A3FF2A46044671423846FFF7B3FF204480
:1017D000BDE8F081FFF7DCBF38B50546FFF7D8FF5D
:1017E00004462846FFF794FF204438BD2DE9F8430E
:1017F000804657EC106B0D46FFF7DAFC08B94249FA
:1018000010E047EC106BFFF7D3FC012801D13F49F2
:1018100008E04FF060423E4B3046394600F07AFF18
:1018200028B13C494046FFF757FFBDE8F8834FF029
:101830006042394B3046394600F04EFF0028F0D167
:10184000002200233046394600F046FF40B12D21EA
:101850004046FFF759FF07F1004304461F4600E0EA
:1018600004462E494FF0000900205FFA89F39D429B
:1018700006D900222A4B00F0E7FD09F10109F4E73F
:1018800032463B4600F004FB0F46064600F074FF6C
:101890000A22014681464046FFF74CFF04447DB3CF
:1018A000484600F031FC02460B463046394600F00F
:1018B000EDFA06460F4640461A49FFF70DFF04446D
:1018C000174B00223046394600F094FC0F4606467E
:1018D00000F02AFF0A22014681464046FFF758FFE2
:1018E0000444484600F020FC02460B463046394688
:1018F00000F0CCFA013D15F0FF0506460F46DFD19A
:101900002046BDE8F88300BFB35B0200B75B02006E
:10191000FFFFEF41BB5B0200FFFFEFC10000E03FB4
:1019200000002440BF5B0200C9B2FFF75FBF38B5BB
:10193000C9B20546FFF75AFF04462846FFF7E8FEFE
:10194000204438BD10B540220446002101F032F891
:10195000002323646364204610BD026C10B5531C41
:10196000446C03F03F039C421CBF8154036410BDD0
:101970000023036443647047436C026C93421FBFAF
:10198000C25C013303F03F03436414BF10464FF0C1
:10199000FF307047036C406C181A48BF40307047E6
:1019A000436C026C934214BFC05C4FF0FF30704731
:1019B000036C406C013303F03F031B1A584258413B
:1019C00070470120704703681322DB69184770478E
:1019D0000369C3F81C15D3F81C21002AFBD0002290
:1019E000C3F81C210120704790F85C305AB25209AC
:1019F00010B4012120320F4C03F01F0301FA03F34E
:101A000044F8223003695DF8044B0422C3F808232C
:101A100000225960D960C3F800254FF0FF32C3F8A7
:101A20000C251430C3F81425C3F80825C3F8102575
:101A3000FFF79EBF00E100E01430FFF7ABBF1430AA
:101A4000FFF7AEBF1430FFF797BF0000026990F8B0
:101A50005E3030B5C2F80C3590F85D30C2F8143500
:101A600090F86130012B01BF90F85F40C2F810453B
:101A700090F86040C2F8084518BF0023B1F5966F92
:101A8000C2F86C352ED9B1F5166F2ED9B1F5965F27
:101A90002ED9B1F5165F2DD9B1F5615F2CD9B1F50D
:101AA000964F2BD9B1F5E14F2AD9B1F5164F29D967
:101AB000B1F5614F29D9B1F5963F29D9B1F5E13F8B
:101AC00028D9B1F5613F28D9344B994228D9B1F5CD
:101AD000E12F28D9B1F5612F8CBF4FF080534FF023
:101AE000706322E04FF49E231FE04FF41D231CE09F
:101AF0002B4B1AE02B4B18E02B4B16E02B4B14E032
:101B00002B4B12E04FF41D030FE04FF46B030CE07E
:101B1000284B0AE04FF0EB7307E04FF06C7304E0E2
:101B20004FF0806301E04FF0E863C2F824350021F4
:101B30000423C2F80035C2F80811C2F81C110121B3
:101B400011609160C2F8043390F85C2053B2D2B2B5
:101B500002F01F055C09A9406034174D002B45F8C1
:101B6000241006DA154B02F00F02134460221A7695
:101B700006E003F1604303F56143602283F800232C
:101B800090F85C3001215AB203F01F0301FA03F30D
:101B90005209094941F8223030BD00BF90D00300FE
:101BA00000B013000050270000F03A0000A04E00E3
:101BB00000C0750000903A0100E100E0FCEC00E09C
:101BC0002DE9F0411E464FF47A73002583600E4BD9
:101BD0004560044640F8143B17468846FFF7B2FEBE
:101BE0000A4AC4F8108052F8263084F85D309DF817
:101BF000183084F85C7052F8233084F85E3084F832
:101C000061502046BDE8F081CC5B0200E45A02003E
:101C10000369D3F8082110B504464AB1D3F8181562
:101C20001430C9B2FFF799FE23690022C3F80821D6
:101C300010BD00000148FFF7EBBF00BFA02500204A
:101C400007B50D23009302220E2303490348FFF733
:101C5000B7FF03B05DF804FB00200040A025002082
:101C600010B50446006800F083FE204610BD10B594
:101C70000446006808B100F07BFE00232360A360E7
:101C8000636010BD38B504460D460068013101F0AF
:101C9000D3FC10B184E82100012038BD036810B5E1
:101CA000044613B143688B4207D22046FFF7EAFF90
:101CB00020B1A3680BB922681370012010BD70B564
:101CC0000E46114604461546FFF7E8FF18B92046B0
:101CD000FFF7CDFF04E0A5603146206801F0CEFC9F
:101CE000204670BD38B5002304460360436083601E
:101CF0000D4639B1084601F0C9FC29460246204686
:101D0000FFF7DDFF204638BD38B5054600680C46B4
:101D100060B16A688B689A4206D3096801F0AEFC2C
:101D2000A368AB6000230AE000F022FE23682B606A
:101D300063686B60A368AB60002323606360A3608B
:101D400038BD884210B5044601D0FFF7DDFF2046BC
:101D500010BD38B505460C4641B1084601F096FC69
:101D6000214602462846FFF7AAFF01E0FFF77FFF62
:101D7000284638BD1FB50446002323606360A36076
:101D8000084601A901F0F2FD01A92046FFF7E1FF95
:101D9000204604B010BD70B504460E4609B90020B7
:101DA00070BD6AB18368D5182946FFF777FF002810
