:020000021000EC
:10C0000000000120991E0200C11E0200C31E020092
:10C01000C51E0200C71E0200C91E0200000000006B
:10C02000000000000000000000000000CB1E020025
:10C03000CD1E020000000000CF1E0200D11E020033
:10C04000D31E0200D31E0200412A0200D31E0200AA
:10C05000F9FD0100D31E020015200200D31E0200CC
:10C06000D31E0200D31E0200D31E0200D31E020004
:10C07000D31E0200D31E0200D31E0200D31E0200F4
:10C08000D31E0200BD200200D31E0200D31E0200F8
:10C09000D31E0200D31E0200D31E0200D31E0200D4
:10C0A000D31E0200D31E0200D31E0200D31E0200C4
:10C0B000D31E0200D31E020000000000000000009A
:10C0C000D31E0200D31E0200D31E0200D31E0200A4
:10C0D000D31E0200D31E0200D31E02000000000087
:10C0E0000000000000000000000000000000000050
:10C0F0000000000000000000000000000000000040
:10C10000000000000000000000000000000000002F
:10C11000000000000000000000000000000000001F
:10C40000044B05481B1A062B02D9044B03B11847ED
:10C41000704700BF63210020602100200000000061
:10C4200005490648091A891001EBD171491002D05B
:10C43000034B03B1184770476021002060210020A2
:10C440000000000010B5064C237843B9FFF7D8FF71
:10C45000044B13B10448AFF300800123237010BDD7
:10C460006021002000000000746E020008B5084B37
:10C470001BB108490848AFF300800848036813B9A6
:10C48000BDE80840CCE7064B002BF9D09847F7E70A
:10C490000000000064210020746E02005C21002076
:10C4A00000000000154B002B08BF134B9D46A3F561
:10C4B000803A00218B460F461348144A121A07F09F
:10C4C00033F90F4B002B00D098470E4B002B00D0B8
:10C4D00098470020002104000D000D48002802D0DC
:10C4E0000C48AFF3008007F0CFF82000290006F0D9
:10C4F0004FFB07F0A3F800BF000008000000012078
:10C50000000000000000000060210020D82600206C
:10C51000000000000000000070B505460C468E18B3
:10C52000B44206D02178284601F040FC04F8010B03
:10C53000F6E770BD014A0260416070475C2500204B
:10C54000704770B5044615460E464068002105F058
:10C5500091FE04F108012068267265720222FFF73D
:10C56000DBFF60680121BDE8704005F083BE38B58F
:10C5700004460D464068002105F07CFE214665F02A
:10C580007F0501F8085F02222068FFF7C5FF606899
:10C59000012105F06FFE607A38BD10B50446012117
:10C5A000406805F045FE0121606805F063FE2068E3
:10C5B00001F0E6FB0F212046FFF7D9FF032819D130
:10C5C00041221A212046FFF7BCFF02221F212046EC
:10C5D000FFF7B7FFD8221C212046FFF7B2FF012248
:10C5E00027212046FFF7ADFF2046C1221B21FFF780
:10C5F000A8FF002010BD000070B54D00E91C0646E4
:10C60000FFF7B5FFA91C04463046FFF7B0FF40EA2C
:10C61000042000B206F042FC0022044B06F0A4FC09
:10C6200006F084FF00EE100A70BD00BF0000103F4E
:10C63000014B01221A607047A8240020F0B50B6856
:10C640000C4687B00846DB689847236806461B6996
:10C650002046984721490746684606F049FA35467C
:10C66000AB1BDBB29F424FF010020CD915F8011B37
:10C6700003A806F060FA03A9684606F084FA03A846
:10C6800006F0F4F9ECE700210098154E07F046FF9C
:10C69000144B30601A781D4642B11349134805F017
:10C6A00029FF0A223168114805F09CFF2B7863B1FD
:10C6B00023682046DB689847236805461B692046A7
:10C6C00098470146284602F039F8052005F0E8FCB5
:10C6D000684606F0CBF907B0F0BD00BFE964020080
:10C6E0008C20002095200020E461020064260020B8
:10C6F000052005F0D5BC052005F0D2BC10B5034BD4
:10C700000360044601F0FEFB204610BDFC660200FB
:10C7100010B50446FFF7F2FF204606F04DFA20461A
:10C7200010BD000010B5034B03600446FFF7E6FFA1
:10C73000204610BDBC61020010B50446FFF7F2FFB1
:10C74000204606F039FA204610BD000013B52949ED
:10C75000294801F06AFD2749274801F0F6FE2748DD
:10C7600001F04FFB0146244801F05CFD4FF6FF71DC
:10C77000214801F0EDFE21491F4801F0ACFE20499F
:10C780001D4801F0A8FE1F491B4801F0A4FE1E49E8
:10C79000194801F0A0FE1D4A1748002101F06FFD65
:10C7A0001B4A1548012101F06AFD1A4A1A48002166
:10C7B00001F007FC174A1948002101F002FC02A908
:10C7C000002401F8014D0122134801F0B0FB02A939
:10C7D000012201F8024D114801F0A9FB064801F0C1
:10C7E00072FD0F4B1B781BB10E490F4805F092FEEE
:10C7F00002B010BDF7610200A4220020C021002079
:10C800007C24002084220020CC210020F7C60100D7
:10C81000F1C601003DC601007824002080220020DE
:10C820009520002000620200642600200000000025
:10C83000F0B52DED028B002183B04D484D4CFFF734
:10C84000DBFEB2EE048A20EE080A0121484884ED9E
:10C85000000AFFF7D1FE20EE080A0221444884EDC9
:10C86000010AFFF7C9FE20EE088A206884ED028ADB
:10C8700006F026FBD4ED018A68EE087A0446E8EE5D
:10C88000A87A0D4617EE900A06F01AFB41EC100B41
:10C8900004F0E6FEB0EE401AF0EE601A45EC104BE4
:10C8A00004F0DCFE2EA3D3E9002351EC100B06F0BC
:10C8B0005BFB314D314CF1EE487AC5E9000117EED2
:10C8C000900A06F0FDFAF1EE687ACDE9000117EE64
:10C8D000900A06F0F5FA9DED001B41EC100B04F0F8
:10C8E000BDFE1FA3D3E9002351EC100B06F03CFB67
:10C8F000002206460F46224BD5E9000106F082F9D8
:10C900000022C5E900011F4B3046394606F09EFD66
:10C91000B8B115A3D3E900233046394606F072F9C1
:10C920000022194B06460F4606F0AEFD10B9C4E9C9
:10C9300000670EE00022144B3046394606F060F9DD
:10C9400005E00022114B3046394606F05BF9C4E998
:10C95000000103B0BDEC028BF0BD00BFAFF300805F
:10C9600046DF617EDCA54C400000000000207C40DA
:10C97000F02100209C210020A0240020B8210020CC
:10C9800000806640008056C000807640008056409F
:10C9900010B53B483B4C2DED028B03F094FC07EEA9
:10C9A000900AB8EE678A18EE100A06F089FA32A3E8
:10C9B000D3E9002306F04AFD10B984ED008A01E0B6
:10C9C000002323602E4803F035FA18B12E4B1B7854
:10C9D000002B41D12D4803F076FC07EE900AB8EE0B
:10C9E000678A18EE100A06F06BFA23A3D3E9002336
:10C9F00006F02CFD10B984ED018A01E0002363608C
:10CA0000224803F017FA10B11F4B1B784BBB20488C
:10CA100003F059FC07EE900AB8EE678A18EE100A88
:10CA200006F04EFA14A3D3E9002306F00FFD10B967
:10CA300084ED028A01E00023A360154803F0FAF9AF
:10CA4000A0B1114B1B788BB1BDEC028B1149124880
:10CA5000BDE8104005F04EBD10490F4805F04AFDF5
:10CA6000B8E70F490C4805F045FDD0E7BDEC028B57
:10CA700010BD00BFAFF300809A9999999999B93F79
:10CA800060220020A8210020952000207022002094
:10CA90008021002038620200642600201A62020011
:10CAA0002962020010B52DED028B9EB068467F49C9
:10CAB00001F0D8FB684601F0DBF9002800F0D680D1
:10CAC0009FED7B7A7B4A9FED7C6A08AB1EA9B0EE96
:10CAD000475AF2EE005AF2EC017AF4EEC77AF1EE20
:10CAE00010FA02D583ED007A08E0F4EEC67AF1EE92
:10CAF00010FAD4BFC3ED007A83ED006AD3ED007A5B
:10CB0000DFED6B6A77EEC57A67EEA57AE3EC017A22
:10CB10008B42E0D1694BD3ED007AF4EEE67AF1EE88
:10CB200010FA09D49FED647AF4EE477AF1EE10FA28
:10CB3000C8BFF0EE477A01E0F0EE667A9FED5C8ABE
:10CB40001C2037EEC88A05F0CFFA07EE900A9FED59
:10CB50005C7A5C4BF8EE676A1422C6EE877A002195
:10CB600003A89FED597A67EE877AFDEEE77A17EE14
:10CB7000904AC3ED007A06F0D7FD544BD3E900018B
:10CB800006F0B4FC524B8DF80C00D3E9000106F01E
:10CB9000ADFC504B8DF81440D3ED007A4E4C8DF81F
:10CBA0000D00FCEEE77A206817EE903ADDED087A8A
:10CBB0008DF80E30FCEEE77A17EE903ADDED097A4B
:10CBC0008DF80F30FCEEE77A17EE903ADDED0A7A39
:10CBD0008DF81030FCEEE77A17EE903ADDED0B7A27
:10CBE0008DF81130FCEEE77A17EE903AF2EE007A0B
:10CBF00068EE277A8DF81230FCEEE77A17EE903A5D
:10CC00008DF8133006F05CF90022344B05F0FAFF82
:10CC10000022334B06F0A8F906F068FC8DF81600E8
:10CC2000606806F04DF900222C4B05F0EBFF002266
:10CC30002B4B06F099F906F059FC8DF81700A06807
:10CC400006F03EF90022254B05F0DCFF0022244BC4
:10CC500006F08AF906F04AFC14228DF8180003A9A0
:10CC6000204801F064F9052005F01AFA1E4B1B78E4
:10CC7000C3B11E491E4805F03DFC05F0F9F91D4BF6
:10CC800007EE900AB8EE677AD3ED007A77EE677A0E
:10CC900017EE900A06F014F941EC100B022114482B
:10CCA00005F04BFD1EB0BDEC028B10BDA422002090
:10CCB00000008C42202400200000CA429021002065
:10CCC00000807F44902000200000C842B82100204E
:10CCD000A0240020A82100209C2100200000F03F7B
:10CCE00000005940C8210020942000204762020023
:10CCF00064260020942100202DE9F0411C2005F03D
:10CD0000F3F907EE900A9FEDE17AE14CE14EE24F34
:10CD1000E249E34DDFF80884F8EE676A2046C6EE84
:10CD2000877A9FEDE07A67EE877AFDEEE77AC7EDC6
:10CD3000007A05F0DFFB306806F0C2F841EC100B1A
:10CD40000221204605F0F6FC2946204605F0D2FBDC
:10CD5000D549204605F0CEFB706806F0B1F841ECED
:10CD6000100B0221204605F0E5FC2946204605F07F
:10CD7000C1FBCE49204605F0BDFBB06806F0A0F827
:10CD800041EC100B0221204605F0D4FC2946204638
:10CD900005F0B0FBC649204605F0ACFBF06806F094
:10CDA0008FF841EC100B0221204605F0C3FC294608
:10CDB000204605F09FFBBF49204605F09BFB3069EC
:10CDC00006F07EF841EC100B0221204605F0B2FC83
:10CDD0002946204605F08EFBB749204605F08AFB20
:10CDE000706906F06DF841EC100B0221204605F049
:10CDF000A1FC2946204605F07DFBB049204605F000
:10CE000079FBB06906F05CF841EC100B022120467A
:10CE100005F090FC2946204605F06CFBA849204609
:10CE200005F068FBF06906F04BF841EC100B0221AD
:10CE3000204605F07FFC2946204605F05BFBA14912
:10CE4000204605F057FB306A06F03AF841EC100B2B
:10CE50000221204605F06EFC2946204605F04AFBDB
:10CE60009949204605F046FB706A06F029F841EC26
:10CE7000100B0221204605F05DFC2946204605F0F6
:10CE800039FB9249204605F035FBB06A06F018F8E8
:10CE900041EC100B0221204605F04CFC29462046AF
:10CEA00005F028FB8A49204605F024FBF06A06F0CD
:10CEB00007F841EC100B0221204605F03BFC294607
:10CEC000204605F017FB8349204605F013FB306B25
:10CED00005F0F6FF41EC100B0221204605F02AFC7C
:10CEE0002946204605F006FB7B49204605F002FB5B
:10CEF000706B05F0E5FF41EC100B0221204605F0B8
:10CF000019FC2946204605F0F5FA7449204605F03B
:10CF1000F1FAB06B05F0D4FF41EC100B0221204672
:10CF200005F008FC2946204605F0E4FA6C49204645
:10CF300005F0E0FAF06B05F0C3FF41EC100B0221A5
:10CF4000204605F0F7FB2946204605F0D3FA65494F
:10CF5000204605F0CFFA306C05F0B2FF41EC100B23
:10CF60000221204605F0E6FB2946204605F0C2FADC
:10CF70005D49204605F0BEFA706C05F0A1FF41EC5A
:10CF8000100B0221204605F0D5FB2946204605F06E
:10CF9000B1FA5649204605F0ADFAB06C05F090FFA5
:10CFA00041EC100B0221204605F0C4FB2946204627
:10CFB00005F0A0FA4E49204605F09CFAF06C05F009
:10CFC0007FFF41EC100B0221204605F0B3FB294600
:10CFD000204605F08FFA4749204605F08BFA306D60
:10CFE00005F06EFF41EC100B0221204605F0A2FB7C
:10CFF0002946204605F07EFA3F49204605F07AFA98
:10D00000706D3E4E05F05CFF41EC100B0221204696
:10D0100005F090FB2946204605F06CFA3849394D59
:10D02000204605F067FA384B186805F049FF41ECD7
:10D03000100B0221204605F07DFB4146204605F0FD
:10D0400069FA3249204605F055FA314B022193ED39
:10D05000000B204605F06EFB2946204605F04AFAF3
:10D060002C49204605F046FA2B4B022193ED000B8C
:10D07000204605F05FFB2946204605F03BFA27498C
:10D08000204605F037FA30684CE000BF00807F444E
:10D0900064260020202400209020002063620200EB
:10D0A000A46B02000000C842686202006D620200C8
:10D0B00072620200776202007C62020081620200FA
:10D0C000866202008B620200906202009662020099
:10D0D0009C620200A2620200A8620200AE6202002C
:10D0E000B4620200BA620200C0620200C6620200BC
:10D0F000CC620200D2620200D86202009C210020B1
:10D10000DE620200E864020090210020E562020075
:10D11000A0240020ED620200B8210020F462020089
:10D12000E964020005F0CCFE41EC100B0221204620
:10D1300005F000FB2946204605F0DCF92F49204682
:10D1400005F0D8F9706805F0BBFE41EC100B022128
:10D15000204605F0EFFA2946204605F0CBF928498C
:10D16000204605F0C7F9B068264E05F0A9FE41EC4F
:10D17000100B0221204605F0DDFA4146204605F05D
:10D18000C9F92149204605F0B5F9306805F098FE47
:10D1900041EC100B0221204605F0CCFA294620462E
:10D1A00005F0A8F9706805F08BFE41EC100B022128
:10D1B000204605F0BFFA2946204605F09BF9B068E5
:10D1C00005F07EFE41EC100B0221204605F0B5FA79
:10D1D0000E49204605F08EF90D4B0A2219682046AB
:10D1E00005F000FA0B49204605F084F9396820461D
:10D1F0000A22BDE8F04105F0F5B900BFFB6202006C
:10D2000002630200A82100200963020019630200E2
:10D210008C2000201F63020008B5334803F0FEFE97
:10D22000002860D04FF47A70013800BF00BF00BF03
:10D2300000BF00BF00BF00BF00BF00BF00BF00BFF6
:10D2400000BF00BF00BF00BF00BF00BF00BF00BFE6
:10D2500000BF00BF00BF00BF00BF00BF00BF00BFD6
:10D2600000BF00BF00BF00BF00BF00BF00BF00BFC6
:10D2700000BF00BF00BF00BF00BF00BF00BF00BFB6
:10D2800000BF00BF00BF00BF00BF00BF00BF00BFA6
:10D2900000BF00BF00BF00BF00BF00BF00BFC3D1C1
:10D2A0001249134805F036F90F4804F005F9013822
:10D2B000052810D8DFE800F0070903050B0D0D491C
:10D2C0000AE00D4908E00D4906E00D4904E00D496A
:10D2D00002E00D4900E00D49054805F01BF903493E
:10D2E000034805F017F908BDAC2400206263020072
:10D2F00064260020BF630200C2630200C76302000D
:10D30000CC630200D2630200D7630200DB63020039
:10D310002B4B2C481A682C4B70B51A602B4D2C4C9B
:10D320002C4E02F081FD2C4802F07EFD2B4802F0CD
:10D330007BFD18212846FFF7FDF82846284D29498E
:10D34000224606F043F9284603F03BFB22462649D5
:10D350002846264D06F03AF9FF231A461946284674
:10D3600001F002F9224622492846224D06F02EF904
:10D370002149224801F0C2F902222149284601F040
:10D38000C5F928461F4D2246314606F01FF90822EE
:10D390001D49284601F0BAF928461C4D224631465F
:10D3A00006F014F912221A492846142300F0D4FD7D
:10D3B000224628461749BDE8704006F007B900BF6D
:10D3C00084200020602200207C210020F021002009
:10D3D0008020002025C7010070220020802100202D
:10D3E000AC24002041C50100E7090200A42200206E
:10D3F000DDE4010078240020E0630200C021002069
:10D40000E563020080220020EA630200C8210020B8
:10D41000EF63020005DF010038B5054671B301294D
:10D420002ED002292ED003292ED004292ED0052952
:10D430002ED006292ED007292ED008292ED0092932
:10D440002ED00A292ED00B292ED00C292ED00D2912
:10D450002ED00E292ED00F292ED010292ED01129F2
:10D460002ED012292ED013292ED014292ED01529D2
:10D470002ED0162914BF002444242AE00C4628E0AC
:10D480002A2426E02B2424E02C2422E02D2420E052
:10D490002E241EE03B241CE032241AE0332418E042
:10D4A000342416E0352414E0362412E0372410E04A
:10D4B00038240EE03A240CE03C240AE03D2408E045
:10D4C0003E2406E0402404E0412402E0422400E03F
:10D4D000432421466A4802F0D0FB2946684802F0FE
:10D4E000E9FA6420013800BF00BF00BF00BF00BFE1
:10D4F00000BF00BF00BF00BF00BF00BF00BF00BF34
:10D5000000BF00BF00BF00BF00BF00BF00BF00BF23
:10D5100000BF00BF00BF00BF00BF00BF00BF00BF13
:10D5200000BF00BF00BF00BF00BF00BF00BF00BF03
:10D5300000BF00BF00BF00BF00BF00BF00BF00BFF3
:10D5400000BF00BF00BF00BF00BF00BF00BF00BFE3
:10D5500000BF00BF00BF00BF00BFC3D100214848CB
:10D5600002F095FB03222146454802F083FB64202C
:10D57000013800BF00BF00BF00BF00BF00BF00BF39
:10D5800000BF00BF00BF00BF00BF00BF00BF00BFA3
:10D5900000BF00BF00BF00BF00BF00BF00BF00BF93
:10D5A00000BF00BF00BF00BF00BF00BF00BF00BF83
:10D5B00000BF00BF00BF00BF00BF00BF00BF00BF73
:10D5C00000BF00BF00BF00BF00BF00BF00BF00BF63
:10D5D00000BF00BF00BF00BF00BF00BF00BF00BF53
:10D5E00000BF00BF00BFC3D1254802F075FA044652
:10D5F000234802F071FA0546214802F06DFA6420D2
:10D60000013800BF00BF00BF00BF00BF00BF00BFA8
:10D6100000BF00BF00BF00BF00BF00BF00BF00BF12
:10D6200000BF00BF00BF00BF00BF00BF00BF00BF02
:10D6300000BF00BF00BF00BF00BF00BF00BF00BFF2
:10D6400000BF00BF00BF00BF00BF00BF00BF00BFE2
:10D6500000BF00BF00BF00BF00BF00BF00BF00BFD2
:10D6600000BF00BF00BF00BF00BF00BF00BF00BFC2
:10D6700000BF00BF00BFC3D144EA052080B238BD5F
:10D68000742500200000000008B5FFF7C5FE07EE76
:10D69000900AF8EE677A17EE900A05F011FC0AA3DB
:10D6A000D3E9002305F060FC05F040FF05F008FC1D
:10D6B00007A3D3E9002305F0A3FA05F037FF00EE36
:10D6C000100A08BDAFF300807B14AE47E17A943FA7
:10D6D000666666666612714008B501462720FFF748
:10D6E000D3FFF2EE027A20EE270AF1EE047A80EE02
:10D6F000277ADFED057A77EE277A17EE900A05F0A4
:10D70000DFFB41EC100B08BD0000004208B50146EC
:10D710002620FFF7B9FFF2EE027A20EE270AF1EE9B
:10D72000047A80EE277ADFED057A77EE277A17EE16
:10D73000900A05F0C5FB41EC100B08BD000000424B
:10D74000F8B5174E174F0024354601342046FFF731
:10D75000DDFF51EC100B05F0E9FE46F8040B204606
:10D76000FFF7BAFF51EC100B05F0E0FE162C47F85E
:10D77000040BEAD195ED017AD5ED007A0A4B77EEEC
:10D78000877A95ED027A77EE877A95ED037A77EED0
:10D79000877AB5EE007A67EE877AC3ED007AF8BD36
:10D7A000082200202024002090210020F8B5BB4B47
:10D7B0001A782DED028B1D464AB1B94B1B781BB16F
:10D7C000B849B94804F0A6FE0E2004F065FDB74B39
:10D7D000B74C93ED008AD4ED007A37EE888A04F0D6
:10D7E00047FC07EE900AF8EE677AB4EEE78AF1EEAE
:10D7F00010FA40F150812B78002B40F04C8104F05E
:10D8000037FCA74B07EE900A1A78F8EE677A1E46A7
:10D81000C4ED007ADAB1A749A34804F07BFEA6491B
:10D82000A14804F067FE94ED007ADFEDA47AC7EE1C
:10D83000276A16EE900A05F043FB41EC100B02211B
:10D84000994804F077FF9E49974804F063FE9D4D88
:10D850002B78BBB19C49944804F04CFE04F008FCC2
:10D8600007EE900AB8EE677AD4ED007A77EE677A21
:10D8700017EE900A05F024FB41EC100B02218A48B8
:10D8800004F05BFF914800F0C5FC2B78BBB19049D8
:10D89000854804F02FFE04F0EBFB07EE900AB8EE8B
:10D8A000677AD4ED007A77EE677A17EE900A05F082
:10D8B00007FB41EC100B02217B4804F03EFF0E20D9
:10D8C00004F0EAFC014600B101210F2004F0D2FC73
:10D8D0002B78BBB17F49744804F00CFE04F0C8FB00
:10D8E00007EE900AB8EE677AD4ED007A77EE677AA1
:10D8F00017EE900A05F0E4FA41EC100B02216A4899
:10D9000004F01BFF744A1368002B06DD013B136013
:10D91000724B1B782BB9012100E00021082004F094
:10D92000A9FCFEF785FF2B78BBB16D495E4804F07A
:10D93000E1FD04F09DFB07EE900AB8EE677AD4EDA6
:10D94000007A77EE677A17EE900A05F0B9FA41ECA3
:10D95000100B0221544804F0F0FEFFF719F82B7861
:10D96000BBB16049504804F0C5FD04F081FB07EEEF
:10D97000900AB8EE677AD4ED007A77EE677A17EE00
:10D98000900A05F09DFA41EC100B0221464804F084
:10D99000D4FEFFF7D5FE2B78BBB15349424804F0C3
:10D9A000A9FD04F065FB07EE900AB8EE677AD4EDA6
:10D9B000007A77EE677A17EE900A05F081FA41EC6B
:10D9C000100B0221384804F0B8FE484F3B68012B89
:10D9D00023D1474BDFED477A93ED007AB4EEE77A37
:10D9E000F1EE10FA19DD93ED017AB4EEE77AF1EE7B
:10D9F00010FA12DD93ED027AB4EEE77AF1EE10FA46
:10DA00000BDD1E2004F0D6FAFFF706FC00230322EC
:10DA100039493B601E2004F05DFAFFF743F82B788C
:10DA2000BBB13649204804F065FD04F021FB07EE48
:10DA3000900AB8EE677AD4ED007A77EE677A17EE3F
:10DA4000900A05F03DFA41EC100B0221164804F053
:10DA500074FE33780BB1FFF74FF92B78DBB128490F
:10DA6000114804F047FD04F003FB07EE900AB8EEFE
:10DA7000677AD4ED007A77EE677A17EE900A05F0B0
:10DA80001FFABDEC028B41EC100BBDE8F8400221FF
:10DA9000054804F052BEBDEC028BF8BD8820002082
:10DAA00095200020F4630200642600207C210020E1
:10DAB00094210020A46B0200FF63020000007A445E
:10DAC000066402009420002009640200A4220020C1
:10DAD0002D6402004364020098210020EC21002004
:10DAE0005D6402007D64020098640200A8240020A6
:10DAF000A82100200000484231C60100B1640200A4
:10DB0000D4640200F8B501211D2004F091FB01212D
:10DB1000102004F08DFB00211E2004F089FB02215F
:10DB20000E2004F085FB01210F2004F081FB012170
:10DB30000F2004F09FFB0121042004F079FB012158
:10DB4000042004F097FB0121082004F071FB002160
:10DB5000082004F08FFB4FF4E1314F4804F039FE08
:10DB60004E4B1B781BB14E494B4804F0C3FC32208E
:10DB700004F096FA4B484C4E4C4D4D4C01F0DEFFF4
:10DB8000322004F08DFAFEF7E1FD00211D2004F0A3
:10DB900071FB0021102004F06DFB642004F080FA7A
:10DBA00044493D4804F0B6FC0121304602F092FCA5
:10DBB0004521304602F09AF94FF4FA773E4936484B
:10DBC000778004F0A7FC01211D2004F053FB6420A2
:10DBD00004F066FA0121284602F07CFC4621284622
:10DBE00002F084F935492C486F8004F093FC012140
:10DBF000102004F03FFB642004F052FA012120467B
:10DC000002F068FC4721204602F070F9642067802A
:10DC100004F046FA4121304602F01AFB502004F08D
:10DC20003FFA4121284602F013FB502004F038FA55
:10DC30004121204602F00CFB1E200322204904F063
:10DC400049F9204803F0C0FA08B11F4900E01F4914
:10DC5000114804F069FC01211A4803F0CFFB08B118
:10DC60001B4900E01B490C4804F05EFC1A490A48B5
:10DC700004F040FC1948FEF790FC0A2201460648D1
:10DC800004F0B0FCC82004F00BFA4FF4FA70BDE8C1
:10DC9000F84004F005BA00BF64260020952000205B
:10DCA000E064020074250020602200207022002021
:10DCB00080210020EA640200FE6402001265020076
:10DCC00031C60100AC240020266502004865020030
:10DCD0007465020092650200C3650200F021002015
:10DCE00038B50025057329B90B4B0C4A0C48232184
:10DCF00005F072FC01600B4951F82220027151F8C5
:10DD0000233083719DF8103051F823304371022382
:10DD1000C371856038BD00BF19660200DC65020072
:10DD2000276602004C6A0200037B23B943738373A6
:10DD300003610123037370471FB50DF1100E0EE947
:10DD40000E009DF80810026800230129C2F8003572
:10DD5000039B08D004D3032907D143F0040304E054
:10DD600043F0020301E043F00603C2F85435019B7F
:10DD7000C2F824350123C2F8003505B05DF804FB74
:10DD800010B5FFF7D1FF03688279C3F808254279FF
:10DD9000C3F80C250279C3F81025034BBDE81040E9
:10DDA0000ECBFFF7C9BF00BF502500200368C3F8A2
:10DDB0001C15D3F80821002AFBD0D3F8180500223F
:10DDC000C3F80821C0B2704707B5094B09490A4892
:10DDD0004FF080421A6000229A6002221A711323C7
:10DDE000009314221223FFF77BFF03B05DF804FBBE
:10DDF00050250020003000405C250020016082801A
:10DE00007047006870478088704729DF704728DFB7
:10DE1000704703681868013018BF0120704708B5C3
:10DE20004FF080531A690368B3FBF2F31846FFF70B
:10DE3000EEFF1128FAD008BD38B504460D46194644
:10DE4000FFF7EDFF8B081A4629462068FFF7DDFF34
:10DE50001128F8D038BD10B502680846043A441AB3
:10DE6000A34204D952F8044F40F8044BF7E710BD21
:10DE700007B500230622694604300093ADF804304C
:10DE800005F038FC003018BF012003B05DF804FB3A
:10DE90000B6843608B8803817047002343600381D4
:10DEA000704708B50160FFF7F8FF08BD807A70473A
:10DEB000C0687047007C704700207047C368585C9A
:10DEC000704770B50D46114602680446D6691A4679
:10DED000B0470123A374A36923B121462846BDE8B6
:10DEE0007040184770BD70B5044608460D4606F0F0
:10DEF00087FA2368C2B229462046DB69BDE8704034
:10DF000018470000044B10B504460360C06808B110
:10DF100005F0E8FB204610BD6866020010B5044617
:10DF2000FFF7F0FF204604F047FE204610BD10B575
:10DF3000837A9A42044628BF1A460274C06805F0E4
:10DF4000E8FB606928B1036821461B68BDE8104002
:10DF50001847012010BD000070B504461D46164646
:10DF6000043042F6030200F08FF8142D4FF0000247
:10DF700028460A4B236028BF1420A072E260227456
:10DF80006674A274E2746261A261E261226215B1F8
:10DF900005F0A0FBE060204670BD00BF686602008F
:10DFA000407C7047C07C70470346002ADA7414BF77
:10DFB00007220822084653F822200AB119461047C2
:10DFC00070470B299CBF063140F821207047416102
:10DFD0007047704770477047002070477047704720
:10DFE00000207047002070470020704700207047D5
:10DFF00000207047002070470020704700207047C5
:10E0000000207047002070470020704700207047B4
:10E01000704770477047704710B5044604F0CCFD58
:10E02000204610BD054A0260642282800121002240
:10E03000C28002818172C2600261704798660200EC
:10E04000016170470120704710B5034B036004461F
:10E05000FFF758FF204610BDFC66020010B50446CD
:10E06000FFF7F2FF204604F0A7FD204610BD000098
:10E0700038B504461D46FFF76FFF024B2574236039
:10E08000204638BDFC66020010B50446FFF7B6FE18
:10E09000024A137801331370204610BD702500200A
:10E0A000014B1878704700BF70250020C0680368D6
:10E0B0001B6A1847A0F10400FFF7F8BFC0680368A7
:10E0C0005B6A1847A0F10400FFF7F8BFC068036857
:10E0D0009B6A1847A0F10400FFF7F8BFC068036807
:10E0E000DB6A1847A0F10400FFF7F8BFC0680368B7
:10E0F0001B6B1847A0F10800FFF7F8BFC068036862
:10E100005B6B1847A0F10800FFF7F8BFC068036811
:10E110009B6B1847A0F10800FFF7F8BFC06810B468
:10E120000468E46BA4465DF8044B6047A0F1080066
:10E13000FFF7F4BFC06803681B6C1847A0F1080024
:10E14000FFF7F8BFC06803685B6C1847A0F10800D0
:10E15000FFF7F8BFC06803689B6C1847A0F1080080
:10E16000FFF7F8BFC0680368DB6C1847A0F1080030
:10E17000FFF7F8BFD0F8743113B100F5B07018474D
:10E180007047D0F8783113B100F5B0701847704778
:10E1900030B414461A4623685D6A9DF8083000F5CD
:10E1A000B071AC46204630BC60477047704770B5D0
:10E1B000054600F5B07411462046FFF769FED5F814
:10E1C0006C311BB12046BDE87040184770BDD0F8D7
:10E1D000703110B500F5B0740BB120469847204659
:10E1E000BDE81040FFF759BE10B4144600F5B071F9
:10E1F0001A4620465DF8044BFFF7D6BE10B414460D
:10E2000000F5B0711A4620469DF804305DF8044BC5
:10E2100000F056BAC0680368DB681847C068036836
:10E220001B691847C0F88C107047C0F89C107047E5
:10E2300038B5D0F8A83004460D463BB900F01CFABA
:10E2400000B2800005F046FAC4F8A80094F8AC20AB
:10E25000D4F8A83043F8225094F8AC30013384F855
:10E26000AC3038BD38B505460C460846FFF7D2FF3E
:10E2700004F5B07107C985E80700284638BD0F29A5
:10E280009CBF00EB8100C0F86C21704710B50446BC
:10E29000FFF706FF00B2800005F01CFA04F1B0039E
:10E2A000036004F1BC03436004F1E003836004F500
:10E2B0008073C36004F586730361052384F8A4307A
:10E2C000C4F8A00010BD2DE9F043D0F89010ADB017
:10E2D000002304468DF83030E1B106A800F054FA6E
:10E2E00006A800F083FA022805468CBF15231423E4
:10E2F0008DF8500006A88DF8513000F075FA2A46C6
:10E300000146C5F11A050DF1520005F002FAEDB211
:10E31000012601E01C250E46D4F88C1031B306A866
:10E3200000F032FA06A800F061FA431CAB4207463F
:10E330001CDAC6EB46182CAB434402288CBF0622DD
:10E34000022203F8600C03F85F2C06A800F04CFAD8
:10E350002CAB984401463A46A8F15E00023D05F018
:10E36000D8F90136ED1BF6B205F0FF05D4F894108C
:10E37000C9B194F89820B2B1022D14D9531CAB4204
:10E38000C6EB46102CAB0344A4BF023DEAB2FF2506
:10E3900003F8602C03F85F5C2CAB18445E3805F082
:10E3A000B8F90136F6B2D4F89C50BDB1284606F053
:10E3B00027F8C0B21D288ABF1D238DF830008DF8C4
:10E3C00030309DF8302090428CBF082009208DF815
:10E3D000310029460DF1320005F09BF9D4F8A03048
:10E3E00013B92046FFF752FF002742F6030804F155
:10E3F000040994F8A4309F4205DB002742F6030885
:10E4000004F108091BE0D4F8A03053F8275028463F
:10E41000FFF7F9FC404506D10DB1281F00E0284662
:10E420004946FFF7D4FD0137E3E7D4F8A83053F8A5
:10E4300027502846FFF7E7FC404505D0013794F800
:10E44000AC309F42F1DB07E00DB1281F00E0284609
:10E45000494600F049F9F1E74BB104F596712046C1
:10E46000FFF7E6FE04F59C712046FFF7E1FEE06849
:10E4700094F8AC1002680491D4F8A810039194F8B1
:10E48000A41002919DF83030D4F8A01001910CA98D
:10E490000033009118BF01239568314614AAA8479C
:10E4A000E06803681B6D98472DB0BDE8F08338B570
:10E4B000D0F8A03004460D460BB9FFF7E7FE94F8FC
:10E4C000A420D4F8A03043F8225094F8A4300133AB
:10E4D00084F8A43038BDFFF7EABF0000154B10B533
:10E4E00003F1680203600446803342608360FFF7F3
:10E4F00095FED4F8A80008B105F0F4F8D4F8A0000F
:10E5000008B105F0EFF804F59A7000F0BBF804F5D7
:10E510008470FFF7F7FC04F1DC00FFF7F3FC04F173
:10E52000B800FFF7EFFC04F1100000F041FE2046B8
:10E5300010BD00BF5067020010B50446FFF7CEFFC4
:10E54000204604F039FB204610BDB830FFF7CBBCA5
:10E5500007B502AB022223F8021DDC301946FFF793
:10E56000E6FC03B05DF804FB2DE9F843354BDFF81A
:10E57000E890DFF8E88003F108020446026000F149
:10E58000100703F17002883300254260836038462B
:10E5900001F04AFA04F1B806C4F88C50C4F890505F
:10E5A000C4F8945084F89850C4F89C50C4F8A05013
:10E5B00084F8A450C4F8A85084F8AC50224904F15F
:10E5C000B00000F09BF81323022220493046FFF7E9
:10E5D000C3FC02231A461E4904F1DC00FFF7BCFC11
:10E5E000494604F5807000F089F804232022414652
:10E5F00004F58470FFF7B0FC494604F5967000F00E
:10E6000075F82022414604F59A7000F043F821463F
:10E6100004F5B070FFF745FC10222946E76004F5C9
:10E62000B67005F081F80B493046FFF75CFC2946CF
:10E630002046FFF78DFFE0682146FFF701FD2046E9
:10E64000BDE8F883486702002467020029670200DA
:10E650002E6702003D670200336702003867020040
:10E6600010B50446FFF7CAFB024A13780133137052
:10E67000204610BD71250020014B1878704700BF5F
:10E6800071250020704710B5044604F095FA204625
:10E6900010BD000038B504461546043042F60302AA
:10E6A000FFF7DEFF054B23600023A572E372A36230
:10E6B00084F822306362204638BD00BFF86702004C
:10E6C00070B50446C3720D460C3011461A4605F06B
:10E6D00020F8012384F82230A36A23B1214628467A
:10E6E000BDE87040184770BD4162704710B54FF4E7
:10E6F00020520446FFF7B4FF204610BD10B54FF47A
:10E7000020520446FFF7C0FC204610BD13B501237C
:10E710000446FFF7ADFC02A9064B2360002301F875
:10E72000013D01222046FFF702FC034B23602046F7
:10E7300002B010BD08680200BC610200F8B50546D1
:10E740000F460446631B9F4213DD237813F0F00F3E
:10E75000264603D109490A4803F0CCFE317808481F
:10E76000102203F00FFF07490548013403F0C2FEF1
:10E77000E8E70348BDE8F84003F0C4BEE3630200E5
:10E7800064260020A46B0200F7B504460023216034
:10E79000037508460E468DF804308DF805308DF867
:10E7A000063005F02DFE451E002D1ADB277D0F2FAC
:10E7B00017D8735D2D2B01D1013510E0721900219E
:10E7C00012F8012C8DF8042001A810228DF80530D4
:10E7D00005F02CFF27443871237D01332375023D5A
:10E7E000E2E7204603B0F0BD04307047007D70477B
:10E7F00071DF704772DF704773DF704775DF7047F6
:10E8000076DF704777DF704778DF70477ADF7047D1
:10E810007CDF70477EDF70477FDF704786DF7047A1
:10E8200090DF704792DF704796DF704798DF704740
:10E8300099DF7047A0DF7047A2DF7047A3DF704702
:10E84000A4DF7047A6DF7047A9DF704760DF70471D
:10E8500061DF704762DF704763DF704753DF7047E7
:10E8600010DF704711DF704790F86000003018BF6C
:10E870000120704770B590F871600023B34214DA3C
:10E880001A01456FAC18AA588A420CD1E38973B1BA
:10E89000227B02F0020202F0FF0342B190F87800FE
:10E8A00080F0010070BD0133E8E7002070BD18461C
:10E8B00070BD70B590F871600023B3421ADA1A0186
:10E8C000456FAC18AA588A4212D1E189A1B1227BC6
:10E8D00002F0020202F0FF0382B1012380F87830D7
:10E8E0000022808FFFF7A0FFB0FA80F0400970BDD2
:10E8F0000133E2E7002070BD084670BD184670BDC8
:10E9000070B590F871600023B3421CDA1A01456FAC
:10E91000AC18AA588A4214D1E389B3B1227B1307F9
:10E9200004D590F8780080F0010070BD02F0040278
:10E9300002F0FF034AB190F86000003018BF0120D8
:10E9400070BD0133E0E7002070BD184670BDF0B522
:10E9500090F871E085B0002474452FDA2501476FE7
:10E960007E197D598D4227D1F4894CB3357B15F042
:10E970000C0127D090F8601021B315F0080F14BFD8
:10E9800001250225ADF80A300139012380F8601015
:10E990008DF8045080F87830002501A9808F8DF81B
:10E9A0000550ADF80640ADF808500392FFF73EFF62
:10E9B000B0FA80F0400906E00134CDE7002002E023
:10E9C000204600E0084605B0F0BD70B590F87160D3
:10E9D0000023B34210DA1A01456FAC18AA588A42D4
:10E9E00008D1E08948B1237B13F0300F14BF012018
:10E9F000002070BD0133ECE7002070BD7FB590F8BA
:10EA000071600023B3422EDA1A01456FAC18AA5880
:10EA10008A4226D1E28942B3217B11F0300326D00D
:10EA2000012311F0100F14BF194602211A44ADF84A
:10EA30000210ADF80620002102228DF80510ADF875
:10EA40000810ADF80A2080F878306A4401A9808F58
:10EA50008DF804300392FFF7E9FEB0FA80F0400928
:10EA600006E00133CEE7002002E0104600E0184641
:10EA700004B070BD03681B6C18477FB590F87160D7
:10EA80000023B3422ADA1A01456FAC18AA588A4209
:10EA900022D1E28922B3237B13F030034FF000012F
:10EAA00020D001231A44ADF806200222ADF802104E
:10EAB0008DF80510ADF80810ADF80A2080F8783010
:10EAC0006A4401A9808F8DF804300392FFF7AEFEEF
:10EAD000B0FA80F0400906E00133D2E7002002E0FE
:10EAE000104600E0184604B070BD11F1270F08B5BC
:10EAF00014DB11F11D0F14DB11F1130F14DB11F1F5
:10EB00000F0F14DB11F10B0F14DBCA1D15DBCB1C2F
:10EB100016DB0029D4BF0020042013E06FF027008B
:10EB200010E06FF01D000DE06FF013000AE06FF0D1
:10EB30000F0007E06FF00B0004E06FF0070001E04A
:10EB40006FF00300FFF75EFEB0FA80F0400908BDE9
:10EB50001321808FFFF754BE07B501466846FFF7C3
:10EB600047FE086920B103680DF10102DB6998478F
:10EB700003B05DF804FB000013B5044602A80023AF
:10EB800040F8043DFFF76AFE019804F087F9084B4E
:10EB9000002204F0E9F904F0C9FC236933B11A68D2
:10EBA00000EE100A126A21461846904702B010BDC6
:10EBB0000000D03F704710B5044686B018220021EF
:10EBC000684604F0B1FDA37A33B994F83430002BD1
:10EBD00014BF0223032300E000238DF80030A38834
:10EBE00068460A221B0193FBF2F3ADF81030FFF7E1
:10EBF00003FE06B010BD2DE9F043054690F8610014
:10EC00008FB00C460023142683425DDA06FB03F224
:10EC1000696E8F188A58A24207D12046FFF7C0F9C3
:10EC2000C30751D57B6813B94EE00133ECE795F883
:10EC300033600DF11808324605F11401404604F026
:10EC400068FD236820461B69984704300644F6B2E5
:10EC50001F2E39D87868FFF7D4F801466846FFF7C9
:10EC600093FD236895F833701B69204698470EABD7
:10EC70001F44033007F8200C95F833703B441622EC
:10EC8000684603F81F2CFFF7AFFD0237038828F80A
:10EC90000730236895F83370DB682046984723686F
:10ECA00081461B6920469847043747440246494637
:10ECB000384604F02EFD00231A4631464046FFF741
:10ECC00099FDAC63012000E000200FB0BDE8F083A7
:10ECD0002DE9F047D4B04FF48E7304460DF10A01CC
:10ECE0000DA8ADF80A30FFF7B3FD0346002840F049
:10ECF0004482BDF83420302A00F03C8111D8112A1A
:10ED00005CD004D8012A21D0102A27D035E2142A59
:10ED100000F0C780192A00F0D080132A40F02D821D
:10ED20009BE0382A00F0DA8106D8322A00F06481AC
:10ED3000362A00F0BA8120E2502A00F0D180522A0F
:10ED400000F01281392A40F01882ECE194F860203A
:10ED50009DF83C30134484F860300EE2BDF8380072
:10ED6000A08705A9FFF776FD20699DF8143084F887
:10ED7000603028B103680DF13D021B6821469847B9
:10ED8000E288052A12D92389B3F5486F0ED8ADF869
:10ED900016300023ADF8183005A94FF4C873A08FC2
:10EDA000ADF81420ADF81A30FFF728FD94F868305C
:10EDB000002B00F0E2810022012109E14FF6FF72F1
:10EDC000A28784F8600005464FF01409804694F845
:10EDD00061309D4216DA676E09FB05F6BB19B8591A
:10EDE00083F8108083F81180FFF7DCF840B12069C8
:10EDF00030B10368BA59D3F814A021460023D04794
:10EE00000135E4E7206918B1036821465B6898473B
:10EE100000230C20194694F86820934202DB00235B
:10EE2000184605E0E26E00FB032201339160F2E731
:10EE300094F87120934208DA616F1A01114401338A
:10EE40000873616F0A44D081F2E7002384F87830B8
:10EE5000236820469B6998478FE1E068002800F00E
:10EE60008681FEF7D6FF002840F08181012303222E
:10EE70008DF80F3062F306138DF80C3007238DF8F0
:10EE80000D30102300218DF80E30E36D05938DF8C1
:10EE9000101009910A910B910691079105AB03AAF5
:10EEA00068E1E16DBDF84420488A904218BF1946D8
:10EEB000A08F1A46FFF7B2FC5FE19DF83C20002AC4
:10EEC00040F05B81E06820B11C2304F14001FEF7B3
:10EED000B3FF2069002800F0508103689B68E1E0DF
:10EEE000BDF83A8006464FF0140994F861309E420E
:10EEF00080F24381616E09FB06F3CF183A894245DF
:10EF00000CD12069002800F0388103689DF8442066
:10EF100000921D693A680DF1460323E1BA89424522
:10EF200020D19DF847009DF8462042EA002295B284
:10EF300002F001023A74C5F340027A7415F0030539
:10EF4000C85818BF0125FFF72DF8A8420AD020693C
:10EF5000002800F0128103683A685E6921462B465A
:10EF6000B0470AE10136C0E702460146A08FFFF72D
:10EF70006BFC02E1BDF83A2072BBBDF840500DA910
:10EF800013460C26AB421CDA94F868700020B84295
:10EF900014DAE26E91F810C006FB002292F806E047
:10EFA000F44509D1B1F80EC0B2F804E0F44503D13C
:10EFB000D1F81200906001E00130E8E70133083138
:10EFC000E0E70DAB03EBC5050022A989013189B249
:10EFD000A08FFFF725FCD0E094F868200C20934226
:10EFE00080F2CB80E16E00FB03110D8915B14D89D4
:10EFF000002D4BD10133F2E7BDF83A2094F8703080
:10F00000002A36D1E66E03EB430306EB83030A25A1
:10F010009B6805930DAB9A8905FB0235AB4223D063
:10F02000002194F87120914219DA626F94F870000F
:10F0300002EB011200EB400056F820705068874246
:10F040000BD11F7C907A874207D11089DF898742D4
:10F0500001BF987C1073D88AD0810131E1E7DA8A48
:10F06000ADF814200A33D9E705A9A08FFFF7DAFB22
:10F0700083E001330C2294F868005A4383420CDA8F
:10F08000E16E11440D892DB14D891DB184F87030A8
:10F090000831EAE701330C32F0E7206900286CD030
:10F0A0000368DB682146984767E0BDF83A1084F8AA
:10F0B000780040F20512914201D1E268CAB9BDF868
:10F0C000401094F871000023834256DA626F02EB1D
:10F0D0000312D5898D423BD00133F5E7BDF83A10D4
:10F0E00084F8780040F20512914246D1E268002A85
:10F0F00043D01A0E8DF8183042F00102DBB28DF8C1
:10F10000172043F00103032262F306138DF8143035
:10F1100007238DF8153005A91023A08F8DF8163020
:10F12000FFF778FB29E09DF84230BDF84050022BF4
:10F1300003D12946A08FFFF77BFB94F871100023C1
:10F140008B421ADA626F02EB0312D089A8420CD10B
:10F15000206990B19DF844100368009112689D6980
:10F160000DF146032146A84707E00133E8E70023F5
:10F170001A468521A08FFFF74FFB54B0BDE8F087FA
:10F1800010B50446FFF76EFB606F08B104F0AAFAF1
:10F19000E06E08B104F0A6FA606E08B104F0A2FABD
:10F1A000002384F8613084F8683084F8713010BD31
:10F1B00010B5054B03600446FFF7E2FF2046FEF75B
:10F1C0002AFF204610BD00BF3C68020010B504466F
:10F1D000FFF7EEFF204603F0EFFC204610BD07B519
:10F1E0001288ADF80020ADF802106A4601464FF6CD
:10F1F000FF700193FFF724FB03B05DF804FB0000F0
:10F200002DE9F04FEDB09A469DF8E8310193A24BFD
:10F21000769E9DF8E0810546186808900F4608A87C
:10F2200000211446FFF71CFB9C4B0993142200217C
:10F230000DA804F079FA0A2309A9ADF834300DA815
:10F2400001238DF840308DF83C30FFF7FFFA28227B
:10F25000ADF82C205022ADF82E204FF000094FF4CD
:10F26000C8720BA8ADF83220ADF83090FFF7CEFA97
:10F270004846FFF7C7FA6B7506230222AB750323D6
:10F280002A7585F833301FB314B31444B9451FDA17
:10F2900095F8330014F8023C2A1801331375023034
:10F2A00014F8013C5375C0B285F83300284414F8B3
:10F2B000022C2146143004F02CFA14F8023C95F884
:10F2C0003320134485F8333009F101091F34DDE799
:10F2D00024AFBAF1000F20D00EB34FF00009023670
:10F2E0004B46D1451CDA16F802BC16F8011C0BF18E
:10F2F0000102FA549C1CFA18E4B2517038195A46AB
:10F30000314604F006FA5C444FF00102E3B285F89E
:10F31000342009F101091F36E3E7534600E0334684
:10F320003A4695F8331005F11400FFF763FA002010
:10F33000FFF76AFA002442F6030644450DDA779B8C
:10F3400053F82400FEF75FFDB04202BF95F861302C
:10F35000013385F861300134EFE795F86100033837
:10F36000C0B285F8610000EB8000800004F0B2F9C3
:10F3700000266866ADF814600296B146464580F2F4
:10F38000BE81779B53F826402046FEF73AFD0146A2
:10F3900017A8FFF7F9F917A8FFF726FA074617A8E5
:10F3A000FFF724FA022809D17A783B7843EA02234E
:10F3B000ADF8283001238DF82A301CE03B460DF1D2
:10F3C000B00E07F1100C18685968724603C2083372
:10F3D00063459646F7D17A7B3B7B43EA0223ADF83F
:10F3E00028300DF12A0100232CA88DF8BD308DF8AE
:10F3F000BC30FFF731FA2046FEF705FDB0F5205F7F
:10F40000204611D1FEF7FDFC254904F0E7FF002856
:10F4100000F073812046FEF7F4FC224904F0DEFF81
:10F42000002800F06A8131E2FEF7EDFC42F60303AA
:10F43000984240F0358104B1043C271D3846FEF760
:10F44000E0FC194904F0CAFFB8B99DF8B0300122B8
:10F4500062F3030362F307138DF8B030236820468C
:10F46000DB689847236807461B692046984739465A
:10F4700082B22CA8FFF7CCF93FE13846FEF7C1FC79
:10F480000A4904F0ABFF98B923682046DB68984727
:10F490000088FFF7B9F930E13068020080200020D1
:10F4A0002467020033670200296702002E6702000A
:10F4B0003846FEF7A6FCC14904F090FF002800F092
:10F4C0001C812046FEF76CFD236882461B6920469E
:10F4D00098476A6EADF8160009EB89014FEA810B77
:10F4E00002EB0B0342F821400027029A5A601F7476
:10F4F0005F741C2239461DA804F016F92AF0010396
:10F500001AF0300F8DF8743010D00123194663F3D0
:10F5100007118DF81810194606AA63F3071163F353
:10F5200042078DF819108DF81A70229200231AF0F4
:10F53000320FADF81C308DF81E300BD09DF81C300A
:10F54000E968012262F3030301B1022262F30713A7
:10F550008DF81C301AF00C0F10D0EB6801222BB183
:10F560009DF81D3062F30303022203E09DF81D3075
:10F5700062F3030362F307138DF81D309DF81E300C
:10F58000012262F342038DF81E30236820469B69F6
:10F5900098479DF81E3080F0010060F300038DF85D
:10F5A0001E30771C47453CDA779B53F827A050461E
:10F5B000FEF729FCB0F5245F33D1BAF1000F01D07A
:10F5C000AAF1040A0AF1040318460393FEF719FC92
:10F5D0007B4904F003FF039BA0B9DAF800305046E2
:10F5E0009B6898471E90DAF800305046DB689847D1
:10F5F000DAF80030ADF87C00DB6850469847ADF88B
:10F600007E000CE01846FEF7FCFB6E4904F0E6FEB7
:10F6100028B9DAF8003050469B68984720900137A7
:10F62000C0E71422002112A804F07EF80DF1160A9A
:10F630000AAB129307AB1393BAF80030ADF8503011
:10F64000236820469B6898476B6EADF854000027EE
:10F650005B44083312AA1DA938461697FFF7ECF849
:10F66000BAF80030BBB12CABBAF800200393974234
:10F6700008DA22683946526920469047039BD855DC
:10F680000137F1E76B6E9B4452462CAB0021BBF86F
:10F690000800FFF7A4FD09F101095FFA89F92CE0E0
:10F6A0002046FEF7B0FBB0F5245F26D104B1043C40
:10F6B000271D3846FEF7A5FB414904F08FFEE0B157
:10F6C0003846FEF79EFB404904F088FEA8B1384654
:10F6D000FEF797FB3D4904F081FE70B13846FEF716
:10F6E00090FB384904F07AFE38B1D6E02CAB524694
:10F6F0000021BDF81400FFF772FD01363EE6019BC4
:10F7000023B3A3F102085FFA88F6002442F6030748
:10F71000B442B0461CDA799B53F824804046FEF789
:10F7200072FBB0F5205F05D195F86830013385F89C
:10F73000683009E04046FEF766FBB84202BF95F824
:10F740007130013385F871300134E1E7DDF8048070
:10F7500095F8680000EB4000800003F0BBFFE8660E
:10F7600095F87100000103F0B5FFDDF8E4916867DA
:10F77000002609EB88083746B246C14579D059F8CA
:10F78000044B2046FEF73DFB01462CA8FEF7FCFF8C
:10F790002CA8FFF729F883462CA8FFF727F80228A2
:10F7A00016D19BF801209BF8003043EA0223ADF804
:10F7B0005C3001238DF85E3029E000BF386702001D
:10F7C000986802009D680200A2680200A768020013
:10F7D0005B460DF1740E0BF1100C186859687246F7
:10F7E00003C2083363459646F7D19BF80D209BF87A
:10F7F0000C3043EA0223ADF85C300DF15E010023CA
:10F800001DA88DF881308DF88030FFF725F820464F
:10F81000FEF7F9FAB0F5205F10D1EA6E07EB470169
:10F820008B00D01842F82140179A4260EA6E1344C8
:10F83000013700229A60FFB2A2469EE72046FEF7FB
:10F84000E2FA42F60303984297D1696F3301CA186E
:10F8500004B1043CCC50C2F804A0179991606A6FBF
:10F860001A44002111736A6F13440136D981F6B22C
:10F8700083E7E86818B1FEF7CCFA002865D12B6859
:10F8800028469B6998476DB0BDE8F08F05AA0AA984
:10F890000120FEF7CFFF02942FE723682046DB68A4
:10F8A000984712AF14220021ADF81C001DA803F0E8
:10F8B0003BFF4FF0010A00233B806AF34203BB7019
:10F8C00023682046DB689847BDF81C10BB78EA68BF
:10F8D00080B2401A18BF012060F30003BB703B7870
:10F8E0002AB16AF30303022262F3071303E06AF307
:10F8F00003036AF307133B700AAB1E971D9323683B
:10F90000ADF87C10DB682046984700270DF11C0AF3
:10F91000ADF8800005AA1DA938462197FEF78EFF95
:10F92000BAF80030002B3FF4E8AE0DF1B00BBAF896
:10F9300000309F42BFF6DAAE236839461B69204685
:10F9400098470BF807000137F1E71C23002205F167
:10F950004001E868FEF77FFA91E700BF2DE9F04F1C
:10F9600087B004460D46002601274FF014090DF11B
:10F97000060894F861309E4252DA09FB06F3626E83
:10F9800002EB030AD358AB4248D1A36B9D4204D18A
:10F99000236829465B6A204698472B6828461B69DE
:10F9A00098472B68ADF80600DB68BAF808B028461F
:10F9B00098474246034600215846FFF710FC1022A4
:10F9C000002102A803F0B0FEBAF80830ADF8083004
:10F9D0009AF81030CDF8108073B194F8603053B1BC
:10F9E000013B84F8603002A90123A08F8DF80A3012
:10F9F000FEF728FF00E01F469AF8113073B194F823
:10FA0000603053B1013B84F8603002A90223A08F1B
:10FA10008DF80A30FEF716FF00E01F460136A8E712
:10FA2000384607B0BDE8F08F10B50446FEF7FAFA85
:10FA3000104B236000214FF6FF7304F1400084F85F
:10FA4000331084F83410A163A38784F8601084F81D
:10FA50006110616684F86810E16684F8701084F8BB
:10FA60007110616784F87810E0651C2203F05CFE79
:10FA7000204610BD3C6802002DE9F84380460D4643
:10FA8000174601EB02090C464C45A4EB050609D0CC
:10FA9000D8F8003014F8011B1B684046984700282E
:10FAA000F2D100E03E463046BDE8F8837047203092
:10FAB00002F076BE38B5437F0D462BB100F16804E5
:10FAC000204602F07BFE08B1002038BD20462946C2
:10FAD00002F049FE012038BD203002F053BE203034
:10FAE00002F064BE2DE9F0411E464FF47A73002502
:10FAF0008360104B4560044640F8203B174688461B
:10FB000002F026FE04F1680002F022FE0A4B9DF886
:10FB10001820C4F8108053F8222062769DF81C202B
:10FB2000676153F82230A376267665772046BDE8D4
:10FB3000F08100BFB46802004C6A0200837E4FF07F
:10FB4000A04203F5E07330B5012140F20C64C176A8
:10FB500042F82340437E03F5E07342F823400369F3
:10FB60004FF0CC72C3F824250622C3F80025827E0C
:10FB7000C3F80825427EC3F80C25027E53B2D2B2E8
:10FB800002F01F055C09A94060340F4D002B45F8B9
:10FB9000241006DA0D4B02F00F02134440221A76AD
:10FBA00006E003F1604303F56143402283F800233C
:10FBB000037E01215AB203F01F0301FA03F3520935
:10FBC000014941F8223030BD00E100E0FCEC00E0EA
:10FBD0002DE9F8430646894698461546B2B100F12C
:10FBE0002007384602F0CAFD34690122C4F888951E
:10FBF0002262C4F83475C4F838552260D4F84C3108
:10FC00003BB9D4F82431002BF8D002E01046BDE80F
:10FC1000F8830023C4F84C31D4F85C311BB9D4F814
:10FC20002431002BF8D00023C4F85C310122B8F154
:10FC3000000F02D1D4F8243143B16261D4F8043109
:10FC4000002BFBD00023C4F8043107E0E261D4F8B4
:10FC50004831002BFBD00023C4F84831D4F82431BC
:10FC600013B10023C4F82431D4F83C053066C0B287
:10FC7000BDE8F8830123FFF7ABBF10B5044680F859
:10FC8000B010683002F07AFD0123637710BD2DE9D2
:10FC9000F041002305694377012790F8B030C5F89B
:10FCA000883500F1680604462F623046C5F8446581
:10FCB000884602F075FD2369C5F848059F60D3F8B2
:10FCC00050211AB9D3F82421002AF8D00022C3F811
:10FCD0005021304602F064FD236930B1D3F8602131
:10FCE0001AB9D3F82421002AF8D00022C3F86021E1
:10FCF0000122B8F1000F02D1D3F8241141B15A61A9
:10FD0000D3F80421002AFBD00022C3F8042107E025
:10FD1000DA61D3F84821002AFBD00022C3F8482139
:10FD2000D3F8240170B10022C3F82421D3F8C4040D
:10FD3000C3F8C404022805D0042814BF04200320FB
:10FD4000BDE8F081BDE8F0810121FFF7A0BF436964
:10FD5000D3F8642170B5044682B10022012500F178
:10FD60002006C3F864210577304602F007FD636979
:10FD70004022C3F83465C3F838251D636369D3F89E
:10FD80006821D2B10025C3F8685104F16806012347
:10FD900063772577304602F0F1FCD4F8B43003B134
:10FDA0009847657765693046C5F8446502F0F8FC08
:10FDB0006369C5F8480501225A636369D3F80421D1
:10FDC0005AB10022C3F80421227F32B1D3F83C0596
:10FDD000D4F8B830206603B198476369D3F824217A
:10FDE00042B10022C3F82421D3F8D024C3F8D02490
:10FDF00001225A6170BD00000148FFF7A8BF00BF93
:10FE00007425002007B50C230B228DE80C004FF061
:10FE10004022042311460348FFF764FE03B05DF857
:10FE200004FB00BF7425002029224270002242807A
:10FE3000027170470346002200791A717047C3B2FD
:10FE4000000A03FA00F0013080B2704760B1013857
:10FE5000002330F0FF019AB203F1010301D0400802
:10FE6000F7E740EA022080B27047000010B5084B67
:10FE700059434FF47A7201F5FA714FF4FA64B1FB09
:10FE8000F2F3B1FBF4F100FB0310B0FBF2F010BD94
:10FE9000002F3A00084B4FF47A72594301F5FA717A
:10FEA0004FF4FA63B1FBF3F3B1FBF2F102FB003064
:10FEB000B0FBF1F0704700BF002F3A00F8B50A4CD4
:10FEC00005460F46417820461646FFF7D6FE3946CE
:10FED0002046FFF7EFFD31462046FFF7EBFD2046B9
:10FEE000FFF732FF2870F8BD7425002038B50546AD
:10FEF0000C4601F07F028A21FFF7E0FF6C7038BDED
:10FF0000F8B50C4C05460F46417820461646FFF7DB
:10FF1000B4FE39462046FFF7CDFD310A2046FFF7F3
:10FF2000C9FDF1B22046FFF7C5FD2046FFF70CFFE3
:10FF30002870F8BD7425002010B52DED028BB5EEAC
:10FF4000C00AF1EE10FA82B00446B0EE408A19D42D
:10FF500010EE100A02F0B4FF0EA3D3E9002303F061
:10FF600093FA78B99FED0A0A28EE008A2046FCEE43
:10FF7000C87A4421CDED017ABDF80420FFF7C0FF17
:10FF8000012000E0002002B0BDEC028B10BD00BFDC
:10FF900000000043A4703D0AD7FF7F40F8B5114C24
:10FFA00006460F46417820461546FFF766FE39465D
:10FFB0002046FFF77FFD290E2046FFF77BFDC5F3A6
:10FFC00007412046FFF776FDC5F307212046FFF7DE
:10FFD00071FDE9B22046FFF76DFD2046FFF7B4FE44
:10FFE0003070F8BD74250020F8B50F4606464178FC
:10FFF0000B4814461D46FFF740FE39460848FFF7F8
:020000022000DC
:1000000059FD2544AC4205D014F8011B0448FFF704
:1000100051FDF7E70248FFF797FE3070F8BD00BFCB
:100020007425002070B50C4C05460E4641782046DC
:10003000FFF723FE31462046FFF73CFD2046FFF741
:1000400083FE0122287069782046FFF713FE2046C0
:10005000FFF742FDC0B270BD7425002008B509B994
:10006000502102E0012906D17021FFF7DBFF0130AA
:100070004000C0B208BDFF2008BDF8B504460F46D9
:10008000164680210122FFF719FF0122FF21204699
:10009000FFF714FF002211462046FFF70FFF06224C
:1000A000FF212046FFF70AFF83212046FFF7BAFF12
:1000B00040F00402D2B283212046FFF7FFFE072260
:1000C000FF212046FFF7FAFE012281212046FFF79B
:1000D000F5FE012280212046FFF7F0FE6B229421DD
:1000E0002046FFF7EBFE002283212046FFF7E6FEC5
:1000F00001F0BEFFE08083212046FFF793FF054615
:1001000060B96388002BF6D001F0B2FFE38880B2BB
:10011000C01A63889842EEDD2846F8BD01222046C9
:100120008321FFF7CBFE92212046FFF77BFF00F0F3
:100130007F03C0F3C0103B70002230708121204645
:10014000FFF7BCFE06222046FF21FFF7B7FE832102
:100150002046FFF767FF832100F0FB022046FFF7F0
:10016000ADFE20460122FF21FFF7A8FE2046012216
:100170000021FFF7A3FE20460022FF21FFF79EFE8D
:10018000204600228021FFF799FE0120F8BD10B51E
:100190000C460121FFF746FFC0F300132370C0F3A4
:1001A000C003A370C0F380036370C0F38013C0F377
:1001B000C010E370207110BD38B541F0010200217C
:1001C0000446FFF77BFE01F053FFE0801321204639
:1001D000FFF728FF10F007050CD16388002BF5D03E
:1001E00001F046FFE38880B2C01A63889842EDDDD3
:1001F000284638BD204601220B21FFF75FFE002272
:1002000020461146FFF75AFE012038BD70B50F4C4D
:1002100005460E4641782046FFF72FFD3146204621
:10022000FFF748FC2046FFF78FFD6978287002220F
:100230002046FFF71FFD2046FFF74EFC05462046EF
:10024000FFF74AFC40EA052080B270BD742500200B
:1002500038B5012204460D468021FFF72FFE01220A
:10026000FF212046FFF72AFE002211462046FFF715
:1002700025FE227A91212046FFF720FE012200214F
:100280002046FFF71BFE0022FF212046FFF716FE47
:10029000002280212046FFF711FE6DB1F821204693
:1002A000FFF7B4FF00B145432A4604212046FFF77B
:1002B00075FE0422002101E0022229462046BDE805
:1002C0003840FFF7FBBD38B5044601F0D1FEE080B1
:1002D00013212046FFF7A6FE43070FD16388002BAA
:1002E000F6D001F0C5FEE38880B2C01A6388984258
:1002F000EEDD012323714FF6FF7038BD1E2120462D
:10030000FFF784FF012205460B212046FFF7D6FDAB
:10031000284638BD70B50E46002114460546FFF745
:100320009DFE462120802846FFF77CFE013080B2EA
:100330002178A080FFF79AFD5121E0602846FFF761
:1003400065FFFFF77CFD2178E080FFF78FFD7021CE
:1003500020612846FFF766FE01304000C0B2608091
:1003600071212846FFF752FFFFF769FDF3782081DE
:1003700013B1E388C01A2081A1782089FFF776FDA8
:10038000606170BDF0B544F61F63994289B00646BE
:100390000D4644D96946FFF7FAFE02AA694630467F
:1003A000FFF7B8FF9DF800301BB1059800F6363016
:1003B00001E040F6E8009DF802302BB1059B03F206
:1003C000B22300EB430006E09DF801301BB1059B12
:1003D00003F5257318449DF803701FB1069B03F5C0
:1003E000257318449DF80440BCB100F226208542D4
:1003F00015D39DF80A10281AFFF74CFD80B21FB1E3
:10040000BDF80E30184480B2FFF720FD712102467E
:100410003046FFF775FDF56002E0012400E000249E
:10042000204609B0F0BD10B588B004466946FFF714
:10043000AEFE02AA69462046FFF76CFF9DF8003029
:100440001BB1059800F6845001E040F636309DF867
:1004500002302BB1059B03F2B22300EB430006E010
:100460009DF801301BB1059B03F5257318449DF8D9
:1004700003301BB1069B03F5257318449DF8043027
:100480001BB1079B03F226231844E06008B010BD9F
:10049000F8B506460F4641780D481D461446FFF74D
:1004A000ECFB39460A48FFF705FB0948FFF74CFC0F
:1004B0002A46307071780648FFF7DCFB2544AC42D1
:1004C00005D00348FFF708FB04F8010BF7E7F8BD78
:1004D00074250020F0B5044685B049B18921FFF7A5
:1004E000A1FD40F00102D2B289212046FFF7E6FCCF
:1004F000002288212046FFF7E1FC012280212046CE
:10050000FFF7DCFC0122FF212046FFF7D7FC002289
:1005100011462046FFF7D2FC91212046FFF782FDCD
:100520000122207200212046FFF7C8FC0022FF2193
:100530002046FFF7C3FC002280212046FFF7BEFCC7
:1005400060212046FFF76EFD40F01202D2B260211A
:100550002046FFF7B3FCB5EE000A2046FFF7ECFC9F
:10056000FF2201212046FFF7A9FC0DF107020DF142
:1005700006012046FFF781FD08B900251EE206238B
:1005800002AAB0212046FFF783FF0122FF21204667
:10059000FFF794FC00224F212046FFF78FFC2C220E
:1005A0004E212046FFF78AFC0022FF212046FFF75C
:1005B00085FC2046B621B422FFF780FC9DF8073069
:1005C0009DF80660002B4FF0000514BF0C200020A2
:1005D00029460127EBB2DA0898420DF1100E03F01C
:1005E0000703724401D88E4208D112F808EC07FACA
:1005F00003F32EEA030302F8083C07E012F8082C84
:1006000042FA03F3DB0744BF0131C9B20135302D93
:10061000E0D1062302AAB0212046FFF7E5FC012223
:10062000FF212046FFF74AFC002211462046FFF733
:1006300045FC0022FF212046FFF740FC0022092153
:100640002046FFF73BFC002210212046FFF736FC36
:10065000002211212046FFF731FC012224212046EF
:10066000FFF72CFCFF2225212046FFF727FC002264
:1006700075212046FFF722FC0122FF212046FFF7CB
:100680001DFC2C224E212046FFF718FC0022482199
:100690002046FFF713FC202229462046FFF70EFCD8
:1006A0000022FF212046FFF709FC092229462046A7
:1006B000FFF704FC002254212046FFF7FFFB042231
:1006C00031212046FFF7FAFB032232212046FFF7B3
:1006D000F5FB832240212046FFF7F0FB252246212F
:1006E0002046FFF7EBFB002260212046FFF7E6FBE8
:1006F000002227212046FFF7E1FB06225021204659
:10070000FFF7DCFB002251212046FFF7D7FB9622A2
:1007100052212046FFF7D2FB082256212046FFF740
:10072000CDFB2A4657212046FFF7C8FB0022612156
:100730002046FFF7C3FB002262212046FFF7BEFBE5
:10074000002264212046FFF7B9FB002265212046E4
:10075000FFF7B4FBA02266212046FFF7AFFB012282
:10076000FF212046FFF7AAFB322222212046FFF775
:10077000A5FB142247212046FFF7A0FBFF224921B9
:100780002046FFF79BFB00224A212046FFF796FBFD
:100790000022FF212046FFF791FB0A227A21204602
:1007A000FFF78CFB00227B212046FFF787FB2122ED
:1007B00078212046FFF782FB0122FF212046FFF728
:1007C0007DFB342223212046FFF778FB00224221C3
:1007D0002046FFF773FBFF2244212046FFF76EFB04
:1007E000262245212046FFF769FB052246212046A7
:1007F000FFF764FB402211462046FFF75FFB06220D
:100800000E212046FFF75AFB1A2220212046FFF72F
:1008100055FB402243212046FFF750FB0022FF21D9
:100820002046FFF74BFB032234212046FFF746FB0F
:10083000442235212046FFF741FB0122FF212046BB
:10084000FFF73CFB042231212046FFF737FB09224A
:100850004B212046FFF732FB05224C212046FFF7B3
:100860002DFB04224D212046FFF728FB0022FF210B
:100870002046FFF723FB002244212046FFF71EFB02
:10088000202245212046FFF719FB08224721204658
:10089000FFF714FB282248212046FFF70FFB002218
:1008A00067212046FFF70AFB042270212046FFF74C
:1008B00005FB012271212046FFF700FBFE22722179
:1008C0002046FFF7FBFA002276212046FFF7F6FAD2
:1008D000002277212046FFF7F1FA0122FF2120466E
:1008E000FFF7ECFA01220D212046FFF7E7FA00227C
:1008F000FF212046FFF7E2FA012280212046FFF780
:10090000DDFAF82201212046FFF7D8FA0122FF2163
:100910002046FFF7D3FA01228E212046FFF7CEFAB8
:10092000012200212046FFF7C9FA0022FF212046BC
:10093000FFF7C4FA002280212046FFF7BFFA042205
:100940000A212046FFF7BAFA84212046FFF76AFB06
:10095000842100F0EF022046FFF7B0FA01220B21BC
:100960002046FFF7ABFA2046FFF75DFDE822E06086
:1009700001212046FFF7A2FAE1682046FFF702FDB9
:10098000012211462046FFF799FA40212046FFF741
:1009900013FC00283FF4F1AD022201212046FFF7AD
:1009A0008DFA00212046FFF707FC054600283FF49A
:1009B000E4ADE82201212046FFF780FA284605B081
:1009C000F0BD0022C0F88420C0F88820C0F88C2038
:1009D000C0F89020C0F89420C0F89820C0F89C205F
:1009E000C0F8A02070477047002380F8803080F85E
:1009F0008130C0F88430C0F88830C0F88C30C0F83E
:100A00009030C0F89430C0F89830C0F89C30C0F8EE
:100A1000A03070472DE9F04F90F88160042E85B02A
:100A2000044640F2CD81711ECBB21F2B63D8024623
:100A3000131BB34280F2C48112F8013B01930A2BCD
:100A4000F6D9D77F0A2FF3D992F83F300A2BEFD986
:100A500092F85F80B8F10A0FEAD902912644A549BD
:100A6000A548039301F042FDA449A34801F03EFDCF
:100A70000A2216F8011CA04801F084FDA0499E48F6
:100A800001F034FD0A22F17F9B4801F07BFD9D4976
:100A9000994801F02BFD0A2296F83F10964801F084
:100AA00071FD9949944801F021FD0A2296F85F10E2
:100AB000914801F069FD16F801BC039BBBF10A0FD8
:100AC0000DD996F81FA0BAF10A0F08D996F83F90F1
:100AD000B9F10A0F03D996F85F500A2D13D8029A7C
:100AE000013A0292013206F1FF36B8D10025A9463B
:100AF000AA46AB4607E00025A946AA46AB46A8464B
:100B00002B462F460195019A0198D11B642251432F
:100B1000074491FBF7F7C8EB030151439844CAEB34
:100B20000B0691FBF8F3744878490193C5EB09086B
:100B300002FB06F302FB08F20BEB0A0609EB0508C1
:100B400093FBF6F692FBF8F801F0D0FC6B496A488B
:100B500001F0CCFC0A225946674801F013FD6849B0
:100B6000654801F0C3FC0A225146634801F00AFDC2
:100B70006449614801F0BAFC0A2249465E4801F026
:100B800001FD61495C4801F0B1FC0A2229465A483E
:100B900001F0FAFC5E49584801F0A8FC5D4956484E
:100BA00001F0A4FC0A223946534801F019FD5A49C4
:100BB000514801F09BFC0A2231464F4801F010FDDC
:100BC00056494D4801F092FC0A2201994A4801F029
:100BD00007FD5349484801F089FC0A22414646482E
:100BE00001F000FD019B4F494348C3EB0805F71B8B
:100BF00001F080FC4C49404801F07CFC0A22394657
:100C00003D4801F0EDFC49493B4801F073FC0A22E4
:100C10002946394801F0E6FCD4F884304449364886
:100C20003B44C4F88430D4F888302B44C4F888306E
:100C300001F060FC3C49304801F05CFC0A22D4F829
:100C400084102D4801F0CCFC38492B4801F052FCAF
:100C50000A22D4F88810284801F0C4FCD4F8843063
:100C6000312B01DD012304E03133B4BF4FF0FF33FA
:100C70000023C4F88C30D4F88830312B01DD0123F7
:100C800004E03133B4BF4FF0FF330023D4F88C209D
:100C9000C4F8903007F11303002A4BD1D4F8902008
:100CA000002A47D1262B5FD805F11303262B5BD8EA
:100CB00037B92DB9D4F894300133C4F8943004E036
:100CC000D4F898300133C4F89830D4F89430092B14
:100CD0004ADDD4F89830012B46DD012027B9002DDC
:100CE0006FD1C4F89C006CE0002D6AD00223C4F8D8
:100CF0009C3066E0CC68020064260020DB680200BD
:100D0000DE680200E2680200E6680200EA680200AB
:100D1000F868020001690200096902001269020014
:100D20001B690200246902002D6902003269020079
:100D300038690200262B17D805F11303262B13D888
:100D40002FB925B9D4F894300133C4F89430D4F8CD
:100D50009430092B08DD0023C4F88C30C4F890309F
:100D6000C4F88430C4F888301749184801F0C2FB31
:100D70000A22D4F88C10154801F032FC14491348AB
:100D800001F0B8FB0A22D4F89010104801F028FCBA
:100D900010490E4801F0AEFB0A22D4F894100B481B
:100DA00001F01EFC0C49094801F0A4FBD4F898108E
:100DB00006480A2201F016FC0849044801F0AAFB83
:100DC000002005B0BDE8F08F4869020064260020CD
:100DD0005069020059690200646902006E690200EC
:100DE000D0F89C30012B03D10522C0F8A02064E08C
:100DF000022B01D1062316E0D0F88C30591C04D107
:100E0000D0F89030CBB903230DE0012B04D1D0F8FA
:100E1000903013BB042306E0002B50D1D0F8902073
:100E2000012A04D10223C0F8A0300120704701320A
:100E300043D10123C0F8A0303FE0012B1DD1D0F8F1
:100E4000843083EAE372A2EBE372D0F88830002B9F
:100E5000B8BF5B429A42D6DCE4E75A1C1DD1D0F8F9
:100E6000843083EAE372A2EBE372D0F88830002B7F
:100E7000B8BF5B429A42CDDCDBE701331FD1D0F82B
:100E8000843083EAE372A2EBE372D0F88830002B5F
:100E9000B8BF5B429A42B6DCCBE7012B0FD1D0F84A
:100EA000843083EAE372A2EBE372D0F88830002B3F
:100EB000B8BF5B429A42B5DDACE7184670470020E8
:100EC0007047000038B5084C0D4620463921FEF722
:100ED000D4FE29462046FEF7EDFD2046FEF734FFFE
:100EE000B0FA80F0400938BD7425002070B50B4C75
:100EF0000E46204639211546FEF7BFFE31462046F4
:100F0000FEF7D8FD29462046FEF7D4FD2046FEF721
:100F10001BFFB0FA80F0400970BD00BF74250020AF
:100F20000A46A021FFF7E2BF0A46A121FFF7DEBF74
:100F300038B5CAB20C4684210546FFF7D7FF30B159
:100F4000220A28468521BDE83840FFF7CFBF38BDCB
:100F500038B5CAB20C4686210546FFF7C7FF30B147
:100F6000220A28468721BDE83840FFF7BFBF38BDB9
:100F70000A468921FFF7BABF0A468B21FFF7B6BFA1
:100F800038B51546FFF79EFF044668B101223921A6
:100F90000648FEF76FFE0548FEF789FD20B10348BD
:100FA000FEF79AFD2870F6E7204638BD742500202C
:100FB00007B580210DF10702FFF7E2FF10B19DF8A0
:100FC000070000E0FF2003B05DF804FB70B50546A4
:100FD0000E461446FFF7ECFFFF2819D0062E04F04A
:100FE000010208D80123B3400AB1184301E020EA06
:100FF0000300C0B205E0072E03D1002A14BF7F20F2
:101000000020024680212846BDE87040FFF76EBFF1
:10101000002070BD01220021FFF7D8BF07B5AF2126
:101020000DF10702FFF7ACFF20B19DF8070000F0BB
:10103000010000E0012003B05DF804FB37B50D4668
:101040000DF107028F210446FFF79AFF60B19DF86A
:10105000072002F03F0242EA8512D2B28F212046D9
:101060008DF80720FFF742FF03B030BD37B50C46BF
:101070000DF107028F210546FFF782FF68B19DF849
:101080000720A40022F00C0204F00C0422438F215C
:1010900028468DF80720FFF729FF03B030BD37B58C
:1010A0000C460DF107028F210546FFF769FF60B17D
:1010B0009DF8072004F0030422F0030222438F214D
:1010C00028468DF80720FFF711FF03B030BD37B574
:1010D0000C460DF1070290210546FFF751FF68B15C
:1010E0009DF80720240122F0300204F0300422434E
:1010F000902128468DF80720FFF7F8FE03B030BD99
:1011000037B50C460DF10702A3210546FFF738FF5E
:1011100068B19DF80720640122F0600204F06004C9
:101120002243A32128468DF80720FFF7DFFE03B0F6
:1011300030BD37B50C460DF10702A3210546FFF778
:101140001FFF68B19DF80720E40022F0180204F0A8
:1011500018042243A32128468DF80720FFF7C6FE76
:1011600003B030BD37B50C460DF10702A32105468B
:10117000FFF706FF60B19DF8072004F0070422F096
:1011800007022243A32128468DF80720FFF7AEFE71
:1011900003B030BD37B50C460DF10702AB21054653
:1011A000FFF7EEFE68B19DF80720640022F002020E
:1011B00004F002042243AB2128468DF80720FFF7F4
:1011C00095FE03B030BD000013B504467A497B4854
:1011D00001F0A0F90DF1070292212046FFF7D0FEA1
:1011E00008B90024E5E09DF80730AB2B01D09C2B1B
:1011F000F7D17349714801F08DF90022072120468B
:10120000FFF7E4FE0028ECD0DB2281212046FFF727
:101210006DFE0028E5D0F62283212046FFF766FE0A
:101220000028DED087228E212046FFF75FFE0028AF
:10123000D7D000229D212046FFF758FE0028D0D0AD
:1012400000229E212046FFF751FE0028C9D06022CF
:101250008D212046FFF74AFE0028C2D000212046FB
:10126000FFF7ECFE0028BCD002212046FFF7FEFE6F
:101270000028B6D001212046FFF711FF0028B0D08A
:1012800000212046FFF774FE0028AAD03221204614
:10129000FFF772FE0028A4D04FF6FF712046FFF73B
:1012A00047FE00289DD000212046FFF751FE002870
:1012B00097D011228C212046FFF718FE002890D0ED
:1012C000012290212046FFF711FE002889D000223C
:1012D0009F212046FFF70AFE002882D0394937486F
:1012E00001F018F928212046FFF71AFE00283FF4E4
:1012F00078AF1E212046FFF717FE00283FF471AF9C
:101300004022A2212046FFF7F1FD00283FF469AFFB
:1013100001212046FFF7F4FE00283FF462AF0021D0
:101320002046FFF706FF00283FF45BAF012120466F
:10133000FFF718FF00283FF454AF0022A4212046F5
:10134000FFF7D4FD00283FF44CAF0022A521204632
:10135000FFF7CCFD00283FF444AF0022A721204630
:10136000FFF7C4FD00283FF43CAF0022A92120462E
:10137000FFF7BCFD00283FF434AFC922A621204668
:10138000FFF7B4FD00283FF42CAF0022AA2120462D
:10139000FFF7ACFD00283FF424AF20460021FFF703
:1013A000F9FE044600283FF41CAF0749034801F04A
:1013B000B1F8204602B010BD796902006426002011
:1013C00089690200A2690200DB69020037B50C4698
:1013D0000DF10702AB210546FFF7D2FD60B19DF884
:1013E000072004F0010422F001022243AB21284629
:1013F0008DF80720FFF77AFD03B030BD38B50D46F4
:101400000446FFF7F1FAFF228321FFF76FFD78B35F
:1014100089228E212046FFF769FD48B3002120462E
:10142000FFF755FE20B355B101212046FFF7B2FE6C
:10143000F0B101212046FFF7C9FFC8B101E02946FC
:10144000F3E72046FFF7E6FD90B101220321204695
:10145000FFF7BCFD60B1012202212046FFF7B6FD77
:1014600030B1204601220621BDE83840FFF7AEBD6D
:10147000002038BDF8B517461E46FFF723FD10B90A
:101480004FF0FF30F8BD324639210A48FEF7F2FB33
:1014900000250848FEF70BFBECB240B1A64205F16F
:1014A0000105EDD90348FEF717FB3855F1E7204653
:1014B000F8BD00BF74250020F0B5A3B0002304469A
:1014C0008DF80630FFF7AAFD28B12046FFF770FD22
:1014D00010F0410F01D10020B0E05949594801F006
:1014E00019F81E2000F0DCFD0DF10702AF212046A7
:1014F000FFF746FD08B9FF20A0E09DF80730DB07A5
:1015000040F186800DF10602AE212046FFF738FD3E
:101510000028F0D04C494B4800F0ECFF0A229DF81F
:101520000610484801F030F89DF806300F2B84BFB4
:101530000F238DF806309DF80630002BD1D002AF76
:101540009B003A46FC212046FFF794FF3F49C5B275
:101550003C4800F0CFFF0026AE420ADAB95D3948B8
:101560000A2201F00FF83A49364800F0C3FF01366D
:10157000F2E7344800F0C6FF032DB2D9EA1C22F08E
:10158000030205320DF109033A44043393421AD0A1
:1015900094F8801013F8050C6054601813F8045C7C
:1015A00080F8205013F8035C80F8405013F8025C78
:1015B00080F86050013184F8801094F88110013176
:1015C00084F88110E1E723491E4800F093FF254687
:1015D00094F881202B1B93420ADA15F8011B194855
:1015E0000A2200F0CFFF1A49164800F083FFEFE708
:1015F000144800F087FF2046FFF70CFA10B1204690
:10160000FFF7EEFB002384F8803084F8813068E730
:101610001E2000F045FD2046FFF7E2FB0E49094879
:10162000D4F8A05000F066FF0A22D4F8A0100548B4
:1016300000F0D8FF2046FFF7D7F9284623B0F0BDC9
:101640002F6A020064260020066A0200136A020064
:10165000A46B02001F6A0200296A020000F060B851
:10166000D0B52DED048BB0EE409AF0EE609A294C87
:101670008AB000F04BF994F90030B0EE408AF0EEF9
:10168000608A01330FD0B0EE490AF0EE690A00F02B
:10169000D3FB40B10026002751EC190B32463B46E4
:1016A00001F0D4FE38B9B0EE480AF0EE680A0AB08C
:1016B000BDEC048BD0BD184B24780193012200238C
:1016C0008DED049B8DED029B009208936CB9CDE9E2
:1016D0000667684600F0DEFB88B1089BA3B99DED64
:1016E000060B0AB0BDEC048BD0BD32463B463046FB
:1016F000394601F063FD022CCDE90601E9D101F084
:1017000097FF21230360E8E701F092FF089B036045
:10171000E5E700BF96200020CC6A02000000000030
:1017200051EC110B43422DE9F047034321F00048EF
:10173000754F48EAD373BB4255EC104B49D863420E
:10174000234325F0004A4AEAD373BB42A94640D856
:1017500001F1404303F5801303438E4650D08E17AA
:1017600006F0020654EA0A0346EAD57639D050EA72
:1017700008033ED0B84555D0BA453AD0C8EB0A0860
:101780004FEA2858B8F13C0F40DC002970DB0246D4
:101790000B462046294601F011FD41EC100B00F0EC
:1017A00043FB00F085F951EC100B012E5AD0022EAC
:1017B00048D0002E42D03EA3D3E9002301F020FA06
:1017C0003DA3D3E9002301F01BFA41EC100BBDE867
:1017D000F08722462B4601F015FA41EC100BBDE8CC
:1017E000F087022E16D0032E0ED19FED350BBDE8EB
:1017F000F087B9F1000F11DB9FED330BBDE8F087E7
:10180000BDE8F04700F054B9BDE8F0872EA1D1E95A
:101810000001CAE79FED280BBDE8F0879FED2C0B78
:10182000BDE8F087C24529D0022EF3D0032EDCD0CC
:10183000012E2DD09FED280BBDE8F08741EC100B59
:10184000BDE8F0871AA3D3E9002301F0D9F90246D5
:101850000B4619A1D1E9000101F0D2F941EC100BBE
:10186000BDE8F08701F1004141EC100BBDE8F087C5
:1018700018F13C0F8BDA0020002196E7022E13D0DE
:10188000032E0DD0012E07D09FED150BBDE8F0877C
:101890009FED150BBDE8F0879FED150BBDE8F087B8
:1018A0009FED150BBDE8F0879FED150BBDE8F087A8
:1018B000075C143326A6A13C182D4454FB21094093
:1018C000182D4454FB2109C0182D4454FB21F93F25
:1018D000182D4454FB21F9BF000000000000000057
:1018E000182D4454FB21E93F000000000000008057
:1018F000182D4454FB21E9BFD221337F7CD902C08B
:10190000D221337F7CD902400000F07F2DE9F041E5
:10191000654955EC104B0E462940B14200F09780C6
:10192000002D2B4610EE102A74DD2F157FD0A7F264
:10193000FF37C3F31303F90743F4801365D403EBB4
:10194000D27100260B447F105200B64616204FF489
:1019500000110EEB01049C424FEAD2754FEA42029D
:1019600003DC1B1B04EB010E0E44013805EB4303A3
:101970004FEA5101EDD1844620244FF0004109E0A7
:1019800020D003EBD275013C4FEA51012B444FEAC2
:10199000420220D09E4501EB0C05F1DA002D05EB4B
:1019A000010C09DBF0469542CEEB030300D9013B65
:1019B000521B0844C646E4E7BCF1000FF2DB0EF10F
:1019C0000108F0E795421ED8002D05EB010C50DB15
:1019D00098460023ECE7134304D0421C4DD000F09E
:1019E0000103184440087110F30701F17F5101F51C
:1019F000001148BF40F0004001EB0753024643ECA2
:101A0000102BBDE8F0817346BBE75B0003EBD2739C
:101A1000520094E725F00041214328D0ADBB2F466A
:101A2000D30A153F5205002BFAD0DD0228D400213D
:101A300000E001465B00DC0201F10100F9D5C0F1D4
:101A4000200422FA04F423437F1A82406FE710EE49
:101A5000102A2B4610EE100A294601F085FA22467C
:101A60002B4601F0CFF841EC100BBDE8F081BDE84A
:101A7000F081BCF1000FABDBA1E701362046B2E7F5
:101A800020244FF0FF310020DBE710EE102A2B4618
:101A90002046294601F0B4F802460B4601F08EFBC1
:101AA00041EC100BBDE8F0810000F07F0000000069
:101AB0002DE9F84F55EC104BD14B25F000469E42D6
:101AC000AB4610DDCF4B9E4200F3B28000F0AD80FC
:101AD000BBF1000F40F3FD80ADA5D5E9004545EC15
:101AE000104BBDE8F88FC84B9E4200F3C080A3F1B5
:101AF000DE739E4240F3A8804FF0FF3A22462B4609
:101B00002046294601F030FA02460B4680468946B7
:101B100001F02AFAA0A3D3E9002306460F4601F0FC
:101B200023FA9FA3D3E9002301F06CF832463B4629
:101B300001F01AFA9CA3D3E9002301F063F83246BE
:101B40003B4601F011FA9AA3D3E9002301F05AF8B9
:101B500032463B4601F008FA97A3D3E9002301F08F
:101B600051F832463B4601F0FFF995A3D3E9002333
:101B700001F048F842464B4601F0F6F992A3D3E94A
:101B80000023804689463046394601F0EDF990A39E
:101B9000D3E9002301F034F832463B4601F0E4F982
:101BA0008DA3D3E9002301F02BF832463B4601F028
:101BB000DBF98BA3D3E9002301F022F832463B4640
:101BC00001F0D2F988A3D3E9002301F019F83246D5
:101BD0003B4601F0C9F9BAF1FF3F02460B467CD003
:101BE0004046494601F00EF822462B4601F0BCF96A
:101BF000864E874B4FEACA0A56449A44DAE90023D4
:101C000000F0FEFF22462B4600F0FAFF02460B468C
:101C1000D6E9000100F0F4FFBBF1000F52DB0446EF
:101C20000D4645EC104BBDE8F88F002C3FF450AF4B
:101C300022462B462046294600F0E4FF04460D4686
:101C400045EC104BBDE8F88F69A3D3E9002310EEF3
:101C5000100A294600F0D6FF00226E4B01F014FC5A
:101C600000283FF449AF45EC104BBDE8F88F00F079
:101C7000DBF8694B9E4255EC104B3FDCA3F550233B
:101C80009E4268DC10EE102A10EE100A2B46294600
:101C900000F0B8FF00225F4B00F0B2FF00220646C2
:101CA0000F464FF080432046294600F0ABFF024626
:101CB0000B463046394601F081FA4FF0000A0446DF
:101CC0000D461BE7044601F1004545EC104BBDE80D
:101CD000F88F49A5D5E90045B2E74046494600F0EE
:101CE00091FF22462B4601F03FF902460B46204663
:101CF000294600F085FF04460D46A1E7474B9E426A
:101D00001DDC10EE100A0022454B294600F078FF3A
:101D1000002206460F46424B2046294601F024F990
:101D200000223C4B00F06EFF02460B46304639461F
:101D300001F044FA4FF0020A04460D46DEE62B4657
:101D400010EE102A0020374901F038FA4FF0030A4C
:101D500004460D46D2E610EE100A00222D4B29460D
:101D600000F04EFF002206460F462A4B2046294629
:101D700000F048FF02460B463046394601F01EFA95
:101D80004FF0010A04460D46B8E600BFAFF30080ED
:101D9000182D4454FB21F93F11DA22E33AAD903F6C
:101DA000EB0D76244B7BA93F513DD0A0660DB13F92
