:020000021000EC
:10C000000000012051280200792802007B2802004C
:10C010007D2802007F280200812802000000000025
:10C020000000000000000000000000008328020063
:10C0300085280200000000008728020089280200ED
:10C040008B2802008B2802003D3102008B28020061
:10C0500051F501008B2802008B2802008B2802007A
:10C060008B2802008B2802008B2802008B280200FC
:10C070008B2802008B2802008B2802008B280200EC
:10C080008B280200092902008B2802008B2802005D
:10C090008B2802008B2802008B2802008B280200CC
:10C0A0008B2802008B2802008B2802008B280200BC
:10C0B0008B2802008B280200000000000000000016
:10C0C0008B2802008B2802008B2802008B2802009C
:10C0D0008B2802008B2802008B2802000000000041
:10C0E0000000000000000000000000000000000050
:10C0F0000000000000000000000000000000000040
:10C10000000000000000000000000000000000002F
:10C11000000000000000000000000000000000001F
:10C40000044B05481B1A062B02D9044B03B11847ED
:10C41000704700BF132400201024002000000000FB
:10C4200005490648091A891001EBD171491002D05B
:10C43000034B03B11847704710240020102400203C
:10C440000000000010B5064C237843B9FFF7D8FF71
:10C45000044B13B10448AFF300800123237010BDD7
:10C4600010240020000000003C79020008B5084BB1
:10C470001BB108490848AFF300800848036813B9A6
:10C48000BDE80840CCE7064B002BF9D09847F7E70A
:10C4900000000000142400203C7902000C2400203D
:10C4A00000000000154B002B08BF134B9D46A3F561
:10C4B000803A00218B460F461348144A121A07F09F
:10C4C00029FD0F4B002B00D098470E4B002B00D0BE
:10C4D00098470020002104000D000D48002802D0DC
:10C4E0000C48AFF3008007F0ABFC2000290006F0F9
:10C4F0002BFF07F07FFC00BF0000080000000120B8
:10C500000000000000000000102400201032002075
:10C510000000000000000000F0B5274B1B7887B03A
:10C520000C461BB12549264806F050FB23682046DF
:10C53000DB689847236806461B69204698472149CF
:10C540000746684606F052FE3546AB1BDBB29F42FB
:10C550004FF010020CD915F8011B03A806F0A0FE3D
:10C5600003A9684606F0C4FE03A806F0FDFDECE74B
:10C5700000210098144D08F0DBFB14492860104896
:10C5800006F02DFB0A2229680D4806F0A9FB236856
:10C590002046DB689847236805461B692046984774
:10C5A0000146284601F082FC0A2006F09FF9684601
:10C5B00006F0DAFD07B0F0BD90200020F46902001B
:10C5C0009C310020F26B0200CC260020216A020080
:10C5D0000C4B012210B51A600B4B00221A600B4B5A
:10C5E0001B78044663B10A490A4806F0EFFA204670
:10C5F00000F0BAFFBDE810400146064806F008BB4F
:10C6000010BD00BFCC260020C826002090200020AE
:10C610002F6A02009C3100200B4A002310B51360E2
:10C620000A4A13600A4B1B78044663B109490A4859
:10C6300006F0CCFA204600F097FFBDE81040014616
:10C64000054806F0E5BA10BDCC260020C82600201B
:10C65000902000204A6A02009C31002010B5034B54
:10C660000360044600F0C4FF204610BDA46D020024
:10C6700010B50446FFF7F2FF204606F079FE20468B
:10C6800010BD000010B5034B03600446FFF7E6FF42
:10C69000204610BDCC69020010B50446FFF7F2FF3A
:10C6A000204606F065FE204610BD00002D4B1A689E
:10C6B0004FF47A7393FBF2F307EE903A2A4BF8EEBD
:10C6C000E77A70B5294DC3ED007A294C294EFF2336
:10C6D0001A461946284601F0BDFA22462649284640
:10C6E000264D07F04FFB2649264801F07DFB02222C
:10C6F0002549284601F080FB2846244D2246314634
:10C7000007F040FB08222249284601F075FB284625
:10C71000204D2246314607F035FB142312221E49D4
:10C72000284600F08FFF28461C4D1D49224607F081
:10C7300029FB1821284602F031FF2246194C1A49DC
:10C74000284607F01FFB4FF4EC720021204607F04B
:10C75000E1FB231DC4F8643104F5B473C4F87031EF
:10C7600070BD00BF8C200020102600201C27002058
:10C770008020002085C60100C9DB010014260020AE
:10C78000BD6A0200BC280020C26A020068260020A0
:10C79000C76A020038260020CC6A020098280020D0
:10C7A000F1D5010030240020A9F5010038B5054677
:10C7B00021B3012924D0022924D0032924D004291B
:10C7C00024D0052924D0062924D0072924D00829DB
:10C7D00024D0092924D00A2924D00B2924D00C29BB
:10C7E00024D00D2924D00E2924D00F2924D010299B
:10C7F00024D0112914BF00243A2420E00C461EE066
:10C800002A241CE02B241AE02C2418E02D2416E006
:10C810002E2414E03B2412E0302410E031240EE0FA
:10C8200032240CE033240AE0342408E0352406E006
:10C83000362404E0372402E0382400E0392421467D
:10C84000134802F0D2FD2946114802F0EBFC01200A
:10C8500006F04CF800210E4802F0D1FD21460322DB
:10C860000B4802F0BFFD012006F040F8084802F036
:10C87000EBFC0446064802F0E7FC0546044802F0DB
:10C88000E3FC012006F032F844EA052080B238BD0E
:10C89000DC3000200000000008B5FFF787FF07EE3E
:10C8A000900AF8EE677A17EE900A06F0E5FE0AA302
:10C8B000D3E9002306F034FF07F014FA06F0DCFE9B
:10C8C00007A3D3E9002306F077FD07F00BFA00EE8B
:10C8D000100A08BDAFF300807B14AE47E17A943FA5
:10C8E000666666666612714008B501462720FFF746
:10C8F000D3FFF2EE027A20EE270AF1EE047A80EE00
:10C90000277ADFED057A77EE277A17EE900A06F0A0
:10C91000B3FE41EC100B08BD0000004208B5014613
:10C920002620FFF7B9FFF2EE027A20EE270AF1EE99
:10C93000047A80EE277ADFED057A77EE277A17EE14
:10C94000900A06F099FE41EC100B08BD0000004271
:10C950002DE9F04FB04BB14C2DED028BD4ED007AA8
:10C9600093ED008AAFB037EE888A05F08FFF07EEAF
:10C97000900AF8EE677AB4EEE78AF1EE10FA40F129
:10C980000F8405F083FFA64B07EE900A1A78F8EEA5
:10C99000677A9A46C4ED007ADAB1A249A24806F055
:10C9A00037F9A249A04806F01AF994ED007ADFEDB4
:10C9B000A07AC7EE276A16EE900A06F05DFE41ECFB
:10C9C000100B0221984806F033FA9A49964806F06F
:10C9D0001FF9994B1A789B46BAB19849924806F0CC
:10C9E000FEF805F053FF07EE900AB8EE677AD4ED33
:10C9F000007A77EE677A17EE900A06F03DFE41EC7A
:10CA0000100B0221884806F016FA8D4800F078FFD6
:10CA10000A2005F06BFF8B4B1D68002D16DD8A4E3A
:10CA20003278013D1D604AB985B9032201210F20EA
:10CA30001A6005F0A1FF0123337007E035B91E220B
:10CA400029460F201A6005F097FF357000217F48B6
:10CA5000DFF82C92DFF82C827D4D02F001FE0121DF
:10CA60007A4889ED000A02F0FBFD0221774889ED42
:10CA7000010A02F0F5FDD9F8000089ED020AB0EED6
:10CA8000408AD9ED018A06F0F7FD68EE087A06467D
:10CA9000E8EEA87A0F4617EE900A06F0EDFD41EC9D
:10CAA000100B05F0BBFAB0EE401AF0EE601A47EC3E
:10CAB000106B05F0B1FA54A3D3E9002351EC100B2D
:10CAC00006F02EFEF1EE487AC8E9000117EE900A52
:10CAD00006F0D2FDF1EE687ACDE9000117EE900A7A
:10CAE00006F0CAFD9DED001B41EC100B05F094FA19
:10CAF00045A3D3E9002351EC100B06F011FE0022F0
:10CB000006460F46534BD8E9000106F057FC0022B9
:10CB1000C8E90001504B3046394607F073F8CDF8AC
:10CB20000C90CDF81480B8B139A3D3E90023304676
:10CB3000394606F043FC0022484B06460F4607F0F4
:10CB40007FF810B9C5E900670EE00022434B30467C
:10CB5000394606F031FC05E00022414B30463946AB
:10CB600006F02CFCC5E900019BF80030BBB13D4943
:10CB70002D4806F034F805F089FE07EE900AB8EE6D
:10CB8000677AD4ED007A77EE677A17EE900A06F0AE
:10CB900073FD41EC100B0221234806F04CF99AF882
:10CBA00000303BB13049204806F032F82F491E488A
:10CBB00006F015F8002218A92D4802F0D1FE9DF8C4
:10CBC0007830042B1AD09AF800307BB1BDF8680099
:10CBD00007EE900AF8EE677A17EE900A06F04CFD21
:10CBE00041EC100B0221104806F025F9214B00936F
:10CBF000214B04931E461F4F002545E01F490A485C
:10CC000006F006F8F2E700BF46DF617EDCA54C4087
:10CC10000000000000207C4010260020D8260020C4
:10CC200090200020687602009C310020D16A02002A
:10CC300000007A44D86A0200B4280020DB6A0200AF
:10CC40001C2700208420002018270020982800207E
:10CC5000D026002000806640008056C000807640CC
:10CC600000805640FF6A02001F6B02003C6B02000E
:10CC7000302400208C260020DC2600204C6B020093
:10CC80005C26002008260020386806F0F5FC0135F7
:10CC9000804628468946FFF741FE404653EC102B5C
:10CCA000494606F08BFB0022CF4B06F039FD07F01A
:10CCB00019F847F8040B306806F0DEFC8046284679
:10CCC0008946FFF711FE404653EC102B494606F00B
:10CCD00075FB0022C44B06F023FD07F003F80F2D6F
:10CCE00046F8040BD0D1C14BC14A93ED017AD3ED84
:10CCF000007A77EE877A93ED027A77EE877A93ED72
:10CD0000037A77EE877A93ED047A77EE877A93ED5C
:10CD1000057A9BF8003077EE877AF1EE086A87EEA5
:10CD2000A67A904682ED007ABBB1B249B24805F0CE
:10CD300056FF05F0ABFD07EE900AB8EE677AD4ED2A
:10CD4000007A77EE677A17EE900A06F095FC41ECD0
:10CD5000100B0221A84806F06EF89AF80030002B5C
:10CD60007CD0A64D00260136A549A34805F037FF23
:10CD70000A223146A04805F0B1FFA2499E4805F0BD
:10CD80002EFF55F8040B06F077FC41EC100B022146
:10CD9000994806F04DF89C49974805F020FF0A2273
:10CDA0003146954805F09AFF9649934805F017FFDC
:10CDB000009B53F8040B009306F05EFC41EC100B53
:10CDC00002218D4806F037F8102ECCD18F498A48C1
:10CDD00005F005FFD8F8000006F04EFC41EC100B02
:10CDE0000221854806F024F88949834805F010FFA0
:10CDF0008849814805F0F3FE039B186806F03CFC67
:10CE000041EC100B02217C4806F012F880497A4868
:10CE100005F0FEFE8049784805F0E1FE039B586866
:10CE200006F02AFC41EC100B0221734806F000F8D2
:10CE30007749714805F0ECFE78496F4805F0CFFE60
:10CE4000039B986806F018FC41EC100B02216A481D
:10CE500005F0EEFF6E49684805F0DAFE059BDFF845
:10CE6000E0916F4D93ED007BD9E900678DED007B7C
:10CE700005F024FD2B68C01A6A4B1A689042C0F076
:10CE800059813946304606F0E5FE0A22014607A8D8
:10CE900006F0F4F9DDE9000106F0DCFE0A220146A5
:10CEA0000AA806F0EBF960490DA806F09FF99AF878
:10CEB00000307BB15D49504805F091FE0AA94E480B
:10CEC00005F088FE5A494C4805F089FE07A94A48F2
:10CED00005F094FE10A8574900F03AFD10A800F0A4
:10CEE00033FB002800F01881DFED536A9FED536A91
:10CEF0001FAB2EAAB0EE665AF2EE005A0499F1EC7E
:10CF0000017AF4EEE67AF1EE10FA54BFC3ED007A3E
:10CF1000C3ED006AD3ED007A0491F4EEC67AF1EE27
:10CF200010FAC8BF83ED006A93ED007ADFED427A14
:10CF300037EE457A27EE257AA3EC017A9342DDD1CC
:10CF400098ED007ADFED3D6A9FED3B8AB4EEE77A1B
:10CF5000F1EE10FAB4EE667A58BFF0EE477AF1EED1
:10CF600010FAC8BFF0EE667A1422002113A837EE3B
:10CF7000C88A06F0CFFFDDED1F7A0599FCEEE77A4F
:10CF800017EE903ADDED207A8DF84C30FCEEE77A22
:10CF900017EE903ADDED217A8DF84D30FCEEE77A10
:10CFA00017EE903ADDED227A8DF84E30FCEEE77AFE
:10CFB00017EE903ADDED237A8DF84F30FCEEE77AEC
:10CFC00017EE903ADDED247A8DF85030FCEEE77ADA
:10CFD00017EE903ADDED257A8DF85130FCEEE77AC8
:10CFE00017EE903A2EE000BF0000E03F8C260020B4
:10CFF0002C2400205B6B02009C310020DC260020EA
:10D00000746B020089700200776B02007E6B020075
:10D010008C760200866B02008E6B0200966B02001B
:10D02000B0280020B82800209E6B0200AD6B0200E3
:10D03000687602001C27002000008C420000CA42D3
:10D04000D0260020DDED267A8DF85230FCEEE77A0E
:10D0500017EE903ADDED277A8DF85330FCEEE77A43
:10D0600017EE903ADDED287A8DF85430FCEEE77A31
:10D0700017EE903ADDED297A8DF85530FCEEE77A1F
:10D0800017EE903ADDED2A7A8DF85630FCEEE77A0D
:10D0900017EE903ADDED2B7A8DF85730FCEEE77AFB
:10D0A00017EE903ADDED2C7A8DF85830FCEEE77AE9
:10D0B00017EE903ADDED2D7A8DF85930FCEEE77AD7
:10D0C00017EE903AF2EE007A68EE277A8DF85A3031
:10D0D000FCEEE77A17EE903A8DF85C3039A3D3E98D
:10D0E0000023D1E9000106F045FC06F0DBFD35A385
:10D0F000D3E900238DF85E00D9E9000106F03AFC7F
:10D1000006F0D0FD14228DF85F0013A9284800F026
:10D1100084FA142005F0EAFB264B2A681B680DA848
:10D1200013442B6006F020F80AA806F01DF807A8A3
:10D1300006F01AF89BF80030BBB11F491F4805F0F4
:10D140004EFD05F0A3FB07EE900AB8EE677AD4ED2A
:10D15000007A77EE677A17EE900A06F08DFA41ECC6
:10D16000100B0221154805F066FE9BF80030BBB19C
:10D170001349124805F033FD05F088FB07EE900ACD
:10D18000B8EE677AD4ED007A77EE677A17EE900AF8
:10D1900006F072FA41EC100B0221084805F04BFE34
:10D1A0002FB0BDEC028BBDE8F08F00BFAFF3008065
:10D1B00038260020B8280020C16B02009C310020D6
:10D1C000DD6B0200666666666666F63F37B54FF44D
:10D1D000E1315A4805F07BFE594B1A781C461AB1CA
:10D1E0005849564805F0FBFC322005F07FFB5648B5
:10D1F00002F05CF8322005F079FB01210F2005F0E8
:10D2000099FB00210F2005F0B7FB0121042005F058
:10D2100091FB0121042005F0AFFB0121082005F05E
:10D2200089FB0021082005F0A7FB4849434805F089
:10D23000D6FC474802F0E5F90A2201463F4805F0CE
:10D240004FFD4FF47A7005F051FB42493B4805F021
:10D25000DFFC00222921404802F036FA20B93F497C
:10D26000364805F0DFFCFEE73D493E4800F053FB41
:10D270003B493C4800F0DFFC3B4800F02EF90146FA
:10D28000384800F045FB4FF6FF71364800F0D6FCF9
:10D290003549344800F095FC3449324800F091FC9F
:10D2A0003349304800F08DFC32492E4800F089FCAB
:10D2B000314A2C48002100F058FB304A294801210E
:10D2C00000F053FB2E4A2F48002100F0F0F92C4AC1
:10D2D0002D48002100F0EBF902A9002501F8015DBD
:10D2E0000122284800F099F902A9012201F8025D03
:10D2F000254800F092F9254B49F640421A6005F0A6
:10D30000DDFA234B1860174800F053FB23781BB15C
:10D3100020490A4805F07CFC1F4B204A2049186828
:10D320000023834203DA42F8041B0133F9E74FF488
:10D33000FA7005F0DBFA03B030BD00BF9C3100206D
:10D3400090200020E96B0200DC300020F36B02002B
:10D35000982800200C6C020030240020196C020078
:10D36000306C02001C270020BC280020182600205A
:10D370006C2600203C260020D1C5010019C6010002
:10D3800019C501001426002068260020B8280020B6
:10D39000B02800203A6C020088200020C428002019
:10D3A0007DFFC74238B50025057329B90B4B0C4AE0
:10D3B0000C48232106F0ECFC01600B4951F82220B7
:10D3C000027151F8233083719DF8103051F82330E9
:10D3D00043710223C371856038BD00BF916C0200A8
:10D3E000546C02009F6C020014750200037B23B989
:10D3F0004373837303610123037370471FB50DF1FA
:10D40000100E0EE90E009DF8081002680023012995
:10D41000C2F80035039B08D004D3032907D143F099
:10D42000040304E043F0020301E043F00603C2F802
:10D430005435019BC2F824350123C2F8003505B0EC
:10D440005DF804FB10B5FFF7D1FF03688279C3F8DC
:10D4500008254279C3F80C250279C3F81025034B3F
:10D46000BDE810400ECBFFF7C9BF00BF94300020CD
:10D470000368C3F81C15D3F80821002AFBD0D3F8A1
:10D4800018050022C3F80821C0B2704713B50D4B30
:10D490000D490E484FF080421A6000229A60032422
:10D4A00002221A71009405230422FFF77BFF0094E7
:10D4B000052304224FF040210548FFF773FF02B017
:10D4C00010BD00BF9430002000300040A03000208C
:10D4D000B430002001608280704700687047808807
:10D4E000704729DF704728DF7047036818680130EC
:10D4F00018BF0120704708B54FF080531A690368C0
:10D50000B3FBF2F31846FFF7EEFF1128FAD008BD7F
:10D5100038B504460D461946FFF7EDFF8B081A464D
:10D5200029462068FFF7DDFF1128F8D038BD10B577
:10D5300002680846043A441AA34204D952F8044F38
:10D5400040F8044BF7E710BD07B5002306226946F3
:10D5500004300093ADF8043006F0C2FC003018BF70
:10D56000012003B05DF804FB10B5034C04302146E4
:10D5700000F05AFC204610BDC83000200B68436004
:10D580008B8803817047002343600381704708B58F
:10D590000160FFF7F8FF08BD807A7047C0687047E8
:10D5A000007C704700207047C368585C704770B5B6
:10D5B0000D46114602680446D6691A46B047012353
:10D5C000A374A36923B121462846BDE870401847DB
:10D5D00070BD70B5044608460D4607F007FB23688A
:10D5E000C2B229462046DB69BDE8704018470000FA
:10D5F000044B10B504460360C06808B106F068FC2F
:10D60000204610BD106D020010B50446FFF7F0FF74
:10D61000204605F0ADFE204610BD10B5837A9A4233
:10D62000044628BF1A460274C06806F068FC6069A8
:10D6300028B1036821461B68BDE810401847012047
:10D6400010BD000070B504461D461646043042F673
:10D65000030200F08FF8142D4FF0000228460A4B09
:10D66000236028BF1420A072E26022746674A27442
:10D67000E2746261A261E261226215B106F020FCEF
:10D68000E060204670BD00BF106D0200407C704716
:10D69000C07C70470346002ADA7414BF07220822B0
:10D6A000084653F822200AB11946104770470B2943
:10D6B0009CBF063140F82120704741617047704798
:10D6C00070477047002070477047704700207047D0
:10D6D00000207047002070470020704700207047EE
:10D6E00000207047002070470020704700207047DE
:10D6F0000020704700207047002070477047704737
:10D700007047704710B5044605F032FE204610BD44
:10D71000054A02606422828001210022C2800281C7
:10D720008172C26002617047406D02000161704702
:10D730000120704710B5034B03600446FFF758FF04
:10D74000204610BDA46D020010B50446FFF7F2FF9D
:10D75000204605F00DFE204610BD000038B50446F9
:10D760001D46FFF76FFF024B25742360204638BD2E
:10D77000A46D020010B50446FFF7ACFE024A137810
:10D7800001331370204610BDDA300020014B1878A9
:10D79000704700BFDA300020C06803681B6A184772
:10D7A000A0F10400FFF7F8BFC06803685B6A184780
:10D7B000A0F10400FFF7F8BFC06803689B6A184730
:10D7C000A0F10400FFF7F8BFC0680368DB6A1847E0
:10D7D000A0F10400FFF7F8BFC06803681B6B18478F
:10D7E000A0F10800FFF7F8BFC06803685B6B18473B
:10D7F000A0F10800FFF7F8BFC06803689B6B1847EB
:10D80000A0F10800FFF7F8BFC06810B40468E46B2B
:10D81000A4465DF8044B6047A0F10800FFF7F4BF91
:10D82000C06803681B6C1847A0F10800FFF7F8BF39
:10D83000C06803685B6C1847A0F10800FFF7F8BFE9
:10D84000C06803689B6C1847A0F10800FFF7F8BF99
:10D85000C0680368DB6C1847A0F10800FFF7F8BF49
:10D86000D0F8743113B100F5B07018477047D0F894
:10D87000783113B100F5B0701847704730B41446D2
:10D880001A4623685D6A9DF8083000F5B071AC4611
:10D89000204630BC60477047704770B5054600F5BC
:10D8A000B07411462046FFF769FED5F86C311BB104
:10D8B0002046BDE87040184770BDD0F8703110B5F3
:10D8C00000F5B0740BB1204698472046BDE81040E3
:10D8D000FFF759BE10B4144600F5B0711A46204641
:10D8E0005DF8044BFFF7D6BE10B4144600F5B071D6
:10D8F0001A4620469DF804305DF8044B00F056BAF5
:10D90000C0680368DB681847C06803681B6918476C
:10D91000C0F88C107047C0F89C10704738B5D0F82C
:10D92000A83004460D463BB900F01CFA00B2800056
:10D9300006F0C6FAC4F8A80094F8AC20D4F8A830D1
:10D9400043F8225094F8AC30013384F8AC3038BD41
:10D9500038B505460C460846FFF7D2FF04F5B0710E
:10D9600007C985E80700284638BD0F299CBF00EB92
:10D970008100C0F86C21704710B50446FFF706FF20
:10D9800000B2800006F09CFA04F1B003036004F1D9
:10D99000BC03436004F1E003836004F58073C3605B
:10D9A00004F586730361052384F8A430C4F8A0004D
:10D9B00010BD2DE9F043D0F89010ADB0002304461F
:10D9C0008DF83030E1B106A800F096FA06A800F014
:10D9D000C5FA022805468CBF152314238DF8500084
:10D9E00006A88DF8513000F0B7FA2A460146C5F175
:10D9F0001A050DF1520006F082FAEDB2012601E09F
:10DA00001C250E46D4F88C1031B306A800F074FA29
:10DA100006A800F0A3FA431CAB4207461CDAC6EB8B
:10DA200046182CAB434402288CBF0622022203F87E
:10DA3000600C03F85F2C06A800F08EFA2CAB98441B
:10DA400001463A46A8F15E00023D06F058FA01365A
:10DA5000ED1BF6B205F0FF05D4F89410C9B194F8A7
:10DA60009820B2B1022D14D9531CAB42C6EB46101C
:10DA70002CAB0344A4BF023DEAB2FF2503F8602C9F
:10DA800003F85F5C2CAB18445E3806F038FA0136B8
:10DA9000F6B2D4F89C50BDB1284607F0A7F8C0B242
:10DAA0001D288ABF1D238DF830008DF830309DF879
:10DAB000302090428CBF082009208DF83100294683
:10DAC0000DF1320006F01BFAD4F8A03013B920464D
:10DAD000FFF752FF002742F6030804F1040994F807
:10DAE000A4309F4205DB002742F6030804F1080931
:10DAF0001BE0D4F8A03053F827502846FFF7EFFC7E
:10DB0000404506D10DB1281F00E028464946FFF7E1
:10DB1000D4FD0137E3E7D4F8A83053F8275028465E
:10DB2000FFF7DDFC404505D0013794F8AC309F424B
:10DB3000F1DB07E00DB1281F00E02846494600F060
:10DB400049F9F1E74BB104F596712046FFF7E6FE7F
:10DB500004F59C712046FFF7E1FEE06894F8AC10F4
:10DB600002680491D4F8A810039194F8A4100291CB
:10DB70009DF83030D4F8A01001910CA90033009129
:10DB800018BF01239568314614AAA847E0680368C6
:10DB90001B6D98472DB0BDE8F08338B5D0F8A030A4
:10DBA00004460D460BB9FFF7E7FE94F8A420D4F81D
:10DBB000A03043F8225094F8A430013384F8A43004
:10DBC00038BDFFF7EABF0000154B10B503F168023E
:10DBD00003600446803342608360FFF795FED4F80B
:10DBE000A80008B106F074F9D4F8A00008B106F056
:10DBF0006FF904F59A7000F0BBF804F58470FFF734
:10DC0000F7FC04F1DC00FFF7F3FC04F1B800FFF7C8
:10DC1000EFFC04F1100000F083FE204610BD00BFB1
:10DC2000F86D020010B50446FFF7CEFF204605F060
:10DC30009FFB204610BDB830FFF7CBBC07B502AB49
:10DC4000022223F8021DDC301946FFF7E6FC03B080
:10DC50005DF804FB2DE9F843354BDFF8E890DFF879
:10DC6000E88003F108020446026000F1100703F1A6
:10DC700070028833002542608360384601F08CFAD8
:10DC800004F1B806C4F88C50C4F89050C4F894500D
:10DC900084F89850C4F89C50C4F8A05084F8A4505C
:10DCA000C4F8A85084F8AC50224904F1B00000F048
:10DCB0009BF81323022220493046FFF7C3FC0223BE
:10DCC0001A461E4904F1DC00FFF7BCFC494604F586
:10DCD000807000F089F804232022414604F5847006
:10DCE000FFF7B0FC494604F5967000F075F8202265
:10DCF000414604F59A7000F043F8214604F5B070EF
:10DD0000FFF745FC10222946E76004F5B67006F0DF
:10DD100001F90B493046FFF75CFC29462046FFF726
:10DD20008DFFE0682146FFF701FD2046BDE8F8833E
:10DD3000F06D0200CC6D0200D16D0200D66D0200C4
:10DD4000E56D0200DB6D0200E06D020010B50446D7
:10DD5000FFF7C0FB024A137801331370204610BD51
:10DD6000DB300020014B1878704700BFDB3000200B
:10DD7000704710B5044605F0FBFA204610BD0000C0
:10DD800038B504461546043042F60302FFF7DEFFBD
:10DD9000054B23600023A572E372A36284F822304E
:10DDA0006362204638BD00BFA06E020070B5044615
:10DDB000C3720D460C3011461A4606F0A0F8012336
:10DDC00084F82230A36A23B121462846BDE870407A
:10DDD000184770BD4162704710B54FF42052044699
:10DDE000FFF7B4FF204610BD10B54FF42052044693
:10DDF000FFF7C0FC204610BD13B501230446FFF712
:10DE0000ADFC02A9064B2360002301F8013D01226D
:10DE10002046FFF702FC034B2360204602B010BDF2
:10DE2000B06E0200CC69020070B58AB004460E469E
:10DE300001A81B4905F0DAF9194904A805F0D6F93B
:10DE40000634052514F8013D0F2B03D8154901A808
:10DE500005F052FA1022217807A805F021FA07A947
:10DE600004A805F0F2F907A805F07EF904A901A8B5
:10DE700005F03EFA1DB10C4901A805F03DFA15F177
:10DE8000FF35DFD200231222314601A805F043FA04
:10DE900004A805F069F901A805F066F90AB070BD9B
:10DEA000F26B0200C06A0200806F0200F8B50546FE
:10DEB0000F460446631B9F4213DD237813F0F00FD7
:10DEC000264603D109490A4804F089FE31780848FA
:10DED000102204F0D5FE07490548013404F07FFE06
:10DEE000E8E70348BDE8F84004F080BEC06A0200DD
:10DEF0009C31002068760200F7B5044600232160BB
:10DF0000037508460E468DF804308DF805308DF8FF
:10DF1000063006F06BFE451E002D1ADB277D0F2F05
:10DF200017D8735D2D2B01D1013510E07219002136
:10DF300012F8012C8DF8042001A810228DF805306C
:10DF400006F07EFF27443871237D01332375023D9F
:10DF5000E2E7204603B0F0BD04307047007D704713
:10DF600071DF704772DF704773DF704775DF70478E
:10DF700076DF704777DF704778DF70477ADF70476A
:10DF80007CDF70477EDF70477FDF704786DF70473A
:10DF900090DF704792DF704796DF704798DF7047D9
:10DFA00099DF7047A0DF7047A2DF7047A3DF70479B
:10DFB000A4DF7047A6DF7047A9DF704760DF7047B6
:10DFC00061DF704762DF704763DF704753DF704780
:10DFD00010DF704711DF704790F86000003018BF05
:10DFE0000120704770B590F871600023B34214DAD5
:10DFF0001A01456FAC18AA588A420CD1E38973B153
:10E00000227B02F0020202F0FF0342B190F8780096
:10E0100080F0010070BD0133E8E7002070BD1846B4
:10E0200070BD70B590F871600023B3421ADA1A011E
:10E03000456FAC18AA588A4212D1E189A1B1227B5E
:10E0400002F0020202F0FF0382B1012380F878306F
:10E050000022808FFFF7A0FFB0FA80F0400970BD6A
:10E060000133E2E7002070BD084670BD184670BD60
:10E0700070B590F871600023B3421CDA1A01456F45
:10E08000AC18AA588A4214D1E389B3B1227B130792
:10E0900004D590F8780080F0010070BD02F0040211
:10E0A00002F0FF034AB190F86000003018BF012071
:10E0B00070BD0133E0E7002070BD184670BDF0B5BB
:10E0C00090F871E085B0002474452FDA2501476F80
:10E0D0007E197D598D4227D1F4894CB3357B15F0DB
:10E0E0000C0127D090F8601021B315F0080F14BF71
:10E0F00001250225ADF80A300139012380F86010AE
:10E100008DF8045080F87830002501A9808F8DF8B3
:10E110000550ADF80640ADF808500392FFF73EFFFA
:10E12000B0FA80F0400906E00134CDE7002002E0BB
:10E13000204600E0084605B0F0BD70B590F871606B
:10E140000023B34210DA1A01456FAC18AA588A426C
:10E1500008D1E08948B1237B13F0300F14BF0120B0
:10E16000002070BD0133ECE7002070BD7FB590F852
:10E1700071600023B3422EDA1A01456FAC18AA5819
:10E180008A4226D1E28942B3217B11F0300326D0A6
:10E19000012311F0100F14BF194602211A44ADF8E3
:10E1A0000210ADF80620002102228DF80510ADF80E
:10E1B0000810ADF80A2080F878306A4401A9808FF1
:10E1C0008DF804300392FFF7E9FEB0FA80F04009C1
:10E1D00006E00133CEE7002002E0104600E01846DA
:10E1E00004B070BD03681B6C18477FB590F8716070
:10E1F0000023B3422ADA1A01456FAC18AA588A42A2
:10E2000022D1E28922B3237B13F030034FF00001C7
:10E2100020D001231A44ADF806200222ADF80210E6
:10E220008DF80510ADF80810ADF80A2080F87830A8
:10E230006A4401A9808F8DF804300392FFF7AEFE87
:10E24000B0FA80F0400906E00133D2E7002002E096
:10E25000104600E0184604B070BD11F1270F08B554
:10E2600014DB11F11D0F14DB11F1130F14DB11F18D
:10E270000F0F14DB11F10B0F14DBCA1D15DBCB1CC8
:10E2800016DB0029D4BF0020042013E06FF0270024
:10E2900010E06FF01D000DE06FF013000AE06FF06A
:10E2A0000F0007E06FF00B0004E06FF0070001E0E3
:10E2B0006FF00300FFF75EFEB0FA80F0400908BD82
:10E2C0001321808FFFF754BE07B501466846FFF75C
:10E2D00047FE086920B103680DF10102DB69984728
:10E2E00003B05DF804FB000013B5044602A8002348
:10E2F00040F8043DFFF76AFE019805F0ABF9084BC2
:10E30000002205F00DFA05F0EDFC236933B11A681F
:10E3100000EE100A126A21461846904702B010BD5E
:10E320000000D03F704710B5044686B01822002187
:10E33000684605F0EFFDA37A33B994F83430002B2A
:10E3400014BF0223032300E000238DF80030A388CC
:10E3500068460A221B0193FBF2F3ADF81030FFF779
:10E3600003FE06B010BD2DE9F043054690F86100AC
:10E370008FB00C460023142683425DDA06FB03F2BD
:10E38000696E8F188A58A24207D12046FFF77EF99E
:10E39000C30751D57B6813B94EE00133ECE795F81C
:10E3A00033600DF11808324605F11401404605F0BE
:10E3B000A6FD236820461B69984704300644F6B240
:10E3C0001F2E39D87868FFF788F801466846FFF7AE
:10E3D00093FD236895F833701B69204698470EAB70
:10E3E0001F44033007F8200C95F833703B44162285
:10E3F000684603F81F2CFFF7AFFD0237038828F8A3
:10E400000730236895F83370DB6820469847236807
:10E4100081461B69204698470437474402464946CF
:10E42000384605F06CFD00231A4631464046FFF79A
:10E4300099FDAC63012000E000200FB0BDE8F0833F
:10E440002DE9F047D4B04FF48E7304460DF10A0164
:10E450000DA8ADF80A30FFF7B3FD0346002840F0E1
:10E460004482BDF83420302A00F03C8111D8112AB2
:10E470005CD004D8012A21D0102A27D035E2142AF2
:10E4800000F0C780192A00F0D080132A40F02D82B6
:10E490009BE0382A00F0DA8106D8322A00F0648145
:10E4A000362A00F0BA8120E2502A00F0D180522AA8
:10E4B00000F01281392A40F01882ECE194F86020D3
:10E4C0009DF83C30134484F860300EE2BDF838000B
:10E4D000A08705A9FFF776FD20699DF8143084F820
:10E4E000603028B103680DF13D021B682146984752
:10E4F000E288052A12D92389B3F5486F0ED8ADF802
:10E5000016300023ADF8183005A94FF4C873A08F5A
:10E51000ADF81420ADF81A30FFF728FD94F86830F4
:10E52000002B00F0E2810022012109E14FF6FF7289
:10E53000A28784F8600005464FF01409804694F8DD
:10E5400061309D4216DA676E09FB05F6BB19B859B2
:10E5500083F8108083F81180FFF79AF840B12069A2
:10E5600030B10368BA59D3F814A021460023D0472C
:10E570000135E4E7206918B1036821465B689847D4
:10E5800000230C20194694F86820934202DB0023F4
:10E59000184605E0E26E00FB032201339160F2E7CA
:10E5A00094F87120934208DA616F1A011144013323
:10E5B0000873616F0A44D081F2E7002384F8783051
:10E5C000236820469B6998478FE1E068002800F0A7
:10E5D0008681FEF78AFF002840F081810123032213
:10E5E0008DF80F3062F306138DF80C3007238DF889
:10E5F0000D30102300218DF80E30E36D05938DF85A
:10E60000101009910A910B910691079105AB03AA8D
:10E6100068E1E16DBDF84420488A904218BF194670
:10E62000A08F1A46FFF7B2FC5FE19DF83C20002A5C
:10E6300040F05B81E06820B11C2304F14001FEF74B
:10E6400067FF2069002800F0508103689B68E1E0C3
:10E65000BDF83A8006464FF0140994F861309E42A6
:10E6600080F24381616E09FB06F3CF183A89424577
:10E670000CD12069002800F0388103689DF84420FF
:10E6800000921D693A680DF1460323E1BA894245BB
:10E6900020D19DF847009DF8462042EA002295B21D
:10E6A00002F001023A74C5F340027A7415F00305D2
:10E6B000C85818BF0125FEF7EBFFA8420AD0206911
:10E6C000002800F0128103683A685E6921462B46F3
:10E6D000B0470AE10136C0E702460146A08FFFF7C6
:10E6E0006BFC02E1BDF83A2072BBBDF840500DA9A9
:10E6F00013460C26AB421CDA94F868700020B8422E
:10E7000014DAE26E91F810C006FB002292F806E0DF
:10E71000F44509D1B1F80EC0B2F804E0F44503D1D4
:10E72000D1F81200906001E00130E8E701330831D0
:10E73000E0E70DAB03EBC5050022A989013189B2E1
:10E74000A08FFFF725FCD0E094F868200C209342BE
:10E7500080F2CB80E16E00FB03110D8915B14D896C
:10E76000002D4BD10133F2E7BDF83A2094F8703018
:10E77000002A36D1E66E03EB430306EB83030A253A
:10E780009B6805930DAB9A8905FB0235AB4223D0FC
:10E79000002194F87120914219DA626F94F87000A8
:10E7A00002EB011200EB400056F8207050688742DF
:10E7B0000BD11F7C907A874207D11089DF8987426D
:10E7C00001BF987C1073D88AD0810131E1E7DA8AE1
:10E7D000ADF814200A33D9E705A9A08FFFF7DAFBBB
:10E7E00083E001330C2294F868005A4383420CDA28
:10E7F000E16E11440D892DB14D891DB184F8703041
:10E800000831EAE701330C32F0E7206900286CD0C8
:10E810000368DB682146984767E0BDF83A1084F842
:10E82000780040F20512914201D1E268CAB9BDF800
:10E83000401094F871000023834256DA626F02EBB5
:10E840000312D5898D423BD00133F5E7BDF83A106C
:10E8500084F8780040F20512914246D1E268002A1D
:10E8600043D01A0E8DF8183042F00102DBB28DF859
:10E87000172043F00103032262F306138DF81430CE
:10E8800007238DF8153005A91023A08F8DF81630B9
:10E89000FFF778FB29E09DF84230BDF84050022B8D
:10E8A00003D12946A08FFFF77BFB94F8711000235A
:10E8B0008B421ADA626F02EB0312D089A8420CD1A4
:10E8C000206990B19DF844100368009112689D6919
:10E8D0000DF146032146A84707E00133E8E700238E
:10E8E0001A468521A08FFFF74FFB54B0BDE8F08793
:10E8F00010B50446FFF76EFB606F08B105F0E8FA4B
:10E90000E06E08B105F0E4FA606E08B105F0E0FAD7
:10E91000002384F8613084F8683084F8713010BDC9
:10E9200010B5054B03600446FFF7E2FF2046FEF7F3
:10E93000E8FE204610BD00BFE46E020010B504469C
:10E94000FFF7EEFF204604F013FD204610BD07B58B
:10E950001288ADF80020ADF802106A4601464FF665
:10E96000FF700193FFF724FB03B05DF804FB000088
:10E970002DE9F04FEDB09A469DF8E8310193A24B96
:10E98000769E9DF8E0810546186808900F4608A815
:10E9900000211446FFF71CFB9C4B09931422002115
:10E9A0000DA805F0B7FA0A2309A9ADF834300DA86F
:10E9B00001238DF840308DF83C30FFF7FFFA282214
:10E9C000ADF82C205022ADF82E204FF000094FF466
:10E9D000C8720BA8ADF83220ADF83090FFF7CEFA30
:10E9E0004846FFF7C7FA6B7506230222AB7503236F
:10E9F0002A7585F833301FB314B31444B9451FDAB0
:10EA000095F8330014F8023C2A18013313750230CC
:10EA100014F8013C5375C0B285F83300284414F84B
:10EA2000022C2146143005F06AFA14F8023C95F8DD
:10EA30003320134485F8333009F101091F34DDE731
:10EA400024AFBAF1000F20D00EB34FF00009023608
:10EA50004B46D1451CDA16F802BC16F8011C0BF126
:10EA60000102FA549C1CFA18E4B2517038195A4643
:10EA7000314605F044FA5C444FF00102E3B285F8F8
:10EA8000342009F101091F36E3E7534600E033461D
:10EA90003A4695F8331005F11400FFF763FA0020A9
:10EAA000FFF76AFA002442F6030644450DDA779B25
:10EAB00053F82400FEF713FDB04202BF95F8613011
:10EAC000013385F861300134EFE795F861000338D0
:10EAD000C0B285F8610000EB8000800005F0F0F91D
:10EAE00000266866ADF814600296B146464580F28D
:10EAF000BE81779B53F826402046FEF7EEFC014688
:10EB000017A8FFF7F9F917A8FFF726FA074617A87D
:10EB1000FFF724FA022809D17A783B7843EA0223E6
:10EB2000ADF8283001238DF82A301CE03B460DF16A
:10EB3000B00E07F1100C18685968724603C208330A
:10EB400063459646F7D17A7B3B7B43EA0223ADF8D7
:10EB500028300DF12A0100232CA88DF8BD308DF846
:10EB6000BC30FFF731FA2046FEF7B9FCB0F5205F64
:10EB7000204611D1FEF7B1FC254906F025F8002802
:10EB800000F073812046FEF7A8FC224906F01CF82D
:10EB9000002800F06A8131E2FEF7A1FC42F603038F
:10EBA000984240F0358104B1043C271D3846FEF7F9
:10EBB00094FC194906F008F8B8B99DF8B030012264
:10EBC00062F3030362F307138DF8B0302368204625
:10EBD000DB689847236807461B69204698473946F3
:10EBE00082B22CA8FFF7CCF93FE13846FEF775FC5E
:10EBF0000A4905F0E9FF98B923682046DB68984781
:10EC00000088FFF7B9F930E1D86E020080200020BB
:10EC1000CC6D0200DB6D0200D16D0200D66D0200EA
:10EC20003846FEF75AFCC14905F0CEFF002800F037
:10EC30001C812046FEF72AFD236882461B69204678
:10EC400098476A6EADF8160009EB89014FEA810B0F
:10EC500002EB0B0342F821400027029A5A601F740E
:10EC60005F741C2239461DA805F054F92AF00103EF
:10EC70001AF0300F8DF8743010D00123194663F369
:10EC800007118DF81810194606AA63F3071163F3EC
:10EC900042078DF819108DF81A70229200231AF08D
:10ECA000320FADF81C308DF81E300BD09DF81C30A3
:10ECB000E968012262F3030301B1022262F3071340
:10ECC0008DF81C301AF00C0F10D0EB6801222BB11C
:10ECD0009DF81D3062F30303022203E09DF81D300E
:10ECE00062F3030362F307138DF81D309DF81E30A5
:10ECF000012262F342038DF81E30236820469B698F
:10ED000098479DF81E3080F0010060F300038DF8F5
:10ED10001E30771C47453CDA779B53F827A05046B6
:10ED2000FEF7DDFBB0F5245F33D1BAF1000F01D05F
:10ED3000AAF1040A0AF1040318460393FEF7CDFB77
:10ED40007B4905F041FF039BA0B9DAF8003050463B
:10ED50009B6898471E90DAF800305046DB68984769
:10ED6000DAF80030ADF87C00DB6850469847ADF823
:10ED70007E000CE01846FEF7B0FB6E4905F024FF5C
:10ED800028B9DAF8003050469B6898472090013740
:10ED9000C0E71422002112A805F0BCF80DF1160AF4
:10EDA0000AAB129307AB1393BAF80030ADF85030AA
:10EDB000236820469B6898476B6EADF85400002787
:10EDC0005B44083312AA1DA938461697FFF7ECF8E2
:10EDD000BAF80030BBB12CABBAF8002003939742CD
:10EDE00008DA22683946526920469047039BD85575
:10EDF0000137F1E76B6E9B4452462CAB0021BBF808
:10EE00000800FFF7A4FD09F101095FFA89F92CE078
:10EE10002046FEF764FBB0F5245F26D104B1043C24
:10EE2000271D3846FEF759FB414905F0CDFEE0B1FC
:10EE30003846FEF752FB404905F0C6FEA8B13846F9
:10EE4000FEF74BFB3D4905F0BFFE70B13846FEF7BB
:10EE500044FB384905F0B8FE38B1D6E02CAB524639
:10EE60000021BDF81400FFF772FD01363EE6019B5C
:10EE700023B3A3F102085FFA88F6002442F60307E1
:10EE8000B442B0461CDA799B53F824804046FEF722
:10EE900026FBB0F5205F05D195F86830013385F881
:10EEA000683009E04046FEF71AFBB84202BF95F809
:10EEB0007130013385F871300134E1E7DDF8048009
:10EEC00095F8680000EB4000800004F0F9FFE86668
:10EED00095F87100000104F0F3FFDDF8E491686734
:10EEE000002609EB88083746B246C14579D059F863
:10EEF000044B2046FEF7F1FA01462CA8FEF7FCFF72
:10EF00002CA8FFF729F883462CA8FFF727F802283A
:10EF100016D19BF801209BF8003043EA0223ADF89C
:10EF20005C3001238DF85E3029E000BFE06D020007
:10EF3000406F0200456F02004A6F02004F6F0200EF
:10EF40005B460DF1740E0BF1100C1868596872468F
:10EF500003C2083363459646F7D19BF80D209BF812
:10EF60000C3043EA0223ADF85C300DF15E01002362
:10EF70001DA88DF881308DF88030FFF725F82046E8
:10EF8000FEF7ADFAB0F5205F10D1EA6E07EB47014E
:10EF90008B00D01842F82140179A4260EA6E134461
:10EFA000013700229A60FFB2A2469EE72046FEF794
:10EFB00096FA42F60303984297D1696F3301CA1853
:10EFC00004B1043CCC50C2F804A0179991606A6F58
:10EFD0001A44002111736A6F13440136D981F6B2C5
:10EFE00083E7E86818B1FEF780FA002865D12B683E
:10EFF00028469B6998476DB0BDE8F08F05AA0AA91D
:10F000000120FEF7CFFF02942FE723682046DB683C
:10F01000984712AF14220021ADF81C001DA804F07F
:10F0200079FF4FF0010A00233B806AF34203BB7073
:10F0300023682046DB689847BDF81C10BB78EA6857
:10F0400080B2401A18BF012060F30003BB703B7808
:10F050002AB16AF30303022262F3071303E06AF39F
:10F0600003036AF307133B700AAB1E971D932368D3
:10F07000ADF87C10DB682046984700270DF11C0A8C
:10F08000ADF8800005AA1DA938462197FEF78EFF2E
:10F09000BAF80030002B3FF4E8AE0DF1B00BBAF82F
:10F0A00000309F42BFF6DAAE236839461B6920461E
:10F0B00098470BF807000137F1E71C23002205F100
:10F0C0004001E868FEF733FA91E700BF2DE9F04F01
:10F0D00087B004460D46002601274FF014090DF1B4
:10F0E000060894F861309E4252DA09FB06F3626E1C
:10F0F00002EB030AD358AB4248D1A36B9D4204D123
:10F10000236829465B6A204698472B6828461B6976
:10F1100098472B68ADF80600DB68BAF808B02846B7
:10F1200098474246034600215846FFF710FC10223C
:10F13000002102A804F0EEFEBAF80830ADF808305D
:10F140009AF81030CDF8108073B194F8603053B154
:10F15000013B84F8603002A90123A08F8DF80A30AA
:10F16000FEF728FF00E01F469AF8113073B194F8BB
:10F17000603053B1013B84F8603002A90223A08FB4
:10F180008DF80A30FEF716FF00E01F460136A8E7AB
:10F19000384607B0BDE8F08F10B50446FEF7B8FA60
:10F1A000104B236000214FF6FF7304F1400084F8F8
:10F1B000331084F83410A163A38784F8601084F8B6
:10F1C0006110616684F86810E16684F8701084F854
:10F1D0007110616784F87810E0651C2204F09AFED3
:10F1E000204610BDE46E02002DE9F84380460D462E
:10F1F000174601EB02090C464C45A4EB050609D065
:10F20000D8F8003014F8011B1B68404698470028C6
:10F21000F2D100E03E463046BDE8F883704720302A
:10F2200003F03CBE38B5437F0D462BB100F16804B6
:10F23000204603F041FE08B1002038BD2046294693
:10F2400003F00FFE012038BD203003F019BE20303E
:10F2500003F02ABE2DE9F0411E464FF47A730025D3
:10F260008360104B4560044640F8203B17468846B3
:10F2700003F0ECFD04F1680003F0E8FD0A4B9DF893
:10F280001820C4F8108053F8222062769DF81C20C4
:10F29000676153F82230A376267665772046BDE86D
:10F2A000F08100BF5C6F020014750200837E4FF096
:10F2B000A04203F5E07330B5012140F20C64C17641
:10F2C00042F82340437E03F5E07342F8234003698C
:10F2D0004FF0CC72C3F824250622C3F80025827EA5
:10F2E000C3F80825427EC3F80C25027E53B2D2B281
:10F2F00002F01F055C09A94060340F4D002B45F852
:10F30000241006DA0D4B02F00F02134440221A7645
:10F3100006E003F1604303F56143402283F80023D4
:10F32000037E01215AB203F01F0301FA03F35209CD
:10F33000014941F8223030BD00E100E0FCEC00E082
:10F340002DE9F8430646894698461546B2B100F1C4
:10F350002007384603F090FD34690122C4F88895EF
:10F360002262C4F83475C4F838552260D4F84C31A0
:10F370003BB9D4F82431002BF8D002E01046BDE8A8
:10F38000F8830023C4F84C31D4F85C311BB9D4F8AD
:10F390002431002BF8D00023C4F85C310122B8F1ED
:10F3A000000F02D1D4F8243143B16261D4F80431A2
:10F3B000002BFBD00023C4F8043107E0E261D4F84D
:10F3C0004831002BFBD00023C4F84831D4F8243155
:10F3D00013B10023C4F82431D4F83C053066C0B220
:10F3E000BDE8F8830123FFF7ABBF10B5044680F8F2
:10F3F000B010683003F040FD0123637710BDF8B50D
:10F40000056900234377044690F8B030C5F8883585
:10F41000012668302E62C5F844050F4603F03EFD14
:10F420002369C5F848059E60D3F850211AB9D3F86E
:10F430002421002AF8D00022C3F85021D3F86021FB
:10F440001AB9D3F82421002AF8D00022C3F8602189
:10F45000012217B9D3F8241141B15A61D3F804211C
:10F46000002AFBD00022C3F8042107E0DA61D3F8B8
:10F470004821002AFBD00022C3F84821D3F82401F8
:10F4800068B10022C3F82421D3F8C404C3F8C4042B
:10F49000022804D0042814BF04200320F8BDF8BDBE
:10F4A0000121FFF7ACBF4369D3F8642170B504466E
:10F4B00082B10022012500F12006C3F864210577FE
:10F4C000304603F0D9FC63694022C3F83465C3F8C1
:10F4D00038251D636369D3F86821D2B10025C3F8CC
:10F4E000685104F16806012363772577304603F0FD
:10F4F000C3FCD4F8B43003B19847657765693046EA
:10F50000C5F8446503F0CAFC6369C5F848050122E3
:10F510005A636369D3F804215AB10022C3F8042165
:10F52000227F32B1D3F83C05D4F8B830206603B15D
:10F5300098476369D3F8242142B10022C3F82421FB
:10F54000D3F8D024C3F8D02401225A6170BD000042
:10F550000148FFF7A8BF00BFDC30002007B5162325
:10F560000F228DE80C004FF040220423114603487F
:10F57000FFF770FE03B05DF804FB00BFDC30002035
:10F5800070B505460C468E18B44206D02178284640
:10F59000FDF76EFF04F8010BF6E770BD014A02604B
:10F5A00041607047A0300020704770B50446154692
:10F5B0000E464068002103F0DFF904F108012068DD
:10F5C000267265720222FFF7DBFF60680121BDE849
:10F5D000704003F0D1B938B504460D4640680021AB
:10F5E00003F0CAF9214665F07F0501F8085F0222A1
:10F5F0002068FFF7C5FF6068012103F0BDF9607A5C
:10F6000038BD10B504460121406803F093F901218B
:10F61000606803F0B1F92068FDF714FF0F21204660
:10F62000FFF7D9FF032819D141221A212046FFF7FD
:10F63000BCFF02221F212046FFF7B7FFD8221C2162
:10F640002046FFF7B2FF012227212046FFF7ADFF3A
:10F650002046C1221B21FFF7A8FF002010BD00009B
:10F6600070B54D00E91C0646FFF7B5FFA91C04461E
:10F670003046FFF7B0FF40EA042000B203F0EAFF93
:10F680000022044B04F04CF804F02CFB00EE100AAE
:10F6900070BD00BF0000103F38B501F07F05044683
:10F6A0006900D0F8640100F0A5F920700A2003F089
:10F6B0001DF994F900302BB9D4F8643183F85C510A
:10F6C000012038BD002038BDD0F864312DE9F34168
:10F6D0001546292283F85C21D0F86431012283F891
:10F6E0005D21D0F8643104464FF4C872A3F85E215E
:10F6F0007A4804F104080E46FFF7D8FD404600F0B2
:10F7000075FB314620702046FFF7C6FF06460028ED
:10F7100000F0DE8004F5BA773946404600F066F91D
:10F72000207000284ED1002D31D06D496D4803F076
:10F7300079FA6D496B4803F049FA3946694803F094
:10F740004EFA6A49674803F041FA04F5CA71654800
:10F7500003F045FA6649634803F038FA04F5DA71B4
:10F76000604803F055FA63495E4803F02FFA0A2215
:10F7700094F8D5115B4803F083FA5F49594803F0C8
:10F7800025FA0A2294F8D611564803F07BFA94F829
:10F79000D631012B16D09DB15849524803F016FAC4
:10F7A0000A2294F8D5114F4803F06AFA2C214D48EB
:10F7B00003F019FA0A2294F8D6114A4803F062FAC3
:10F7C000FB23237094F900304BB91DB14C494548D7
:10F7D00003F028FAD4F8640100F044FE207094F994
:10F7E000003003BB1DB147493E4803F01BFA0DF141
:10F7F000010201A9D4F8640100F035FF207095B131
:10F800004149384803F0E2F90A220199354803F0EA
:10F810002AFA3E49334803F0D9F90A229DF801102B
:10F82000304803F02FFA94F900306BB91DB1384914
:10F830002C4803F0F7F90DF103020DF10201D4F8A1
:10F84000640100F0A7FB207094F9003053B91DB19A
:10F850003049244803F0E6F90021D4F8640100F0AF
:10F86000CDF8207094F9001029B90122D4F8640170
:10F8700000F0A0F9207094F9003033B9012211464C
:10F88000D4F8640100F096F9207094F9003033B98F
:10F8900001220321D4F8640100F08CF9207094F95E
:10F8A00000303BB940F6D4020321D4F8640100F0E3
:10F8B000CFF9207094F900305BB14DB11649094879
:10F8C00003F084F90A2294F90010064803F008FABC
:10F8D0000026304602B0BDE8F08100BFDC300020D9
:10F8E000746F02009C310020826F0200906F020052
:10F8F000996F0200A06F0200AC6F0200B66F0200A9
:10F90000D86F0200EC6F02000E7002001E70020041
:10F9100033700200527002006970020030B50D7E33
:10F920000C4C89B06946284600F062F80A49204626
:10F9300003F04CF90A222946204603F0A1F90749B1
:10F94000204603F043F96946204603F061F909B007
:10F9500030BD00BF9C310020797002008870020029
:10F96000F7B505460C4616461AB11B491B4803F06D
:10F9700059F92146D5F8640100F0B4FC074646B3B6
:10F9800021462846FFF7CAFF01AA0321D5F86401E2
:10F9900000F0C1F91249114803F018F9DDED017AC0
:10F9A000F8EE677A17EE900A03F066FE00220D4B20
:10F9B00003F0B6FE41EC100B0221084803F03BFABD
:10F9C0000949064803F002F90A222189034803F095
:10F9D00087F9384603B0F0BD8C7002009C310020DE
:10F9E000B67002000000F03ECF70020002F0AEB927
:10F9F00002F0F0B94A088A2102F0ADBA152907D8F9
:10FA00000122054B8A40134013B10174002000E02D
:10FA1000F82040B2704700BF0B00300010B50A4616
:10FA20000C46092102F0CAFA18B9237803F0010341
:10FA3000237010BD01F0E4BD01F0C9BDF7B5174654
:10FA400002AA00230C4602F8013D0121064602F0FD
:10FA5000B5FA0546002840D1012F9DF8073015D191
:10FA6000042C29D8DFE804F00306090C0F0043F04A
:10FA7000100423E043F0280420E043F004041DE0D8
:10FA800043F040041AE043F0800417E0042C13D83C
:10FA9000DFE804F00306090C0F0003F0EF040DE0AB
:10FAA00003F0D7040AE003F0FB0407E003F0BF040F
:10FAB00004E003F07F0401E0FC250EE0A3420CD03B
:10FAC00022460121304602F046FA054628B986F85A
:10FAD000304171693046FFF7ADFF68B203B0F0BD49
:10FAE00013B502AA00230C4602F8013D012102F0E1
:10FAF00065FA78B99DF80730C3F300122270C3F39A
:10FB0000C002A270C3F380026270C3F38012DB09EB
:10FB1000E270237102B010BD37B5144601AA01F09E
:10FB200051FC78B9019B4FF47A71B3FBF1F501FBFD
:10FB30001533C3EB034202F5FA72B2FBF1F303EBA8
:10FB40000543236003B030BD37B50D460DF1020209
:10FB5000F821044602F03DFA70B901AA04212046BA
:10FB600002F042FA40B9BDF802201AB1019BB3FB82
:10FB7000F2F32B602B68A36140B203B030BD037F6A
:10FB80000B700020704737B50D460DF1060220219D
:10FB9000044602F01EFA58B9BDF806301BB9236AB4
:10FBA0002B60207704E0DB002B60236201232377A6
:10FBB00003B030BD052970B504460D46164606D87B
:10FBC0003AB100EB810301215A6B002303E0FC20D2
:10FBD0002DE001231146681E042804D8DFE800F058
:10FBE000060D1013160084F8281016E0C2F34F22F9
:10FBF0004421204602F0BAF90EE084F82A100CE005
:10FC000084F82B1009E05B00FE2201E01B01EF22CB
:10FC10006021204602F0B5F948B92C441EB984F899
:10FC20002860304603E0012384F82830002040B2E9
:10FC300070BD052998BF09184FF000038BBFFC2049
:10FC400091F828101370184698BF117040B2704791
:10FC500070B54318044693F828000E46154618B9A7
:10FC600004EB810462631EE0052916D8DFE801F089
:10FC70000305090B0D0D626311E0C2F34F2244210D
:10FC800006E0E2630BE0226409E0C2F34F22642144
:10FC9000204602F06BF930B901E0FC2003E004EBF0
:10FCA00086040020656340B270BD37B50446154632
:10FCB000052929D8DFE801F0030514161818436B4D
:10FCC00024E00DF10602442102F083F900BBBDF8E7
:10FCD0000620530292B9A36B2B6084F8290017E029
:10FCE000C36B13E0036C11E00DF10602642102F016
:10FCF00070F968B9BDF806305B0207E02B60A363BA
:10FD0000012384F8293003E0FC2001E02B6000206F
:10FD100040B203B030BD052911D80139042904D8F7
:10FD2000DFE801F0090609090900D0F8403103E0D5
:10FD3000D0F8483100E0C36D1360002000E0FC20E3
:10FD400040B2704737B50C460DF107020121054658
:10FD500002F034F958B99DF8073085F830311B06A8
:10FD600046BF012323702070237885F84C3003B000
:10FD700030BD2DE9F843037C0C4601F8083B0546ED
:10FD8000FFF7E2FE70BB207304F110012846FFF775
:10FD9000FAFE38BB04F11401284600F066FC08BBEB
:10FDA00004F1240705F1270904F1170806463A462D
:10FDB000B1B22846FFF779FFA0B9013619F8013F23
:10FDC00008F8013F062E07F10407F0D104F13C01C9
:10FDD0002846FFF7B7FF28B9211D2846BDE8F8439C
:10FDE00001F068BC40B2BDE8F8830000F0B5FE2227
:10FDF00093B001238921064602F0C3F8024618B9E0
:10FE00008821304602F0A7F80DF10702C0213046E4
:10FE100002F0D4F84FF47A72A6F852214FF4C87267
:10FE2000A6F85421594AC6F858210023584A86F8A2
:10FE3000F030C6F8D420336202A93046FFF799FFAC
:10FE4000044698B98DF808008DF8090002AF0FCF6D
:10FE500006F1100EAEE80F000FCFAEE80F000FCF87
:10FE6000AEE80F0097E80F008EE80F006423A6F8B5
:10FE700034314FF46173A6F836314FF4FA73012729
:10FE8000A6F838314FF42063A6F83C313A46802179
:10FE900086F85071304602F05EF83A460546FF217A
:10FEA000304602F058F800222843114604433046F9
:10FEB00002F051F8E4B22043C4B20DF106029121E0
:10FEC000304602F07BF89DF8063086F83A31204340
:10FED000C4B23A460021304602F03DF82043C4B295
:10FEE0000022FF21304602F036F82043C4B200223F
:10FEF0008021304602F02FF82043C0B200240028B1
:10FF000041D1A1B2012230460134FFF753FE062C45
:10FF1000F5D1C0BB86F82A0086F82B0002460421E2
:10FF20003046FFF747FE70BB024605213046FFF71B
:10FF300041FE40BB01464FF490123046FFF788FE69
:10FF400008BB4FF4804201213046FFF781FED0B953
:10FF50004FF40C1202213046FFF77AFE98B90246A0
:10FF600003213046FFF774FE68B9FF2286F830217E
:10FF70000121304601F0EFFF012386F8323110B93C
:10FF8000002386F8153140B213B0F0BD856B010037
:10FF9000A4700900012300F08EBD2DE9F0478EB05A
:10FFA0000C460C2304AA1421074601F0C6FF86461E
:10FFB000002840F08B809DF81B309DF81A509DF86A
:10FFC00016209DF81810A07503EB05259DF8173035
:10FFD000206003EB02229DF81930606003EB0123DF
:10FFE0009BB25B0223619DF812109DF81330AEB2F4
:10FFF00003EB012392B2B7F852519DF81010520250
:020000022000DC
:100000009BB2E260A382B5F57A7F97F831E11BD00D
:1000100075433E7F05F5FA754FF47A7095FBF0F065
:100020003D6A86B1ADB25D432D12AA4205D1BEF143
:10003000000F0DD148F6E02610E080B202FB00F67A
:10004000501BB6FBF0F086B2BEF1000F06D001E007
:1000500042F2B826B0102081B00101E026810020D4
:10006000E0750DF10F0001900094384601F05CFD41
:10007000864658BB9DF80FC084F818C007F150059C
:100080000FCD07AE0FC695E80700B4F808A0E37DD2
:10009000B4F80A90B4F81480ADF824A086E80700FC
:1000A000E16822696068ADF826900A910B92ADF87C
:1000B00030808DF833308DF834C007AC08900FCC09
:1000C00050370FC796E8070085E807004FFA8EF013
:1000D0000EB0BDE8F087000073B516460E210DF195
:1000E00006021C46054601F074FFBDF806200A4BC7
:1000F00052041340336058B90DF106020C21284612
:1001000001F067FFBDF80620034B52041340236043
:1001100040B202B070BD00BF0000FE1F73B590F882
:10012000DA30013B022B06460C4631D801AB6A4659
:100130000121FFF7D1FF009BB3F57F0F054603D8E0
:10014000019BB3F57F0F24D91DBB2CB1124930465A
:1001500001F014FB05461CE00422FF21304601F0AB
:10016000FAFE2A4604467021304601F0F4FE204390
:10017000C4B22A46FF21304601F0EDFE2043C4B24E
:100180002A468021304601F0E6FE2043C5B200E059
:10019000002568B202B070BD8421002037B5044646
:1001A00001228021057C01F0D6FE0122FF2120469C
:1001B00001F0D1FE00221146204601F0CCFE94F859
:1001C0003A219121204601F0C6FE0122002120465D
:1001D00001F0C1FE0022FF21204601F0BCFE0022FA
:1001E0008021204601F0B7FE012D21D002D3032D3E
:1001F00025D033E001220021204601F0ACFE01238E
:100200008DF8073068BB05469DF80730DB0705F120
:10021000010509D540B9C82D22D001460DF10702CC
:10022000204601F0CBFEEFE7C82D08BFF92018E00B
:1002300018B929462046FFF771FF022205E018B9D8
:1002400001212046FFF76AFF04220021204601F029
:1002500082FE30B9042384F8323102E0F82000E055
:10026000F92040B203B030BD38B5057C044625B155
:10027000204600F066FD20B107E0FFF78FFF20B9B0
:10028000F6E715B9032384F8323140B238BD73B5AF
:100290000646002501220B21304601F05CFE0022BB
:1002A00004460B21304601F056FE2043C4B20DF146
:1002B00007021321304601F081FE9DF807302043EC
:1002C00001355B07C0B2EDB204D0032D06D0002883
:1002D000E0D004E0032D08BFF42000E0F42040B299
:1002E00002B070BD38B50023037404460D46FFF715
:1002F000BBFF50B929462046FFF74FFE28B90146FB
:100300002046BDE83840FFF7C2BF40B238BDF8B55F
:1003100005461C469DF818700E46002940F0828064
:10032000142A08D1002F0CBF102201228421BDE81D
:10033000F84001F010BE152A67D10122FF2101F01B
:100340000AFE324604463146284601F004FE2043A8
:10035000C4B23246FF21284601F0FDFD2043C4B25D
:1003600001228021284601F0F6FD2043C4B202227A
:100370008521284601F0EFFD2043C4B20422FF216D
:10038000284601F0E8FD2043C4B23246CD2128467C
:1003900001F0E1FD2043C4B21122CC21284601F036
:1003A000DAFD2043C4B20722FF21284601F0D3FD25
:1003B0002043C4B23246BE21284601F0CCFD204382
:1003C000C4B20622FF21284601F0C5FD2043C4B275
:1003D0000922CC21284601F0BEFD2043C4B232469A
:1003E000FF21284601F0B7FD2043C4B20122FF21BE
:1003F000284601F0B0FD2043C4B2324631462846BB
:1004000001F0A9FD2043C0B229E0042C26D8DFE882
:1004100004F00D0B03050700022208E0032206E0AA
:10042000042204E0F6201AE0012200E000220A2162
:10043000284601F090FD90B9002F14BF102300232F
:10044000EF228421284601F09CFD40B985F8DA406E
:1004500001462846BDE8F840FFF719BFF52040B235
:10046000F8BD000070B596B005464022002106A8F0
:1004700003F050FD002301212846ADF80E308DF821
:100480000B308DF80C30049300F0ABFC95F8142180
:10049000012A06D895F8131101D1202900E00C2972
:1004A00005D903AA04A9284600F021FB02E028464A
:1004B00000F0B7F90446002840F09F8095F85031CD
:1004C00013B9D5F84C1100E04D49284601F056F912
:1004D0000446002840F091800094224621460423DF
:1004E0002846FFF714FF0446002840F086800122CA
:1004F000FF21284601F02FFD0DF10E020646842152
:10050000284601F066FD3043C6B22246FF21284648
:1005100001F021FD304310F0FF046ED1BDF80E3024
:100520001B01C5F8D43006A92846FFF722FC044673
:10053000002862D10DF10B012846FFF76FFA04463F
:1005400000285AD19DF80B3085F8313106AE0FCE18
:1005500005F110040FC40FCE0FC40FCE0FC496E8E0
:100560000F0084E80F000DF10B020121284601F075
:1005700025FD0446002840D19DF80B3085F8303128
:10058000024601462846FFF759FA0446A8BB024630
:1005900002212846FFF752FA044670BB03230146A6
:1005A00085F832310DF10D02284601F010F80446AD
:1005B00018BB9DF80D3085F8E8300DF10D020121D2
:1005C000284601F004F80446B8B99DF80D3085F8C6
:1005D000E03005AA03212846FFF79EFA044660B9D9
:1005E000059BC5F8E43005AA04212846FFF794FAD4
:1005F000044610B9059BC5F8DC3060B216B070BD7A
:100600009120002013B50C460DF10702132101F0D3
:10061000D5FC9DF8073013F0180F18BFFA2003F02F
:10062000070240B2226002B010BD13B590F8DA3074
:10063000042B0C4608D101A9FFF7E4FF019B042B12
:100640000BD0002323700BE001AA142101F0B6FCAB
:1006500030B99DF80430DB0701D50123F2E72070A3
:1006600040B202B010BD00F042BA13B50C460DF115
:100670000602282101F0ADFC60B9BDF80630C3F3D5
:100680000B03B3F5006F4FF0FA0228BFA3F58053B8
:100690005343236002B010BDF0B54FEAD20C4FF0C7
:1006A000FF341C6002F007024FEACC0766464FF0A9
:1006B000000E8E4219D2BEF1000F16D1855D66453F
:1006C00003BF1541EDB21446744615F0010F04D076
:1006D0003C441C604FF0010E04E00134082C4FEA4A
:1006E0005505F2D101360837E3E7F0BD034B800929
:1006F00053F82000003018BF012070473C23002031
:1007000010B5D4088C4202F007023FBF012303FA60
:1007100002F2035D1A4336BF0255CE20002040B2DC
:1007200010BD0A460623B02101F0F9BB0A46062394
:10073000B02101F002BC2DE9F04F87B00DF118098E
:10074000129C109F49F80C4D82468B4601921D4623
:100750004FF00008139B984517D04B462246394668
:100760000198FFF799FF039E731C10D0119BF0189E
:10077000FFF7BCFF58450AD1324639462846FFF7F5
:10078000BFFF741C08F10108E4E7002000E0CE2060
:10079000149B1C60A0B929465046FFF7C2FF0446CF
:1007A00070B904AE31465046FFF7C0FF23469F4262
:1007B00006D0E95CF25C914201D10133F7E7CE202B
:1007C00040B207B0BDE8F08F70B5C02288B00E46C9
:1007D0000121044690F8305101F0BDFBF0B901A9A8
:1007E0002046FFF77FFDC8B90122FF21204601F016
:1007F000B2FB98B93246B621204601F0EAFB68B94F
:100800000246FF21204601F0A6FB38B92A46012105
:10081000204601F0A0FB08B984F8305140B208B07E
:1008200070BD70B50E4688B01546FF210122044602
:1008300001F091FB0246A8B94F21204601F08BFB45
:1008400080B92C224E21204601F085FB024648B992
:10085000FF21204601F07FFB20B9B422B6212046BB
:1008600001F079FB002384F8243184F8253184F8E1
:10087000263184F8273184F8283184F8293145B1AC
:100880001A4602F1B400FFF731FF18B92C2A1AD129
:1008900000E02A4607AB04930292B42306228DE8B7
:1008A0000C00039604F5927304F5957229462046D0
:1008B000FFF741FF48B9012384F8153184F813612B
:1008C00084F8145101E00132DBE708B070BD10B5C7
:1008D00041F001020021044601F03DFB78B92046B9
:1008E00000F02FFA58B901462046FFF7D0FC30B986
:1008F000024601462046BDE8104001F02CBB40B244
:1009000010BD2DE9F74F4FF0000B89469046FF21AF
:10091000012205461F469DF838A09DF83C608DF8E1
:1009200007B001F018FB5A4604465946284601F024
:1009300012FB2043C4B25A46FF21284601F00BFBAC
:100940002043C4B2B9F1000F11D0BAF1000F06D0A4
:100950000C9ACB21284601F031FB2043C4B2CEB122
:100960000DF10702EE21284601F028FB10E0BAF154
:10097000000F06D04246CB21284601F0ECFA204376
:10098000C4B23EB13B468022EE21284601F0F9FA7E
:100990002043C4B20122FF21284601F0DCFA2043A3
:1009A000C4B201220021284601F0D5FA2043C4B286
:1009B0000022FF21284601F0CEFA9DF807300D9A5B
:1009C000204323F0100340B2137003B0BDE8F08F52
:1009D0002DE9F04186B017460022044688468DF87E
:1009E00017201E4613B190F8305100E01D46012239
:1009F0001146204601F0AFFAA0B940212046FFF78A
:100A000066FF78B9012F0DD10DF117030390019303
:100A1000024603460297CDF8008039462046FFF78C
:100A200070FF02E0002388F8003040B93EB12A464A
:100A30000121204601F08FFA08B984F8305140B204
:100A400006B0BDE8F0812DE9F041044686B0884645
:100A500017461E4613B190F8305100E01D460222A1
:100A60000121204601F077FAA0B901462046FFF7A0
:100A70002EFF78B9012F0DD10DF1170302900093CD
:100A8000024603460397CDF8048039462046FFF717
:100A900038FF02E0002388F8003040B93EB12A4612
:100AA0000121204601F057FA08B984F8305140B2CC
:100AB00006B0BDE8F081F8B51E4617460023324661
:100AC000044690F83051FFF783FF70B90346324671
:100AD00039462046FFF7B7FF38B92A46012120469C
:100AE00001F039FA08B984F8305140B2F8BD2DE967
:100AF000F04F91B000230891099280F8243180F8DA
:100B0000253180F8263180F8273180F8283180F8A7
:100B100029310122FF2104460C930D938DF82C30CE
:100B20008DF82D30B0F83C8101F015FA002840F026
:100B3000018102464F21204601F00DFA002840F0C5
:100B4000F9802C224E21204601F005FA002840F0C1
:100B5000F1800246FF21204601F0FDF9002840F017
:100B6000E980B422B621204601F0F5F9002840F0D2
:100B7000E18002468021204601F0EDF9002840F096
:100B8000D98003460DF12D020BA92046FFF793FFF4
:100B9000002840F0CF8010AE032346F8100D04F576
:100BA000957A04F592770393B425062302908DE895
:100BB0002800014604963B4652462046FFF7BBFDFF
:100BC000002840F0B7800DF12E0120460C9DFFF764
:100BD000FBFD002840F0AE80BDF82E30434533D9F0
:100BE00084F8240184F8250184F8260184F827017B
:100BF00084F8280184F8290105F1B400FFF776FD97
:100C000018B92B2D01D80135F6E70622B423049636
:100C100003268DE80C00039602953B4652460121BF
:100C20002046FFF788FD002840F084800DF12E015A
:100C300020460C9DFFF7C8FD00287BD1BDF82E3063
:100C4000434505D9012001E000200646814602E027
:100C500006464FF00109BDF82E30984559D9C8EB2A
:100C60000303002B3868BA880E90B8BF5B42ADF81A
:100C70003C2007934FF0030B2A4606210DAB50464C
:100C8000FFF70AFD0D9D691C56D005F1B400FFF772
:100C90002DFD48450BF101064ED106212A46384666
:100CA000FFF72EFD0146002847D139462046FFF7C1
:100CB00038FD0135014600283FD10DF12E012046B7
:100CC000FFF782FD0146002837D1BDF82E20C8EB82
:100CD0000203002BB8BF5B42904510D2079A9342A3
:100CE00015D90EA92046FFF71CFDBDF83C30014682
:100CF0000E98C4F82401BB80F9B95E4607E0386855
:100D0000BA880E90ADF83C20B3460793B4E75FFA7B
:100D100089F0089B1E60099B1870012384F8153127
:100D2000089B1B6884F81331099B1B7884F81431E5
:100D3000002102E0014600E0CE2148B211B0BDE83A
:100D4000F08F73B502AD002305F8013D0646C824B7
:100D500029463046FFF769FC50B99DF80730012B52
:100D600006D0013C03D0304601F049F9F0E7F92004
:100D700040B202B070BD10B501464FF080428A42C9
:100D800001D8002001E09208F9E74AB18418A14295
:100D90004FEA500326BFD018091B18469208F4E703
:100DA00010BD73B500228321064601F0D4F8044635
:100DB00070B9C8250DF107028321304601F0FEF815
:100DC0009DF8073004461BB910B9013DF2D1F92452
:100DD00001228321304601F0BEF8204340B202B028
:100DE00070BD2DE9F04F90F8F07091B04FF0000811
:100DF000072F04468946CDF81C80CDF8208000F0EE
:100E000059820122802101F0A6F801220646FF2125
:100E1000204601F0A0F83043C6B242464146204683
:100E200001F099F83043C6B20622FF21204601F0B6
:100E300092F83043C6B20DF115028321204601F02D
:100E4000BDF89DF815203043C6B242F0040283215C
:100E5000204601F080F83043C6B20722FF21204629
:100E600001F079F83043C6B201228121204601F019
:100E700072F83043C6B2204601F0C1F83043C6B222
:100E800001228021204601F066F819F0010A40EAAB
:100E90000600C5B253D0FB0754D46B2294212046E0
:100EA00001F059F806462046FFF77BFF3043054323
:100EB00006AA9021204601F097F8EDB22843C5B26A
:100EC000069824229421C0F3062BC0F3C038204694
:100ED00001F041F82843C5B22046FFF762FF2843DE
:100EE000C5B206AA9021204601F07EF8069B8DF837
:100EF00027301A0E8DF824201A0C28438DF825204F
:100F00001A0AC5B294218DF826202046252201F028
:100F100022F82843C5B22046FFF743FF2843C5B255
:100F200006AA9021204601F05FF8069B28431A0E7E
:100F30001B0CC5B28DF828208DF8293003E0D0466F
:100F4000D34600E0C34609F0020303F0FF02029219
:100F5000002B00F0DE8007F0020303F0FF06002BF9
:100F600040F0D78002229421204600F0F4FF019047
:100F70002046FFF716FF019B184305430DF11602AB
:100F80009021204601F01AF8EDB22843C5B27B2229
:100F90009421204600F0DFFF2843C5B22046FFF72A
:100FA00000FF2843C5B20DF117029021204601F041
:100FB00005F82843C5B277229421204600F0CBFFE4
:100FC0002843C5B22046FFF7ECFE2843C5B206AA67
:100FD0009021204601F008F8069B5A0E8DF82C202F
:100FE000C3F386428DF82D20C3F3C62228438DF823
:100FF0002E20C3F30612DB0003F07803C5B2942160
:101000008DF82F20204678228DF8153000F0A3FFB0
:101010002843C5B22046FFF7C4FE2843C5B206AA3E
:101020009021204600F0E0FF069B9DF8152002EB82
:1010300053728DF83020C3F386528DF83120C3F3FC
:10104000C6328DF83220C3F3062228438DF83320B0
:10105000C3F346029B0103F04003C5B294218DF80F
:101060003420204679228DF8153000F074FF284393
:10107000C5B22046FFF795FE2843C5B206AA9021C7
:10108000204600F0B1FF069B9DF8152002EB93620D
:101090008DF83520C3F3C6428DF83620C3F30632EF
:1010A00028438DF83720C3F346129B0003F07C03DE
:1010B000C5B294218DF8382020467A228DF815305B
:1010C00000F049FF2843C5B22046FFF76AFE2843D7
:1010D000C5B206AA9021204600F086FF069B9DF827
:1010E00015208DF83E6002EB93728DF83920C3F322
:1010F000C6528DF83A20C3F3064228438DF83B20B0
:10110000C3F34622C3F38603C5B28DF83C208DF8A5
:101110003D3009F0040303F0FF020192002B00F0C0
:1011200084807E0700F183807B229421204600F09A
:1011300012FF06462046FFF734FE3043054307AA58
:101140009021204600F050FFEDB22843C5B27C222A
:101150009421204600F0FFFE2843C5B22046FFF749
:1011600020FE2843C5B208AA9021204600F03CFF8B
:101170002843C5B273229421204600F0ECFE284398
:10118000C5B22046FFF70DFE2843C5B206AA90213E
:10119000204600F029FF2843C5B27422942120463E
:1011A000069E00F0D8FE2843C5B22046FFF7F9FDA1
:1011B0002843C5B206AA9021204600F015FF36024A
:1011C0009DF81B302843C5B275229421B6B2204643
:1011D0001E4300F0C0FE2843C5B22046FFF7E1FDE4
:1011E0002843C5B206AA9021204600F0FDFE069BCA
:1011F00028431B029BB2C5B276229421204603935A
:1012000000F0A9FE2843C5B22046FFF7CAFD2843D7
:10121000C5B206AA9021204600F0E6FE9DF81B20EC
:10122000039B2843C5B2134303E0019E00E0002660
:101230003346002281212046039300F08CFE284390
:10124000C5B20622FF21204600F085FE2843C5B224
:101250000DF115028321204600F0B0FE9DF8152007
:101260002843C5B202F0FB028321204600F073FE42
:101270002843C5B20122FF21204600F06CFE28431E
:10128000C5B201220021204600F065FE2843C5B208
:101290000022FF21204600F05EFE2843C5B2002256
:1012A0008021204600F057FE284310F0FF05039BE5
:1012B00046D101E0454643E0BAF1000F01D0F807FE
:1012C00002D5029A7AB91FE084F813B184F8148128
:1012D00004F229112A4609A8105C01F8010F013215
:1012E000062AF8D1EDE7B9070ED49DF8162084F848
:1012F000F1209DF8172084F8F2200BA904F1F300E7
:10130000029303F06BFC029B019AAAB17A0713D4F3
:10131000079AC4F818217602089AC4F81C21C4F868
:1013200020613BB1A3F5C8534FF47A7253431B09B4
:101330005B429BB21BB2E36047EA090784F8F07096
:1013400068B211B0BDE8F08F60B10138002330F011
:10135000FF019AB203F1010301D04008F7E700EB67
:10136000022080B27047C3B2000A03FA00F00130D5
:101370007047000008484FF47A73424302F5FA724E
:101380004FF4FA60B2FBF0F0B2FBF3F203FB0100A2
:10139000B0FBF2F0704700BF002F3A0010B5084BC9
:1013A0005A4302F5FA724FF47A704FF4FA64B2FBC2
:1013B000F0F3B2FBF4F201FB0321B1FBF0F010BD3E
:1013C000002F3A00F0B585B00025022906461746E1
:1013D0008DF80350ADF8045010D80DF102022946E3
:1013E000FEF72AFB044630B90DF1030246213046D0
:1013F00000F0E4FD04469DF8030019E003291DD127
:101400000DF102022946FEF717FB0446002851D1D0
:1014100001460DF102023046FEF70EFB044628B9E4
:1014200001AA5121304600F0D4FD0446BDF8040065
:10143000FFF799FF9DF8022081B237E004293BD1E4
:1014400002A9FEF74DFB9DF80B10A1B10DF10202B0
:1014500029463046FEF7F0FA044610BB01AA512196
:10146000304600F0B6FD0446BDF80400FFF77BFFF0
:1014700085B2B4B900E00D460DF1020201213046FB
:10148000FEF7DAFA044660B90DF106027121304622
:1014900000F09FFD0446BDF80600FFF764FF80B230
:1014A00000E00020411B9DF8022089B23046FFF782
:1014B00075FF03E0284601E028462C46386060B2FC
:1014C00005B0F0BDF0B5022985B0054617461DD818
:1014D0000DF105020021FEF7AFFA0446002873D192
:1014E0009DF8052039462846FFF744FF83B2B3F53F
:1014F000807F9ABF00F1FF32D2B2FF22A5F8D82038
:101500004621284600F027FD04465DE003291FD14F
:101510000DF105020021FEF78FFA9DF805203946EE
:1015200004462846FFF726FF80B2FFF70DFF02466C
:10153000ADF80600A5F8D800002C45D15121284669
:1015400000F014FD044600283ED1C5F8E4703BE0ED
:10155000042923D102A9FEF7C3FA9DF80B60A6B1B6
:101560000DF1050200212846FEF766FA044658BB35
:101570000DF106025121284600F02BFD0446BDF86E
:101580000600FFF7F0FEFCB986B20DF1050201215D
:101590002846FEF751FA0446B0B901E0FC2413E0F6
:1015A0009DF8052039462846FFF7E4FE16FA80F03C
:1015B00080B2FFF7C9FE71210246284600F0D6FC32
:1015C000044608B9C5F8DC7060B205B0F0BD13B5CB
:1015D000144629B101290FD10DF10702702102E053
:1015E0000DF10702502100F0E9FC30B99DF80730F9
:1015F00001335B00237000E0FC2040B202B010BD5C
:101600007FB500234FF4FA628DE80C0044F61F63A7
:10161000994205460E4649D902A9FEF761FA00280B
:1016200045D19DF80830A6F6E8042BB99DF809309D
:1016300013B99DF80A30FBB16A4602212846FFF72C
:10164000C1FEA0BB9DF808302BB1009B03F24E23D6
:101650009C422BD9E41A9DF80A3023B1009B03F277
:10166000B2235B0005E09DF809302BB1009B03F528
:101670002573A3421AD2E41A9DF80B305BB101AA7C
:1016800003212846FFF79EFE019B03F52573A34225
:101690000CD260B9E41A9DF80C0040B1A4F22622E5
:1016A00004212846FFF70EFF6E6100E0FC2040B2E7
:1016B00004B070BD70B586B04FF4FA630293002396
:1016C000039340F636330B600C4604A90646FEF73A
:1016D00007FA054600284ED19DF810302BB99DF829
:1016E000113013B99DF8123013B302AA022130460B
:1016F000FFF768FE00283DD19DF810302BB1029B0A
:10170000226803F24E23134423609DF8123033B154
:10171000029B03F2B222236803EB420307E09DF829
:1017200011302BB1029B226803F52573134423600B
:101730009DF813305BB103AA03213046FFF742FE48
:10174000039B226803F525731344236090B99DF829
:10175000143013B9236873610DE001AA04213046E7
:10176000FFF730FE019B226803F226231344236017
:101770000028EFD0054668B206B070BDF7B500226C
:1017800006460D46104601AFAB5C05EB020E002B82
:1017900046D0002844D1FF2B02F101042ED12B5D4D
:1017A000941C032B03D8DFE803F0050E1720FC2060
:1017B0002246E9E7295D9EF8033003EB0123141D5F
:1017C000A6F83431F4E7295D9EF8033003EB0123DA
:1017D000141DA6F83631EBE7295D9EF8033003EBC4
:1017E0000123141DA6F83831E2E7295D9EF8033085
:1017F00003EB0123141DA6F83C31D9E7042BD6D8FE
:10180000295D941C984205DA0EEB000292783A5456
:101810000130F7E73A4630461C4400F080FBC7E74A
:1018200040B203B0F0BD73B500230E4613600DF156
:10183000070105461446FEF7A2F940B99DF80730A6
:101840002BB1B28A2B6A534380331B0A236002B048
:1018500070BD13B5CB681360144601AAFFF7E3FF10
:1018600018B92268019B1344236002B010BD000028
:10187000F8B5B0F85461D0F85801079D089F70433F
:101880008030000A464352B1500800EB8121B1FB81
:10189000F2F202EB4202524302F50042120C0699A8
:1018A0004B4305F50041090C06200331B1FBF0F173
:1018B000C1EBC101B1F5803F38BF033503F50043EB
:1018C0003EBFB5FBF0F5C5EBC50505F500454FEA94
:1018D000134334BF280C1B4803FB03F303EB5703EC
:1018E00038BF40431844B0FBF7F0830303F17F0097
:1018F000FE24B0FBF4F306F12000800903FB02F4A0
:10190000FFF739FA4FF47A7504F5FA74B4FBF5F47D
:10191000240104F5FA740746B4FBF5F53DB14FF424
:10192000FA60B4FBF0F43444B4FBF5F000E0284670
:10193000FFF721FA099B874294BF1F6018600020BF
:10194000F8BD00BF0000F0FF2DE9F04F8DB09A46C2
:10195000036A0A930B6905930546CB68069389468B
:1019600093460BAAFFF775FF0AAA49462846FFF7D8
:101970005AFF0746002840F0CC8095F8E040D5F8A3
:10198000DC1022462846FFF7F5FC95F8E820D5F84C
:10199000E41080462846FFF7EDFC0B990A9B4FF4B4
:1019A0007A76082C06FB01F401F1800104F500446D
:1019B0004FEA11214FEA012214BF4FF0030E4FF0FE
:1019C000020E240C07920B92544A06D1CBF8002049
:1019D000C5F84021CAF800709BE04044C0020EFBED
:1019E00000FE40F277670EF5FA7EBEFBF6FE07FBBF
:1019F0000EF707F5FA77B7FBF6F779438031090A56
:101A000006FB03F308BF0121B3F5481F28BF4FF4BD
:101A100048130893059B4248099206FB03F84FEAD6
:101A200018484FEA0848B8FBF4F8804528BF8046BC
:101A30004FF4167000FB08F80C204843FFF79BF9A1
:101A4000089B05902404C3F5FA7003F5FA7320444B
:101A50002344B0FBF6F0B9F80840B3FBF6F30002FC
:101A6000B0FBF3F32F48604341F25C24B0FBF4F089
:101A70001C02C4F58034444304F50044240C04F5EE
:101A8000803464086443A40B4FF4487909FB04F0E4
:101A900008F5004300F500401B0C5B43000C00FB05
:101AA0000030FFF768F90599000464233230B0FB79
:101AB000F3F040F6B5334900B0FBF1F1594301F5BD
:101AC0009C5142F210700831B1FBF0F1B1F5704F4A
:101AD00028BF4FF4704101FB01F000F5885004303D
:101AE000FFF749F9099A02977043904228BF1046C0
:101AF000CBF80000CDF80CA0C5F84001CDF804806B
:101B0000CDF800902346069A07992846FFF7B0FEC5
:101B1000074678B20DB0BDE8F08F00BFAE878F02E8
:101B2000666666009A9906002DE9F04F8BB04FEA81
:101B3000D1099B4600238DF80E308DF80F308DF8BB
:101B400010308DF81130ADF81230099309F00F07FD
:101B50004FF2A103FB40904603F001030122FF2155
:101B60000446159E019300F0F6F928B90DF1120212
:101B7000B621204600F02DFABDF812A04FEA4A2AFD
:101B800020B90246FF21204600F0E5F9C4F848A13B
:101B900028B901460DF10E022046FEF74AF89DF8DD
:101BA0000E50D5B1002840F0AF8009AB05AA1499BA
:101BB0002046FFF7C9FE002840F0A680149A099B32
:101BC0005381014606AA2046FEF76FF8069D25B10F
:101BD000059B9D422CBF0025012520B904AA0221A6
:101BE0002046FEF726F89DF8103073B1B0B907AA69
:101BF00002212046FEF759F8079B33B19A4594BF5E
:101C00004FF0000A4FF0010A00E09A4640B90DF18A
:101C1000110203212046FEF70CF801E04FF0000A04
:101C20009DF81130C3B100283ED1BBF1000F04D0A4
:101C30004FEA0828B8FBFBF800E0D84608AA0321C1
:101C40002046FEF732F8089B33B198452CBF4FF081
:101C5000000B4FF0010B00E09B4638BB019B0BB122
:101C6000FF231AE07B1E022B01D8052315E0062F67
:101C700001D0092F01D104230FE009F00D09B9F1BA
:101C8000080F02D0BAF1010F01D1032305E0042FA0
:101C900002D0BBF1010F02D10223337006E0012D07
:101CA00006BF0123337030704FF0000B33780BB94F
:101CB000149A53810DF10F0201212046FDF7B9FF5F
:101CC00020BB9DF80E30002B08BF0125042F18BF44
:101CD0009DF80F3084F82E501ABFB3FA83F35B09D6
:101CE000012384F82F309DF81030002B9DF811301F
:101CF00008BF4FF0010A002B08BF4FF0010B84F81A
:101D000030A084F831B001E000256CE70BB0BDE8ED
:101D1000F08F0000F8B50F46022106461446FFF783
:101D200060F8054670B996F8F13004F1400013B937
:101D30003D70054904E096F8F2303B7006F1F3017E
:101D400002F04CFF2846F8BDF26B020037B50C4696
:101D50000A460DF107010546FFF7DCFF60BB9DF861
:101D600007300BB916490AE0222B03D8202B03D0E9
:101D7000144904E0262B01D8134900E013492046FA
:101D800002F02CFF124904F1200002F027FF04F1B9
:101D90006002C021284600F011F968B90DF1060271
:101DA000C221284600F00AF9012384F861309DF829
